{"contracts/ZkVotingFinal.sol":{"ZkVotingFinal":{"abi":[{"inputs":[{"internalType":"address","name":"_verifierD1","type":"address"},{"internalType":"address","name":"_verifierD2","type":"address"},{"internalType":"address","name":"_tonToken","type":"address"},{"internalType":"address","name":"_treasury","type":"address"}],"stateMutability":"nonpayable","type":"constructor"},{"inputs":[],"name":"AlreadyRevealed","type":"error"},{"inputs":[],"name":"CommitmentNotFound","type":"error"},{"inputs":[],"name":"InsufficientCredits","type":"error"},{"inputs":[],"name":"InvalidChoice","type":"error"},{"inputs":[],"name":"InvalidCreditRoot","type":"error"},{"inputs":[],"name":"InvalidMerkleRoot","type":"error"},{"inputs":[],"name":"InvalidProof","type":"error"},{"inputs":[],"name":"InvalidQuadraticCost","type":"error"},{"inputs":[],"name":"InvalidReveal","type":"error"},{"inputs":[],"name":"NotInCommitPhase","type":"error"},{"inputs":[],"name":"NotInRevealPhase","type":"error"},{"inputs":[],"name":"NullifierAlreadyUsed","type":"error"},{"inputs":[],"name":"ProposalNotFound","type":"error"},{"inputs":[],"name":"ZeroVotingPower","type":"error"},{"anonymous":false,"inputs":[{"indexed":true,"internalType":"uint256","name":"creditNoteHash","type":"uint256"},{"indexed":false,"internalType":"uint256","name":"timestamp","type":"uint256"}],"name":"CreditNoteRegistered","type":"event"},{"anonymous":false,"inputs":[{"indexed":true,"internalType":"uint256","name":"creditRoot","type":"uint256"},{"indexed":false,"internalType":"uint256","name":"timestamp","type":"uint256"}],"name":"CreditRootRegistered","type":"event"},{"anonymous":false,"inputs":[{"indexed":true,"internalType":"address","name":"user","type":"address"},{"indexed":false,"internalType":"uint256","name":"amount","type":"uint256"},{"indexed":false,"internalType":"uint256","name":"remaining","type":"uint256"}],"name":"CreditsBurned","type":"event"},{"anonymous":false,"inputs":[{"indexed":true,"internalType":"address","name":"user","type":"address"},{"indexed":false,"internalType":"uint256","name":"credits","type":"uint256"}],"name":"CreditsInitialized","type":"event"},{"anonymous":false,"inputs":[{"indexed":true,"internalType":"address","name":"user","type":"address"},{"indexed":false,"internalType":"uint256","name":"amount","type":"uint256"},{"indexed":false,"internalType":"uint256","name":"total","type":"uint256"}],"name":"CreditsMinted","type":"event"},{"anonymous":false,"inputs":[{"indexed":true,"internalType":"uint256","name":"merkleRoot","type":"uint256"},{"indexed":false,"internalType":"uint256","name":"timestamp","type":"uint256"}],"name":"MerkleRootRegistered","type":"event"},{"anonymous":false,"inputs":[{"indexed":true,"internalType":"uint256","name":"proposalId","type":"uint256"},{"indexed":false,"internalType":"string","name":"title","type":"string"},{"indexed":true,"internalType":"address","name":"proposer","type":"address"},{"indexed":false,"internalType":"uint256","name":"merkleRoot","type":"uint256"},{"indexed":false,"internalType":"uint256","name":"endTime","type":"uint256"},{"indexed":false,"internalType":"uint256","name":"revealEndTime","type":"uint256"}],"name":"ProposalCreatedD1","type":"event"},{"anonymous":false,"inputs":[{"indexed":true,"internalType":"uint256","name":"proposalId","type":"uint256"},{"indexed":false,"internalType":"string","name":"title","type":"string"},{"indexed":true,"internalType":"address","name":"proposer","type":"address"},{"indexed":false,"internalType":"uint256","name":"creditRoot","type":"uint256"},{"indexed":false,"internalType":"uint256","name":"endTime","type":"uint256"},{"indexed":false,"internalType":"uint256","name":"revealEndTime","type":"uint256"}],"name":"ProposalCreatedD2","type":"event"},{"anonymous":false,"inputs":[{"indexed":true,"internalType":"uint256","name":"proposalId","type":"uint256"},{"indexed":true,"internalType":"uint256","name":"nullifier","type":"uint256"},{"indexed":false,"internalType":"uint256","name":"commitment","type":"uint256"},{"indexed":false,"internalType":"uint256","name":"votingPower","type":"uint256"}],"name":"VoteCommittedD1","type":"event"},{"anonymous":false,"inputs":[{"indexed":true,"internalType":"uint256","name":"proposalId","type":"uint256"},{"indexed":true,"internalType":"uint256","name":"nullifier","type":"uint256"},{"indexed":false,"internalType":"uint256","name":"commitment","type":"uint256"},{"indexed":false,"internalType":"uint256","name":"numVotes","type":"uint256"},{"indexed":false,"internalType":"uint256","name":"creditsSpent","type":"uint256"}],"name":"VoteCommittedD2","type":"event"},{"anonymous":false,"inputs":[{"indexed":true,"internalType":"uint256","name":"proposalId","type":"uint256"},{"indexed":true,"internalType":"uint256","name":"nullifier","type":"uint256"},{"indexed":false,"internalType":"uint256","name":"choice","type":"uint256"},{"indexed":false,"internalType":"uint256","name":"votingPower","type":"uint256"}],"name":"VoteRevealedD1","type":"event"},{"anonymous":false,"inputs":[{"indexed":true,"internalType":"uint256","name":"proposalId","type":"uint256"},{"indexed":true,"internalType":"uint256","name":"nullifier","type":"uint256"},{"indexed":false,"internalType":"uint256","name":"choice","type":"uint256"},{"indexed":false,"internalType":"uint256","name":"numVotes","type":"uint256"},{"indexed":false,"internalType":"uint256","name":"creditsSpent","type":"uint256"}],"name":"VoteRevealedD2","type":"event"},{"anonymous":false,"inputs":[{"indexed":true,"internalType":"uint256","name":"noteHash","type":"uint256"},{"indexed":false,"internalType":"uint256","name":"timestamp","type":"uint256"}],"name":"VoterRegistered","type":"event"},{"inputs":[],"name":"CHOICE_ABSTAIN","outputs":[{"internalType":"uint256","name":"","type":"uint256"}],"stateMutability":"view","type":"function"},{"inputs":[],"name":"CHOICE_AGAINST","outputs":[{"internalType":"uint256","name":"","type":"uint256"}],"stateMutability":"view","type":"function"},{"inputs":[],"name":"CHOICE_FOR","outputs":[{"internalType":"uint256","name":"","type":"uint256"}],"stateMutability":"view","type":"function"},{"inputs":[],"name":"INITIAL_CREDITS","outputs":[{"internalType":"uint256","name":"","type":"uint256"}],"stateMutability":"view","type":"function"},{"inputs":[{"internalType":"uint256","name":"numVotes","type":"uint256"}],"name":"calculateQuadraticCost","outputs":[{"internalType":"uint256","name":"","type":"uint256"}],"stateMutability":"pure","type":"function"},{"inputs":[{"internalType":"uint256","name":"_proposalId","type":"uint256"},{"internalType":"uint256","name":"_commitment","type":"uint256"},{"internalType":"uint256","name":"_votingPower","type":"uint256"},{"internalType":"uint256","name":"_nullifier","type":"uint256"},{"internalType":"uint256[2]","name":"_pA","type":"uint256[2]"},{"internalType":"uint256[2][2]","name":"_pB","type":"uint256[2][2]"},{"internalType":"uint256[2]","name":"_pC","type":"uint256[2]"}],"name":"castVoteD1","outputs":[],"stateMutability":"nonpayable","type":"function"},{"inputs":[{"internalType":"uint256","name":"_proposalId","type":"uint256"},{"internalType":"uint256","name":"_commitment","type":"uint256"},{"internalType":"uint256","name":"_numVotes","type":"uint256"},{"internalType":"uint256","name":"_creditsSpent","type":"uint256"},{"internalType":"uint256","name":"_nullifier","type":"uint256"},{"internalType":"uint256[2]","name":"_pA","type":"uint256[2]"},{"internalType":"uint256[2][2]","name":"_pB","type":"uint256[2][2]"},{"internalType":"uint256[2]","name":"_pC","type":"uint256[2]"}],"name":"castVoteD2","outputs":[],"stateMutability":"nonpayable","type":"function"},{"inputs":[{"internalType":"uint256","name":"","type":"uint256"},{"internalType":"uint256","name":"","type":"uint256"}],"name":"commitmentsD1","outputs":[{"internalType":"uint256","name":"commitment","type":"uint256"},{"internalType":"uint256","name":"votingPower","type":"uint256"},{"internalType":"uint256","name":"nullifier","type":"uint256"},{"internalType":"uint256","name":"timestamp","type":"uint256"},{"internalType":"bool","name":"revealed","type":"bool"},{"internalType":"uint256","name":"revealedChoice","type":"uint256"},{"internalType":"bool","name":"exists","type":"bool"}],"stateMutability":"view","type":"function"},{"inputs":[{"internalType":"uint256","name":"","type":"uint256"},{"internalType":"uint256","name":"","type":"uint256"}],"name":"commitmentsD2","outputs":[{"internalType":"uint256","name":"commitment","type":"uint256"},{"internalType":"uint256","name":"creditsSpent","type":"uint256"},{"internalType":"uint256","name":"numVotes","type":"uint256"},{"internalType":"uint256","name":"nullifier","type":"uint256"},{"internalType":"uint256","name":"timestamp","type":"uint256"},{"internalType":"bool","name":"revealed","type":"bool"},{"internalType":"uint256","name":"revealedChoice","type":"uint256"},{"internalType":"bool","name":"exists","type":"bool"}],"stateMutability":"view","type":"function"},{"inputs":[{"internalType":"string","name":"_title","type":"string"},{"internalType":"string","name":"_description","type":"string"},{"internalType":"uint256","name":"_merkleRoot","type":"uint256"},{"internalType":"uint256","name":"_votingDuration","type":"uint256"},{"internalType":"uint256","name":"_revealDuration","type":"uint256"}],"name":"createProposalD1","outputs":[{"internalType":"uint256","name":"","type":"uint256"}],"stateMutability":"nonpayable","type":"function"},{"inputs":[{"internalType":"string","name":"_title","type":"string"},{"internalType":"string","name":"_description","type":"string"},{"internalType":"uint256","name":"_creditRoot","type":"uint256"},{"internalType":"uint256","name":"_votingDuration","type":"uint256"},{"internalType":"uint256","name":"_revealDuration","type":"uint256"}],"name":"createProposalD2","outputs":[{"internalType":"uint256","name":"","type":"uint256"}],"stateMutability":"nonpayable","type":"function"},{"inputs":[{"internalType":"uint256","name":"","type":"uint256"}],"name":"creditRootHistory","outputs":[{"internalType":"uint256","name":"","type":"uint256"}],"stateMutability":"view","type":"function"},{"inputs":[{"internalType":"address","name":"user","type":"address"}],"name":"getAvailableCredits","outputs":[{"internalType":"uint256","name":"","type":"uint256"}],"stateMutability":"view","type":"function"},{"inputs":[{"internalType":"uint256","name":"_proposalId","type":"uint256"}],"name":"getPhaseD2","outputs":[{"internalType":"uint8","name":"","type":"uint8"}],"stateMutability":"view","type":"function"},{"inputs":[{"internalType":"uint256","name":"_proposalId","type":"uint256"}],"name":"getProposalD1","outputs":[{"internalType":"uint256","name":"id","type":"uint256"},{"internalType":"string","name":"title","type":"string"},{"internalType":"string","name":"description","type":"string"},{"internalType":"address","name":"proposer","type":"address"},{"internalType":"uint256","name":"merkleRoot","type":"uint256"},{"internalType":"uint256","name":"endTime","type":"uint256"},{"internalType":"uint256","name":"revealEndTime","type":"uint256"},{"internalType":"uint256","name":"forVotes","type":"uint256"},{"internalType":"uint256","name":"againstVotes","type":"uint256"},{"internalType":"uint256","name":"abstainVotes","type":"uint256"},{"internalType":"uint256","name":"totalCommitments","type":"uint256"},{"internalType":"uint256","name":"revealedVotes","type":"uint256"},{"internalType":"uint8","name":"phase","type":"uint8"}],"stateMutability":"view","type":"function"},{"inputs":[{"internalType":"uint256","name":"_proposalId","type":"uint256"}],"name":"getProposalD2","outputs":[{"internalType":"uint256","name":"id","type":"uint256"},{"internalType":"string","name":"title","type":"string"},{"internalType":"string","name":"description","type":"string"},{"internalType":"address","name":"proposer","type":"address"},{"internalType":"uint256","name":"creditRoot","type":"uint256"},{"internalType":"uint256","name":"endTime","type":"uint256"},{"internalType":"uint256","name":"revealEndTime","type":"uint256"},{"internalType":"uint256","name":"forVotes","type":"uint256"},{"internalType":"uint256","name":"againstVotes","type":"uint256"},{"internalType":"uint256","name":"abstainVotes","type":"uint256"},{"internalType":"uint256","name":"totalCreditsSpent","type":"uint256"},{"internalType":"uint256","name":"totalCommitments","type":"uint256"},{"internalType":"uint256","name":"revealedVotes","type":"uint256"},{"internalType":"uint8","name":"phase","type":"uint8"}],"stateMutability":"view","type":"function"},{"inputs":[],"name":"getRegisteredCreditNotes","outputs":[{"internalType":"uint256[]","name":"","type":"uint256[]"}],"stateMutability":"view","type":"function"},{"inputs":[],"name":"getRegisteredVoters","outputs":[{"internalType":"uint256[]","name":"","type":"uint256[]"}],"stateMutability":"view","type":"function"},{"inputs":[],"name":"getVoterCount","outputs":[{"internalType":"uint256","name":"","type":"uint256"}],"stateMutability":"view","type":"function"},{"inputs":[],"name":"initializeCredits","outputs":[],"stateMutability":"nonpayable","type":"function"},{"inputs":[{"internalType":"uint256","name":"","type":"uint256"}],"name":"isCreditNoteRegistered","outputs":[{"internalType":"bool","name":"","type":"bool"}],"stateMutability":"view","type":"function"},{"inputs":[{"internalType":"uint256","name":"_creditRoot","type":"uint256"}],"name":"isCreditRootValid","outputs":[{"internalType":"bool","name":"","type":"bool"}],"stateMutability":"view","type":"function"},{"inputs":[{"internalType":"uint256","name":"_merkleRoot","type":"uint256"}],"name":"isMerkleRootValid","outputs":[{"internalType":"bool","name":"","type":"bool"}],"stateMutability":"view","type":"function"},{"inputs":[{"internalType":"uint256","name":"","type":"uint256"}],"name":"isVoterRegistered","outputs":[{"internalType":"bool","name":"","type":"bool"}],"stateMutability":"view","type":"function"},{"inputs":[{"internalType":"uint256","name":"","type":"uint256"}],"name":"merkleRootHistory","outputs":[{"internalType":"uint256","name":"","type":"uint256"}],"stateMutability":"view","type":"function"},{"inputs":[{"internalType":"uint256","name":"amount","type":"uint256"}],"name":"mintTestTokens","outputs":[],"stateMutability":"nonpayable","type":"function"},{"inputs":[{"internalType":"uint256","name":"","type":"uint256"},{"internalType":"uint256","name":"","type":"uint256"}],"name":"nullifierUsedD1","outputs":[{"internalType":"bool","name":"","type":"bool"}],"stateMutability":"view","type":"function"},{"inputs":[{"internalType":"uint256","name":"","type":"uint256"},{"internalType":"uint256","name":"","type":"uint256"}],"name":"nullifierUsedD2","outputs":[{"internalType":"bool","name":"","type":"bool"}],"stateMutability":"view","type":"function"},{"inputs":[{"internalType":"address","name":"owner","type":"address"},{"internalType":"address","name":"spender","type":"address"},{"internalType":"uint256","name":"amount","type":"uint256"},{"internalType":"bytes","name":"data","type":"bytes"}],"name":"onApprove","outputs":[{"internalType":"bool","name":"","type":"bool"}],"stateMutability":"nonpayable","type":"function"},{"inputs":[],"name":"proposalCountD1","outputs":[{"internalType":"uint256","name":"","type":"uint256"}],"stateMutability":"view","type":"function"},{"inputs":[],"name":"proposalCountD2","outputs":[{"internalType":"uint256","name":"","type":"uint256"}],"stateMutability":"view","type":"function"},{"inputs":[{"internalType":"uint256","name":"","type":"uint256"},{"internalType":"uint256","name":"","type":"uint256"}],"name":"proposalVoterSnapshots","outputs":[{"internalType":"uint256","name":"","type":"uint256"}],"stateMutability":"view","type":"function"},{"inputs":[{"internalType":"uint256","name":"","type":"uint256"}],"name":"proposalsD1","outputs":[{"internalType":"uint256","name":"id","type":"uint256"},{"internalType":"string","name":"title","type":"string"},{"internalType":"string","name":"description","type":"string"},{"internalType":"address","name":"proposer","type":"address"},{"internalType":"uint256","name":"startTime","type":"uint256"},{"internalType":"uint256","name":"endTime","type":"uint256"},{"internalType":"uint256","name":"revealEndTime","type":"uint256"},{"internalType":"uint256","name":"merkleRoot","type":"uint256"},{"internalType":"uint256","name":"forVotes","type":"uint256"},{"internalType":"uint256","name":"againstVotes","type":"uint256"},{"internalType":"uint256","name":"abstainVotes","type":"uint256"},{"internalType":"uint256","name":"totalCommitments","type":"uint256"},{"internalType":"uint256","name":"revealedVotes","type":"uint256"},{"internalType":"bool","name":"exists","type":"bool"}],"stateMutability":"view","type":"function"},{"inputs":[{"internalType":"uint256","name":"","type":"uint256"}],"name":"proposalsD2","outputs":[{"internalType":"uint256","name":"id","type":"uint256"},{"internalType":"string","name":"title","type":"string"},{"internalType":"string","name":"description","type":"string"},{"internalType":"address","name":"proposer","type":"address"},{"internalType":"uint256","name":"startTime","type":"uint256"},{"internalType":"uint256","name":"endTime","type":"uint256"},{"internalType":"uint256","name":"revealEndTime","type":"uint256"},{"internalType":"uint256","name":"creditRoot","type":"uint256"},{"internalType":"uint256","name":"forVotes","type":"uint256"},{"internalType":"uint256","name":"againstVotes","type":"uint256"},{"internalType":"uint256","name":"abstainVotes","type":"uint256"},{"internalType":"uint256","name":"totalCreditsSpent","type":"uint256"},{"internalType":"uint256","name":"totalCommitments","type":"uint256"},{"internalType":"uint256","name":"revealedVotes","type":"uint256"},{"internalType":"bool","name":"exists","type":"bool"}],"stateMutability":"view","type":"function"},{"inputs":[{"internalType":"uint256","name":"_creditNoteHash","type":"uint256"}],"name":"registerCreditNote","outputs":[],"stateMutability":"nonpayable","type":"function"},{"inputs":[{"internalType":"uint256","name":"_creditRoot","type":"uint256"}],"name":"registerCreditRoot","outputs":[],"stateMutability":"nonpayable","type":"function"},{"inputs":[{"internalType":"uint256","name":"_merkleRoot","type":"uint256"}],"name":"registerMerkleRoot","outputs":[],"stateMutability":"nonpayable","type":"function"},{"inputs":[{"internalType":"uint256","name":"_noteHash","type":"uint256"}],"name":"registerVoter","outputs":[],"stateMutability":"nonpayable","type":"function"},{"inputs":[{"internalType":"uint256","name":"","type":"uint256"}],"name":"registeredCreditNotes","outputs":[{"internalType":"uint256","name":"","type":"uint256"}],"stateMutability":"view","type":"function"},{"inputs":[{"internalType":"uint256","name":"","type":"uint256"}],"name":"registeredVoters","outputs":[{"internalType":"uint256","name":"","type":"uint256"}],"stateMutability":"view","type":"function"},{"inputs":[{"internalType":"uint256","name":"_proposalId","type":"uint256"},{"internalType":"uint256","name":"_nullifier","type":"uint256"},{"internalType":"uint256","name":"_choice","type":"uint256"},{"internalType":"uint256","name":"_voteSalt","type":"uint256"}],"name":"revealVoteD1","outputs":[],"stateMutability":"nonpayable","type":"function"},{"inputs":[{"internalType":"uint256","name":"_proposalId","type":"uint256"},{"internalType":"uint256","name":"_nullifier","type":"uint256"},{"internalType":"uint256","name":"_choice","type":"uint256"},{"internalType":"uint256","name":"_numVotes","type":"uint256"},{"internalType":"uint256","name":"_voteSalt","type":"uint256"}],"name":"revealVoteD2","outputs":[],"stateMutability":"nonpayable","type":"function"},{"inputs":[],"name":"tonToken","outputs":[{"internalType":"contract IERC20","name":"","type":"address"}],"stateMutability":"view","type":"function"},{"inputs":[],"name":"treasury","outputs":[{"internalType":"address","name":"","type":"address"}],"stateMutability":"view","type":"function"},{"inputs":[{"internalType":"uint256","name":"_proposalId","type":"uint256"},{"internalType":"uint256","name":"_newMerkleRoot","type":"uint256"}],"name":"updateProposalVoters","outputs":[],"stateMutability":"nonpayable","type":"function"},{"inputs":[{"internalType":"address","name":"","type":"address"}],"name":"userCredits","outputs":[{"internalType":"uint256","name":"totalCredits","type":"uint256"},{"internalType":"uint256","name":"usedCredits","type":"uint256"},{"internalType":"bool","name":"initialized","type":"bool"}],"stateMutability":"view","type":"function"},{"inputs":[{"internalType":"uint256","name":"","type":"uint256"}],"name":"validCreditRoots","outputs":[{"internalType":"bool","name":"","type":"bool"}],"stateMutability":"view","type":"function"},{"inputs":[{"internalType":"uint256","name":"","type":"uint256"}],"name":"validMerkleRoots","outputs":[{"internalType":"bool","name":"","type":"bool"}],"stateMutability":"view","type":"function"},{"inputs":[],"name":"verifierD1","outputs":[{"internalType":"contract IVerifierD1","name":"","type":"address"}],"stateMutability":"view","type":"function"},{"inputs":[],"name":"verifierD2","outputs":[{"internalType":"contract IVerifierD2","name":"","type":"address"}],"stateMutability":"view","type":"function"}],"evm":{"bytecode":{"linkReferences":{"contracts/PoseidonT5.sol":{"PoseidonT5":[{"length":20,"start":2851},{"length":20,"start":11567}]}},"object":"60e0346200010b57601f6200354238819003918201601f19168301916001600160401b0383118484101762000110578084926080946040528339810103126200010b576200004d8162000126565b906200005c6020820162000126565b91620000796060620000716040850162000126565b930162000126565b6001600160a01b0391821660805292811660a05290811660c052600080546001600160a01b0319169190921617905560405161340690816200013c823960805181818161035601526128a9015260a051818181610f57015281816117a701526120e0015260c051818181610fbf0152818161149a0152818161186901528181611f1d0152818161216901526121d70152f35b600080fd5b634e487b7160e01b600052604160045260246000fd5b51906001600160a01b03821682036200010b5756fe608080604052600436101561001357600080fd5b60003560e01c90816303a229f714612ceb575080630572c80114612b225780630d70ece814612af157806311174a2914612ad357806313703e6614612a4957806318dbeb4c146127ac57806320babb92146127565780632436e06b1461272d5780632bbe44fd146127115780632bc4a6e7146126965780632c5317c014612657578063315401c01461253b578063417e70c81461047e5780634273ca1614611ecb5780634275e03114611e4d5780634a9284fb14610e125780634d09b49f146119fe57806352a48c561461196e5780635938862f1461193657806361d027b31461190d578063697aa8e8146118f05780636d3cba61146118bf57806374dd0fea14611898578063781a485214611853578063833722c51461181b578063850099cd146117f25780638ea7a274146117d657806394ffe6a014611791578063974f7aa314611740578063a13f2f8d14611724578063a1c7574a14611699578063a329b31314611648578063a4cae8f8146115e6578063aa6098481461150b578063b065a8e514611459578063b4e0d6af14611351578063b5770c3314611335578063b5ad9215146112e4578063badbc2ed14610e43578063cb1bb03314610e12578063d544433614610d5b578063d54bb70b14610c35578063d55d533e14610957578063d90292a31461093b578063db5bd601146104af578063ef3a2b391461047e578063f025d08214610385578063f58789ae14610340578063f9058741146103225763fb9607d31461024557600080fd5b3461031d57600036600319011261031d5733600052601260205260ff600260406000200154161561027257005b604051606081018181106001600160401b03821117610307576040526102d9612710918281526002602082016000815260408301906001825233600052601260205260406000209351845551600184015551151591019060ff801983541691151516179055565b6040519081527f840108f8f5f45d25a166719fa7440c37016845a955726b639e64fb325f73100760203392a2005b634e487b7160e01b600052604160045260246000fd5b600080fd5b3461031d57600036600319011261031d576020600154604051908152f35b3461031d57600036600319011261031d576040517f00000000000000000000000000000000000000000000000000000000000000006001600160a01b03168152602090f35b3461031d57602036600319011261031d57600435600052600360205260406000208054600182016103b590612f48565b916103c260028201612f48565b600160a01b60019003600383015416916004810154600582015460068301546007840154600885015490600986015492600a87015494600b88015496600c89015498600d015460ff16996040519d8e9d8e6101c09181528160208201520161042991612dbd565b8d810360408f015261043a91612dbd565b9a60608d015260808c015260a08b015260c08a015260e089015261010088015261012087015261014086015261016085015261018084015215156101a08301520390f35b3461031d57602036600319011261031d57600435600052600e602052602060ff604060002054166040519015158152f35b3461031d576104bd36612e2a565b929482600097959793929352600e60205260ff6040600020541615610929576104e7600254613028565b95866002556104f6844261301b565b61050986610504874261301b565b61301b565b91604051998a6101e08101106001600160401b036101e08d0111176103075761054e916101e08c016040528a8c5261054236878c613282565b60208d01523691613282565b60408a01523360608a01524260808a015260a089015260c08801528160e08801526000610100880152600061012088015260006101408801526000610160880152600061018088015260006101a088015260016101c088015285600052600b6020526040600020928751845560208801518051906001600160401b0382116103075781906105df6001880154612e80565b601f81116108f4575b50602090601f831160011461088257600092610877575b50508160011b916000199060031b1c19161760018501555b6040880151938451986001600160401b038a116103075760209989966106406002850154612e80565b601f8111610839575b508b90601f83116001146107905793600e6101c061076b95857f4742ce2d5f823dbde60d41925bff9b938299879eba7f67fa0029c8633d92b6549c9d966107579661077a9b9a600092610785575b50508160011b916000199060031b1c19161760028501555b6003840160018060a01b036060830151166bffffffffffffffffffffffff60a01b8254161790556080810151600485015560a0810151600585015560c0810151600685015560e0810151600785015561010081015160088501556101208101516009850155610140810151600a850155610160810151600b850155610180810151600c8501556101a0810151600d8501550151151591019060ff801983541691151516179055565b610504610764844261301b565b934261301b565b906040519485943399866132df565b0390a3604051908152f35b015190503880610697565b6002859493929a95016000528c6000209060005b601f198416811061081f57506101c061077a97969460018561076b98957f4742ce2d5f823dbde60d41925bff9b938299879eba7f67fa0029c8633d92b6549e9f600e9661075799601f19811610610806575b505050811b0160028501556106af565b015160001960f88460031b161c191690553880806107f6565b818c015183559a8e019a8d9a506001909201918e016107a4565b61086790600286016000528d600020601f850160051c8101918f861061086d575b601f0160051c01906132c8565b8c610649565b909150819061085a565b015190508a806105ff565b9250600187016000526020600020906000935b601f19841685106108d9576001945083601f198116106108c0575b505050811b016001850155610617565b015160001960f88460031b161c191690558a80806108b0565b81810151835560209485019460019093019290910190610895565b61092390600189016000526020600020601f850160051c8101916020861061086d57601f0160051c01906132c8565b8b6105e8565b604051633398105560e01b8152600490fd5b3461031d57600036600319011261031d57602060405160028152f35b3461031d5760a036600319011261031d576004356024359060443560643582600052602091600b8352604060002092600c8152604060002086600052815260406000209060ff600e8601541615610c23576005850154421115610c115760068501544211610c115760ff60078301541615610bff576005820160ff815416610bed5760028411610bdb576040519173__$0daf1669a85ce10529e05b8a030b9567e1$__610a0384612eba565b858452868285015260018501938454604082015289606082015260405190838280610a3c6321c2736360e21b9485835260048301612fed565b0381865af4908115610b9c578492600092610ba8575b5092610a909360405192610a6584612eba565b8352608435848401526000604084015260006060840152604051809581948293835260048301612fed565b03915af4918215610b9c57600092610b6e575b5050835403610b5c577f3c283986862ad16cc4d3240256474e99bfc9df697a62f7351373cbdefb3d14f895846006610b2d95600d94600160ff19825416179055015560018514600014610b325760088101610aff87825461301b565b90555b01610b0d8154613028565b905554604051938493846040919493926060820195825260208201520152565b0390a3005b84610b4d5760098101610b4687825461301b565b9055610b02565b600a8101610b4687825461301b565b604051639ea6d12760e01b8152600490fd5b90809250813d8311610b95575b610b858183612f27565b8101031261031d57518980610aa3565b503d610b7b565b6040513d6000823e3d90fd5b8381949293503d8311610bd4575b610bc08183612f27565b8101031261031d5790518391610a90610a52565b503d610bb6565b604051639c45400160e01b8152600490fd5b60405163a89ac15160e01b8152600490fd5b604051635b34156960e11b8152600490fd5b6040516374683d7160e01b8152600490fd5b60405163635e873760e01b8152600490fd5b3461031d57602036600319011261031d57600435600052600b602052604060002060ff600e8201541615610c23576005810154428110610d40576000905b825491600160a01b6001900360038501541691600785015490600686015460088701546009880154600a89015491600b8a015493600c8b015495600d8c01549760018d01610cc090612f48565b9c600201610ccd90612f48565b6040519d8e9d8e6101c091815281602082015201610cea91612dbd565b8d810360408f0152610cfb91612dbd565b9a60608d015260808c015260a08b015260c08a015260e089015261010088015261012087015261014086015261016085015261018084015260ff166101a08301520390f35b60068201544211610d5357600190610c73565b600290610c73565b3461031d57602036600319011261031d5760043580600052600e6020526040600020600160ff19825416179055600f54600160401b811015610307576001810180600f55811015610dfc578190600f6000527f8d1108e10bcb7c27dddfc02ed9d693a074039d026cf4ea4240b40f7d581ac80201557fc437041eca78e842ff32dc1036255a23da98c52b2f3bd3a875923aadb0276b3d6020604051428152a2005b634e487b7160e01b600052603260045260246000fd5b3461031d57602036600319011261031d576004356000526006602052602060ff604060002054166040519015158152f35b3461031d576101a036600319011261031d576084356004356064356044356024353660e41161031d576101649236841161031d576101a49036821161031d5785600052602091600b835260406000209560ff600e8801541615610c2357600587015442116112d25787600052600d8452604060002089600052845260ff604060002054166112c057610ed58680613205565b83036112ae578360405191610ee983612ed5565b8a835286828401528960408401528460608401526007890154608084015260018060a01b03936040519384926334baeab960e01b8452604060a4600486013760e46000604486015b6002821061128957505050906040610f539260c486013761010484019061304f565b81857f0000000000000000000000000000000000000000000000000000000000000000165afa908115610b9c5760009161126c575b501561125a57670de0b6b3a764000090818302908382048314841517156111d6576040516370a0823160e01b8152336004820152917f0000000000000000000000000000000000000000000000000000000000000000821691908684602481865afa938415610b9c5760009461122b575b5080841061121957600080546040516323b872dd60e01b815233600482015293166001600160a01b031660248401526044830191909152909186918391908290816064810103925af18015610b9c5761105a916000916111ec575b50613240565b048181039081116111d6577fbcf4fa36949e1955af2c6b6b628e50db0e23ec473b26480f3a584dd5a5d8953b9561119b8960078a610b2d97600b9660405190898252828201527f380f4b80ac5d183ff04f143a097611558815196006b7297cae774c0b5680a5ee60403392a281600052600d815260406000208460005281526040600020600160ff1982541617905561117f604051946110f986612ef0565b8b86528286018a81528d604088019081526060880190838252608089019242845260a08a01946000865260c08b01976000895260e08c019960018b52600052600c815260406000209160005252604060002099518a555160018a0155516002890155516003880155516004870155511515600586019060ff801983541691151516179055565b51600684015551151591019060ff801983541691151516179055565b600c81016111a98154613028565b9055016111b782825461301b565b9055604051938493846040919493926060820195825260208201520152565b634e487b7160e01b600052601160045260246000fd5b61120c9150863d8811611212575b6112048183612f27565b810190613037565b8b611054565b503d6111fa565b6040516343fb945360e01b8152600490fd5b9093508681813d8311611253575b6112438183612f27565b8101031261031d5751928c610ff9565b503d611239565b6040516309bde33960e01b8152600490fd5b6112839150843d8611611212576112048183612f27565b89610f88565b6040919395975082949650808260019481933701930191019089959391879593610f31565b6040516315252a2960e21b8152600490fd5b604051636569570160e11b8152600490fd5b60405163abfb7dc360e01b8152600490fd5b3461031d57602036600319011261031d5760043560075481101561031d5760209060076000527fa66cc928b5edb82af9bd49922954155ab7b0942694bea4ce44661d9a8736c6880154604051908152f35b3461031d57600036600319011261031d57602060405160008152f35b3461031d57602036600319011261031d57600435600052600b602052604060002080546001820161138190612f48565b61138d60028401612f48565b92600160a01b600190036003820154169060048101546005820154600683015460078401546008850154600986015491600a87015493600b88015495600c89015497600d8a015499600e015460ff169a6040519e8f9e8f9e8f916101e090835280602084015282016113fe91612dbd565b90808203906040015261141091612dbd565b9c6060015260808d015260a08c015260c08b015260e08a01526101008901526101208801526101408701526101608601526101808501526101a084015215156101c08301520390f35b3461031d5760208060031936011261031d57602481611476612d1c565b6040516370a0823160e01b81526001600160a01b03918216600482015292839182907f0000000000000000000000000000000000000000000000000000000000000000165afa908115610b9c576000916114de575b50670de0b6b3a764000060405191048152f35b90508181813d8311611504575b6114f58183612f27565b8101031261031d5751826114cb565b503d6114eb565b3461031d5761151936612d06565b8160005260039160206003602052604060002060ff600d8201541615610c235760078491015581600052600a91600a6020526040600020805460008255806115ca575b505060005b6008548110156115985760019082600052848452611592604060002061158683612d32565b9054908a1b1c906130bf565b01611561565b8480600052600660205260406000209081549160ff8316156115b657005b60016115c89360ff1916179055613077565b005b6115df916000526020600020908101906132c8565b858061155c565b3461031d57602036600319011261031d576004358060005260066020526040600020600160ff1982541617905561161c81613077565b7fcb23ed79d0d407699762f186152925a6b8dd62fc4b2223f50a16534af8c883f86020604051428152a2005b3461031d57602036600319011261031d57600435600f5481101561031d57602090600f6000527f8d1108e10bcb7c27dddfc02ed9d693a074039d026cf4ea4240b40f7d581ac8020154604051908152f35b3461031d57600036600319011261031d57604051806010549182815260208091019260106000527f1b6847dc741a1b0cd08d278845f9d819d87b734759afb55fe2de5cb82a9ae672916000905b82821061170d57611709856116fd81890382612f27565b60405191829182612d81565b0390f35b8354865294850194600193840193909101906116e6565b3461031d57602036600319011261031d576115c860043561335b565b3461031d57602036600319011261031d5760043560105481101561031d5760209060106000527f1b6847dc741a1b0cd08d278845f9d819d87b734759afb55fe2de5cb82a9ae6720154604051908152f35b3461031d57600036600319011261031d576040517f00000000000000000000000000000000000000000000000000000000000000006001600160a01b03168152602090f35b3461031d57600036600319011261031d57602060405160018152f35b3461031d57602036600319011261031d57602061181060043561331a565b60ff60405191168152f35b3461031d5761182936612d06565b90600052600d602052604060002090600052602052602060ff604060002054166040519015158152f35b3461031d57600036600319011261031d576040517f00000000000000000000000000000000000000000000000000000000000000006001600160a01b03168152602090f35b3461031d57602036600319011261031d5760206118b760043580613205565b604051908152f35b3461031d57602036600319011261031d576004356000526009602052602060ff604060002054166040519015158152f35b3461031d57600036600319011261031d5760206040516127108152f35b3461031d57600036600319011261031d576000546040516001600160a01b039091168152602090f35b3461031d5761194436612d06565b906000526005602052604060002090600052602052602060ff604060002054166040519015158152f35b3461031d57602036600319011261031d5760043533600052601260205260406000206002810160ff815416156000146119eb5782825560006001830155600160ff198254161790555b5460405191825260208201527fc8bc4842cf61a3f6cbf597029d937fdf158ef4959a9616594587a0fb8c6b871160403392a2005b506119f782825461301b565b81556119b7565b3461031d57611a0c36612e2a565b948260009793929752600660205260ff6040600020541615611e3b57611a33600154613028565b9384600155611a42884261301b565b611a50886105048b4261301b565b9160405197886101c08101106001600160401b036101c08b01111761030757611a95916101c08a01604052888a52611a8936878a613282565b60208b01523691613282565b604088015233606088015242608088015260a087015260c08601528160e08601526000610100860152600061012086015260006101408601526000610160860152600061018086015260016101a08601528360005260036020526040600020958551875560208601518051906001600160401b038211610307578190611b1e60018b0154612e80565b601f8111611e06575b50602090601f8311600114611d9457600092611d89575b50508160011b916000199060031b1c19161760018801555b60408601518051906001600160401b038211610307578190611b7b60028b0154612e80565b601f8111611d54575b50602090601f8311600114611ce257600092611cd7575b50508160011b916000199060031b1c19161760028801555b6003870160018060a01b036060880151166bffffffffffffffffffffffff60a01b8254161790556080860151600488015560a0860151600588015560c0860151600688015560e08601516007880155611c5e60089761010088015160088201556101208801516009820155600d6101a0600a99610140810151600a850155610160810151600b850155610180810151600c8501550151151591019060ff801983541691151516179055565b60005b8754811015611c99576001908660005287602052611c936040600020611c8683612d32565b90549060031b1c906130bf565b01611c61565b5060209550917f16356ec948fe2183cece6a7b111beef5be873032e9698d3fbf0e0168d0fc91a89161077a8961076b8896610504610764844261301b565b015190508a80611b9b565b925060028a016000526020600020906000935b601f1984168510611d39576001945083601f19811610611d20575b505050811b016002880155611bb3565b015160001960f88460031b161c191690558a8080611d10565b81810151835560209485019460019093019290910190611cf5565b611d839060028c016000526020600020601f850160051c8101916020861061086d57601f0160051c01906132c8565b8b611b84565b015190508a80611b3e565b925060018a016000526020600020906000935b601f1984168510611deb576001945083601f19811610611dd2575b505050811b016001880155611b56565b015160001960f88460031b161c191690558a8080611dc2565b81810151835560209485019460019093019290910190611da7565b611e359060018c016000526020600020601f850160051c8101916020861061086d57601f0160051c01906132c8565b8b611b27565b604051639dd854d360e01b8152600490fd5b3461031d57611e5b36612d06565b90600052600460205260406000209060005260205260e060406000208054906001810154906002810154600382015460ff6004840154169160ff6006600586015495015416946040519687526020870152604086015260608501521515608084015260a0830152151560c0820152f35b3461031d57608036600319011261031d57611ee4612d1c565b6024356001600160a01b038116919082900361031d576064356001600160401b03811161031d57611f19903690600401612dfd565b90927f00000000000000000000000000000000000000000000000000000000000000006001600160a01b031633036124f65730036124bf576101a083828101031261031d57611f6d81840160a085016131c0565b81840160ff8501121561031d5760405191611f8783612f0c565b8281860161016087011161031d5760e08601905b610160870182106124a3575050611fb890850161016086016131c0565b918435600052600b60205260406000209260ff600e8501541615610c2357600584015442116112d2578535600052600d6020526040600020608087013560005260205260ff604060002054166112c057612016604087013580613205565b6060870135036112ae576060860135670de0b6b3a764000080820282900414901517156111d657670de0b6b3a76400006060870135026044351061245e576040519161206183612ed5565b60808701358352602087013560208401528635604084015260608701356060840152600785015460808401526120a8604051946334baeab960e01b86526004860190613218565b6000604485015b6002821061244057505050906120cc6120d79260c4850190613218565b61010483019061304f565b6020816101a4817f00000000000000000000000000000000000000000000000000000000000000006001600160a01b03165afa908115610b9c57600091612421575b501561125a576000546040516323b872dd60e01b81526001600160a01b0384811660048301529091166024820152670de0b6b3a764000060608501350260448201526020818060648101038160007f00000000000000000000000000000000000000000000000000000000000000006001600160a01b03165af18015610b9c576121aa916000916124025750613240565b6040516370a0823160e01b81526001600160a01b03928316600482018190529092602090849060249082907f0000000000000000000000000000000000000000000000000000000000000000165afa928315610b9c576000936123ae575b507f380f4b80ac5d183ff04f143a097611558815196006b7297cae774c0b5680a5ee6040600b94670de0b6b3a764000082519160608901358352046020820152a28235600052600d602052604060002060808401356000526020526040600020600160ff1982541617905561232560405161228281612ef0565b6020850135815260076020820160608701358152604083016040880135815261117f6060850160808a013581526080860142815260a08701916000835260c08801946000865260e0890196600188528d35600052600c6020528d60806040600020910135600052602052604060002099518a555160018a0155516002890155516003880155516004870155511515600586019060ff801983541691151516179055565b600c81016123338154613028565b9055016123456060830135825461301b565b9055604051907fbcf4fa36949e1955af2c6b6b628e50db0e23ec473b26480f3a584dd5a5d8953b608082013592806123a084359460608101359060206040820135910135846040919493926060820195825260208201520152565b0390a3602060405160018152f35b92506020833d6020116123fa575b816123c960209383612f27565b8101031261031d579151917f380f4b80ac5d183ff04f143a097611558815196006b7297cae774c0b5680a5ee612208565b3d91506123bc565b61241b915060203d602011611212576112048183612f27565b85611054565b61243a915060203d602011611212576112048183612f27565b84612119565b60206040826124526001948751613218565b019301910190916120af565b60405162461bcd60e51b815260206004820152601c60248201527f496e73756666696369656e7420617070726f76656420616d6f756e74000000006044820152606490fd5b60206040916124b4858a01856131c0565b815201910190611f9b565b60405162461bcd60e51b815260206004820152600f60248201526e24b73b30b634b21039b832b73232b960891b6044820152606490fd5b60405162461bcd60e51b815260206004820152601760248201527f4f6e6c7920544f4e20746f6b656e2063616e2063616c6c0000000000000000006044820152606490fd5b3461031d57602036600319011261031d576004356000526003602052604060002060ff600d8201541615610c2357600581015442811061263c576000905b825491600160a01b600190036003850154169160078501549060068601546008870154600988015490600a89015492600b8a015494600c8b01549660018c016125c190612f48565b9b6002016125ce90612f48565b6040519c8d809d6101a09182918152602001528d016125ec91612dbd565b8c810360408e01526125fd91612dbd565b9960608c015260808b015260a08a015260c089015260e088015261010087015261012086015261014085015261016084015260ff166101808301520390f35b6006820154421161264f57600190612579565b600290612579565b3461031d5761266536612d06565b90600052600a6020526040600020805482101561031d5760209161268891612d69565b90546040519160031b1c8152f35b3461031d57600036600319011261031d57604051806008549182815260208091019260086000527ff3f7a9fe364faab93b216da50a3214154f22a0a2b415b23a84c8169e8b636ee3916000905b8282106126fa57611709856116fd81890382612f27565b8354865294850194600193840193909101906126e3565b3461031d57602036600319011261031d576115c86004356130fb565b3461031d57602036600319011261031d5760043560085481101561031d57612688602091612d32565b3461031d57602036600319011261031d576001600160a01b03612777612d1c565b1660005260126020526060604060002080549060ff600260018301549201541690604051928352602083015215156040820152f35b3461031d5761018036600319011261031d576064356004356024356044353660c41161031d576101449136831161031d57366101841161031d57836000526020916003835260406000209360ff600d8601541615610c2357600585015442116112d2578560005260058452604060002087600052845260ff604060002054166112c0578115612a375760405161284181612ed5565b878152838582015286604082015282606082015260078601546080820152604051916334baeab960e01b835260406084600485013760c46000604485015b60028210612a21575050509060406128a19260c485013761010483019061304f565b83816101a4817f00000000000000000000000000000000000000000000000000000000000000006001600160a01b03165afa908115610b9c57600091612a04575b501561125a57846000526005835260406000208660005283526040600020600160ff198254161790556040519260e08401938085106001600160401b03861117610307577f049e5146cbefb4fff5586b703de455cb45794712230253d13f2d8c57da85a323956129ec600b9260068a866129d08e60409c8d528b86528286018b81528d87018281526060880191428352608089019360008552600460a08b01976000895260c08c019960018b52600052526040600020906000528d528f60002098518955516001890155516002880155516003870155511515600486019060ff801983541691151516179055565b51600584015551151591019060ff801983541691151516179055565b016129f78154613028565b90558351928352820152a3005b612a1b9150843d8611611212576112048183612f27565b876128e2565b604080828186600195370193019101909161287f565b6040516343c891cf60e11b8152600490fd5b3461031d57612a5736612d06565b90600052600c60205260406000209060005260205261010060406000208054906001810154906002810154600382015460048301549060ff6005850154169260ff6007600687015496015416956040519788526020880152604087015260608601526080850152151560a084015260c0830152151560e0820152f35b3461031d57600036600319011261031d576020600854604051908152f35b3461031d57602036600319011261031d576004356000526011602052602060ff604060002054166040519015158152f35b3461031d57608036600319011261031d57600435602435906044358160005260206003815260406000209160048252604060002085600052825260406000209160ff600d8501541615610c23576005840154421115610c115760068401544211610c115760ff60068401541615610bff576004830160ff815416610bed5760028311610bdb5760405190612bb582612eba565b838252612bef8360018701938454828201528960408201526064356060820152604051809381926321c2736360e21b835260048301612fed565b038173__$0daf1669a85ce10529e05b8a030b9567e1$__5af4908115610b9c57600091612cbe575b50855403610b5c577f48b18ffd0d20ac6e0c916dc382bdea3de3108e2b71d66318ff2bdc7aa10a562895846005604097600c94600160ff19825416179055015560018514600014612c90578254612c736008830191825461301b565b90555b01612c818154613028565b905554908351928352820152a3005b84612cad578254612ca66009830191825461301b565b9055612c76565b8254612ca6600a830191825461301b565b90508381813d8311612ce4575b612cd58183612f27565b8101031261031d575189612c17565b503d612ccb565b3461031d57600036600319011261031d576020906002548152f35b604090600319011261031d576004359060243590565b600435906001600160a01b038216820361031d57565b600854811015610dfc5760086000527ff3f7a9fe364faab93b216da50a3214154f22a0a2b415b23a84c8169e8b636ee30190600090565b8054821015610dfc5760005260206000200190600090565b602090602060408183019282815285518094520193019160005b828110612da9575050505090565b835185529381019392810192600101612d9b565b919082519283825260005b848110612de9575050826000602080949584010152601f8019910116010190565b602081830181015184830182015201612dc8565b9181601f8401121561031d578235916001600160401b03831161031d576020838186019501011161031d57565b60a060031982011261031d576001600160401b039160043583811161031d5782612e5691600401612dfd565b9390939260243591821161031d57612e7091600401612dfd565b9091604435906064359060843590565b90600182811c92168015612eb0575b6020831014612e9a57565b634e487b7160e01b600052602260045260246000fd5b91607f1691612e8f565b608081019081106001600160401b0382111761030757604052565b60a081019081106001600160401b0382111761030757604052565b61010081019081106001600160401b0382111761030757604052565b604081019081106001600160401b0382111761030757604052565b90601f801991011681019081106001600160401b0382111761030757604052565b90604051918260008254612f5b81612e80565b90818452602094600191600181169081600014612fcb5750600114612f8c575b505050612f8a92500383612f27565b565b600090815285812095935091905b818310612fb3575050612f8a9350820101388080612f7b565b85548884018501529485019487945091830191612f9a565b92505050612f8a94925060ff191682840152151560051b820101388080612f7b565b6080810192916000915b6004831061300457505050565b600190825181526020809101920192019190612ff7565b919082018092116111d657565b60001981146111d65760010190565b9081602091031261031d5751801515810361031d5790565b6000915b6005831061306057505050565b600190825181526020809101920192019190613053565b600754600160401b811015610307576001810180600755811015610dfc5760076000527fa66cc928b5edb82af9bd49922954155ab7b0942694bea4ce44661d9a8736c6880155565b90815491600160401b83101561030757826130e2916001612f8a95018155612d69565b90919082549060031b91821b91600019901b1916179055565b90600091808352601160205260408320805460ff81166131b95760ff19166001179055601054600160401b8110156131a5576001810180601055811015613191576010829394527f1b6847dc741a1b0cd08d278845f9d819d87b734759afb55fe2de5cb82a9ae67201557f1926a241ba9d59467ac0063e2cb861452b93ab650fff5378a82e86befecc27ab6020604051428152a2565b634e487b7160e01b84526032600452602484fd5b634e487b7160e01b84526041600452602484fd5b5050509050565b9080601f8301121561031d57604051916131d983612f0c565b82906040810192831161031d57905b8282106131f55750505090565b81358152602091820191016131e8565b818102929181159184041417156111d657565b6000915b6002831061322957505050565b60019082518152602080910192019201919061321c565b1561324757565b60405162461bcd60e51b81526020600482015260136024820152721513d3881d1c985b9cd9995c8819985a5b1959606a1b6044820152606490fd5b9291926001600160401b03821161030757604051916132ab601f8201601f191660200184612f27565b82948184528183011161031d578281602093846000960137010152565b8181106132d3575050565b600081556001016132c8565b918060a0916060959897969360808652816080870152838601376000828286010152601f801991011683010195602083015260408201520152565b600052600b602052604060002060ff600e8201541615610c23576005810154421115613355576006015442111561335057600290565b600190565b50600090565b8060005260096020526040600020805460ff81166133cb5760ff19166001179055600854600160401b81101561030757816130e282600161339f9401600855612d32565b7f85238313f6b4aa1ea470340fc24bc06d68e734cd21411160c06714eb547571af6020604051428152a2565b50505056fea2646970667358221220b3c3eb23950935603ba61d35a75be03e89331a5f31bf43936c21981106ced71264736f6c63430008180033","opcodes":"PUSH1 0xE0 CALLVALUE PUSH3 0x10B JUMPI PUSH1 0x1F PUSH3 0x3542 CODESIZE DUP2 SWAP1 SUB SWAP2 DUP3 ADD PUSH1 0x1F NOT AND DUP4 ADD SWAP2 PUSH1 0x1 PUSH1 0x1 PUSH1 0x40 SHL SUB DUP4 GT DUP5 DUP5 LT OR PUSH3 0x110 JUMPI DUP1 DUP5 SWAP3 PUSH1 0x80 SWAP5 PUSH1 0x40 MSTORE DUP4 CODECOPY DUP2 ADD SUB SLT PUSH3 0x10B JUMPI PUSH3 0x4D DUP2 PUSH3 0x126 JUMP JUMPDEST SWAP1 PUSH3 0x5C PUSH1 0x20 DUP3 ADD PUSH3 0x126 JUMP JUMPDEST SWAP2 PUSH3 0x79 PUSH1 0x60 PUSH3 0x71 PUSH1 0x40 DUP6 ADD PUSH3 0x126 JUMP JUMPDEST SWAP4 ADD PUSH3 0x126 JUMP JUMPDEST PUSH1 0x1 PUSH1 0x1 PUSH1 0xA0 SHL SUB SWAP2 DUP3 AND PUSH1 0x80 MSTORE SWAP3 DUP2 AND PUSH1 0xA0 MSTORE SWAP1 DUP2 AND PUSH1 0xC0 MSTORE PUSH1 0x0 DUP1 SLOAD PUSH1 0x1 PUSH1 0x1 PUSH1 0xA0 SHL SUB NOT AND SWAP2 SWAP1 SWAP3 AND OR SWAP1 SSTORE PUSH1 0x40 MLOAD PUSH2 0x3406 SWAP1 DUP2 PUSH3 0x13C DUP3 CODECOPY PUSH1 0x80 MLOAD DUP2 DUP2 DUP2 PUSH2 0x356 ADD MSTORE PUSH2 0x28A9 ADD MSTORE PUSH1 0xA0 MLOAD DUP2 DUP2 DUP2 PUSH2 0xF57 ADD MSTORE DUP2 DUP2 PUSH2 0x17A7 ADD MSTORE PUSH2 0x20E0 ADD MSTORE PUSH1 0xC0 MLOAD DUP2 DUP2 DUP2 PUSH2 0xFBF ADD MSTORE DUP2 DUP2 PUSH2 0x149A ADD MSTORE DUP2 DUP2 PUSH2 0x1869 ADD MSTORE DUP2 DUP2 PUSH2 0x1F1D ADD MSTORE DUP2 DUP2 PUSH2 0x2169 ADD MSTORE PUSH2 0x21D7 ADD MSTORE RETURN JUMPDEST PUSH1 0x0 DUP1 REVERT JUMPDEST PUSH4 0x4E487B71 PUSH1 0xE0 SHL PUSH1 0x0 MSTORE PUSH1 0x41 PUSH1 0x4 MSTORE PUSH1 0x24 PUSH1 0x0 REVERT JUMPDEST MLOAD SWAP1 PUSH1 0x1 PUSH1 0x1 PUSH1 0xA0 SHL SUB DUP3 AND DUP3 SUB PUSH3 0x10B JUMPI JUMP INVALID PUSH1 0x80 DUP1 PUSH1 0x40 MSTORE PUSH1 0x4 CALLDATASIZE LT ISZERO PUSH2 0x13 JUMPI PUSH1 0x0 DUP1 REVERT JUMPDEST PUSH1 0x0 CALLDATALOAD PUSH1 0xE0 SHR SWAP1 DUP2 PUSH4 0x3A229F7 EQ PUSH2 0x2CEB JUMPI POP DUP1 PUSH4 0x572C801 EQ PUSH2 0x2B22 JUMPI DUP1 PUSH4 0xD70ECE8 EQ PUSH2 0x2AF1 JUMPI DUP1 PUSH4 0x11174A29 EQ PUSH2 0x2AD3 JUMPI DUP1 PUSH4 0x13703E66 EQ PUSH2 0x2A49 JUMPI DUP1 PUSH4 0x18DBEB4C EQ PUSH2 0x27AC JUMPI DUP1 PUSH4 0x20BABB92 EQ PUSH2 0x2756 JUMPI DUP1 PUSH4 0x2436E06B EQ PUSH2 0x272D JUMPI DUP1 PUSH4 0x2BBE44FD EQ PUSH2 0x2711 JUMPI DUP1 PUSH4 0x2BC4A6E7 EQ PUSH2 0x2696 JUMPI DUP1 PUSH4 0x2C5317C0 EQ PUSH2 0x2657 JUMPI DUP1 PUSH4 0x315401C0 EQ PUSH2 0x253B JUMPI DUP1 PUSH4 0x417E70C8 EQ PUSH2 0x47E JUMPI DUP1 PUSH4 0x4273CA16 EQ PUSH2 0x1ECB JUMPI DUP1 PUSH4 0x4275E031 EQ PUSH2 0x1E4D JUMPI DUP1 PUSH4 0x4A9284FB EQ PUSH2 0xE12 JUMPI DUP1 PUSH4 0x4D09B49F EQ PUSH2 0x19FE JUMPI DUP1 PUSH4 0x52A48C56 EQ PUSH2 0x196E JUMPI DUP1 PUSH4 0x5938862F EQ PUSH2 0x1936 JUMPI DUP1 PUSH4 0x61D027B3 EQ PUSH2 0x190D JUMPI DUP1 PUSH4 0x697AA8E8 EQ PUSH2 0x18F0 JUMPI DUP1 PUSH4 0x6D3CBA61 EQ PUSH2 0x18BF JUMPI DUP1 PUSH4 0x74DD0FEA EQ PUSH2 0x1898 JUMPI DUP1 PUSH4 0x781A4852 EQ PUSH2 0x1853 JUMPI DUP1 PUSH4 0x833722C5 EQ PUSH2 0x181B JUMPI DUP1 PUSH4 0x850099CD EQ PUSH2 0x17F2 JUMPI DUP1 PUSH4 0x8EA7A274 EQ PUSH2 0x17D6 JUMPI DUP1 PUSH4 0x94FFE6A0 EQ PUSH2 0x1791 JUMPI DUP1 PUSH4 0x974F7AA3 EQ PUSH2 0x1740 JUMPI DUP1 PUSH4 0xA13F2F8D EQ PUSH2 0x1724 JUMPI DUP1 PUSH4 0xA1C7574A EQ PUSH2 0x1699 JUMPI DUP1 PUSH4 0xA329B313 EQ PUSH2 0x1648 JUMPI DUP1 PUSH4 0xA4CAE8F8 EQ PUSH2 0x15E6 JUMPI DUP1 PUSH4 0xAA609848 EQ PUSH2 0x150B JUMPI DUP1 PUSH4 0xB065A8E5 EQ PUSH2 0x1459 JUMPI DUP1 PUSH4 0xB4E0D6AF EQ PUSH2 0x1351 JUMPI DUP1 PUSH4 0xB5770C33 EQ PUSH2 0x1335 JUMPI DUP1 PUSH4 0xB5AD9215 EQ PUSH2 0x12E4 JUMPI DUP1 PUSH4 0xBADBC2ED EQ PUSH2 0xE43 JUMPI DUP1 PUSH4 0xCB1BB033 EQ PUSH2 0xE12 JUMPI DUP1 PUSH4 0xD5444336 EQ PUSH2 0xD5B JUMPI DUP1 PUSH4 0xD54BB70B EQ PUSH2 0xC35 JUMPI DUP1 PUSH4 0xD55D533E EQ PUSH2 0x957 JUMPI DUP1 PUSH4 0xD90292A3 EQ PUSH2 0x93B JUMPI DUP1 PUSH4 0xDB5BD601 EQ PUSH2 0x4AF JUMPI DUP1 PUSH4 0xEF3A2B39 EQ PUSH2 0x47E JUMPI DUP1 PUSH4 0xF025D082 EQ PUSH2 0x385 JUMPI DUP1 PUSH4 0xF58789AE EQ PUSH2 0x340 JUMPI DUP1 PUSH4 0xF9058741 EQ PUSH2 0x322 JUMPI PUSH4 0xFB9607D3 EQ PUSH2 0x245 JUMPI PUSH1 0x0 DUP1 REVERT JUMPDEST CALLVALUE PUSH2 0x31D JUMPI PUSH1 0x0 CALLDATASIZE PUSH1 0x3 NOT ADD SLT PUSH2 0x31D JUMPI CALLER PUSH1 0x0 MSTORE PUSH1 0x12 PUSH1 0x20 MSTORE PUSH1 0xFF PUSH1 0x2 PUSH1 0x40 PUSH1 0x0 KECCAK256 ADD SLOAD AND ISZERO PUSH2 0x272 JUMPI STOP JUMPDEST PUSH1 0x40 MLOAD PUSH1 0x60 DUP2 ADD DUP2 DUP2 LT PUSH1 0x1 PUSH1 0x1 PUSH1 0x40 SHL SUB DUP3 GT OR PUSH2 0x307 JUMPI PUSH1 0x40 MSTORE PUSH2 0x2D9 PUSH2 0x2710 SWAP2 DUP3 DUP2 MSTORE PUSH1 0x2 PUSH1 0x20 DUP3 ADD PUSH1 0x0 DUP2 MSTORE PUSH1 0x40 DUP4 ADD SWAP1 PUSH1 0x1 DUP3 MSTORE CALLER PUSH1 0x0 MSTORE PUSH1 0x12 PUSH1 0x20 MSTORE PUSH1 0x40 PUSH1 0x0 KECCAK256 SWAP4 MLOAD DUP5 SSTORE MLOAD PUSH1 0x1 DUP5 ADD SSTORE MLOAD ISZERO ISZERO SWAP2 ADD SWAP1 PUSH1 0xFF DUP1 NOT DUP4 SLOAD AND SWAP2 ISZERO ISZERO AND OR SWAP1 SSTORE JUMP JUMPDEST PUSH1 0x40 MLOAD SWAP1 DUP2 MSTORE PUSH32 0x840108F8F5F45D25A166719FA7440C37016845A955726B639E64FB325F731007 PUSH1 0x20 CALLER SWAP3 LOG2 STOP JUMPDEST PUSH4 0x4E487B71 PUSH1 0xE0 SHL PUSH1 0x0 MSTORE PUSH1 0x41 PUSH1 0x4 MSTORE PUSH1 0x24 PUSH1 0x0 REVERT JUMPDEST PUSH1 0x0 DUP1 REVERT JUMPDEST CALLVALUE PUSH2 0x31D JUMPI PUSH1 0x0 CALLDATASIZE PUSH1 0x3 NOT ADD SLT PUSH2 0x31D JUMPI PUSH1 0x20 PUSH1 0x1 SLOAD PUSH1 0x40 MLOAD SWAP1 DUP2 MSTORE RETURN JUMPDEST CALLVALUE PUSH2 0x31D JUMPI PUSH1 0x0 CALLDATASIZE PUSH1 0x3 NOT ADD SLT PUSH2 0x31D JUMPI PUSH1 0x40 MLOAD PUSH32 0x0 PUSH1 0x1 PUSH1 0x1 PUSH1 0xA0 SHL SUB AND DUP2 MSTORE PUSH1 0x20 SWAP1 RETURN JUMPDEST CALLVALUE PUSH2 0x31D JUMPI PUSH1 0x20 CALLDATASIZE PUSH1 0x3 NOT ADD SLT PUSH2 0x31D JUMPI PUSH1 0x4 CALLDATALOAD PUSH1 0x0 MSTORE PUSH1 0x3 PUSH1 0x20 MSTORE PUSH1 0x40 PUSH1 0x0 KECCAK256 DUP1 SLOAD PUSH1 0x1 DUP3 ADD PUSH2 0x3B5 SWAP1 PUSH2 0x2F48 JUMP JUMPDEST SWAP2 PUSH2 0x3C2 PUSH1 0x2 DUP3 ADD PUSH2 0x2F48 JUMP JUMPDEST PUSH1 0x1 PUSH1 0xA0 SHL PUSH1 0x1 SWAP1 SUB PUSH1 0x3 DUP4 ADD SLOAD AND SWAP2 PUSH1 0x4 DUP2 ADD SLOAD PUSH1 0x5 DUP3 ADD SLOAD PUSH1 0x6 DUP4 ADD SLOAD PUSH1 0x7 DUP5 ADD SLOAD PUSH1 0x8 DUP6 ADD SLOAD SWAP1 PUSH1 0x9 DUP7 ADD SLOAD SWAP3 PUSH1 0xA DUP8 ADD SLOAD SWAP5 PUSH1 0xB DUP9 ADD SLOAD SWAP7 PUSH1 0xC DUP10 ADD SLOAD SWAP9 PUSH1 0xD ADD SLOAD PUSH1 0xFF AND SWAP10 PUSH1 0x40 MLOAD SWAP14 DUP15 SWAP14 DUP15 PUSH2 0x1C0 SWAP2 DUP2 MSTORE DUP2 PUSH1 0x20 DUP3 ADD MSTORE ADD PUSH2 0x429 SWAP2 PUSH2 0x2DBD JUMP JUMPDEST DUP14 DUP2 SUB PUSH1 0x40 DUP16 ADD MSTORE PUSH2 0x43A SWAP2 PUSH2 0x2DBD JUMP JUMPDEST SWAP11 PUSH1 0x60 DUP14 ADD MSTORE PUSH1 0x80 DUP13 ADD MSTORE PUSH1 0xA0 DUP12 ADD MSTORE PUSH1 0xC0 DUP11 ADD MSTORE PUSH1 0xE0 DUP10 ADD MSTORE PUSH2 0x100 DUP9 ADD MSTORE PUSH2 0x120 DUP8 ADD MSTORE PUSH2 0x140 DUP7 ADD MSTORE PUSH2 0x160 DUP6 ADD MSTORE PUSH2 0x180 DUP5 ADD MSTORE ISZERO ISZERO PUSH2 0x1A0 DUP4 ADD MSTORE SUB SWAP1 RETURN JUMPDEST CALLVALUE PUSH2 0x31D JUMPI PUSH1 0x20 CALLDATASIZE PUSH1 0x3 NOT ADD SLT PUSH2 0x31D JUMPI PUSH1 0x4 CALLDATALOAD PUSH1 0x0 MSTORE PUSH1 0xE PUSH1 0x20 MSTORE PUSH1 0x20 PUSH1 0xFF PUSH1 0x40 PUSH1 0x0 KECCAK256 SLOAD AND PUSH1 0x40 MLOAD SWAP1 ISZERO ISZERO DUP2 MSTORE RETURN JUMPDEST CALLVALUE PUSH2 0x31D JUMPI PUSH2 0x4BD CALLDATASIZE PUSH2 0x2E2A JUMP JUMPDEST SWAP3 SWAP5 DUP3 PUSH1 0x0 SWAP8 SWAP6 SWAP8 SWAP4 SWAP3 SWAP4 MSTORE PUSH1 0xE PUSH1 0x20 MSTORE PUSH1 0xFF PUSH1 0x40 PUSH1 0x0 KECCAK256 SLOAD AND ISZERO PUSH2 0x929 JUMPI PUSH2 0x4E7 PUSH1 0x2 SLOAD PUSH2 0x3028 JUMP JUMPDEST SWAP6 DUP7 PUSH1 0x2 SSTORE PUSH2 0x4F6 DUP5 TIMESTAMP PUSH2 0x301B JUMP JUMPDEST PUSH2 0x509 DUP7 PUSH2 0x504 DUP8 TIMESTAMP PUSH2 0x301B JUMP JUMPDEST PUSH2 0x301B JUMP JUMPDEST SWAP2 PUSH1 0x40 MLOAD SWAP10 DUP11 PUSH2 0x1E0 DUP2 ADD LT PUSH1 0x1 PUSH1 0x1 PUSH1 0x40 SHL SUB PUSH2 0x1E0 DUP14 ADD GT OR PUSH2 0x307 JUMPI PUSH2 0x54E SWAP2 PUSH2 0x1E0 DUP13 ADD PUSH1 0x40 MSTORE DUP11 DUP13 MSTORE PUSH2 0x542 CALLDATASIZE DUP8 DUP13 PUSH2 0x3282 JUMP JUMPDEST PUSH1 0x20 DUP14 ADD MSTORE CALLDATASIZE SWAP2 PUSH2 0x3282 JUMP JUMPDEST PUSH1 0x40 DUP11 ADD MSTORE CALLER PUSH1 0x60 DUP11 ADD MSTORE TIMESTAMP PUSH1 0x80 DUP11 ADD MSTORE PUSH1 0xA0 DUP10 ADD MSTORE PUSH1 0xC0 DUP9 ADD MSTORE DUP2 PUSH1 0xE0 DUP9 ADD MSTORE PUSH1 0x0 PUSH2 0x100 DUP9 ADD MSTORE PUSH1 0x0 PUSH2 0x120 DUP9 ADD MSTORE PUSH1 0x0 PUSH2 0x140 DUP9 ADD MSTORE PUSH1 0x0 PUSH2 0x160 DUP9 ADD MSTORE PUSH1 0x0 PUSH2 0x180 DUP9 ADD MSTORE PUSH1 0x0 PUSH2 0x1A0 DUP9 ADD MSTORE PUSH1 0x1 PUSH2 0x1C0 DUP9 ADD MSTORE DUP6 PUSH1 0x0 MSTORE PUSH1 0xB PUSH1 0x20 MSTORE PUSH1 0x40 PUSH1 0x0 KECCAK256 SWAP3 DUP8 MLOAD DUP5 SSTORE PUSH1 0x20 DUP9 ADD MLOAD DUP1 MLOAD SWAP1 PUSH1 0x1 PUSH1 0x1 PUSH1 0x40 SHL SUB DUP3 GT PUSH2 0x307 JUMPI DUP2 SWAP1 PUSH2 0x5DF PUSH1 0x1 DUP9 ADD SLOAD PUSH2 0x2E80 JUMP JUMPDEST PUSH1 0x1F DUP2 GT PUSH2 0x8F4 JUMPI JUMPDEST POP PUSH1 0x20 SWAP1 PUSH1 0x1F DUP4 GT PUSH1 0x1 EQ PUSH2 0x882 JUMPI PUSH1 0x0 SWAP3 PUSH2 0x877 JUMPI JUMPDEST POP POP DUP2 PUSH1 0x1 SHL SWAP2 PUSH1 0x0 NOT SWAP1 PUSH1 0x3 SHL SHR NOT AND OR PUSH1 0x1 DUP6 ADD SSTORE JUMPDEST PUSH1 0x40 DUP9 ADD MLOAD SWAP4 DUP5 MLOAD SWAP9 PUSH1 0x1 PUSH1 0x1 PUSH1 0x40 SHL SUB DUP11 GT PUSH2 0x307 JUMPI PUSH1 0x20 SWAP10 DUP10 SWAP7 PUSH2 0x640 PUSH1 0x2 DUP6 ADD SLOAD PUSH2 0x2E80 JUMP JUMPDEST PUSH1 0x1F DUP2 GT PUSH2 0x839 JUMPI JUMPDEST POP DUP12 SWAP1 PUSH1 0x1F DUP4 GT PUSH1 0x1 EQ PUSH2 0x790 JUMPI SWAP4 PUSH1 0xE PUSH2 0x1C0 PUSH2 0x76B SWAP6 DUP6 PUSH32 0x4742CE2D5F823DBDE60D41925BFF9B938299879EBA7F67FA0029C8633D92B654 SWAP13 SWAP14 SWAP7 PUSH2 0x757 SWAP7 PUSH2 0x77A SWAP12 SWAP11 PUSH1 0x0 SWAP3 PUSH2 0x785 JUMPI JUMPDEST POP POP DUP2 PUSH1 0x1 SHL SWAP2 PUSH1 0x0 NOT SWAP1 PUSH1 0x3 SHL SHR NOT AND OR PUSH1 0x2 DUP6 ADD SSTORE JUMPDEST PUSH1 0x3 DUP5 ADD PUSH1 0x1 DUP1 PUSH1 0xA0 SHL SUB PUSH1 0x60 DUP4 ADD MLOAD AND PUSH12 0xFFFFFFFFFFFFFFFFFFFFFFFF PUSH1 0xA0 SHL DUP3 SLOAD AND OR SWAP1 SSTORE PUSH1 0x80 DUP2 ADD MLOAD PUSH1 0x4 DUP6 ADD SSTORE PUSH1 0xA0 DUP2 ADD MLOAD PUSH1 0x5 DUP6 ADD SSTORE PUSH1 0xC0 DUP2 ADD MLOAD PUSH1 0x6 DUP6 ADD SSTORE PUSH1 0xE0 DUP2 ADD MLOAD PUSH1 0x7 DUP6 ADD SSTORE PUSH2 0x100 DUP2 ADD MLOAD PUSH1 0x8 DUP6 ADD SSTORE PUSH2 0x120 DUP2 ADD MLOAD PUSH1 0x9 DUP6 ADD SSTORE PUSH2 0x140 DUP2 ADD MLOAD PUSH1 0xA DUP6 ADD SSTORE PUSH2 0x160 DUP2 ADD MLOAD PUSH1 0xB DUP6 ADD SSTORE PUSH2 0x180 DUP2 ADD MLOAD PUSH1 0xC DUP6 ADD SSTORE PUSH2 0x1A0 DUP2 ADD MLOAD PUSH1 0xD DUP6 ADD SSTORE ADD MLOAD ISZERO ISZERO SWAP2 ADD SWAP1 PUSH1 0xFF DUP1 NOT DUP4 SLOAD AND SWAP2 ISZERO ISZERO AND OR SWAP1 SSTORE JUMP JUMPDEST PUSH2 0x504 PUSH2 0x764 DUP5 TIMESTAMP PUSH2 0x301B JUMP JUMPDEST SWAP4 TIMESTAMP PUSH2 0x301B JUMP JUMPDEST SWAP1 PUSH1 0x40 MLOAD SWAP5 DUP6 SWAP5 CALLER SWAP10 DUP7 PUSH2 0x32DF JUMP JUMPDEST SUB SWAP1 LOG3 PUSH1 0x40 MLOAD SWAP1 DUP2 MSTORE RETURN JUMPDEST ADD MLOAD SWAP1 POP CODESIZE DUP1 PUSH2 0x697 JUMP JUMPDEST PUSH1 0x2 DUP6 SWAP5 SWAP4 SWAP3 SWAP11 SWAP6 ADD PUSH1 0x0 MSTORE DUP13 PUSH1 0x0 KECCAK256 SWAP1 PUSH1 0x0 JUMPDEST PUSH1 0x1F NOT DUP5 AND DUP2 LT PUSH2 0x81F JUMPI POP PUSH2 0x1C0 PUSH2 0x77A SWAP8 SWAP7 SWAP5 PUSH1 0x1 DUP6 PUSH2 0x76B SWAP9 SWAP6 PUSH32 0x4742CE2D5F823DBDE60D41925BFF9B938299879EBA7F67FA0029C8633D92B654 SWAP15 SWAP16 PUSH1 0xE SWAP7 PUSH2 0x757 SWAP10 PUSH1 0x1F NOT DUP2 AND LT PUSH2 0x806 JUMPI JUMPDEST POP POP POP DUP2 SHL ADD PUSH1 0x2 DUP6 ADD SSTORE PUSH2 0x6AF JUMP JUMPDEST ADD MLOAD PUSH1 0x0 NOT PUSH1 0xF8 DUP5 PUSH1 0x3 SHL AND SHR NOT AND SWAP1 SSTORE CODESIZE DUP1 DUP1 PUSH2 0x7F6 JUMP JUMPDEST DUP2 DUP13 ADD MLOAD DUP4 SSTORE SWAP11 DUP15 ADD SWAP11 DUP14 SWAP11 POP PUSH1 0x1 SWAP1 SWAP3 ADD SWAP2 DUP15 ADD PUSH2 0x7A4 JUMP JUMPDEST PUSH2 0x867 SWAP1 PUSH1 0x2 DUP7 ADD PUSH1 0x0 MSTORE DUP14 PUSH1 0x0 KECCAK256 PUSH1 0x1F DUP6 ADD PUSH1 0x5 SHR DUP2 ADD SWAP2 DUP16 DUP7 LT PUSH2 0x86D JUMPI JUMPDEST PUSH1 0x1F ADD PUSH1 0x5 SHR ADD SWAP1 PUSH2 0x32C8 JUMP JUMPDEST DUP13 PUSH2 0x649 JUMP JUMPDEST SWAP1 SWAP2 POP DUP2 SWAP1 PUSH2 0x85A JUMP JUMPDEST ADD MLOAD SWAP1 POP DUP11 DUP1 PUSH2 0x5FF JUMP JUMPDEST SWAP3 POP PUSH1 0x1 DUP8 ADD PUSH1 0x0 MSTORE PUSH1 0x20 PUSH1 0x0 KECCAK256 SWAP1 PUSH1 0x0 SWAP4 JUMPDEST PUSH1 0x1F NOT DUP5 AND DUP6 LT PUSH2 0x8D9 JUMPI PUSH1 0x1 SWAP5 POP DUP4 PUSH1 0x1F NOT DUP2 AND LT PUSH2 0x8C0 JUMPI JUMPDEST POP POP POP DUP2 SHL ADD PUSH1 0x1 DUP6 ADD SSTORE PUSH2 0x617 JUMP JUMPDEST ADD MLOAD PUSH1 0x0 NOT PUSH1 0xF8 DUP5 PUSH1 0x3 SHL AND SHR NOT AND SWAP1 SSTORE DUP11 DUP1 DUP1 PUSH2 0x8B0 JUMP JUMPDEST DUP2 DUP2 ADD MLOAD DUP4 SSTORE PUSH1 0x20 SWAP5 DUP6 ADD SWAP5 PUSH1 0x1 SWAP1 SWAP4 ADD SWAP3 SWAP1 SWAP2 ADD SWAP1 PUSH2 0x895 JUMP JUMPDEST PUSH2 0x923 SWAP1 PUSH1 0x1 DUP10 ADD PUSH1 0x0 MSTORE PUSH1 0x20 PUSH1 0x0 KECCAK256 PUSH1 0x1F DUP6 ADD PUSH1 0x5 SHR DUP2 ADD SWAP2 PUSH1 0x20 DUP7 LT PUSH2 0x86D JUMPI PUSH1 0x1F ADD PUSH1 0x5 SHR ADD SWAP1 PUSH2 0x32C8 JUMP JUMPDEST DUP12 PUSH2 0x5E8 JUMP JUMPDEST PUSH1 0x40 MLOAD PUSH4 0x33981055 PUSH1 0xE0 SHL DUP2 MSTORE PUSH1 0x4 SWAP1 REVERT JUMPDEST CALLVALUE PUSH2 0x31D JUMPI PUSH1 0x0 CALLDATASIZE PUSH1 0x3 NOT ADD SLT PUSH2 0x31D JUMPI PUSH1 0x20 PUSH1 0x40 MLOAD PUSH1 0x2 DUP2 MSTORE RETURN JUMPDEST CALLVALUE PUSH2 0x31D JUMPI PUSH1 0xA0 CALLDATASIZE PUSH1 0x3 NOT ADD SLT PUSH2 0x31D JUMPI PUSH1 0x4 CALLDATALOAD PUSH1 0x24 CALLDATALOAD SWAP1 PUSH1 0x44 CALLDATALOAD PUSH1 0x64 CALLDATALOAD DUP3 PUSH1 0x0 MSTORE PUSH1 0x20 SWAP2 PUSH1 0xB DUP4 MSTORE PUSH1 0x40 PUSH1 0x0 KECCAK256 SWAP3 PUSH1 0xC DUP2 MSTORE PUSH1 0x40 PUSH1 0x0 KECCAK256 DUP7 PUSH1 0x0 MSTORE DUP2 MSTORE PUSH1 0x40 PUSH1 0x0 KECCAK256 SWAP1 PUSH1 0xFF PUSH1 0xE DUP7 ADD SLOAD AND ISZERO PUSH2 0xC23 JUMPI PUSH1 0x5 DUP6 ADD SLOAD TIMESTAMP GT ISZERO PUSH2 0xC11 JUMPI PUSH1 0x6 DUP6 ADD SLOAD TIMESTAMP GT PUSH2 0xC11 JUMPI PUSH1 0xFF PUSH1 0x7 DUP4 ADD SLOAD AND ISZERO PUSH2 0xBFF JUMPI PUSH1 0x5 DUP3 ADD PUSH1 0xFF DUP2 SLOAD AND PUSH2 0xBED JUMPI PUSH1 0x2 DUP5 GT PUSH2 0xBDB JUMPI PUSH1 0x40 MLOAD SWAP2 PUSH20 0x0 PUSH2 0xA03 DUP5 PUSH2 0x2EBA JUMP JUMPDEST DUP6 DUP5 MSTORE DUP7 DUP3 DUP6 ADD MSTORE PUSH1 0x1 DUP6 ADD SWAP4 DUP5 SLOAD PUSH1 0x40 DUP3 ADD MSTORE DUP10 PUSH1 0x60 DUP3 ADD MSTORE PUSH1 0x40 MLOAD SWAP1 DUP4 DUP3 DUP1 PUSH2 0xA3C PUSH4 0x21C27363 PUSH1 0xE2 SHL SWAP5 DUP6 DUP4 MSTORE PUSH1 0x4 DUP4 ADD PUSH2 0x2FED JUMP JUMPDEST SUB DUP2 DUP7 GAS DELEGATECALL SWAP1 DUP2 ISZERO PUSH2 0xB9C JUMPI DUP5 SWAP3 PUSH1 0x0 SWAP3 PUSH2 0xBA8 JUMPI JUMPDEST POP SWAP3 PUSH2 0xA90 SWAP4 PUSH1 0x40 MLOAD SWAP3 PUSH2 0xA65 DUP5 PUSH2 0x2EBA JUMP JUMPDEST DUP4 MSTORE PUSH1 0x84 CALLDATALOAD DUP5 DUP5 ADD MSTORE PUSH1 0x0 PUSH1 0x40 DUP5 ADD MSTORE PUSH1 0x0 PUSH1 0x60 DUP5 ADD MSTORE PUSH1 0x40 MLOAD DUP1 SWAP6 DUP2 SWAP5 DUP3 SWAP4 DUP4 MSTORE PUSH1 0x4 DUP4 ADD PUSH2 0x2FED JUMP JUMPDEST SUB SWAP2 GAS DELEGATECALL SWAP2 DUP3 ISZERO PUSH2 0xB9C JUMPI PUSH1 0x0 SWAP3 PUSH2 0xB6E JUMPI JUMPDEST POP POP DUP4 SLOAD SUB PUSH2 0xB5C JUMPI PUSH32 0x3C283986862AD16CC4D3240256474E99BFC9DF697A62F7351373CBDEFB3D14F8 SWAP6 DUP5 PUSH1 0x6 PUSH2 0xB2D SWAP6 PUSH1 0xD SWAP5 PUSH1 0x1 PUSH1 0xFF NOT DUP3 SLOAD AND OR SWAP1 SSTORE ADD SSTORE PUSH1 0x1 DUP6 EQ PUSH1 0x0 EQ PUSH2 0xB32 JUMPI PUSH1 0x8 DUP2 ADD PUSH2 0xAFF DUP8 DUP3 SLOAD PUSH2 0x301B JUMP JUMPDEST SWAP1 SSTORE JUMPDEST ADD PUSH2 0xB0D DUP2 SLOAD PUSH2 0x3028 JUMP JUMPDEST SWAP1 SSTORE SLOAD PUSH1 0x40 MLOAD SWAP4 DUP5 SWAP4 DUP5 PUSH1 0x40 SWAP2 SWAP5 SWAP4 SWAP3 PUSH1 0x60 DUP3 ADD SWAP6 DUP3 MSTORE PUSH1 0x20 DUP3 ADD MSTORE ADD MSTORE JUMP JUMPDEST SUB SWAP1 LOG3 STOP JUMPDEST DUP5 PUSH2 0xB4D JUMPI PUSH1 0x9 DUP2 ADD PUSH2 0xB46 DUP8 DUP3 SLOAD PUSH2 0x301B JUMP JUMPDEST SWAP1 SSTORE PUSH2 0xB02 JUMP JUMPDEST PUSH1 0xA DUP2 ADD PUSH2 0xB46 DUP8 DUP3 SLOAD PUSH2 0x301B JUMP JUMPDEST PUSH1 0x40 MLOAD PUSH4 0x9EA6D127 PUSH1 0xE0 SHL DUP2 MSTORE PUSH1 0x4 SWAP1 REVERT JUMPDEST SWAP1 DUP1 SWAP3 POP DUP2 RETURNDATASIZE DUP4 GT PUSH2 0xB95 JUMPI JUMPDEST PUSH2 0xB85 DUP2 DUP4 PUSH2 0x2F27 JUMP JUMPDEST DUP2 ADD SUB SLT PUSH2 0x31D JUMPI MLOAD DUP10 DUP1 PUSH2 0xAA3 JUMP JUMPDEST POP RETURNDATASIZE PUSH2 0xB7B JUMP JUMPDEST PUSH1 0x40 MLOAD RETURNDATASIZE PUSH1 0x0 DUP3 RETURNDATACOPY RETURNDATASIZE SWAP1 REVERT JUMPDEST DUP4 DUP2 SWAP5 SWAP3 SWAP4 POP RETURNDATASIZE DUP4 GT PUSH2 0xBD4 JUMPI JUMPDEST PUSH2 0xBC0 DUP2 DUP4 PUSH2 0x2F27 JUMP JUMPDEST DUP2 ADD SUB SLT PUSH2 0x31D JUMPI SWAP1 MLOAD DUP4 SWAP2 PUSH2 0xA90 PUSH2 0xA52 JUMP JUMPDEST POP RETURNDATASIZE PUSH2 0xBB6 JUMP JUMPDEST PUSH1 0x40 MLOAD PUSH4 0x9C454001 PUSH1 0xE0 SHL DUP2 MSTORE PUSH1 0x4 SWAP1 REVERT JUMPDEST PUSH1 0x40 MLOAD PUSH4 0xA89AC151 PUSH1 0xE0 SHL DUP2 MSTORE PUSH1 0x4 SWAP1 REVERT JUMPDEST PUSH1 0x40 MLOAD PUSH4 0x5B341569 PUSH1 0xE1 SHL DUP2 MSTORE PUSH1 0x4 SWAP1 REVERT JUMPDEST PUSH1 0x40 MLOAD PUSH4 0x74683D71 PUSH1 0xE0 SHL DUP2 MSTORE PUSH1 0x4 SWAP1 REVERT JUMPDEST PUSH1 0x40 MLOAD PUSH4 0x635E8737 PUSH1 0xE0 SHL DUP2 MSTORE PUSH1 0x4 SWAP1 REVERT JUMPDEST CALLVALUE PUSH2 0x31D JUMPI PUSH1 0x20 CALLDATASIZE PUSH1 0x3 NOT ADD SLT PUSH2 0x31D JUMPI PUSH1 0x4 CALLDATALOAD PUSH1 0x0 MSTORE PUSH1 0xB PUSH1 0x20 MSTORE PUSH1 0x40 PUSH1 0x0 KECCAK256 PUSH1 0xFF PUSH1 0xE DUP3 ADD SLOAD AND ISZERO PUSH2 0xC23 JUMPI PUSH1 0x5 DUP2 ADD SLOAD TIMESTAMP DUP2 LT PUSH2 0xD40 JUMPI PUSH1 0x0 SWAP1 JUMPDEST DUP3 SLOAD SWAP2 PUSH1 0x1 PUSH1 0xA0 SHL PUSH1 0x1 SWAP1 SUB PUSH1 0x3 DUP6 ADD SLOAD AND SWAP2 PUSH1 0x7 DUP6 ADD SLOAD SWAP1 PUSH1 0x6 DUP7 ADD SLOAD PUSH1 0x8 DUP8 ADD SLOAD PUSH1 0x9 DUP9 ADD SLOAD PUSH1 0xA DUP10 ADD SLOAD SWAP2 PUSH1 0xB DUP11 ADD SLOAD SWAP4 PUSH1 0xC DUP12 ADD SLOAD SWAP6 PUSH1 0xD DUP13 ADD SLOAD SWAP8 PUSH1 0x1 DUP14 ADD PUSH2 0xCC0 SWAP1 PUSH2 0x2F48 JUMP JUMPDEST SWAP13 PUSH1 0x2 ADD PUSH2 0xCCD SWAP1 PUSH2 0x2F48 JUMP JUMPDEST PUSH1 0x40 MLOAD SWAP14 DUP15 SWAP14 DUP15 PUSH2 0x1C0 SWAP2 DUP2 MSTORE DUP2 PUSH1 0x20 DUP3 ADD MSTORE ADD PUSH2 0xCEA SWAP2 PUSH2 0x2DBD JUMP JUMPDEST DUP14 DUP2 SUB PUSH1 0x40 DUP16 ADD MSTORE PUSH2 0xCFB SWAP2 PUSH2 0x2DBD JUMP JUMPDEST SWAP11 PUSH1 0x60 DUP14 ADD MSTORE PUSH1 0x80 DUP13 ADD MSTORE PUSH1 0xA0 DUP12 ADD MSTORE PUSH1 0xC0 DUP11 ADD MSTORE PUSH1 0xE0 DUP10 ADD MSTORE PUSH2 0x100 DUP9 ADD MSTORE PUSH2 0x120 DUP8 ADD MSTORE PUSH2 0x140 DUP7 ADD MSTORE PUSH2 0x160 DUP6 ADD MSTORE PUSH2 0x180 DUP5 ADD MSTORE PUSH1 0xFF AND PUSH2 0x1A0 DUP4 ADD MSTORE SUB SWAP1 RETURN JUMPDEST PUSH1 0x6 DUP3 ADD SLOAD TIMESTAMP GT PUSH2 0xD53 JUMPI PUSH1 0x1 SWAP1 PUSH2 0xC73 JUMP JUMPDEST PUSH1 0x2 SWAP1 PUSH2 0xC73 JUMP JUMPDEST CALLVALUE PUSH2 0x31D JUMPI PUSH1 0x20 CALLDATASIZE PUSH1 0x3 NOT ADD SLT PUSH2 0x31D JUMPI PUSH1 0x4 CALLDATALOAD DUP1 PUSH1 0x0 MSTORE PUSH1 0xE PUSH1 0x20 MSTORE PUSH1 0x40 PUSH1 0x0 KECCAK256 PUSH1 0x1 PUSH1 0xFF NOT DUP3 SLOAD AND OR SWAP1 SSTORE PUSH1 0xF SLOAD PUSH1 0x1 PUSH1 0x40 SHL DUP2 LT ISZERO PUSH2 0x307 JUMPI PUSH1 0x1 DUP2 ADD DUP1 PUSH1 0xF SSTORE DUP2 LT ISZERO PUSH2 0xDFC JUMPI DUP2 SWAP1 PUSH1 0xF PUSH1 0x0 MSTORE PUSH32 0x8D1108E10BCB7C27DDDFC02ED9D693A074039D026CF4EA4240B40F7D581AC802 ADD SSTORE PUSH32 0xC437041ECA78E842FF32DC1036255A23DA98C52B2F3BD3A875923AADB0276B3D PUSH1 0x20 PUSH1 0x40 MLOAD TIMESTAMP DUP2 MSTORE LOG2 STOP JUMPDEST PUSH4 0x4E487B71 PUSH1 0xE0 SHL PUSH1 0x0 MSTORE PUSH1 0x32 PUSH1 0x4 MSTORE PUSH1 0x24 PUSH1 0x0 REVERT JUMPDEST CALLVALUE PUSH2 0x31D JUMPI PUSH1 0x20 CALLDATASIZE PUSH1 0x3 NOT ADD SLT PUSH2 0x31D JUMPI PUSH1 0x4 CALLDATALOAD PUSH1 0x0 MSTORE PUSH1 0x6 PUSH1 0x20 MSTORE PUSH1 0x20 PUSH1 0xFF PUSH1 0x40 PUSH1 0x0 KECCAK256 SLOAD AND PUSH1 0x40 MLOAD SWAP1 ISZERO ISZERO DUP2 MSTORE RETURN JUMPDEST CALLVALUE PUSH2 0x31D JUMPI PUSH2 0x1A0 CALLDATASIZE PUSH1 0x3 NOT ADD SLT PUSH2 0x31D JUMPI PUSH1 0x84 CALLDATALOAD PUSH1 0x4 CALLDATALOAD PUSH1 0x64 CALLDATALOAD PUSH1 0x44 CALLDATALOAD PUSH1 0x24 CALLDATALOAD CALLDATASIZE PUSH1 0xE4 GT PUSH2 0x31D JUMPI PUSH2 0x164 SWAP3 CALLDATASIZE DUP5 GT PUSH2 0x31D JUMPI PUSH2 0x1A4 SWAP1 CALLDATASIZE DUP3 GT PUSH2 0x31D JUMPI DUP6 PUSH1 0x0 MSTORE PUSH1 0x20 SWAP2 PUSH1 0xB DUP4 MSTORE PUSH1 0x40 PUSH1 0x0 KECCAK256 SWAP6 PUSH1 0xFF PUSH1 0xE DUP9 ADD SLOAD AND ISZERO PUSH2 0xC23 JUMPI PUSH1 0x5 DUP8 ADD SLOAD TIMESTAMP GT PUSH2 0x12D2 JUMPI DUP8 PUSH1 0x0 MSTORE PUSH1 0xD DUP5 MSTORE PUSH1 0x40 PUSH1 0x0 KECCAK256 DUP10 PUSH1 0x0 MSTORE DUP5 MSTORE PUSH1 0xFF PUSH1 0x40 PUSH1 0x0 KECCAK256 SLOAD AND PUSH2 0x12C0 JUMPI PUSH2 0xED5 DUP7 DUP1 PUSH2 0x3205 JUMP JUMPDEST DUP4 SUB PUSH2 0x12AE JUMPI DUP4 PUSH1 0x40 MLOAD SWAP2 PUSH2 0xEE9 DUP4 PUSH2 0x2ED5 JUMP JUMPDEST DUP11 DUP4 MSTORE DUP7 DUP3 DUP5 ADD MSTORE DUP10 PUSH1 0x40 DUP5 ADD MSTORE DUP5 PUSH1 0x60 DUP5 ADD MSTORE PUSH1 0x7 DUP10 ADD SLOAD PUSH1 0x80 DUP5 ADD MSTORE PUSH1 0x1 DUP1 PUSH1 0xA0 SHL SUB SWAP4 PUSH1 0x40 MLOAD SWAP4 DUP5 SWAP3 PUSH4 0x34BAEAB9 PUSH1 0xE0 SHL DUP5 MSTORE PUSH1 0x40 PUSH1 0xA4 PUSH1 0x4 DUP7 ADD CALLDATACOPY PUSH1 0xE4 PUSH1 0x0 PUSH1 0x44 DUP7 ADD JUMPDEST PUSH1 0x2 DUP3 LT PUSH2 0x1289 JUMPI POP POP POP SWAP1 PUSH1 0x40 PUSH2 0xF53 SWAP3 PUSH1 0xC4 DUP7 ADD CALLDATACOPY PUSH2 0x104 DUP5 ADD SWAP1 PUSH2 0x304F JUMP JUMPDEST DUP2 DUP6 PUSH32 0x0 AND GAS STATICCALL SWAP1 DUP2 ISZERO PUSH2 0xB9C JUMPI PUSH1 0x0 SWAP2 PUSH2 0x126C JUMPI JUMPDEST POP ISZERO PUSH2 0x125A JUMPI PUSH8 0xDE0B6B3A7640000 SWAP1 DUP2 DUP4 MUL SWAP1 DUP4 DUP3 DIV DUP4 EQ DUP5 ISZERO OR ISZERO PUSH2 0x11D6 JUMPI PUSH1 0x40 MLOAD PUSH4 0x70A08231 PUSH1 0xE0 SHL DUP2 MSTORE CALLER PUSH1 0x4 DUP3 ADD MSTORE SWAP2 PUSH32 0x0 DUP3 AND SWAP2 SWAP1 DUP7 DUP5 PUSH1 0x24 DUP2 DUP7 GAS STATICCALL SWAP4 DUP5 ISZERO PUSH2 0xB9C JUMPI PUSH1 0x0 SWAP5 PUSH2 0x122B JUMPI JUMPDEST POP DUP1 DUP5 LT PUSH2 0x1219 JUMPI PUSH1 0x0 DUP1 SLOAD PUSH1 0x40 MLOAD PUSH4 0x23B872DD PUSH1 0xE0 SHL DUP2 MSTORE CALLER PUSH1 0x4 DUP3 ADD MSTORE SWAP4 AND PUSH1 0x1 PUSH1 0x1 PUSH1 0xA0 SHL SUB AND PUSH1 0x24 DUP5 ADD MSTORE PUSH1 0x44 DUP4 ADD SWAP2 SWAP1 SWAP2 MSTORE SWAP1 SWAP2 DUP7 SWAP2 DUP4 SWAP2 SWAP1 DUP3 SWAP1 DUP2 PUSH1 0x64 DUP2 ADD SUB SWAP3 GAS CALL DUP1 ISZERO PUSH2 0xB9C JUMPI PUSH2 0x105A SWAP2 PUSH1 0x0 SWAP2 PUSH2 0x11EC JUMPI JUMPDEST POP PUSH2 0x3240 JUMP JUMPDEST DIV DUP2 DUP2 SUB SWAP1 DUP2 GT PUSH2 0x11D6 JUMPI PUSH32 0xBCF4FA36949E1955AF2C6B6B628E50DB0E23EC473B26480F3A584DD5A5D8953B SWAP6 PUSH2 0x119B DUP10 PUSH1 0x7 DUP11 PUSH2 0xB2D SWAP8 PUSH1 0xB SWAP7 PUSH1 0x40 MLOAD SWAP1 DUP10 DUP3 MSTORE DUP3 DUP3 ADD MSTORE PUSH32 0x380F4B80AC5D183FF04F143A097611558815196006B7297CAE774C0B5680A5EE PUSH1 0x40 CALLER SWAP3 LOG2 DUP2 PUSH1 0x0 MSTORE PUSH1 0xD DUP2 MSTORE PUSH1 0x40 PUSH1 0x0 KECCAK256 DUP5 PUSH1 0x0 MSTORE DUP2 MSTORE PUSH1 0x40 PUSH1 0x0 KECCAK256 PUSH1 0x1 PUSH1 0xFF NOT DUP3 SLOAD AND OR SWAP1 SSTORE PUSH2 0x117F PUSH1 0x40 MLOAD SWAP5 PUSH2 0x10F9 DUP7 PUSH2 0x2EF0 JUMP JUMPDEST DUP12 DUP7 MSTORE DUP3 DUP7 ADD DUP11 DUP2 MSTORE DUP14 PUSH1 0x40 DUP9 ADD SWAP1 DUP2 MSTORE PUSH1 0x60 DUP9 ADD SWAP1 DUP4 DUP3 MSTORE PUSH1 0x80 DUP10 ADD SWAP3 TIMESTAMP DUP5 MSTORE PUSH1 0xA0 DUP11 ADD SWAP5 PUSH1 0x0 DUP7 MSTORE PUSH1 0xC0 DUP12 ADD SWAP8 PUSH1 0x0 DUP10 MSTORE PUSH1 0xE0 DUP13 ADD SWAP10 PUSH1 0x1 DUP12 MSTORE PUSH1 0x0 MSTORE PUSH1 0xC DUP2 MSTORE PUSH1 0x40 PUSH1 0x0 KECCAK256 SWAP2 PUSH1 0x0 MSTORE MSTORE PUSH1 0x40 PUSH1 0x0 KECCAK256 SWAP10 MLOAD DUP11 SSTORE MLOAD PUSH1 0x1 DUP11 ADD SSTORE MLOAD PUSH1 0x2 DUP10 ADD SSTORE MLOAD PUSH1 0x3 DUP9 ADD SSTORE MLOAD PUSH1 0x4 DUP8 ADD SSTORE MLOAD ISZERO ISZERO PUSH1 0x5 DUP7 ADD SWAP1 PUSH1 0xFF DUP1 NOT DUP4 SLOAD AND SWAP2 ISZERO ISZERO AND OR SWAP1 SSTORE JUMP JUMPDEST MLOAD PUSH1 0x6 DUP5 ADD SSTORE MLOAD ISZERO ISZERO SWAP2 ADD SWAP1 PUSH1 0xFF DUP1 NOT DUP4 SLOAD AND SWAP2 ISZERO ISZERO AND OR SWAP1 SSTORE JUMP JUMPDEST PUSH1 0xC DUP2 ADD PUSH2 0x11A9 DUP2 SLOAD PUSH2 0x3028 JUMP JUMPDEST SWAP1 SSTORE ADD PUSH2 0x11B7 DUP3 DUP3 SLOAD PUSH2 0x301B JUMP JUMPDEST SWAP1 SSTORE PUSH1 0x40 MLOAD SWAP4 DUP5 SWAP4 DUP5 PUSH1 0x40 SWAP2 SWAP5 SWAP4 SWAP3 PUSH1 0x60 DUP3 ADD SWAP6 DUP3 MSTORE PUSH1 0x20 DUP3 ADD MSTORE ADD MSTORE JUMP JUMPDEST PUSH4 0x4E487B71 PUSH1 0xE0 SHL PUSH1 0x0 MSTORE PUSH1 0x11 PUSH1 0x4 MSTORE PUSH1 0x24 PUSH1 0x0 REVERT JUMPDEST PUSH2 0x120C SWAP2 POP DUP7 RETURNDATASIZE DUP9 GT PUSH2 0x1212 JUMPI JUMPDEST PUSH2 0x1204 DUP2 DUP4 PUSH2 0x2F27 JUMP JUMPDEST DUP2 ADD SWAP1 PUSH2 0x3037 JUMP JUMPDEST DUP12 PUSH2 0x1054 JUMP JUMPDEST POP RETURNDATASIZE PUSH2 0x11FA JUMP JUMPDEST PUSH1 0x40 MLOAD PUSH4 0x43FB9453 PUSH1 0xE0 SHL DUP2 MSTORE PUSH1 0x4 SWAP1 REVERT JUMPDEST SWAP1 SWAP4 POP DUP7 DUP2 DUP2 RETURNDATASIZE DUP4 GT PUSH2 0x1253 JUMPI JUMPDEST PUSH2 0x1243 DUP2 DUP4 PUSH2 0x2F27 JUMP JUMPDEST DUP2 ADD SUB SLT PUSH2 0x31D JUMPI MLOAD SWAP3 DUP13 PUSH2 0xFF9 JUMP JUMPDEST POP RETURNDATASIZE PUSH2 0x1239 JUMP JUMPDEST PUSH1 0x40 MLOAD PUSH4 0x9BDE339 PUSH1 0xE0 SHL DUP2 MSTORE PUSH1 0x4 SWAP1 REVERT JUMPDEST PUSH2 0x1283 SWAP2 POP DUP5 RETURNDATASIZE DUP7 GT PUSH2 0x1212 JUMPI PUSH2 0x1204 DUP2 DUP4 PUSH2 0x2F27 JUMP JUMPDEST DUP10 PUSH2 0xF88 JUMP JUMPDEST PUSH1 0x40 SWAP2 SWAP4 SWAP6 SWAP8 POP DUP3 SWAP5 SWAP7 POP DUP1 DUP3 PUSH1 0x1 SWAP5 DUP2 SWAP4 CALLDATACOPY ADD SWAP4 ADD SWAP2 ADD SWAP1 DUP10 SWAP6 SWAP4 SWAP2 DUP8 SWAP6 SWAP4 PUSH2 0xF31 JUMP JUMPDEST PUSH1 0x40 MLOAD PUSH4 0x15252A29 PUSH1 0xE2 SHL DUP2 MSTORE PUSH1 0x4 SWAP1 REVERT JUMPDEST PUSH1 0x40 MLOAD PUSH4 0x65695701 PUSH1 0xE1 SHL DUP2 MSTORE PUSH1 0x4 SWAP1 REVERT JUMPDEST PUSH1 0x40 MLOAD PUSH4 0xABFB7DC3 PUSH1 0xE0 SHL DUP2 MSTORE PUSH1 0x4 SWAP1 REVERT JUMPDEST CALLVALUE PUSH2 0x31D JUMPI PUSH1 0x20 CALLDATASIZE PUSH1 0x3 NOT ADD SLT PUSH2 0x31D JUMPI PUSH1 0x4 CALLDATALOAD PUSH1 0x7 SLOAD DUP2 LT ISZERO PUSH2 0x31D JUMPI PUSH1 0x20 SWAP1 PUSH1 0x7 PUSH1 0x0 MSTORE PUSH32 0xA66CC928B5EDB82AF9BD49922954155AB7B0942694BEA4CE44661D9A8736C688 ADD SLOAD PUSH1 0x40 MLOAD SWAP1 DUP2 MSTORE RETURN JUMPDEST CALLVALUE PUSH2 0x31D JUMPI PUSH1 0x0 CALLDATASIZE PUSH1 0x3 NOT ADD SLT PUSH2 0x31D JUMPI PUSH1 0x20 PUSH1 0x40 MLOAD PUSH1 0x0 DUP2 MSTORE RETURN JUMPDEST CALLVALUE PUSH2 0x31D JUMPI PUSH1 0x20 CALLDATASIZE PUSH1 0x3 NOT ADD SLT PUSH2 0x31D JUMPI PUSH1 0x4 CALLDATALOAD PUSH1 0x0 MSTORE PUSH1 0xB PUSH1 0x20 MSTORE PUSH1 0x40 PUSH1 0x0 KECCAK256 DUP1 SLOAD PUSH1 0x1 DUP3 ADD PUSH2 0x1381 SWAP1 PUSH2 0x2F48 JUMP JUMPDEST PUSH2 0x138D PUSH1 0x2 DUP5 ADD PUSH2 0x2F48 JUMP JUMPDEST SWAP3 PUSH1 0x1 PUSH1 0xA0 SHL PUSH1 0x1 SWAP1 SUB PUSH1 0x3 DUP3 ADD SLOAD AND SWAP1 PUSH1 0x4 DUP2 ADD SLOAD PUSH1 0x5 DUP3 ADD SLOAD PUSH1 0x6 DUP4 ADD SLOAD PUSH1 0x7 DUP5 ADD SLOAD PUSH1 0x8 DUP6 ADD SLOAD PUSH1 0x9 DUP7 ADD SLOAD SWAP2 PUSH1 0xA DUP8 ADD SLOAD SWAP4 PUSH1 0xB DUP9 ADD SLOAD SWAP6 PUSH1 0xC DUP10 ADD SLOAD SWAP8 PUSH1 0xD DUP11 ADD SLOAD SWAP10 PUSH1 0xE ADD SLOAD PUSH1 0xFF AND SWAP11 PUSH1 0x40 MLOAD SWAP15 DUP16 SWAP15 DUP16 SWAP15 DUP16 SWAP2 PUSH2 0x1E0 SWAP1 DUP4 MSTORE DUP1 PUSH1 0x20 DUP5 ADD MSTORE DUP3 ADD PUSH2 0x13FE SWAP2 PUSH2 0x2DBD JUMP JUMPDEST SWAP1 DUP1 DUP3 SUB SWAP1 PUSH1 0x40 ADD MSTORE PUSH2 0x1410 SWAP2 PUSH2 0x2DBD JUMP JUMPDEST SWAP13 PUSH1 0x60 ADD MSTORE PUSH1 0x80 DUP14 ADD MSTORE PUSH1 0xA0 DUP13 ADD MSTORE PUSH1 0xC0 DUP12 ADD MSTORE PUSH1 0xE0 DUP11 ADD MSTORE PUSH2 0x100 DUP10 ADD MSTORE PUSH2 0x120 DUP9 ADD MSTORE PUSH2 0x140 DUP8 ADD MSTORE PUSH2 0x160 DUP7 ADD MSTORE PUSH2 0x180 DUP6 ADD MSTORE PUSH2 0x1A0 DUP5 ADD MSTORE ISZERO ISZERO PUSH2 0x1C0 DUP4 ADD MSTORE SUB SWAP1 RETURN JUMPDEST CALLVALUE PUSH2 0x31D JUMPI PUSH1 0x20 DUP1 PUSH1 0x3 NOT CALLDATASIZE ADD SLT PUSH2 0x31D JUMPI PUSH1 0x24 DUP2 PUSH2 0x1476 PUSH2 0x2D1C JUMP JUMPDEST PUSH1 0x40 MLOAD PUSH4 0x70A08231 PUSH1 0xE0 SHL DUP2 MSTORE PUSH1 0x1 PUSH1 0x1 PUSH1 0xA0 SHL SUB SWAP2 DUP3 AND PUSH1 0x4 DUP3 ADD MSTORE SWAP3 DUP4 SWAP2 DUP3 SWAP1 PUSH32 0x0 AND GAS STATICCALL SWAP1 DUP2 ISZERO PUSH2 0xB9C JUMPI PUSH1 0x0 SWAP2 PUSH2 0x14DE JUMPI JUMPDEST POP PUSH8 0xDE0B6B3A7640000 PUSH1 0x40 MLOAD SWAP2 DIV DUP2 MSTORE RETURN JUMPDEST SWAP1 POP DUP2 DUP2 DUP2 RETURNDATASIZE DUP4 GT PUSH2 0x1504 JUMPI JUMPDEST PUSH2 0x14F5 DUP2 DUP4 PUSH2 0x2F27 JUMP JUMPDEST DUP2 ADD SUB SLT PUSH2 0x31D JUMPI MLOAD DUP3 PUSH2 0x14CB JUMP JUMPDEST POP RETURNDATASIZE PUSH2 0x14EB JUMP JUMPDEST CALLVALUE PUSH2 0x31D JUMPI PUSH2 0x1519 CALLDATASIZE PUSH2 0x2D06 JUMP JUMPDEST DUP2 PUSH1 0x0 MSTORE PUSH1 0x3 SWAP2 PUSH1 0x20 PUSH1 0x3 PUSH1 0x20 MSTORE PUSH1 0x40 PUSH1 0x0 KECCAK256 PUSH1 0xFF PUSH1 0xD DUP3 ADD SLOAD AND ISZERO PUSH2 0xC23 JUMPI PUSH1 0x7 DUP5 SWAP2 ADD SSTORE DUP2 PUSH1 0x0 MSTORE PUSH1 0xA SWAP2 PUSH1 0xA PUSH1 0x20 MSTORE PUSH1 0x40 PUSH1 0x0 KECCAK256 DUP1 SLOAD PUSH1 0x0 DUP3 SSTORE DUP1 PUSH2 0x15CA JUMPI JUMPDEST POP POP PUSH1 0x0 JUMPDEST PUSH1 0x8 SLOAD DUP2 LT ISZERO PUSH2 0x1598 JUMPI PUSH1 0x1 SWAP1 DUP3 PUSH1 0x0 MSTORE DUP5 DUP5 MSTORE PUSH2 0x1592 PUSH1 0x40 PUSH1 0x0 KECCAK256 PUSH2 0x1586 DUP4 PUSH2 0x2D32 JUMP JUMPDEST SWAP1 SLOAD SWAP1 DUP11 SHL SHR SWAP1 PUSH2 0x30BF JUMP JUMPDEST ADD PUSH2 0x1561 JUMP JUMPDEST DUP5 DUP1 PUSH1 0x0 MSTORE PUSH1 0x6 PUSH1 0x20 MSTORE PUSH1 0x40 PUSH1 0x0 KECCAK256 SWAP1 DUP2 SLOAD SWAP2 PUSH1 0xFF DUP4 AND ISZERO PUSH2 0x15B6 JUMPI STOP JUMPDEST PUSH1 0x1 PUSH2 0x15C8 SWAP4 PUSH1 0xFF NOT AND OR SWAP1 SSTORE PUSH2 0x3077 JUMP JUMPDEST STOP JUMPDEST PUSH2 0x15DF SWAP2 PUSH1 0x0 MSTORE PUSH1 0x20 PUSH1 0x0 KECCAK256 SWAP1 DUP2 ADD SWAP1 PUSH2 0x32C8 JUMP JUMPDEST DUP6 DUP1 PUSH2 0x155C JUMP JUMPDEST CALLVALUE PUSH2 0x31D JUMPI PUSH1 0x20 CALLDATASIZE PUSH1 0x3 NOT ADD SLT PUSH2 0x31D JUMPI PUSH1 0x4 CALLDATALOAD DUP1 PUSH1 0x0 MSTORE PUSH1 0x6 PUSH1 0x20 MSTORE PUSH1 0x40 PUSH1 0x0 KECCAK256 PUSH1 0x1 PUSH1 0xFF NOT DUP3 SLOAD AND OR SWAP1 SSTORE PUSH2 0x161C DUP2 PUSH2 0x3077 JUMP JUMPDEST PUSH32 0xCB23ED79D0D407699762F186152925A6B8DD62FC4B2223F50A16534AF8C883F8 PUSH1 0x20 PUSH1 0x40 MLOAD TIMESTAMP DUP2 MSTORE LOG2 STOP JUMPDEST CALLVALUE PUSH2 0x31D JUMPI PUSH1 0x20 CALLDATASIZE PUSH1 0x3 NOT ADD SLT PUSH2 0x31D JUMPI PUSH1 0x4 CALLDATALOAD PUSH1 0xF SLOAD DUP2 LT ISZERO PUSH2 0x31D JUMPI PUSH1 0x20 SWAP1 PUSH1 0xF PUSH1 0x0 MSTORE PUSH32 0x8D1108E10BCB7C27DDDFC02ED9D693A074039D026CF4EA4240B40F7D581AC802 ADD SLOAD PUSH1 0x40 MLOAD SWAP1 DUP2 MSTORE RETURN JUMPDEST CALLVALUE PUSH2 0x31D JUMPI PUSH1 0x0 CALLDATASIZE PUSH1 0x3 NOT ADD SLT PUSH2 0x31D JUMPI PUSH1 0x40 MLOAD DUP1 PUSH1 0x10 SLOAD SWAP2 DUP3 DUP2 MSTORE PUSH1 0x20 DUP1 SWAP2 ADD SWAP3 PUSH1 0x10 PUSH1 0x0 MSTORE PUSH32 0x1B6847DC741A1B0CD08D278845F9D819D87B734759AFB55FE2DE5CB82A9AE672 SWAP2 PUSH1 0x0 SWAP1 JUMPDEST DUP3 DUP3 LT PUSH2 0x170D JUMPI PUSH2 0x1709 DUP6 PUSH2 0x16FD DUP2 DUP10 SUB DUP3 PUSH2 0x2F27 JUMP JUMPDEST PUSH1 0x40 MLOAD SWAP2 DUP3 SWAP2 DUP3 PUSH2 0x2D81 JUMP JUMPDEST SUB SWAP1 RETURN JUMPDEST DUP4 SLOAD DUP7 MSTORE SWAP5 DUP6 ADD SWAP5 PUSH1 0x1 SWAP4 DUP5 ADD SWAP4 SWAP1 SWAP2 ADD SWAP1 PUSH2 0x16E6 JUMP JUMPDEST CALLVALUE PUSH2 0x31D JUMPI PUSH1 0x20 CALLDATASIZE PUSH1 0x3 NOT ADD SLT PUSH2 0x31D JUMPI PUSH2 0x15C8 PUSH1 0x4 CALLDATALOAD PUSH2 0x335B JUMP JUMPDEST CALLVALUE PUSH2 0x31D JUMPI PUSH1 0x20 CALLDATASIZE PUSH1 0x3 NOT ADD SLT PUSH2 0x31D JUMPI PUSH1 0x4 CALLDATALOAD PUSH1 0x10 SLOAD DUP2 LT ISZERO PUSH2 0x31D JUMPI PUSH1 0x20 SWAP1 PUSH1 0x10 PUSH1 0x0 MSTORE PUSH32 0x1B6847DC741A1B0CD08D278845F9D819D87B734759AFB55FE2DE5CB82A9AE672 ADD SLOAD PUSH1 0x40 MLOAD SWAP1 DUP2 MSTORE RETURN JUMPDEST CALLVALUE PUSH2 0x31D JUMPI PUSH1 0x0 CALLDATASIZE PUSH1 0x3 NOT ADD SLT PUSH2 0x31D JUMPI PUSH1 0x40 MLOAD PUSH32 0x0 PUSH1 0x1 PUSH1 0x1 PUSH1 0xA0 SHL SUB AND DUP2 MSTORE PUSH1 0x20 SWAP1 RETURN JUMPDEST CALLVALUE PUSH2 0x31D JUMPI PUSH1 0x0 CALLDATASIZE PUSH1 0x3 NOT ADD SLT PUSH2 0x31D JUMPI PUSH1 0x20 PUSH1 0x40 MLOAD PUSH1 0x1 DUP2 MSTORE RETURN JUMPDEST CALLVALUE PUSH2 0x31D JUMPI PUSH1 0x20 CALLDATASIZE PUSH1 0x3 NOT ADD SLT PUSH2 0x31D JUMPI PUSH1 0x20 PUSH2 0x1810 PUSH1 0x4 CALLDATALOAD PUSH2 0x331A JUMP JUMPDEST PUSH1 0xFF PUSH1 0x40 MLOAD SWAP2 AND DUP2 MSTORE RETURN JUMPDEST CALLVALUE PUSH2 0x31D JUMPI PUSH2 0x1829 CALLDATASIZE PUSH2 0x2D06 JUMP JUMPDEST SWAP1 PUSH1 0x0 MSTORE PUSH1 0xD PUSH1 0x20 MSTORE PUSH1 0x40 PUSH1 0x0 KECCAK256 SWAP1 PUSH1 0x0 MSTORE PUSH1 0x20 MSTORE PUSH1 0x20 PUSH1 0xFF PUSH1 0x40 PUSH1 0x0 KECCAK256 SLOAD AND PUSH1 0x40 MLOAD SWAP1 ISZERO ISZERO DUP2 MSTORE RETURN JUMPDEST CALLVALUE PUSH2 0x31D JUMPI PUSH1 0x0 CALLDATASIZE PUSH1 0x3 NOT ADD SLT PUSH2 0x31D JUMPI PUSH1 0x40 MLOAD PUSH32 0x0 PUSH1 0x1 PUSH1 0x1 PUSH1 0xA0 SHL SUB AND DUP2 MSTORE PUSH1 0x20 SWAP1 RETURN JUMPDEST CALLVALUE PUSH2 0x31D JUMPI PUSH1 0x20 CALLDATASIZE PUSH1 0x3 NOT ADD SLT PUSH2 0x31D JUMPI PUSH1 0x20 PUSH2 0x18B7 PUSH1 0x4 CALLDATALOAD DUP1 PUSH2 0x3205 JUMP JUMPDEST PUSH1 0x40 MLOAD SWAP1 DUP2 MSTORE RETURN JUMPDEST CALLVALUE PUSH2 0x31D JUMPI PUSH1 0x20 CALLDATASIZE PUSH1 0x3 NOT ADD SLT PUSH2 0x31D JUMPI PUSH1 0x4 CALLDATALOAD PUSH1 0x0 MSTORE PUSH1 0x9 PUSH1 0x20 MSTORE PUSH1 0x20 PUSH1 0xFF PUSH1 0x40 PUSH1 0x0 KECCAK256 SLOAD AND PUSH1 0x40 MLOAD SWAP1 ISZERO ISZERO DUP2 MSTORE RETURN JUMPDEST CALLVALUE PUSH2 0x31D JUMPI PUSH1 0x0 CALLDATASIZE PUSH1 0x3 NOT ADD SLT PUSH2 0x31D JUMPI PUSH1 0x20 PUSH1 0x40 MLOAD PUSH2 0x2710 DUP2 MSTORE RETURN JUMPDEST CALLVALUE PUSH2 0x31D JUMPI PUSH1 0x0 CALLDATASIZE PUSH1 0x3 NOT ADD SLT PUSH2 0x31D JUMPI PUSH1 0x0 SLOAD PUSH1 0x40 MLOAD PUSH1 0x1 PUSH1 0x1 PUSH1 0xA0 SHL SUB SWAP1 SWAP2 AND DUP2 MSTORE PUSH1 0x20 SWAP1 RETURN JUMPDEST CALLVALUE PUSH2 0x31D JUMPI PUSH2 0x1944 CALLDATASIZE PUSH2 0x2D06 JUMP JUMPDEST SWAP1 PUSH1 0x0 MSTORE PUSH1 0x5 PUSH1 0x20 MSTORE PUSH1 0x40 PUSH1 0x0 KECCAK256 SWAP1 PUSH1 0x0 MSTORE PUSH1 0x20 MSTORE PUSH1 0x20 PUSH1 0xFF PUSH1 0x40 PUSH1 0x0 KECCAK256 SLOAD AND PUSH1 0x40 MLOAD SWAP1 ISZERO ISZERO DUP2 MSTORE RETURN JUMPDEST CALLVALUE PUSH2 0x31D JUMPI PUSH1 0x20 CALLDATASIZE PUSH1 0x3 NOT ADD SLT PUSH2 0x31D JUMPI PUSH1 0x4 CALLDATALOAD CALLER PUSH1 0x0 MSTORE PUSH1 0x12 PUSH1 0x20 MSTORE PUSH1 0x40 PUSH1 0x0 KECCAK256 PUSH1 0x2 DUP2 ADD PUSH1 0xFF DUP2 SLOAD AND ISZERO PUSH1 0x0 EQ PUSH2 0x19EB JUMPI DUP3 DUP3 SSTORE PUSH1 0x0 PUSH1 0x1 DUP4 ADD SSTORE PUSH1 0x1 PUSH1 0xFF NOT DUP3 SLOAD AND OR SWAP1 SSTORE JUMPDEST SLOAD PUSH1 0x40 MLOAD SWAP2 DUP3 MSTORE PUSH1 0x20 DUP3 ADD MSTORE PUSH32 0xC8BC4842CF61A3F6CBF597029D937FDF158EF4959A9616594587A0FB8C6B8711 PUSH1 0x40 CALLER SWAP3 LOG2 STOP JUMPDEST POP PUSH2 0x19F7 DUP3 DUP3 SLOAD PUSH2 0x301B JUMP JUMPDEST DUP2 SSTORE PUSH2 0x19B7 JUMP JUMPDEST CALLVALUE PUSH2 0x31D JUMPI PUSH2 0x1A0C CALLDATASIZE PUSH2 0x2E2A JUMP JUMPDEST SWAP5 DUP3 PUSH1 0x0 SWAP8 SWAP4 SWAP3 SWAP8 MSTORE PUSH1 0x6 PUSH1 0x20 MSTORE PUSH1 0xFF PUSH1 0x40 PUSH1 0x0 KECCAK256 SLOAD AND ISZERO PUSH2 0x1E3B JUMPI PUSH2 0x1A33 PUSH1 0x1 SLOAD PUSH2 0x3028 JUMP JUMPDEST SWAP4 DUP5 PUSH1 0x1 SSTORE PUSH2 0x1A42 DUP9 TIMESTAMP PUSH2 0x301B JUMP JUMPDEST PUSH2 0x1A50 DUP9 PUSH2 0x504 DUP12 TIMESTAMP PUSH2 0x301B JUMP JUMPDEST SWAP2 PUSH1 0x40 MLOAD SWAP8 DUP9 PUSH2 0x1C0 DUP2 ADD LT PUSH1 0x1 PUSH1 0x1 PUSH1 0x40 SHL SUB PUSH2 0x1C0 DUP12 ADD GT OR PUSH2 0x307 JUMPI PUSH2 0x1A95 SWAP2 PUSH2 0x1C0 DUP11 ADD PUSH1 0x40 MSTORE DUP9 DUP11 MSTORE PUSH2 0x1A89 CALLDATASIZE DUP8 DUP11 PUSH2 0x3282 JUMP JUMPDEST PUSH1 0x20 DUP12 ADD MSTORE CALLDATASIZE SWAP2 PUSH2 0x3282 JUMP JUMPDEST PUSH1 0x40 DUP9 ADD MSTORE CALLER PUSH1 0x60 DUP9 ADD MSTORE TIMESTAMP PUSH1 0x80 DUP9 ADD MSTORE PUSH1 0xA0 DUP8 ADD MSTORE PUSH1 0xC0 DUP7 ADD MSTORE DUP2 PUSH1 0xE0 DUP7 ADD MSTORE PUSH1 0x0 PUSH2 0x100 DUP7 ADD MSTORE PUSH1 0x0 PUSH2 0x120 DUP7 ADD MSTORE PUSH1 0x0 PUSH2 0x140 DUP7 ADD MSTORE PUSH1 0x0 PUSH2 0x160 DUP7 ADD MSTORE PUSH1 0x0 PUSH2 0x180 DUP7 ADD MSTORE PUSH1 0x1 PUSH2 0x1A0 DUP7 ADD MSTORE DUP4 PUSH1 0x0 MSTORE PUSH1 0x3 PUSH1 0x20 MSTORE PUSH1 0x40 PUSH1 0x0 KECCAK256 SWAP6 DUP6 MLOAD DUP8 SSTORE PUSH1 0x20 DUP7 ADD MLOAD DUP1 MLOAD SWAP1 PUSH1 0x1 PUSH1 0x1 PUSH1 0x40 SHL SUB DUP3 GT PUSH2 0x307 JUMPI DUP2 SWAP1 PUSH2 0x1B1E PUSH1 0x1 DUP12 ADD SLOAD PUSH2 0x2E80 JUMP JUMPDEST PUSH1 0x1F DUP2 GT PUSH2 0x1E06 JUMPI JUMPDEST POP PUSH1 0x20 SWAP1 PUSH1 0x1F DUP4 GT PUSH1 0x1 EQ PUSH2 0x1D94 JUMPI PUSH1 0x0 SWAP3 PUSH2 0x1D89 JUMPI JUMPDEST POP POP DUP2 PUSH1 0x1 SHL SWAP2 PUSH1 0x0 NOT SWAP1 PUSH1 0x3 SHL SHR NOT AND OR PUSH1 0x1 DUP9 ADD SSTORE JUMPDEST PUSH1 0x40 DUP7 ADD MLOAD DUP1 MLOAD SWAP1 PUSH1 0x1 PUSH1 0x1 PUSH1 0x40 SHL SUB DUP3 GT PUSH2 0x307 JUMPI DUP2 SWAP1 PUSH2 0x1B7B PUSH1 0x2 DUP12 ADD SLOAD PUSH2 0x2E80 JUMP JUMPDEST PUSH1 0x1F DUP2 GT PUSH2 0x1D54 JUMPI JUMPDEST POP PUSH1 0x20 SWAP1 PUSH1 0x1F DUP4 GT PUSH1 0x1 EQ PUSH2 0x1CE2 JUMPI PUSH1 0x0 SWAP3 PUSH2 0x1CD7 JUMPI JUMPDEST POP POP DUP2 PUSH1 0x1 SHL SWAP2 PUSH1 0x0 NOT SWAP1 PUSH1 0x3 SHL SHR NOT AND OR PUSH1 0x2 DUP9 ADD SSTORE JUMPDEST PUSH1 0x3 DUP8 ADD PUSH1 0x1 DUP1 PUSH1 0xA0 SHL SUB PUSH1 0x60 DUP9 ADD MLOAD AND PUSH12 0xFFFFFFFFFFFFFFFFFFFFFFFF PUSH1 0xA0 SHL DUP3 SLOAD AND OR SWAP1 SSTORE PUSH1 0x80 DUP7 ADD MLOAD PUSH1 0x4 DUP9 ADD SSTORE PUSH1 0xA0 DUP7 ADD MLOAD PUSH1 0x5 DUP9 ADD SSTORE PUSH1 0xC0 DUP7 ADD MLOAD PUSH1 0x6 DUP9 ADD SSTORE PUSH1 0xE0 DUP7 ADD MLOAD PUSH1 0x7 DUP9 ADD SSTORE PUSH2 0x1C5E PUSH1 0x8 SWAP8 PUSH2 0x100 DUP9 ADD MLOAD PUSH1 0x8 DUP3 ADD SSTORE PUSH2 0x120 DUP9 ADD MLOAD PUSH1 0x9 DUP3 ADD SSTORE PUSH1 0xD PUSH2 0x1A0 PUSH1 0xA SWAP10 PUSH2 0x140 DUP2 ADD MLOAD PUSH1 0xA DUP6 ADD SSTORE PUSH2 0x160 DUP2 ADD MLOAD PUSH1 0xB DUP6 ADD SSTORE PUSH2 0x180 DUP2 ADD MLOAD PUSH1 0xC DUP6 ADD SSTORE ADD MLOAD ISZERO ISZERO SWAP2 ADD SWAP1 PUSH1 0xFF DUP1 NOT DUP4 SLOAD AND SWAP2 ISZERO ISZERO AND OR SWAP1 SSTORE JUMP JUMPDEST PUSH1 0x0 JUMPDEST DUP8 SLOAD DUP2 LT ISZERO PUSH2 0x1C99 JUMPI PUSH1 0x1 SWAP1 DUP7 PUSH1 0x0 MSTORE DUP8 PUSH1 0x20 MSTORE PUSH2 0x1C93 PUSH1 0x40 PUSH1 0x0 KECCAK256 PUSH2 0x1C86 DUP4 PUSH2 0x2D32 JUMP JUMPDEST SWAP1 SLOAD SWAP1 PUSH1 0x3 SHL SHR SWAP1 PUSH2 0x30BF JUMP JUMPDEST ADD PUSH2 0x1C61 JUMP JUMPDEST POP PUSH1 0x20 SWAP6 POP SWAP2 PUSH32 0x16356EC948FE2183CECE6A7B111BEEF5BE873032E9698D3FBF0E0168D0FC91A8 SWAP2 PUSH2 0x77A DUP10 PUSH2 0x76B DUP9 SWAP7 PUSH2 0x504 PUSH2 0x764 DUP5 TIMESTAMP PUSH2 0x301B JUMP JUMPDEST ADD MLOAD SWAP1 POP DUP11 DUP1 PUSH2 0x1B9B JUMP JUMPDEST SWAP3 POP PUSH1 0x2 DUP11 ADD PUSH1 0x0 MSTORE PUSH1 0x20 PUSH1 0x0 KECCAK256 SWAP1 PUSH1 0x0 SWAP4 JUMPDEST PUSH1 0x1F NOT DUP5 AND DUP6 LT PUSH2 0x1D39 JUMPI PUSH1 0x1 SWAP5 POP DUP4 PUSH1 0x1F NOT DUP2 AND LT PUSH2 0x1D20 JUMPI JUMPDEST POP POP POP DUP2 SHL ADD PUSH1 0x2 DUP9 ADD SSTORE PUSH2 0x1BB3 JUMP JUMPDEST ADD MLOAD PUSH1 0x0 NOT PUSH1 0xF8 DUP5 PUSH1 0x3 SHL AND SHR NOT AND SWAP1 SSTORE DUP11 DUP1 DUP1 PUSH2 0x1D10 JUMP JUMPDEST DUP2 DUP2 ADD MLOAD DUP4 SSTORE PUSH1 0x20 SWAP5 DUP6 ADD SWAP5 PUSH1 0x1 SWAP1 SWAP4 ADD SWAP3 SWAP1 SWAP2 ADD SWAP1 PUSH2 0x1CF5 JUMP JUMPDEST PUSH2 0x1D83 SWAP1 PUSH1 0x2 DUP13 ADD PUSH1 0x0 MSTORE PUSH1 0x20 PUSH1 0x0 KECCAK256 PUSH1 0x1F DUP6 ADD PUSH1 0x5 SHR DUP2 ADD SWAP2 PUSH1 0x20 DUP7 LT PUSH2 0x86D JUMPI PUSH1 0x1F ADD PUSH1 0x5 SHR ADD SWAP1 PUSH2 0x32C8 JUMP JUMPDEST DUP12 PUSH2 0x1B84 JUMP JUMPDEST ADD MLOAD SWAP1 POP DUP11 DUP1 PUSH2 0x1B3E JUMP JUMPDEST SWAP3 POP PUSH1 0x1 DUP11 ADD PUSH1 0x0 MSTORE PUSH1 0x20 PUSH1 0x0 KECCAK256 SWAP1 PUSH1 0x0 SWAP4 JUMPDEST PUSH1 0x1F NOT DUP5 AND DUP6 LT PUSH2 0x1DEB JUMPI PUSH1 0x1 SWAP5 POP DUP4 PUSH1 0x1F NOT DUP2 AND LT PUSH2 0x1DD2 JUMPI JUMPDEST POP POP POP DUP2 SHL ADD PUSH1 0x1 DUP9 ADD SSTORE PUSH2 0x1B56 JUMP JUMPDEST ADD MLOAD PUSH1 0x0 NOT PUSH1 0xF8 DUP5 PUSH1 0x3 SHL AND SHR NOT AND SWAP1 SSTORE DUP11 DUP1 DUP1 PUSH2 0x1DC2 JUMP JUMPDEST DUP2 DUP2 ADD MLOAD DUP4 SSTORE PUSH1 0x20 SWAP5 DUP6 ADD SWAP5 PUSH1 0x1 SWAP1 SWAP4 ADD SWAP3 SWAP1 SWAP2 ADD SWAP1 PUSH2 0x1DA7 JUMP JUMPDEST PUSH2 0x1E35 SWAP1 PUSH1 0x1 DUP13 ADD PUSH1 0x0 MSTORE PUSH1 0x20 PUSH1 0x0 KECCAK256 PUSH1 0x1F DUP6 ADD PUSH1 0x5 SHR DUP2 ADD SWAP2 PUSH1 0x20 DUP7 LT PUSH2 0x86D JUMPI PUSH1 0x1F ADD PUSH1 0x5 SHR ADD SWAP1 PUSH2 0x32C8 JUMP JUMPDEST DUP12 PUSH2 0x1B27 JUMP JUMPDEST PUSH1 0x40 MLOAD PUSH4 0x9DD854D3 PUSH1 0xE0 SHL DUP2 MSTORE PUSH1 0x4 SWAP1 REVERT JUMPDEST CALLVALUE PUSH2 0x31D JUMPI PUSH2 0x1E5B CALLDATASIZE PUSH2 0x2D06 JUMP JUMPDEST SWAP1 PUSH1 0x0 MSTORE PUSH1 0x4 PUSH1 0x20 MSTORE PUSH1 0x40 PUSH1 0x0 KECCAK256 SWAP1 PUSH1 0x0 MSTORE PUSH1 0x20 MSTORE PUSH1 0xE0 PUSH1 0x40 PUSH1 0x0 KECCAK256 DUP1 SLOAD SWAP1 PUSH1 0x1 DUP2 ADD SLOAD SWAP1 PUSH1 0x2 DUP2 ADD SLOAD PUSH1 0x3 DUP3 ADD SLOAD PUSH1 0xFF PUSH1 0x4 DUP5 ADD SLOAD AND SWAP2 PUSH1 0xFF PUSH1 0x6 PUSH1 0x5 DUP7 ADD SLOAD SWAP6 ADD SLOAD AND SWAP5 PUSH1 0x40 MLOAD SWAP7 DUP8 MSTORE PUSH1 0x20 DUP8 ADD MSTORE PUSH1 0x40 DUP7 ADD MSTORE PUSH1 0x60 DUP6 ADD MSTORE ISZERO ISZERO PUSH1 0x80 DUP5 ADD MSTORE PUSH1 0xA0 DUP4 ADD MSTORE ISZERO ISZERO PUSH1 0xC0 DUP3 ADD MSTORE RETURN JUMPDEST CALLVALUE PUSH2 0x31D JUMPI PUSH1 0x80 CALLDATASIZE PUSH1 0x3 NOT ADD SLT PUSH2 0x31D JUMPI PUSH2 0x1EE4 PUSH2 0x2D1C JUMP JUMPDEST PUSH1 0x24 CALLDATALOAD PUSH1 0x1 PUSH1 0x1 PUSH1 0xA0 SHL SUB DUP2 AND SWAP2 SWAP1 DUP3 SWAP1 SUB PUSH2 0x31D JUMPI PUSH1 0x64 CALLDATALOAD PUSH1 0x1 PUSH1 0x1 PUSH1 0x40 SHL SUB DUP2 GT PUSH2 0x31D JUMPI PUSH2 0x1F19 SWAP1 CALLDATASIZE SWAP1 PUSH1 0x4 ADD PUSH2 0x2DFD JUMP JUMPDEST SWAP1 SWAP3 PUSH32 0x0 PUSH1 0x1 PUSH1 0x1 PUSH1 0xA0 SHL SUB AND CALLER SUB PUSH2 0x24F6 JUMPI ADDRESS SUB PUSH2 0x24BF JUMPI PUSH2 0x1A0 DUP4 DUP3 DUP2 ADD SUB SLT PUSH2 0x31D JUMPI PUSH2 0x1F6D DUP2 DUP5 ADD PUSH1 0xA0 DUP6 ADD PUSH2 0x31C0 JUMP JUMPDEST DUP2 DUP5 ADD PUSH1 0xFF DUP6 ADD SLT ISZERO PUSH2 0x31D JUMPI PUSH1 0x40 MLOAD SWAP2 PUSH2 0x1F87 DUP4 PUSH2 0x2F0C JUMP JUMPDEST DUP3 DUP2 DUP7 ADD PUSH2 0x160 DUP8 ADD GT PUSH2 0x31D JUMPI PUSH1 0xE0 DUP7 ADD SWAP1 JUMPDEST PUSH2 0x160 DUP8 ADD DUP3 LT PUSH2 0x24A3 JUMPI POP POP PUSH2 0x1FB8 SWAP1 DUP6 ADD PUSH2 0x160 DUP7 ADD PUSH2 0x31C0 JUMP JUMPDEST SWAP2 DUP5 CALLDATALOAD PUSH1 0x0 MSTORE PUSH1 0xB PUSH1 0x20 MSTORE PUSH1 0x40 PUSH1 0x0 KECCAK256 SWAP3 PUSH1 0xFF PUSH1 0xE DUP6 ADD SLOAD AND ISZERO PUSH2 0xC23 JUMPI PUSH1 0x5 DUP5 ADD SLOAD TIMESTAMP GT PUSH2 0x12D2 JUMPI DUP6 CALLDATALOAD PUSH1 0x0 MSTORE PUSH1 0xD PUSH1 0x20 MSTORE PUSH1 0x40 PUSH1 0x0 KECCAK256 PUSH1 0x80 DUP8 ADD CALLDATALOAD PUSH1 0x0 MSTORE PUSH1 0x20 MSTORE PUSH1 0xFF PUSH1 0x40 PUSH1 0x0 KECCAK256 SLOAD AND PUSH2 0x12C0 JUMPI PUSH2 0x2016 PUSH1 0x40 DUP8 ADD CALLDATALOAD DUP1 PUSH2 0x3205 JUMP JUMPDEST PUSH1 0x60 DUP8 ADD CALLDATALOAD SUB PUSH2 0x12AE JUMPI PUSH1 0x60 DUP7 ADD CALLDATALOAD PUSH8 0xDE0B6B3A7640000 DUP1 DUP3 MUL DUP3 SWAP1 DIV EQ SWAP1 ISZERO OR ISZERO PUSH2 0x11D6 JUMPI PUSH8 0xDE0B6B3A7640000 PUSH1 0x60 DUP8 ADD CALLDATALOAD MUL PUSH1 0x44 CALLDATALOAD LT PUSH2 0x245E JUMPI PUSH1 0x40 MLOAD SWAP2 PUSH2 0x2061 DUP4 PUSH2 0x2ED5 JUMP JUMPDEST PUSH1 0x80 DUP8 ADD CALLDATALOAD DUP4 MSTORE PUSH1 0x20 DUP8 ADD CALLDATALOAD PUSH1 0x20 DUP5 ADD MSTORE DUP7 CALLDATALOAD PUSH1 0x40 DUP5 ADD MSTORE PUSH1 0x60 DUP8 ADD CALLDATALOAD PUSH1 0x60 DUP5 ADD MSTORE PUSH1 0x7 DUP6 ADD SLOAD PUSH1 0x80 DUP5 ADD MSTORE PUSH2 0x20A8 PUSH1 0x40 MLOAD SWAP5 PUSH4 0x34BAEAB9 PUSH1 0xE0 SHL DUP7 MSTORE PUSH1 0x4 DUP7 ADD SWAP1 PUSH2 0x3218 JUMP JUMPDEST PUSH1 0x0 PUSH1 0x44 DUP6 ADD JUMPDEST PUSH1 0x2 DUP3 LT PUSH2 0x2440 JUMPI POP POP POP SWAP1 PUSH2 0x20CC PUSH2 0x20D7 SWAP3 PUSH1 0xC4 DUP6 ADD SWAP1 PUSH2 0x3218 JUMP JUMPDEST PUSH2 0x104 DUP4 ADD SWAP1 PUSH2 0x304F JUMP JUMPDEST PUSH1 0x20 DUP2 PUSH2 0x1A4 DUP2 PUSH32 0x0 PUSH1 0x1 PUSH1 0x1 PUSH1 0xA0 SHL SUB AND GAS STATICCALL SWAP1 DUP2 ISZERO PUSH2 0xB9C JUMPI PUSH1 0x0 SWAP2 PUSH2 0x2421 JUMPI JUMPDEST POP ISZERO PUSH2 0x125A JUMPI PUSH1 0x0 SLOAD PUSH1 0x40 MLOAD PUSH4 0x23B872DD PUSH1 0xE0 SHL DUP2 MSTORE PUSH1 0x1 PUSH1 0x1 PUSH1 0xA0 SHL SUB DUP5 DUP2 AND PUSH1 0x4 DUP4 ADD MSTORE SWAP1 SWAP2 AND PUSH1 0x24 DUP3 ADD MSTORE PUSH8 0xDE0B6B3A7640000 PUSH1 0x60 DUP6 ADD CALLDATALOAD MUL PUSH1 0x44 DUP3 ADD MSTORE PUSH1 0x20 DUP2 DUP1 PUSH1 0x64 DUP2 ADD SUB DUP2 PUSH1 0x0 PUSH32 0x0 PUSH1 0x1 PUSH1 0x1 PUSH1 0xA0 SHL SUB AND GAS CALL DUP1 ISZERO PUSH2 0xB9C JUMPI PUSH2 0x21AA SWAP2 PUSH1 0x0 SWAP2 PUSH2 0x2402 JUMPI POP PUSH2 0x3240 JUMP JUMPDEST PUSH1 0x40 MLOAD PUSH4 0x70A08231 PUSH1 0xE0 SHL DUP2 MSTORE PUSH1 0x1 PUSH1 0x1 PUSH1 0xA0 SHL SUB SWAP3 DUP4 AND PUSH1 0x4 DUP3 ADD DUP2 SWAP1 MSTORE SWAP1 SWAP3 PUSH1 0x20 SWAP1 DUP5 SWAP1 PUSH1 0x24 SWAP1 DUP3 SWAP1 PUSH32 0x0 AND GAS STATICCALL SWAP3 DUP4 ISZERO PUSH2 0xB9C JUMPI PUSH1 0x0 SWAP4 PUSH2 0x23AE JUMPI JUMPDEST POP PUSH32 0x380F4B80AC5D183FF04F143A097611558815196006B7297CAE774C0B5680A5EE PUSH1 0x40 PUSH1 0xB SWAP5 PUSH8 0xDE0B6B3A7640000 DUP3 MLOAD SWAP2 PUSH1 0x60 DUP10 ADD CALLDATALOAD DUP4 MSTORE DIV PUSH1 0x20 DUP3 ADD MSTORE LOG2 DUP3 CALLDATALOAD PUSH1 0x0 MSTORE PUSH1 0xD PUSH1 0x20 MSTORE PUSH1 0x40 PUSH1 0x0 KECCAK256 PUSH1 0x80 DUP5 ADD CALLDATALOAD PUSH1 0x0 MSTORE PUSH1 0x20 MSTORE PUSH1 0x40 PUSH1 0x0 KECCAK256 PUSH1 0x1 PUSH1 0xFF NOT DUP3 SLOAD AND OR SWAP1 SSTORE PUSH2 0x2325 PUSH1 0x40 MLOAD PUSH2 0x2282 DUP2 PUSH2 0x2EF0 JUMP JUMPDEST PUSH1 0x20 DUP6 ADD CALLDATALOAD DUP2 MSTORE PUSH1 0x7 PUSH1 0x20 DUP3 ADD PUSH1 0x60 DUP8 ADD CALLDATALOAD DUP2 MSTORE PUSH1 0x40 DUP4 ADD PUSH1 0x40 DUP9 ADD CALLDATALOAD DUP2 MSTORE PUSH2 0x117F PUSH1 0x60 DUP6 ADD PUSH1 0x80 DUP11 ADD CALLDATALOAD DUP2 MSTORE PUSH1 0x80 DUP7 ADD TIMESTAMP DUP2 MSTORE PUSH1 0xA0 DUP8 ADD SWAP2 PUSH1 0x0 DUP4 MSTORE PUSH1 0xC0 DUP9 ADD SWAP5 PUSH1 0x0 DUP7 MSTORE PUSH1 0xE0 DUP10 ADD SWAP7 PUSH1 0x1 DUP9 MSTORE DUP14 CALLDATALOAD PUSH1 0x0 MSTORE PUSH1 0xC PUSH1 0x20 MSTORE DUP14 PUSH1 0x80 PUSH1 0x40 PUSH1 0x0 KECCAK256 SWAP2 ADD CALLDATALOAD PUSH1 0x0 MSTORE PUSH1 0x20 MSTORE PUSH1 0x40 PUSH1 0x0 KECCAK256 SWAP10 MLOAD DUP11 SSTORE MLOAD PUSH1 0x1 DUP11 ADD SSTORE MLOAD PUSH1 0x2 DUP10 ADD SSTORE MLOAD PUSH1 0x3 DUP9 ADD SSTORE MLOAD PUSH1 0x4 DUP8 ADD SSTORE MLOAD ISZERO ISZERO PUSH1 0x5 DUP7 ADD SWAP1 PUSH1 0xFF DUP1 NOT DUP4 SLOAD AND SWAP2 ISZERO ISZERO AND OR SWAP1 SSTORE JUMP JUMPDEST PUSH1 0xC DUP2 ADD PUSH2 0x2333 DUP2 SLOAD PUSH2 0x3028 JUMP JUMPDEST SWAP1 SSTORE ADD PUSH2 0x2345 PUSH1 0x60 DUP4 ADD CALLDATALOAD DUP3 SLOAD PUSH2 0x301B JUMP JUMPDEST SWAP1 SSTORE PUSH1 0x40 MLOAD SWAP1 PUSH32 0xBCF4FA36949E1955AF2C6B6B628E50DB0E23EC473B26480F3A584DD5A5D8953B PUSH1 0x80 DUP3 ADD CALLDATALOAD SWAP3 DUP1 PUSH2 0x23A0 DUP5 CALLDATALOAD SWAP5 PUSH1 0x60 DUP2 ADD CALLDATALOAD SWAP1 PUSH1 0x20 PUSH1 0x40 DUP3 ADD CALLDATALOAD SWAP2 ADD CALLDATALOAD DUP5 PUSH1 0x40 SWAP2 SWAP5 SWAP4 SWAP3 PUSH1 0x60 DUP3 ADD SWAP6 DUP3 MSTORE PUSH1 0x20 DUP3 ADD MSTORE ADD MSTORE JUMP JUMPDEST SUB SWAP1 LOG3 PUSH1 0x20 PUSH1 0x40 MLOAD PUSH1 0x1 DUP2 MSTORE RETURN JUMPDEST SWAP3 POP PUSH1 0x20 DUP4 RETURNDATASIZE PUSH1 0x20 GT PUSH2 0x23FA JUMPI JUMPDEST DUP2 PUSH2 0x23C9 PUSH1 0x20 SWAP4 DUP4 PUSH2 0x2F27 JUMP JUMPDEST DUP2 ADD SUB SLT PUSH2 0x31D JUMPI SWAP2 MLOAD SWAP2 PUSH32 0x380F4B80AC5D183FF04F143A097611558815196006B7297CAE774C0B5680A5EE PUSH2 0x2208 JUMP JUMPDEST RETURNDATASIZE SWAP2 POP PUSH2 0x23BC JUMP JUMPDEST PUSH2 0x241B SWAP2 POP PUSH1 0x20 RETURNDATASIZE PUSH1 0x20 GT PUSH2 0x1212 JUMPI PUSH2 0x1204 DUP2 DUP4 PUSH2 0x2F27 JUMP JUMPDEST DUP6 PUSH2 0x1054 JUMP JUMPDEST PUSH2 0x243A SWAP2 POP PUSH1 0x20 RETURNDATASIZE PUSH1 0x20 GT PUSH2 0x1212 JUMPI PUSH2 0x1204 DUP2 DUP4 PUSH2 0x2F27 JUMP JUMPDEST DUP5 PUSH2 0x2119 JUMP JUMPDEST PUSH1 0x20 PUSH1 0x40 DUP3 PUSH2 0x2452 PUSH1 0x1 SWAP5 DUP8 MLOAD PUSH2 0x3218 JUMP JUMPDEST ADD SWAP4 ADD SWAP2 ADD SWAP1 SWAP2 PUSH2 0x20AF JUMP JUMPDEST PUSH1 0x40 MLOAD PUSH3 0x461BCD PUSH1 0xE5 SHL DUP2 MSTORE PUSH1 0x20 PUSH1 0x4 DUP3 ADD MSTORE PUSH1 0x1C PUSH1 0x24 DUP3 ADD MSTORE PUSH32 0x496E73756666696369656E7420617070726F76656420616D6F756E7400000000 PUSH1 0x44 DUP3 ADD MSTORE PUSH1 0x64 SWAP1 REVERT JUMPDEST PUSH1 0x20 PUSH1 0x40 SWAP2 PUSH2 0x24B4 DUP6 DUP11 ADD DUP6 PUSH2 0x31C0 JUMP JUMPDEST DUP2 MSTORE ADD SWAP2 ADD SWAP1 PUSH2 0x1F9B JUMP JUMPDEST PUSH1 0x40 MLOAD PUSH3 0x461BCD PUSH1 0xE5 SHL DUP2 MSTORE PUSH1 0x20 PUSH1 0x4 DUP3 ADD MSTORE PUSH1 0xF PUSH1 0x24 DUP3 ADD MSTORE PUSH15 0x24B73B30B634B21039B832B73232B9 PUSH1 0x89 SHL PUSH1 0x44 DUP3 ADD MSTORE PUSH1 0x64 SWAP1 REVERT JUMPDEST PUSH1 0x40 MLOAD PUSH3 0x461BCD PUSH1 0xE5 SHL DUP2 MSTORE PUSH1 0x20 PUSH1 0x4 DUP3 ADD MSTORE PUSH1 0x17 PUSH1 0x24 DUP3 ADD MSTORE PUSH32 0x4F6E6C7920544F4E20746F6B656E2063616E2063616C6C000000000000000000 PUSH1 0x44 DUP3 ADD MSTORE PUSH1 0x64 SWAP1 REVERT JUMPDEST CALLVALUE PUSH2 0x31D JUMPI PUSH1 0x20 CALLDATASIZE PUSH1 0x3 NOT ADD SLT PUSH2 0x31D JUMPI PUSH1 0x4 CALLDATALOAD PUSH1 0x0 MSTORE PUSH1 0x3 PUSH1 0x20 MSTORE PUSH1 0x40 PUSH1 0x0 KECCAK256 PUSH1 0xFF PUSH1 0xD DUP3 ADD SLOAD AND ISZERO PUSH2 0xC23 JUMPI PUSH1 0x5 DUP2 ADD SLOAD TIMESTAMP DUP2 LT PUSH2 0x263C JUMPI PUSH1 0x0 SWAP1 JUMPDEST DUP3 SLOAD SWAP2 PUSH1 0x1 PUSH1 0xA0 SHL PUSH1 0x1 SWAP1 SUB PUSH1 0x3 DUP6 ADD SLOAD AND SWAP2 PUSH1 0x7 DUP6 ADD SLOAD SWAP1 PUSH1 0x6 DUP7 ADD SLOAD PUSH1 0x8 DUP8 ADD SLOAD PUSH1 0x9 DUP9 ADD SLOAD SWAP1 PUSH1 0xA DUP10 ADD SLOAD SWAP3 PUSH1 0xB DUP11 ADD SLOAD SWAP5 PUSH1 0xC DUP12 ADD SLOAD SWAP7 PUSH1 0x1 DUP13 ADD PUSH2 0x25C1 SWAP1 PUSH2 0x2F48 JUMP JUMPDEST SWAP12 PUSH1 0x2 ADD PUSH2 0x25CE SWAP1 PUSH2 0x2F48 JUMP JUMPDEST PUSH1 0x40 MLOAD SWAP13 DUP14 DUP1 SWAP14 PUSH2 0x1A0 SWAP2 DUP3 SWAP2 DUP2 MSTORE PUSH1 0x20 ADD MSTORE DUP14 ADD PUSH2 0x25EC SWAP2 PUSH2 0x2DBD JUMP JUMPDEST DUP13 DUP2 SUB PUSH1 0x40 DUP15 ADD MSTORE PUSH2 0x25FD SWAP2 PUSH2 0x2DBD JUMP JUMPDEST SWAP10 PUSH1 0x60 DUP13 ADD MSTORE PUSH1 0x80 DUP12 ADD MSTORE PUSH1 0xA0 DUP11 ADD MSTORE PUSH1 0xC0 DUP10 ADD MSTORE PUSH1 0xE0 DUP9 ADD MSTORE PUSH2 0x100 DUP8 ADD MSTORE PUSH2 0x120 DUP7 ADD MSTORE PUSH2 0x140 DUP6 ADD MSTORE PUSH2 0x160 DUP5 ADD MSTORE PUSH1 0xFF AND PUSH2 0x180 DUP4 ADD MSTORE SUB SWAP1 RETURN JUMPDEST PUSH1 0x6 DUP3 ADD SLOAD TIMESTAMP GT PUSH2 0x264F JUMPI PUSH1 0x1 SWAP1 PUSH2 0x2579 JUMP JUMPDEST PUSH1 0x2 SWAP1 PUSH2 0x2579 JUMP JUMPDEST CALLVALUE PUSH2 0x31D JUMPI PUSH2 0x2665 CALLDATASIZE PUSH2 0x2D06 JUMP JUMPDEST SWAP1 PUSH1 0x0 MSTORE PUSH1 0xA PUSH1 0x20 MSTORE PUSH1 0x40 PUSH1 0x0 KECCAK256 DUP1 SLOAD DUP3 LT ISZERO PUSH2 0x31D JUMPI PUSH1 0x20 SWAP2 PUSH2 0x2688 SWAP2 PUSH2 0x2D69 JUMP JUMPDEST SWAP1 SLOAD PUSH1 0x40 MLOAD SWAP2 PUSH1 0x3 SHL SHR DUP2 MSTORE RETURN JUMPDEST CALLVALUE PUSH2 0x31D JUMPI PUSH1 0x0 CALLDATASIZE PUSH1 0x3 NOT ADD SLT PUSH2 0x31D JUMPI PUSH1 0x40 MLOAD DUP1 PUSH1 0x8 SLOAD SWAP2 DUP3 DUP2 MSTORE PUSH1 0x20 DUP1 SWAP2 ADD SWAP3 PUSH1 0x8 PUSH1 0x0 MSTORE PUSH32 0xF3F7A9FE364FAAB93B216DA50A3214154F22A0A2B415B23A84C8169E8B636EE3 SWAP2 PUSH1 0x0 SWAP1 JUMPDEST DUP3 DUP3 LT PUSH2 0x26FA JUMPI PUSH2 0x1709 DUP6 PUSH2 0x16FD DUP2 DUP10 SUB DUP3 PUSH2 0x2F27 JUMP JUMPDEST DUP4 SLOAD DUP7 MSTORE SWAP5 DUP6 ADD SWAP5 PUSH1 0x1 SWAP4 DUP5 ADD SWAP4 SWAP1 SWAP2 ADD SWAP1 PUSH2 0x26E3 JUMP JUMPDEST CALLVALUE PUSH2 0x31D JUMPI PUSH1 0x20 CALLDATASIZE PUSH1 0x3 NOT ADD SLT PUSH2 0x31D JUMPI PUSH2 0x15C8 PUSH1 0x4 CALLDATALOAD PUSH2 0x30FB JUMP JUMPDEST CALLVALUE PUSH2 0x31D JUMPI PUSH1 0x20 CALLDATASIZE PUSH1 0x3 NOT ADD SLT PUSH2 0x31D JUMPI PUSH1 0x4 CALLDATALOAD PUSH1 0x8 SLOAD DUP2 LT ISZERO PUSH2 0x31D JUMPI PUSH2 0x2688 PUSH1 0x20 SWAP2 PUSH2 0x2D32 JUMP JUMPDEST CALLVALUE PUSH2 0x31D JUMPI PUSH1 0x20 CALLDATASIZE PUSH1 0x3 NOT ADD SLT PUSH2 0x31D JUMPI PUSH1 0x1 PUSH1 0x1 PUSH1 0xA0 SHL SUB PUSH2 0x2777 PUSH2 0x2D1C JUMP JUMPDEST AND PUSH1 0x0 MSTORE PUSH1 0x12 PUSH1 0x20 MSTORE PUSH1 0x60 PUSH1 0x40 PUSH1 0x0 KECCAK256 DUP1 SLOAD SWAP1 PUSH1 0xFF PUSH1 0x2 PUSH1 0x1 DUP4 ADD SLOAD SWAP3 ADD SLOAD AND SWAP1 PUSH1 0x40 MLOAD SWAP3 DUP4 MSTORE PUSH1 0x20 DUP4 ADD MSTORE ISZERO ISZERO PUSH1 0x40 DUP3 ADD MSTORE RETURN JUMPDEST CALLVALUE PUSH2 0x31D JUMPI PUSH2 0x180 CALLDATASIZE PUSH1 0x3 NOT ADD SLT PUSH2 0x31D JUMPI PUSH1 0x64 CALLDATALOAD PUSH1 0x4 CALLDATALOAD PUSH1 0x24 CALLDATALOAD PUSH1 0x44 CALLDATALOAD CALLDATASIZE PUSH1 0xC4 GT PUSH2 0x31D JUMPI PUSH2 0x144 SWAP2 CALLDATASIZE DUP4 GT PUSH2 0x31D JUMPI CALLDATASIZE PUSH2 0x184 GT PUSH2 0x31D JUMPI DUP4 PUSH1 0x0 MSTORE PUSH1 0x20 SWAP2 PUSH1 0x3 DUP4 MSTORE PUSH1 0x40 PUSH1 0x0 KECCAK256 SWAP4 PUSH1 0xFF PUSH1 0xD DUP7 ADD SLOAD AND ISZERO PUSH2 0xC23 JUMPI PUSH1 0x5 DUP6 ADD SLOAD TIMESTAMP GT PUSH2 0x12D2 JUMPI DUP6 PUSH1 0x0 MSTORE PUSH1 0x5 DUP5 MSTORE PUSH1 0x40 PUSH1 0x0 KECCAK256 DUP8 PUSH1 0x0 MSTORE DUP5 MSTORE PUSH1 0xFF PUSH1 0x40 PUSH1 0x0 KECCAK256 SLOAD AND PUSH2 0x12C0 JUMPI DUP2 ISZERO PUSH2 0x2A37 JUMPI PUSH1 0x40 MLOAD PUSH2 0x2841 DUP2 PUSH2 0x2ED5 JUMP JUMPDEST DUP8 DUP2 MSTORE DUP4 DUP6 DUP3 ADD MSTORE DUP7 PUSH1 0x40 DUP3 ADD MSTORE DUP3 PUSH1 0x60 DUP3 ADD MSTORE PUSH1 0x7 DUP7 ADD SLOAD PUSH1 0x80 DUP3 ADD MSTORE PUSH1 0x40 MLOAD SWAP2 PUSH4 0x34BAEAB9 PUSH1 0xE0 SHL DUP4 MSTORE PUSH1 0x40 PUSH1 0x84 PUSH1 0x4 DUP6 ADD CALLDATACOPY PUSH1 0xC4 PUSH1 0x0 PUSH1 0x44 DUP6 ADD JUMPDEST PUSH1 0x2 DUP3 LT PUSH2 0x2A21 JUMPI POP POP POP SWAP1 PUSH1 0x40 PUSH2 0x28A1 SWAP3 PUSH1 0xC4 DUP6 ADD CALLDATACOPY PUSH2 0x104 DUP4 ADD SWAP1 PUSH2 0x304F JUMP JUMPDEST DUP4 DUP2 PUSH2 0x1A4 DUP2 PUSH32 0x0 PUSH1 0x1 PUSH1 0x1 PUSH1 0xA0 SHL SUB AND GAS STATICCALL SWAP1 DUP2 ISZERO PUSH2 0xB9C JUMPI PUSH1 0x0 SWAP2 PUSH2 0x2A04 JUMPI JUMPDEST POP ISZERO PUSH2 0x125A JUMPI DUP5 PUSH1 0x0 MSTORE PUSH1 0x5 DUP4 MSTORE PUSH1 0x40 PUSH1 0x0 KECCAK256 DUP7 PUSH1 0x0 MSTORE DUP4 MSTORE PUSH1 0x40 PUSH1 0x0 KECCAK256 PUSH1 0x1 PUSH1 0xFF NOT DUP3 SLOAD AND OR SWAP1 SSTORE PUSH1 0x40 MLOAD SWAP3 PUSH1 0xE0 DUP5 ADD SWAP4 DUP1 DUP6 LT PUSH1 0x1 PUSH1 0x1 PUSH1 0x40 SHL SUB DUP7 GT OR PUSH2 0x307 JUMPI PUSH32 0x49E5146CBEFB4FFF5586B703DE455CB45794712230253D13F2D8C57DA85A323 SWAP6 PUSH2 0x29EC PUSH1 0xB SWAP3 PUSH1 0x6 DUP11 DUP7 PUSH2 0x29D0 DUP15 PUSH1 0x40 SWAP13 DUP14 MSTORE DUP12 DUP7 MSTORE DUP3 DUP7 ADD DUP12 DUP2 MSTORE DUP14 DUP8 ADD DUP3 DUP2 MSTORE PUSH1 0x60 DUP9 ADD SWAP2 TIMESTAMP DUP4 MSTORE PUSH1 0x80 DUP10 ADD SWAP4 PUSH1 0x0 DUP6 MSTORE PUSH1 0x4 PUSH1 0xA0 DUP12 ADD SWAP8 PUSH1 0x0 DUP10 MSTORE PUSH1 0xC0 DUP13 ADD SWAP10 PUSH1 0x1 DUP12 MSTORE PUSH1 0x0 MSTORE MSTORE PUSH1 0x40 PUSH1 0x0 KECCAK256 SWAP1 PUSH1 0x0 MSTORE DUP14 MSTORE DUP16 PUSH1 0x0 KECCAK256 SWAP9 MLOAD DUP10 SSTORE MLOAD PUSH1 0x1 DUP10 ADD SSTORE MLOAD PUSH1 0x2 DUP9 ADD SSTORE MLOAD PUSH1 0x3 DUP8 ADD SSTORE MLOAD ISZERO ISZERO PUSH1 0x4 DUP7 ADD SWAP1 PUSH1 0xFF DUP1 NOT DUP4 SLOAD AND SWAP2 ISZERO ISZERO AND OR SWAP1 SSTORE JUMP JUMPDEST MLOAD PUSH1 0x5 DUP5 ADD SSTORE MLOAD ISZERO ISZERO SWAP2 ADD SWAP1 PUSH1 0xFF DUP1 NOT DUP4 SLOAD AND SWAP2 ISZERO ISZERO AND OR SWAP1 SSTORE JUMP JUMPDEST ADD PUSH2 0x29F7 DUP2 SLOAD PUSH2 0x3028 JUMP JUMPDEST SWAP1 SSTORE DUP4 MLOAD SWAP3 DUP4 MSTORE DUP3 ADD MSTORE LOG3 STOP JUMPDEST PUSH2 0x2A1B SWAP2 POP DUP5 RETURNDATASIZE DUP7 GT PUSH2 0x1212 JUMPI PUSH2 0x1204 DUP2 DUP4 PUSH2 0x2F27 JUMP JUMPDEST DUP8 PUSH2 0x28E2 JUMP JUMPDEST PUSH1 0x40 DUP1 DUP3 DUP2 DUP7 PUSH1 0x1 SWAP6 CALLDATACOPY ADD SWAP4 ADD SWAP2 ADD SWAP1 SWAP2 PUSH2 0x287F JUMP JUMPDEST PUSH1 0x40 MLOAD PUSH4 0x43C891CF PUSH1 0xE1 SHL DUP2 MSTORE PUSH1 0x4 SWAP1 REVERT JUMPDEST CALLVALUE PUSH2 0x31D JUMPI PUSH2 0x2A57 CALLDATASIZE PUSH2 0x2D06 JUMP JUMPDEST SWAP1 PUSH1 0x0 MSTORE PUSH1 0xC PUSH1 0x20 MSTORE PUSH1 0x40 PUSH1 0x0 KECCAK256 SWAP1 PUSH1 0x0 MSTORE PUSH1 0x20 MSTORE PUSH2 0x100 PUSH1 0x40 PUSH1 0x0 KECCAK256 DUP1 SLOAD SWAP1 PUSH1 0x1 DUP2 ADD SLOAD SWAP1 PUSH1 0x2 DUP2 ADD SLOAD PUSH1 0x3 DUP3 ADD SLOAD PUSH1 0x4 DUP4 ADD SLOAD SWAP1 PUSH1 0xFF PUSH1 0x5 DUP6 ADD SLOAD AND SWAP3 PUSH1 0xFF PUSH1 0x7 PUSH1 0x6 DUP8 ADD SLOAD SWAP7 ADD SLOAD AND SWAP6 PUSH1 0x40 MLOAD SWAP8 DUP9 MSTORE PUSH1 0x20 DUP9 ADD MSTORE PUSH1 0x40 DUP8 ADD MSTORE PUSH1 0x60 DUP7 ADD MSTORE PUSH1 0x80 DUP6 ADD MSTORE ISZERO ISZERO PUSH1 0xA0 DUP5 ADD MSTORE PUSH1 0xC0 DUP4 ADD MSTORE ISZERO ISZERO PUSH1 0xE0 DUP3 ADD MSTORE RETURN JUMPDEST CALLVALUE PUSH2 0x31D JUMPI PUSH1 0x0 CALLDATASIZE PUSH1 0x3 NOT ADD SLT PUSH2 0x31D JUMPI PUSH1 0x20 PUSH1 0x8 SLOAD PUSH1 0x40 MLOAD SWAP1 DUP2 MSTORE RETURN JUMPDEST CALLVALUE PUSH2 0x31D JUMPI PUSH1 0x20 CALLDATASIZE PUSH1 0x3 NOT ADD SLT PUSH2 0x31D JUMPI PUSH1 0x4 CALLDATALOAD PUSH1 0x0 MSTORE PUSH1 0x11 PUSH1 0x20 MSTORE PUSH1 0x20 PUSH1 0xFF PUSH1 0x40 PUSH1 0x0 KECCAK256 SLOAD AND PUSH1 0x40 MLOAD SWAP1 ISZERO ISZERO DUP2 MSTORE RETURN JUMPDEST CALLVALUE PUSH2 0x31D JUMPI PUSH1 0x80 CALLDATASIZE PUSH1 0x3 NOT ADD SLT PUSH2 0x31D JUMPI PUSH1 0x4 CALLDATALOAD PUSH1 0x24 CALLDATALOAD SWAP1 PUSH1 0x44 CALLDATALOAD DUP2 PUSH1 0x0 MSTORE PUSH1 0x20 PUSH1 0x3 DUP2 MSTORE PUSH1 0x40 PUSH1 0x0 KECCAK256 SWAP2 PUSH1 0x4 DUP3 MSTORE PUSH1 0x40 PUSH1 0x0 KECCAK256 DUP6 PUSH1 0x0 MSTORE DUP3 MSTORE PUSH1 0x40 PUSH1 0x0 KECCAK256 SWAP2 PUSH1 0xFF PUSH1 0xD DUP6 ADD SLOAD AND ISZERO PUSH2 0xC23 JUMPI PUSH1 0x5 DUP5 ADD SLOAD TIMESTAMP GT ISZERO PUSH2 0xC11 JUMPI PUSH1 0x6 DUP5 ADD SLOAD TIMESTAMP GT PUSH2 0xC11 JUMPI PUSH1 0xFF PUSH1 0x6 DUP5 ADD SLOAD AND ISZERO PUSH2 0xBFF JUMPI PUSH1 0x4 DUP4 ADD PUSH1 0xFF DUP2 SLOAD AND PUSH2 0xBED JUMPI PUSH1 0x2 DUP4 GT PUSH2 0xBDB JUMPI PUSH1 0x40 MLOAD SWAP1 PUSH2 0x2BB5 DUP3 PUSH2 0x2EBA JUMP JUMPDEST DUP4 DUP3 MSTORE PUSH2 0x2BEF DUP4 PUSH1 0x1 DUP8 ADD SWAP4 DUP5 SLOAD DUP3 DUP3 ADD MSTORE DUP10 PUSH1 0x40 DUP3 ADD MSTORE PUSH1 0x64 CALLDATALOAD PUSH1 0x60 DUP3 ADD MSTORE PUSH1 0x40 MLOAD DUP1 SWAP4 DUP2 SWAP3 PUSH4 0x21C27363 PUSH1 0xE2 SHL DUP4 MSTORE PUSH1 0x4 DUP4 ADD PUSH2 0x2FED JUMP JUMPDEST SUB DUP2 PUSH20 0x0 GAS DELEGATECALL SWAP1 DUP2 ISZERO PUSH2 0xB9C JUMPI PUSH1 0x0 SWAP2 PUSH2 0x2CBE JUMPI JUMPDEST POP DUP6 SLOAD SUB PUSH2 0xB5C JUMPI PUSH32 0x48B18FFD0D20AC6E0C916DC382BDEA3DE3108E2B71D66318FF2BDC7AA10A5628 SWAP6 DUP5 PUSH1 0x5 PUSH1 0x40 SWAP8 PUSH1 0xC SWAP5 PUSH1 0x1 PUSH1 0xFF NOT DUP3 SLOAD AND OR SWAP1 SSTORE ADD SSTORE PUSH1 0x1 DUP6 EQ PUSH1 0x0 EQ PUSH2 0x2C90 JUMPI DUP3 SLOAD PUSH2 0x2C73 PUSH1 0x8 DUP4 ADD SWAP2 DUP3 SLOAD PUSH2 0x301B JUMP JUMPDEST SWAP1 SSTORE JUMPDEST ADD PUSH2 0x2C81 DUP2 SLOAD PUSH2 0x3028 JUMP JUMPDEST SWAP1 SSTORE SLOAD SWAP1 DUP4 MLOAD SWAP3 DUP4 MSTORE DUP3 ADD MSTORE LOG3 STOP JUMPDEST DUP5 PUSH2 0x2CAD JUMPI DUP3 SLOAD PUSH2 0x2CA6 PUSH1 0x9 DUP4 ADD SWAP2 DUP3 SLOAD PUSH2 0x301B JUMP JUMPDEST SWAP1 SSTORE PUSH2 0x2C76 JUMP JUMPDEST DUP3 SLOAD PUSH2 0x2CA6 PUSH1 0xA DUP4 ADD SWAP2 DUP3 SLOAD PUSH2 0x301B JUMP JUMPDEST SWAP1 POP DUP4 DUP2 DUP2 RETURNDATASIZE DUP4 GT PUSH2 0x2CE4 JUMPI JUMPDEST PUSH2 0x2CD5 DUP2 DUP4 PUSH2 0x2F27 JUMP JUMPDEST DUP2 ADD SUB SLT PUSH2 0x31D JUMPI MLOAD DUP10 PUSH2 0x2C17 JUMP JUMPDEST POP RETURNDATASIZE PUSH2 0x2CCB JUMP JUMPDEST CALLVALUE PUSH2 0x31D JUMPI PUSH1 0x0 CALLDATASIZE PUSH1 0x3 NOT ADD SLT PUSH2 0x31D JUMPI PUSH1 0x20 SWAP1 PUSH1 0x2 SLOAD DUP2 MSTORE RETURN JUMPDEST PUSH1 0x40 SWAP1 PUSH1 0x3 NOT ADD SLT PUSH2 0x31D JUMPI PUSH1 0x4 CALLDATALOAD SWAP1 PUSH1 0x24 CALLDATALOAD SWAP1 JUMP JUMPDEST PUSH1 0x4 CALLDATALOAD SWAP1 PUSH1 0x1 PUSH1 0x1 PUSH1 0xA0 SHL SUB DUP3 AND DUP3 SUB PUSH2 0x31D JUMPI JUMP JUMPDEST PUSH1 0x8 SLOAD DUP2 LT ISZERO PUSH2 0xDFC JUMPI PUSH1 0x8 PUSH1 0x0 MSTORE PUSH32 0xF3F7A9FE364FAAB93B216DA50A3214154F22A0A2B415B23A84C8169E8B636EE3 ADD SWAP1 PUSH1 0x0 SWAP1 JUMP JUMPDEST DUP1 SLOAD DUP3 LT ISZERO PUSH2 0xDFC JUMPI PUSH1 0x0 MSTORE PUSH1 0x20 PUSH1 0x0 KECCAK256 ADD SWAP1 PUSH1 0x0 SWAP1 JUMP JUMPDEST PUSH1 0x20 SWAP1 PUSH1 0x20 PUSH1 0x40 DUP2 DUP4 ADD SWAP3 DUP3 DUP2 MSTORE DUP6 MLOAD DUP1 SWAP5 MSTORE ADD SWAP4 ADD SWAP2 PUSH1 0x0 JUMPDEST DUP3 DUP2 LT PUSH2 0x2DA9 JUMPI POP POP POP POP SWAP1 JUMP JUMPDEST DUP4 MLOAD DUP6 MSTORE SWAP4 DUP2 ADD SWAP4 SWAP3 DUP2 ADD SWAP3 PUSH1 0x1 ADD PUSH2 0x2D9B JUMP JUMPDEST SWAP2 SWAP1 DUP3 MLOAD SWAP3 DUP4 DUP3 MSTORE PUSH1 0x0 JUMPDEST DUP5 DUP2 LT PUSH2 0x2DE9 JUMPI POP POP DUP3 PUSH1 0x0 PUSH1 0x20 DUP1 SWAP5 SWAP6 DUP5 ADD ADD MSTORE PUSH1 0x1F DUP1 NOT SWAP2 ADD AND ADD ADD SWAP1 JUMP JUMPDEST PUSH1 0x20 DUP2 DUP4 ADD DUP2 ADD MLOAD DUP5 DUP4 ADD DUP3 ADD MSTORE ADD PUSH2 0x2DC8 JUMP JUMPDEST SWAP2 DUP2 PUSH1 0x1F DUP5 ADD SLT ISZERO PUSH2 0x31D JUMPI DUP3 CALLDATALOAD SWAP2 PUSH1 0x1 PUSH1 0x1 PUSH1 0x40 SHL SUB DUP4 GT PUSH2 0x31D JUMPI PUSH1 0x20 DUP4 DUP2 DUP7 ADD SWAP6 ADD ADD GT PUSH2 0x31D JUMPI JUMP JUMPDEST PUSH1 0xA0 PUSH1 0x3 NOT DUP3 ADD SLT PUSH2 0x31D JUMPI PUSH1 0x1 PUSH1 0x1 PUSH1 0x40 SHL SUB SWAP2 PUSH1 0x4 CALLDATALOAD DUP4 DUP2 GT PUSH2 0x31D JUMPI DUP3 PUSH2 0x2E56 SWAP2 PUSH1 0x4 ADD PUSH2 0x2DFD JUMP JUMPDEST SWAP4 SWAP1 SWAP4 SWAP3 PUSH1 0x24 CALLDATALOAD SWAP2 DUP3 GT PUSH2 0x31D JUMPI PUSH2 0x2E70 SWAP2 PUSH1 0x4 ADD PUSH2 0x2DFD JUMP JUMPDEST SWAP1 SWAP2 PUSH1 0x44 CALLDATALOAD SWAP1 PUSH1 0x64 CALLDATALOAD SWAP1 PUSH1 0x84 CALLDATALOAD SWAP1 JUMP JUMPDEST SWAP1 PUSH1 0x1 DUP3 DUP2 SHR SWAP3 AND DUP1 ISZERO PUSH2 0x2EB0 JUMPI JUMPDEST PUSH1 0x20 DUP4 LT EQ PUSH2 0x2E9A JUMPI JUMP JUMPDEST PUSH4 0x4E487B71 PUSH1 0xE0 SHL PUSH1 0x0 MSTORE PUSH1 0x22 PUSH1 0x4 MSTORE PUSH1 0x24 PUSH1 0x0 REVERT JUMPDEST SWAP2 PUSH1 0x7F AND SWAP2 PUSH2 0x2E8F JUMP JUMPDEST PUSH1 0x80 DUP2 ADD SWAP1 DUP2 LT PUSH1 0x1 PUSH1 0x1 PUSH1 0x40 SHL SUB DUP3 GT OR PUSH2 0x307 JUMPI PUSH1 0x40 MSTORE JUMP JUMPDEST PUSH1 0xA0 DUP2 ADD SWAP1 DUP2 LT PUSH1 0x1 PUSH1 0x1 PUSH1 0x40 SHL SUB DUP3 GT OR PUSH2 0x307 JUMPI PUSH1 0x40 MSTORE JUMP JUMPDEST PUSH2 0x100 DUP2 ADD SWAP1 DUP2 LT PUSH1 0x1 PUSH1 0x1 PUSH1 0x40 SHL SUB DUP3 GT OR PUSH2 0x307 JUMPI PUSH1 0x40 MSTORE JUMP JUMPDEST PUSH1 0x40 DUP2 ADD SWAP1 DUP2 LT PUSH1 0x1 PUSH1 0x1 PUSH1 0x40 SHL SUB DUP3 GT OR PUSH2 0x307 JUMPI PUSH1 0x40 MSTORE JUMP JUMPDEST SWAP1 PUSH1 0x1F DUP1 NOT SWAP2 ADD AND DUP2 ADD SWAP1 DUP2 LT PUSH1 0x1 PUSH1 0x1 PUSH1 0x40 SHL SUB DUP3 GT OR PUSH2 0x307 JUMPI PUSH1 0x40 MSTORE JUMP JUMPDEST SWAP1 PUSH1 0x40 MLOAD SWAP2 DUP3 PUSH1 0x0 DUP3 SLOAD PUSH2 0x2F5B DUP2 PUSH2 0x2E80 JUMP JUMPDEST SWAP1 DUP2 DUP5 MSTORE PUSH1 0x20 SWAP5 PUSH1 0x1 SWAP2 PUSH1 0x1 DUP2 AND SWAP1 DUP2 PUSH1 0x0 EQ PUSH2 0x2FCB JUMPI POP PUSH1 0x1 EQ PUSH2 0x2F8C JUMPI JUMPDEST POP POP POP PUSH2 0x2F8A SWAP3 POP SUB DUP4 PUSH2 0x2F27 JUMP JUMPDEST JUMP JUMPDEST PUSH1 0x0 SWAP1 DUP2 MSTORE DUP6 DUP2 KECCAK256 SWAP6 SWAP4 POP SWAP2 SWAP1 JUMPDEST DUP2 DUP4 LT PUSH2 0x2FB3 JUMPI POP POP PUSH2 0x2F8A SWAP4 POP DUP3 ADD ADD CODESIZE DUP1 DUP1 PUSH2 0x2F7B JUMP JUMPDEST DUP6 SLOAD DUP9 DUP5 ADD DUP6 ADD MSTORE SWAP5 DUP6 ADD SWAP5 DUP8 SWAP5 POP SWAP2 DUP4 ADD SWAP2 PUSH2 0x2F9A JUMP JUMPDEST SWAP3 POP POP POP PUSH2 0x2F8A SWAP5 SWAP3 POP PUSH1 0xFF NOT AND DUP3 DUP5 ADD MSTORE ISZERO ISZERO PUSH1 0x5 SHL DUP3 ADD ADD CODESIZE DUP1 DUP1 PUSH2 0x2F7B JUMP JUMPDEST PUSH1 0x80 DUP2 ADD SWAP3 SWAP2 PUSH1 0x0 SWAP2 JUMPDEST PUSH1 0x4 DUP4 LT PUSH2 0x3004 JUMPI POP POP POP JUMP JUMPDEST PUSH1 0x1 SWAP1 DUP3 MLOAD DUP2 MSTORE PUSH1 0x20 DUP1 SWAP2 ADD SWAP3 ADD SWAP3 ADD SWAP2 SWAP1 PUSH2 0x2FF7 JUMP JUMPDEST SWAP2 SWAP1 DUP3 ADD DUP1 SWAP3 GT PUSH2 0x11D6 JUMPI JUMP JUMPDEST PUSH1 0x0 NOT DUP2 EQ PUSH2 0x11D6 JUMPI PUSH1 0x1 ADD SWAP1 JUMP JUMPDEST SWAP1 DUP2 PUSH1 0x20 SWAP2 SUB SLT PUSH2 0x31D JUMPI MLOAD DUP1 ISZERO ISZERO DUP2 SUB PUSH2 0x31D JUMPI SWAP1 JUMP JUMPDEST PUSH1 0x0 SWAP2 JUMPDEST PUSH1 0x5 DUP4 LT PUSH2 0x3060 JUMPI POP POP POP JUMP JUMPDEST PUSH1 0x1 SWAP1 DUP3 MLOAD DUP2 MSTORE PUSH1 0x20 DUP1 SWAP2 ADD SWAP3 ADD SWAP3 ADD SWAP2 SWAP1 PUSH2 0x3053 JUMP JUMPDEST PUSH1 0x7 SLOAD PUSH1 0x1 PUSH1 0x40 SHL DUP2 LT ISZERO PUSH2 0x307 JUMPI PUSH1 0x1 DUP2 ADD DUP1 PUSH1 0x7 SSTORE DUP2 LT ISZERO PUSH2 0xDFC JUMPI PUSH1 0x7 PUSH1 0x0 MSTORE PUSH32 0xA66CC928B5EDB82AF9BD49922954155AB7B0942694BEA4CE44661D9A8736C688 ADD SSTORE JUMP JUMPDEST SWAP1 DUP2 SLOAD SWAP2 PUSH1 0x1 PUSH1 0x40 SHL DUP4 LT ISZERO PUSH2 0x307 JUMPI DUP3 PUSH2 0x30E2 SWAP2 PUSH1 0x1 PUSH2 0x2F8A SWAP6 ADD DUP2 SSTORE PUSH2 0x2D69 JUMP JUMPDEST SWAP1 SWAP2 SWAP1 DUP3 SLOAD SWAP1 PUSH1 0x3 SHL SWAP2 DUP3 SHL SWAP2 PUSH1 0x0 NOT SWAP1 SHL NOT AND OR SWAP1 SSTORE JUMP JUMPDEST SWAP1 PUSH1 0x0 SWAP2 DUP1 DUP4 MSTORE PUSH1 0x11 PUSH1 0x20 MSTORE PUSH1 0x40 DUP4 KECCAK256 DUP1 SLOAD PUSH1 0xFF DUP2 AND PUSH2 0x31B9 JUMPI PUSH1 0xFF NOT AND PUSH1 0x1 OR SWAP1 SSTORE PUSH1 0x10 SLOAD PUSH1 0x1 PUSH1 0x40 SHL DUP2 LT ISZERO PUSH2 0x31A5 JUMPI PUSH1 0x1 DUP2 ADD DUP1 PUSH1 0x10 SSTORE DUP2 LT ISZERO PUSH2 0x3191 JUMPI PUSH1 0x10 DUP3 SWAP4 SWAP5 MSTORE PUSH32 0x1B6847DC741A1B0CD08D278845F9D819D87B734759AFB55FE2DE5CB82A9AE672 ADD SSTORE PUSH32 0x1926A241BA9D59467AC0063E2CB861452B93AB650FFF5378A82E86BEFECC27AB PUSH1 0x20 PUSH1 0x40 MLOAD TIMESTAMP DUP2 MSTORE LOG2 JUMP JUMPDEST PUSH4 0x4E487B71 PUSH1 0xE0 SHL DUP5 MSTORE PUSH1 0x32 PUSH1 0x4 MSTORE PUSH1 0x24 DUP5 REVERT JUMPDEST PUSH4 0x4E487B71 PUSH1 0xE0 SHL DUP5 MSTORE PUSH1 0x41 PUSH1 0x4 MSTORE PUSH1 0x24 DUP5 REVERT JUMPDEST POP POP POP SWAP1 POP JUMP JUMPDEST SWAP1 DUP1 PUSH1 0x1F DUP4 ADD SLT ISZERO PUSH2 0x31D JUMPI PUSH1 0x40 MLOAD SWAP2 PUSH2 0x31D9 DUP4 PUSH2 0x2F0C JUMP JUMPDEST DUP3 SWAP1 PUSH1 0x40 DUP2 ADD SWAP3 DUP4 GT PUSH2 0x31D JUMPI SWAP1 JUMPDEST DUP3 DUP3 LT PUSH2 0x31F5 JUMPI POP POP POP SWAP1 JUMP JUMPDEST DUP2 CALLDATALOAD DUP2 MSTORE PUSH1 0x20 SWAP2 DUP3 ADD SWAP2 ADD PUSH2 0x31E8 JUMP JUMPDEST DUP2 DUP2 MUL SWAP3 SWAP2 DUP2 ISZERO SWAP2 DUP5 DIV EQ OR ISZERO PUSH2 0x11D6 JUMPI JUMP JUMPDEST PUSH1 0x0 SWAP2 JUMPDEST PUSH1 0x2 DUP4 LT PUSH2 0x3229 JUMPI POP POP POP JUMP JUMPDEST PUSH1 0x1 SWAP1 DUP3 MLOAD DUP2 MSTORE PUSH1 0x20 DUP1 SWAP2 ADD SWAP3 ADD SWAP3 ADD SWAP2 SWAP1 PUSH2 0x321C JUMP JUMPDEST ISZERO PUSH2 0x3247 JUMPI JUMP JUMPDEST PUSH1 0x40 MLOAD PUSH3 0x461BCD PUSH1 0xE5 SHL DUP2 MSTORE PUSH1 0x20 PUSH1 0x4 DUP3 ADD MSTORE PUSH1 0x13 PUSH1 0x24 DUP3 ADD MSTORE PUSH19 0x1513D3881D1C985B9CD9995C8819985A5B1959 PUSH1 0x6A SHL PUSH1 0x44 DUP3 ADD MSTORE PUSH1 0x64 SWAP1 REVERT JUMPDEST SWAP3 SWAP2 SWAP3 PUSH1 0x1 PUSH1 0x1 PUSH1 0x40 SHL SUB DUP3 GT PUSH2 0x307 JUMPI PUSH1 0x40 MLOAD SWAP2 PUSH2 0x32AB PUSH1 0x1F DUP3 ADD PUSH1 0x1F NOT AND PUSH1 0x20 ADD DUP5 PUSH2 0x2F27 JUMP JUMPDEST DUP3 SWAP5 DUP2 DUP5 MSTORE DUP2 DUP4 ADD GT PUSH2 0x31D JUMPI DUP3 DUP2 PUSH1 0x20 SWAP4 DUP5 PUSH1 0x0 SWAP7 ADD CALLDATACOPY ADD ADD MSTORE JUMP JUMPDEST DUP2 DUP2 LT PUSH2 0x32D3 JUMPI POP POP JUMP JUMPDEST PUSH1 0x0 DUP2 SSTORE PUSH1 0x1 ADD PUSH2 0x32C8 JUMP JUMPDEST SWAP2 DUP1 PUSH1 0xA0 SWAP2 PUSH1 0x60 SWAP6 SWAP9 SWAP8 SWAP7 SWAP4 PUSH1 0x80 DUP7 MSTORE DUP2 PUSH1 0x80 DUP8 ADD MSTORE DUP4 DUP7 ADD CALLDATACOPY PUSH1 0x0 DUP3 DUP3 DUP7 ADD ADD MSTORE PUSH1 0x1F DUP1 NOT SWAP2 ADD AND DUP4 ADD ADD SWAP6 PUSH1 0x20 DUP4 ADD MSTORE PUSH1 0x40 DUP3 ADD MSTORE ADD MSTORE JUMP JUMPDEST PUSH1 0x0 MSTORE PUSH1 0xB PUSH1 0x20 MSTORE PUSH1 0x40 PUSH1 0x0 KECCAK256 PUSH1 0xFF PUSH1 0xE DUP3 ADD SLOAD AND ISZERO PUSH2 0xC23 JUMPI PUSH1 0x5 DUP2 ADD SLOAD TIMESTAMP GT ISZERO PUSH2 0x3355 JUMPI PUSH1 0x6 ADD SLOAD TIMESTAMP GT ISZERO PUSH2 0x3350 JUMPI PUSH1 0x2 SWAP1 JUMP JUMPDEST PUSH1 0x1 SWAP1 JUMP JUMPDEST POP PUSH1 0x0 SWAP1 JUMP JUMPDEST DUP1 PUSH1 0x0 MSTORE PUSH1 0x9 PUSH1 0x20 MSTORE PUSH1 0x40 PUSH1 0x0 KECCAK256 DUP1 SLOAD PUSH1 0xFF DUP2 AND PUSH2 0x33CB JUMPI PUSH1 0xFF NOT AND PUSH1 0x1 OR SWAP1 SSTORE PUSH1 0x8 SLOAD PUSH1 0x1 PUSH1 0x40 SHL DUP2 LT ISZERO PUSH2 0x307 JUMPI DUP2 PUSH2 0x30E2 DUP3 PUSH1 0x1 PUSH2 0x339F SWAP5 ADD PUSH1 0x8 SSTORE PUSH2 0x2D32 JUMP JUMPDEST PUSH32 0x85238313F6B4AA1EA470340FC24BC06D68E734CD21411160C06714EB547571AF PUSH1 0x20 PUSH1 0x40 MLOAD TIMESTAMP DUP2 MSTORE LOG2 JUMP JUMPDEST POP POP POP JUMP INVALID LOG2 PUSH5 0x6970667358 0x22 SLT KECCAK256 0xB3 0xC3 0xEB 0x23 SWAP6 MULMOD CALLDATALOAD PUSH1 0x3B 0xA6 SAR CALLDATALOAD 0xA7 JUMPDEST 0xE0 RETURNDATACOPY DUP10 CALLER BYTE PUSH0 BALANCE 0xBF NUMBER SWAP4 PUSH13 0x21981106CED71264736F6C6343 STOP ADDMOD XOR STOP CALLER "},"methodIdentifiers":{"CHOICE_ABSTAIN()":"d90292a3","CHOICE_AGAINST()":"b5770c33","CHOICE_FOR()":"8ea7a274","INITIAL_CREDITS()":"697aa8e8","calculateQuadraticCost(uint256)":"74dd0fea","castVoteD1(uint256,uint256,uint256,uint256,uint256[2],uint256[2][2],uint256[2])":"18dbeb4c","castVoteD2(uint256,uint256,uint256,uint256,uint256,uint256[2],uint256[2][2],uint256[2])":"badbc2ed","commitmentsD1(uint256,uint256)":"4275e031","commitmentsD2(uint256,uint256)":"13703e66","createProposalD1(string,string,uint256,uint256,uint256)":"4d09b49f","createProposalD2(string,string,uint256,uint256,uint256)":"db5bd601","creditRootHistory(uint256)":"a329b313","getAvailableCredits(address)":"b065a8e5","getPhaseD2(uint256)":"850099cd","getProposalD1(uint256)":"315401c0","getProposalD2(uint256)":"d54bb70b","getRegisteredCreditNotes()":"a1c7574a","getRegisteredVoters()":"2bc4a6e7","getVoterCount()":"11174a29","initializeCredits()":"fb9607d3","isCreditNoteRegistered(uint256)":"0d70ece8","isCreditRootValid(uint256)":"ef3a2b39","isMerkleRootValid(uint256)":"4a9284fb","isVoterRegistered(uint256)":"6d3cba61","merkleRootHistory(uint256)":"b5ad9215","mintTestTokens(uint256)":"52a48c56","nullifierUsedD1(uint256,uint256)":"5938862f","nullifierUsedD2(uint256,uint256)":"833722c5","onApprove(address,address,uint256,bytes)":"4273ca16","proposalCountD1()":"f9058741","proposalCountD2()":"03a229f7","proposalVoterSnapshots(uint256,uint256)":"2c5317c0","proposalsD1(uint256)":"f025d082","proposalsD2(uint256)":"b4e0d6af","registerCreditNote(uint256)":"2bbe44fd","registerCreditRoot(uint256)":"d5444336","registerMerkleRoot(uint256)":"a4cae8f8","registerVoter(uint256)":"a13f2f8d","registeredCreditNotes(uint256)":"974f7aa3","registeredVoters(uint256)":"2436e06b","revealVoteD1(uint256,uint256,uint256,uint256)":"0572c801","revealVoteD2(uint256,uint256,uint256,uint256,uint256)":"d55d533e","tonToken()":"781a4852","treasury()":"61d027b3","updateProposalVoters(uint256,uint256)":"aa609848","userCredits(address)":"20babb92","validCreditRoots(uint256)":"417e70c8","validMerkleRoots(uint256)":"cb1bb033","verifierD1()":"f58789ae","verifierD2()":"94ffe6a0"}}}}}