{
  "_format": "hh-sol-artifact-1",
  "contractName": "PrivateVoting",
  "sourceName": "contracts/PrivateVoting.sol",
  "abi": [
    {
      "inputs": [
        {
          "internalType": "address",
          "name": "_verifier",
          "type": "address"
        }
      ],
      "stateMutability": "nonpayable",
      "type": "constructor"
    },
    {
      "inputs": [],
      "name": "AlreadyRevealed",
      "type": "error"
    },
    {
      "inputs": [],
      "name": "CommitmentNotFound",
      "type": "error"
    },
    {
      "inputs": [],
      "name": "InvalidChoice",
      "type": "error"
    },
    {
      "inputs": [],
      "name": "InvalidMerkleRoot",
      "type": "error"
    },
    {
      "inputs": [],
      "name": "InvalidProof",
      "type": "error"
    },
    {
      "inputs": [],
      "name": "InvalidReveal",
      "type": "error"
    },
    {
      "inputs": [],
      "name": "NotInCommitPhase",
      "type": "error"
    },
    {
      "inputs": [],
      "name": "NotInRevealPhase",
      "type": "error"
    },
    {
      "inputs": [],
      "name": "NotProposer",
      "type": "error"
    },
    {
      "inputs": [],
      "name": "NullifierAlreadyUsed",
      "type": "error"
    },
    {
      "inputs": [],
      "name": "ProposalHasVotes",
      "type": "error"
    },
    {
      "inputs": [],
      "name": "ProposalNotFound",
      "type": "error"
    },
    {
      "inputs": [],
      "name": "ZeroVotingPower",
      "type": "error"
    },
    {
      "anonymous": false,
      "inputs": [
        {
          "indexed": true,
          "internalType": "uint256",
          "name": "merkleRoot",
          "type": "uint256"
        },
        {
          "indexed": false,
          "internalType": "uint256",
          "name": "timestamp",
          "type": "uint256"
        }
      ],
      "name": "MerkleRootRegistered",
      "type": "event"
    },
    {
      "anonymous": false,
      "inputs": [
        {
          "indexed": true,
          "internalType": "uint256",
          "name": "proposalId",
          "type": "uint256"
        },
        {
          "indexed": false,
          "internalType": "string",
          "name": "title",
          "type": "string"
        },
        {
          "indexed": true,
          "internalType": "address",
          "name": "proposer",
          "type": "address"
        },
        {
          "indexed": false,
          "internalType": "uint256",
          "name": "merkleRoot",
          "type": "uint256"
        },
        {
          "indexed": false,
          "internalType": "uint256",
          "name": "endTime",
          "type": "uint256"
        },
        {
          "indexed": false,
          "internalType": "uint256",
          "name": "revealEndTime",
          "type": "uint256"
        }
      ],
      "name": "ProposalCreated",
      "type": "event"
    },
    {
      "anonymous": false,
      "inputs": [
        {
          "indexed": true,
          "internalType": "uint256",
          "name": "proposalId",
          "type": "uint256"
        },
        {
          "indexed": true,
          "internalType": "uint256",
          "name": "nullifier",
          "type": "uint256"
        },
        {
          "indexed": false,
          "internalType": "uint256",
          "name": "commitment",
          "type": "uint256"
        },
        {
          "indexed": false,
          "internalType": "uint256",
          "name": "votingPower",
          "type": "uint256"
        }
      ],
      "name": "VoteCommitted",
      "type": "event"
    },
    {
      "anonymous": false,
      "inputs": [
        {
          "indexed": true,
          "internalType": "uint256",
          "name": "proposalId",
          "type": "uint256"
        },
        {
          "indexed": true,
          "internalType": "uint256",
          "name": "nullifier",
          "type": "uint256"
        },
        {
          "indexed": false,
          "internalType": "uint256",
          "name": "choice",
          "type": "uint256"
        },
        {
          "indexed": false,
          "internalType": "uint256",
          "name": "votingPower",
          "type": "uint256"
        }
      ],
      "name": "VoteRevealed",
      "type": "event"
    },
    {
      "anonymous": false,
      "inputs": [
        {
          "indexed": true,
          "internalType": "uint256",
          "name": "noteHash",
          "type": "uint256"
        },
        {
          "indexed": false,
          "internalType": "uint256",
          "name": "timestamp",
          "type": "uint256"
        }
      ],
      "name": "VoterRegistered",
      "type": "event"
    },
    {
      "inputs": [],
      "name": "CHOICE_ABSTAIN",
      "outputs": [
        {
          "internalType": "uint256",
          "name": "",
          "type": "uint256"
        }
      ],
      "stateMutability": "view",
      "type": "function"
    },
    {
      "inputs": [],
      "name": "CHOICE_AGAINST",
      "outputs": [
        {
          "internalType": "uint256",
          "name": "",
          "type": "uint256"
        }
      ],
      "stateMutability": "view",
      "type": "function"
    },
    {
      "inputs": [],
      "name": "CHOICE_FOR",
      "outputs": [
        {
          "internalType": "uint256",
          "name": "",
          "type": "uint256"
        }
      ],
      "stateMutability": "view",
      "type": "function"
    },
    {
      "inputs": [
        {
          "internalType": "uint256",
          "name": "_proposalId",
          "type": "uint256"
        },
        {
          "internalType": "uint256",
          "name": "_commitment",
          "type": "uint256"
        },
        {
          "internalType": "uint256",
          "name": "_votingPower",
          "type": "uint256"
        },
        {
          "internalType": "uint256",
          "name": "_nullifier",
          "type": "uint256"
        },
        {
          "internalType": "uint256[2]",
          "name": "_pA",
          "type": "uint256[2]"
        },
        {
          "internalType": "uint256[2][2]",
          "name": "_pB",
          "type": "uint256[2][2]"
        },
        {
          "internalType": "uint256[2]",
          "name": "_pC",
          "type": "uint256[2]"
        }
      ],
      "name": "commitVote",
      "outputs": [],
      "stateMutability": "nonpayable",
      "type": "function"
    },
    {
      "inputs": [
        {
          "internalType": "uint256",
          "name": "",
          "type": "uint256"
        },
        {
          "internalType": "uint256",
          "name": "",
          "type": "uint256"
        }
      ],
      "name": "commitments",
      "outputs": [
        {
          "internalType": "uint256",
          "name": "commitment",
          "type": "uint256"
        },
        {
          "internalType": "uint256",
          "name": "votingPower",
          "type": "uint256"
        },
        {
          "internalType": "uint256",
          "name": "nullifier",
          "type": "uint256"
        },
        {
          "internalType": "uint256",
          "name": "timestamp",
          "type": "uint256"
        },
        {
          "internalType": "bool",
          "name": "revealed",
          "type": "bool"
        },
        {
          "internalType": "uint256",
          "name": "revealedChoice",
          "type": "uint256"
        },
        {
          "internalType": "bool",
          "name": "exists",
          "type": "bool"
        }
      ],
      "stateMutability": "view",
      "type": "function"
    },
    {
      "inputs": [
        {
          "internalType": "string",
          "name": "_title",
          "type": "string"
        },
        {
          "internalType": "string",
          "name": "_description",
          "type": "string"
        },
        {
          "internalType": "uint256",
          "name": "_merkleRoot",
          "type": "uint256"
        },
        {
          "internalType": "uint256",
          "name": "_votingDuration",
          "type": "uint256"
        },
        {
          "internalType": "uint256",
          "name": "_revealDuration",
          "type": "uint256"
        }
      ],
      "name": "createProposal",
      "outputs": [
        {
          "internalType": "uint256",
          "name": "",
          "type": "uint256"
        }
      ],
      "stateMutability": "nonpayable",
      "type": "function"
    },
    {
      "inputs": [
        {
          "internalType": "uint256",
          "name": "_proposalId",
          "type": "uint256"
        }
      ],
      "name": "deleteProposal",
      "outputs": [],
      "stateMutability": "nonpayable",
      "type": "function"
    },
    {
      "inputs": [
        {
          "internalType": "uint256",
          "name": "_proposalId",
          "type": "uint256"
        },
        {
          "internalType": "uint256",
          "name": "_nullifier",
          "type": "uint256"
        }
      ],
      "name": "getCommitment",
      "outputs": [
        {
          "internalType": "uint256",
          "name": "commitment",
          "type": "uint256"
        },
        {
          "internalType": "uint256",
          "name": "votingPower",
          "type": "uint256"
        },
        {
          "internalType": "bool",
          "name": "revealed",
          "type": "bool"
        },
        {
          "internalType": "uint256",
          "name": "revealedChoice",
          "type": "uint256"
        }
      ],
      "stateMutability": "view",
      "type": "function"
    },
    {
      "inputs": [],
      "name": "getMerkleRoots",
      "outputs": [
        {
          "internalType": "uint256[]",
          "name": "",
          "type": "uint256[]"
        }
      ],
      "stateMutability": "view",
      "type": "function"
    },
    {
      "inputs": [
        {
          "internalType": "uint256",
          "name": "_proposalId",
          "type": "uint256"
        }
      ],
      "name": "getPhase",
      "outputs": [
        {
          "internalType": "uint8",
          "name": "",
          "type": "uint8"
        }
      ],
      "stateMutability": "view",
      "type": "function"
    },
    {
      "inputs": [
        {
          "internalType": "uint256",
          "name": "_proposalId",
          "type": "uint256"
        }
      ],
      "name": "getProposal",
      "outputs": [
        {
          "internalType": "uint256",
          "name": "id",
          "type": "uint256"
        },
        {
          "internalType": "string",
          "name": "title",
          "type": "string"
        },
        {
          "internalType": "string",
          "name": "description",
          "type": "string"
        },
        {
          "internalType": "address",
          "name": "proposer",
          "type": "address"
        },
        {
          "internalType": "uint256",
          "name": "merkleRoot",
          "type": "uint256"
        },
        {
          "internalType": "uint256",
          "name": "endTime",
          "type": "uint256"
        },
        {
          "internalType": "uint256",
          "name": "revealEndTime",
          "type": "uint256"
        },
        {
          "internalType": "uint256",
          "name": "forVotes",
          "type": "uint256"
        },
        {
          "internalType": "uint256",
          "name": "againstVotes",
          "type": "uint256"
        },
        {
          "internalType": "uint256",
          "name": "abstainVotes",
          "type": "uint256"
        },
        {
          "internalType": "uint256",
          "name": "totalCommitments",
          "type": "uint256"
        },
        {
          "internalType": "uint256",
          "name": "revealedVotes",
          "type": "uint256"
        },
        {
          "internalType": "uint8",
          "name": "phase",
          "type": "uint8"
        }
      ],
      "stateMutability": "view",
      "type": "function"
    },
    {
      "inputs": [
        {
          "internalType": "uint256",
          "name": "_proposalId",
          "type": "uint256"
        }
      ],
      "name": "getProposalVoterSnapshot",
      "outputs": [
        {
          "internalType": "uint256[]",
          "name": "",
          "type": "uint256[]"
        }
      ],
      "stateMutability": "view",
      "type": "function"
    },
    {
      "inputs": [],
      "name": "getRegisteredVoters",
      "outputs": [
        {
          "internalType": "uint256[]",
          "name": "",
          "type": "uint256[]"
        }
      ],
      "stateMutability": "view",
      "type": "function"
    },
    {
      "inputs": [],
      "name": "getVoterCount",
      "outputs": [
        {
          "internalType": "uint256",
          "name": "",
          "type": "uint256"
        }
      ],
      "stateMutability": "view",
      "type": "function"
    },
    {
      "inputs": [
        {
          "internalType": "uint256",
          "name": "_merkleRoot",
          "type": "uint256"
        }
      ],
      "name": "isMerkleRootValid",
      "outputs": [
        {
          "internalType": "bool",
          "name": "",
          "type": "bool"
        }
      ],
      "stateMutability": "view",
      "type": "function"
    },
    {
      "inputs": [
        {
          "internalType": "uint256",
          "name": "_proposalId",
          "type": "uint256"
        },
        {
          "internalType": "uint256",
          "name": "_nullifier",
          "type": "uint256"
        }
      ],
      "name": "isNullifierUsed",
      "outputs": [
        {
          "internalType": "bool",
          "name": "",
          "type": "bool"
        }
      ],
      "stateMutability": "view",
      "type": "function"
    },
    {
      "inputs": [
        {
          "internalType": "uint256",
          "name": "",
          "type": "uint256"
        }
      ],
      "name": "isVoterRegistered",
      "outputs": [
        {
          "internalType": "bool",
          "name": "",
          "type": "bool"
        }
      ],
      "stateMutability": "view",
      "type": "function"
    },
    {
      "inputs": [
        {
          "internalType": "uint256",
          "name": "",
          "type": "uint256"
        }
      ],
      "name": "merkleRootHistory",
      "outputs": [
        {
          "internalType": "uint256",
          "name": "",
          "type": "uint256"
        }
      ],
      "stateMutability": "view",
      "type": "function"
    },
    {
      "inputs": [
        {
          "internalType": "uint256",
          "name": "",
          "type": "uint256"
        },
        {
          "internalType": "uint256",
          "name": "",
          "type": "uint256"
        }
      ],
      "name": "nullifierUsed",
      "outputs": [
        {
          "internalType": "bool",
          "name": "",
          "type": "bool"
        }
      ],
      "stateMutability": "view",
      "type": "function"
    },
    {
      "inputs": [],
      "name": "proposalCount",
      "outputs": [
        {
          "internalType": "uint256",
          "name": "",
          "type": "uint256"
        }
      ],
      "stateMutability": "view",
      "type": "function"
    },
    {
      "inputs": [
        {
          "internalType": "uint256",
          "name": "",
          "type": "uint256"
        },
        {
          "internalType": "uint256",
          "name": "",
          "type": "uint256"
        }
      ],
      "name": "proposalVoterSnapshots",
      "outputs": [
        {
          "internalType": "uint256",
          "name": "",
          "type": "uint256"
        }
      ],
      "stateMutability": "view",
      "type": "function"
    },
    {
      "inputs": [
        {
          "internalType": "uint256",
          "name": "",
          "type": "uint256"
        }
      ],
      "name": "proposals",
      "outputs": [
        {
          "internalType": "uint256",
          "name": "id",
          "type": "uint256"
        },
        {
          "internalType": "string",
          "name": "title",
          "type": "string"
        },
        {
          "internalType": "string",
          "name": "description",
          "type": "string"
        },
        {
          "internalType": "address",
          "name": "proposer",
          "type": "address"
        },
        {
          "internalType": "uint256",
          "name": "startTime",
          "type": "uint256"
        },
        {
          "internalType": "uint256",
          "name": "endTime",
          "type": "uint256"
        },
        {
          "internalType": "uint256",
          "name": "revealEndTime",
          "type": "uint256"
        },
        {
          "internalType": "uint256",
          "name": "merkleRoot",
          "type": "uint256"
        },
        {
          "internalType": "uint256",
          "name": "forVotes",
          "type": "uint256"
        },
        {
          "internalType": "uint256",
          "name": "againstVotes",
          "type": "uint256"
        },
        {
          "internalType": "uint256",
          "name": "abstainVotes",
          "type": "uint256"
        },
        {
          "internalType": "uint256",
          "name": "totalCommitments",
          "type": "uint256"
        },
        {
          "internalType": "uint256",
          "name": "revealedVotes",
          "type": "uint256"
        },
        {
          "internalType": "bool",
          "name": "exists",
          "type": "bool"
        }
      ],
      "stateMutability": "view",
      "type": "function"
    },
    {
      "inputs": [
        {
          "internalType": "uint256",
          "name": "_merkleRoot",
          "type": "uint256"
        }
      ],
      "name": "registerMerkleRoot",
      "outputs": [],
      "stateMutability": "nonpayable",
      "type": "function"
    },
    {
      "inputs": [
        {
          "internalType": "uint256",
          "name": "_noteHash",
          "type": "uint256"
        }
      ],
      "name": "registerVoter",
      "outputs": [],
      "stateMutability": "nonpayable",
      "type": "function"
    },
    {
      "inputs": [
        {
          "internalType": "uint256",
          "name": "",
          "type": "uint256"
        }
      ],
      "name": "registeredVoters",
      "outputs": [
        {
          "internalType": "uint256",
          "name": "",
          "type": "uint256"
        }
      ],
      "stateMutability": "view",
      "type": "function"
    },
    {
      "inputs": [
        {
          "internalType": "uint256",
          "name": "_proposalId",
          "type": "uint256"
        },
        {
          "internalType": "uint256",
          "name": "_nullifier",
          "type": "uint256"
        },
        {
          "internalType": "uint256",
          "name": "_choice",
          "type": "uint256"
        },
        {
          "internalType": "uint256",
          "name": "_voteSalt",
          "type": "uint256"
        }
      ],
      "name": "revealVote",
      "outputs": [],
      "stateMutability": "nonpayable",
      "type": "function"
    },
    {
      "inputs": [
        {
          "internalType": "uint256",
          "name": "_proposalId",
          "type": "uint256"
        },
        {
          "internalType": "uint256",
          "name": "_newMerkleRoot",
          "type": "uint256"
        }
      ],
      "name": "updateProposalVoters",
      "outputs": [],
      "stateMutability": "nonpayable",
      "type": "function"
    },
    {
      "inputs": [
        {
          "internalType": "uint256",
          "name": "",
          "type": "uint256"
        }
      ],
      "name": "validMerkleRoots",
      "outputs": [
        {
          "internalType": "bool",
          "name": "",
          "type": "bool"
        }
      ],
      "stateMutability": "view",
      "type": "function"
    },
    {
      "inputs": [],
      "name": "verifier",
      "outputs": [
        {
          "internalType": "contract IVerifier",
          "name": "",
          "type": "address"
        }
      ],
      "stateMutability": "view",
      "type": "function"
    }
  ],
  "bytecode": "0x60a03461007357601f6119fb38819003918201601f19168301916001600160401b038311848410176100785780849260209460405283398101031261007357516001600160a01b038116908190036100735760805260405161196c908161008f8239608051818181610b9a01526113650152f35b600080fd5b634e487b7160e01b600052604160045260246000fdfe6080604052600436101561001257600080fd5b60003560e01c8063013cf08b1461140457806311174a29146113e657806316ef376b146113bd5780632436e06b146113945780632b7ac3f31461134f5780632bc4a6e7146112d45780632c5317c01461129557806333423c0614610d975780634a9284fb1461025057806351fce2e614610a785780636d3cba6114610a475780637164f0d6146109ed5780638259d5531461091057806385135a1a1461089557806385c742961461015b5780638ea7a27414610879578063a13f2f8d1461085d578063a4cae8f8146107fb578063aa6098481461070b578063b30c510b14610499578063b5770c331461047d578063b5ad92151461042c578063b7190516146103af578063c7f758a814610281578063cb1bb03314610250578063d13e2e60146101d2578063d90292a3146101b6578063da35c664146101985763e78ffc961461015b57600080fd5b3461019357610169366116df565b906000526003602052604060002090600052602052602060ff604060002054166040519015158152f35b600080fd5b34610193576000366003190112610193576020600054604051908152f35b3461019357600036600319011261019357602060405160028152f35b34610193576101e0366116df565b90600052600260205260406000209060005260205260e060406000208054906001810154906002810154600382015460ff6004840154169160ff6006600586015495015416946040519687526020870152604086015260608501521515608084015260a0830152151560c0820152f35b34610193576020366003190112610193576004356000526004602052602060ff604060002054166040519015158152f35b34610193576020366003190112610193576004356000526001602052604060002060ff600d820154161561039d576005810154428110610382576000905b825491600160a01b600190036003850154169160078501549060068601546008870154600988015490600a89015492600b8a015494600c8b01549660018c0161030790611559565b9b60020161031490611559565b6040519c8d809d6101a09182918152602001528d01610332916115fe565b8c810360408e0152610343916115fe565b9960608c015260808b015260a08a015260c089015260e088015261010087015261012086015261014085015261016084015260ff166101808301520390f35b60068201544211610395576001906102bf565b6002906102bf565b60405163635e873760e01b8152600490fd5b34610193576020806003193601126101935760043560005260086020526040600020906040519081602084549182815201936000526020600020916000905b828210610415576104118561040581890382611537565b604051918291826116a3565b0390f35b8354865294850194600193840193909101906103ee565b34610193576020366003190112610193576004356005548110156101935760209060056000527f036b6384b5eca791c62761152d0c79bb0604c104a5fb6f4eb0703f3154bb3db00154604051908152f35b3461019357600036600319011261019357602060405160008152f35b3461019357608036600319011261019357600435602435906044358160005260016020916001835260406000209260028152604060002086600052815260406000209260ff600d860154161561039d5760058501544211156106f957600685015442116106f95760ff600685015416156106e7576004840160ff8154166106d557600284116106c3576040516080810181811067ffffffffffffffff8211176106ad5760405284815260018601928354858301528860408301526064356060830152604051916321c2736360e21b8352600483016000905b876004831061069b5793505050508160848173__$0daf1669a85ce10529e05b8a030b9567e1$__5af490811561068f57600091610662575b50855403610650577fa8b3b9b1cdff40715f0311250e16b2a920dcd19105796dc1d4258b8163c5a3fa95846005604097600c94600160ff1982541617905501556001851460001461062257825461060560088301918254611789565b90555b016106138154611764565b905554908351928352820152a3005b8461063f57825461063860098301918254611789565b9055610608565b8254610638600a8301918254611789565b604051639ea6d12760e01b8152600490fd5b90508381813d8311610688575b6106798183611537565b810103126101935751896105a9565b503d61066f565b6040513d6000823e3d90fd5b83518252928301929184019101610571565b634e487b7160e01b600052604160045260246000fd5b604051639c45400160e01b8152600490fd5b60405163a89ac15160e01b8152600490fd5b604051635b34156960e11b8152600490fd5b6040516374683d7160e01b8152600490fd5b3461019357610719366116df565b9080600052600190602090600160205260406000209160ff600d840154161561039d57846007859401558160005260089160086020526040600020805460008255806107df575b50506000935b6107a1575b505050505080600052600460205260406000209081549160ff83161561078d57005b600161079f9360ff19161790556117f4565b005b6006548410156107da57848094826000528484526107d360406000206107c68361163e565b90549060031b1c9061183c565b0193610766565b61076b565b6107f4916000526020600020908101906117dd565b8680610760565b34610193576020366003190112610193576004358060005260046020526040600020600160ff19825416179055610831816117f4565b7fcb23ed79d0d407699762f186152925a6b8dd62fc4b2223f50a16534af8c883f86020604051428152a2005b346101935760203660031901126101935761079f6004356118c1565b3461019357600036600319011261019357602060405160018152f35b3461019357600036600319011261019357604051806005549182815260208091019260056000527f036b6384b5eca791c62761152d0c79bb0604c104a5fb6f4eb0703f3154bb3db0916000905b8282106108f9576104118561040581890382611537565b8354865294850194600193840193909101906108e2565b3461019357602036600319011261019357600435806000526001602052604060002060ff600d820154161561039d5760038101546001600160a01b031633036109db57600b01546109c95760005260016020526000600d6040822082815561097a60018201611878565b61098660028201611878565b82600382015582600482015582600582015582600682015582600782015582600882015582600982015582600a82015582600b82015582600c8201550155600080f35b60405163811e73ff60e01b8152600490fd5b604051637d1b73b960e01b8152600490fd5b34610193576109fb366116df565b90600052600260205260406000209060005260205260806040600020805490600181015490600560ff600483015416910154916040519384526020840152151560408301526060820152f35b34610193576020366003190112610193576004356000526007602052602060ff604060002054166040519015158152f35b3461019357610180366003190112610193576064356004356044356024353660c41161019357610144903682116101935736610184116101935783600052600192602084815260406000209360ff600d860154161561039d5760059060058601544211610d85578760005260038352604060002089600052835260ff60406000205416610d73578315610d615760405167ffffffffffffffff929060a08101848111828210176106ad576040528a8152868582015289604082015285606082015260078801546080820152604051926334baeab960e01b845260406084600486013760c460008b604487015b60028310610d4b575050505060409060c4850137600090898661010486015b858510610d36575093508492506101a491508290507f00000000000000000000000000000000000000000000000000000000000000006001600160a01b03165afa90811561068f57600091610d00575b5015610cee578660005260038252604060002088600052825260406000208660ff198254161790556040519460e0860191868310908311176106ad57610cd660409660068a86610cba8e7f816254a0f23b2b8d4a1d9574bd8a5adabe872881137f71912e7c52e0c6f179df9d600b998e528c8752838701908c82528e880190838252606089019242845260808a01946000865260a08b01976000895260c08c0199848b526000526002815260406000209160005252604060002099518a555190890155516002880155516003870155511515600486019060ff801983541691151516179055565b51600584015551151591019060ff801983541691151516179055565b01610ce18154611764565b90558351928352820152a3005b6040516309bde33960e01b8152600490fd5b90508281813d8311610d2f575b610d178183611537565b81010312610193575180151581036101935789610bd3565b503d610d0d565b81908451815201920192019190868b91610b83565b6040818186819437019301910190918c90610b64565b6040516343c891cf60e11b8152600490fd5b604051636569570160e11b8152600490fd5b60405163abfb7dc360e01b8152600490fd5b346101935760a03660031901126101935760043567ffffffffffffffff811161019357610dc89036906004016116f5565b60243567ffffffffffffffff811161019357610de89036906004016116f5565b604435600052600460205260ff604060002054161561128357610e0c600054611764565b9081600055610e1d60643542611789565b610e34608435610e2f60643542611789565b611789565b9160405194856101c081011067ffffffffffffffff6101c0880111176106ad57610e7a916101c08701604052858752610e6e36898b611796565b60208801523691611796565b604085015233606085015242608085015260a084015260c083015260443560e08301526000610100830152600061012083015260006101408301526000610160830152600061018083015260016101a083015280600052600160205260406000209282518455602083015180519067ffffffffffffffff82116106ad57610f0460018701546114fd565b601f811161124e575b50602090601f83116001146111dc57610f3f92916000918361111f575b50508160011b916000199060031b1c19161790565b60018501555b604083015180519067ffffffffffffffff82116106ad57610f6960028701546114fd565b601f811161119c575b50602090601f831160011461112a57610fa392916000918361111f5750508160011b916000199060031b1c19161790565b60028501555b6003946003850160018060a01b036060860151166bffffffffffffffffffffffff60a01b8254161790556080840151600486015560a0840151600586015561105760069560c0860151600682015560e08601516007820155600d6101a060089761010081015160088501556101208101516009850155610140810151600a850155610160810151600b850155610180810151600c8501550151151591019060ff801983541691151516179055565b60005b855481101561109157600190846000528560205261108b604060002061107f8361163e565b9054908b1b1c9061183c565b0161105a565b60208484817f28528fa183090d38f4c35574bb13fb455a547bda31d9bc9520957c9558f52f8e866110c460643542611789565b6110d6608435610e2f60643542611789565b9085604051936080855281608086015260a0850137600060a08785010152604435888401526040830152606082015260a0813395601f80199101168101030190a3604051908152f35b015190508880610f2a565b9190600287016000526020600020906000935b601f1984168510611181576001945083601f19811610611168575b505050811b016002850155610fa9565b015160001960f88460031b161c19169055878080611158565b8181015183556020948501946001909301929091019061113d565b6111cc90600288016000526020600020601f850160051c810191602086106111d2575b601f0160051c01906117dd565b87610f72565b90915081906111bf565b9190600187016000526020600020906000935b601f1984168510611233576001945083601f1981161061121a575b505050811b016001850155610f45565b015160001960f88460031b161c1916905587808061120a565b818101518355602094850194600190930192909101906111ef565b61127d90600188016000526020600020601f850160051c810191602086106111d257601f0160051c01906117dd565b87610f0d565b604051639dd854d360e01b8152600490fd5b34610193576112a3366116df565b90600052600860205260406000208054821015610193576020916112c69161168b565b90546040519160031b1c8152f35b3461019357600036600319011261019357604051806006549182815260208091019260066000527ff652222313e28459528d920b65115c16c04f3efc82aaedc97be59f3f377c0d3f916000905b828210611338576104118561040581890382611537565b835486529485019460019384019390910190611321565b34610193576000366003190112610193576040517f00000000000000000000000000000000000000000000000000000000000000006001600160a01b03168152602090f35b3461019357602036600319011261019357600435600654811015610193576112c660209161163e565b346101935760203660031901126101935760206113db600435611723565b60ff60405191168152f35b34610193576000366003190112610193576020600654604051908152f35b34610193576020366003190112610193576004356000526001602052604060002080546001820161143490611559565b9161144160028201611559565b600160a01b60019003600383015416916004810154600582015460068301546007840154600885015490600986015492600a87015494600b88015496600c89015498600d015460ff16996040519d8e9d8e6101c0918152816020820152016114a8916115fe565b8d810360408f01526114b9916115fe565b9a60608d015260808c015260a08b015260c08a015260e089015261010088015261012087015261014086015261016085015261018084015215156101a08301520390f35b90600182811c9216801561152d575b602083101461151757565b634e487b7160e01b600052602260045260246000fd5b91607f169161150c565b90601f8019910116810190811067ffffffffffffffff8211176106ad57604052565b9060405191826000825461156c816114fd565b908184526020946001916001811690816000146115dc575060011461159d575b50505061159b92500383611537565b565b600090815285812095935091905b8183106115c457505061159b935082010138808061158c565b855488840185015294850194879450918301916115ab565b9250505061159b94925060ff191682840152151560051b82010138808061158c565b919082519283825260005b84811061162a575050826000602080949584010152601f8019910116010190565b602081830181015184830182015201611609565b6006548110156116755760066000527ff652222313e28459528d920b65115c16c04f3efc82aaedc97be59f3f377c0d3f0190600090565b634e487b7160e01b600052603260045260246000fd5b80548210156116755760005260206000200190600090565b602090602060408183019282815285518094520193019160005b8281106116cb575050505090565b8351855293810193928101926001016116bd565b6040906003190112610193576004359060243590565b9181601f840112156101935782359167ffffffffffffffff8311610193576020838186019501011161019357565b6000526001602052604060002060ff600d820154161561039d57600581015442111561175e576006015442111561175957600290565b600190565b50600090565b60001981146117735760010190565b634e487b7160e01b600052601160045260246000fd5b9190820180921161177357565b92919267ffffffffffffffff82116106ad57604051916117c0601f8201601f191660200184611537565b829481845281830111610193578281602093846000960137010152565b8181106117e8575050565b600081556001016117dd565b600554600160401b8110156106ad5760018101806005558110156116755760056000527f036b6384b5eca791c62761152d0c79bb0604c104a5fb6f4eb0703f3154bb3db00155565b90815491600160401b8310156106ad578261185f91600161159b9501815561168b565b90919082549060031b91821b91600019901b1916179055565b61188281546114fd565b908161188c575050565b81601f6000931160011461189e575055565b9080839182526118bd601f60208420940160051c8401600185016117dd565b5555565b8060005260076020526040600020805460ff81166119315760ff19166001179055600654600160401b8110156106ad578161185f826001611905940160065561163e565b7f85238313f6b4aa1ea470340fc24bc06d68e734cd21411160c06714eb547571af6020604051428152a2565b50505056fea2646970667358221220b2e88baf019982be29f68d0ed44f6133851230c5283817c60d825df9229130d364736f6c63430008180033",
  "linkReferences": {
    "contracts/PoseidonT5.sol": {
      "PoseidonT5": [
        {
          "length": 20,
          "start": 1556
        }
      ]
    }
  },
  "deployedLinkReferences": {
    "contracts/PoseidonT5.sol": {
      "PoseidonT5": [
        {
          "length": 20,
          "start": 1413
        }
      ]
    }
  }
}