{
  "_format": "hh-sol-artifact-1",
  "contractName": "QuadraticVoting",
  "sourceName": "contracts/QuadraticVoting.sol",
  "abi": [
    {
      "inputs": [
        {
          "internalType": "address",
          "name": "_verifier",
          "type": "address"
        }
      ],
      "stateMutability": "nonpayable",
      "type": "constructor"
    },
    {
      "inputs": [],
      "name": "AlreadyRevealed",
      "type": "error"
    },
    {
      "inputs": [],
      "name": "CommitmentNotFound",
      "type": "error"
    },
    {
      "inputs": [],
      "name": "InsufficientCredits",
      "type": "error"
    },
    {
      "inputs": [],
      "name": "InvalidChoice",
      "type": "error"
    },
    {
      "inputs": [],
      "name": "InvalidCreditRoot",
      "type": "error"
    },
    {
      "inputs": [],
      "name": "InvalidProof",
      "type": "error"
    },
    {
      "inputs": [],
      "name": "InvalidQuadraticCost",
      "type": "error"
    },
    {
      "inputs": [],
      "name": "InvalidReveal",
      "type": "error"
    },
    {
      "inputs": [],
      "name": "NotInCommitPhase",
      "type": "error"
    },
    {
      "inputs": [],
      "name": "NotInRevealPhase",
      "type": "error"
    },
    {
      "inputs": [],
      "name": "NullifierAlreadyUsed",
      "type": "error"
    },
    {
      "inputs": [],
      "name": "ProposalNotFound",
      "type": "error"
    },
    {
      "anonymous": false,
      "inputs": [
        {
          "indexed": true,
          "internalType": "uint256",
          "name": "creditNoteHash",
          "type": "uint256"
        },
        {
          "indexed": false,
          "internalType": "uint256",
          "name": "timestamp",
          "type": "uint256"
        }
      ],
      "name": "CreditNoteRegistered",
      "type": "event"
    },
    {
      "anonymous": false,
      "inputs": [
        {
          "indexed": true,
          "internalType": "uint256",
          "name": "creditRoot",
          "type": "uint256"
        },
        {
          "indexed": false,
          "internalType": "uint256",
          "name": "timestamp",
          "type": "uint256"
        }
      ],
      "name": "CreditRootRegistered",
      "type": "event"
    },
    {
      "anonymous": false,
      "inputs": [
        {
          "indexed": true,
          "internalType": "address",
          "name": "user",
          "type": "address"
        },
        {
          "indexed": false,
          "internalType": "uint256",
          "name": "amount",
          "type": "uint256"
        },
        {
          "indexed": false,
          "internalType": "uint256",
          "name": "remaining",
          "type": "uint256"
        }
      ],
      "name": "CreditsBurned",
      "type": "event"
    },
    {
      "anonymous": false,
      "inputs": [
        {
          "indexed": true,
          "internalType": "address",
          "name": "user",
          "type": "address"
        },
        {
          "indexed": false,
          "internalType": "uint256",
          "name": "credits",
          "type": "uint256"
        }
      ],
      "name": "CreditsInitialized",
      "type": "event"
    },
    {
      "anonymous": false,
      "inputs": [
        {
          "indexed": true,
          "internalType": "uint256",
          "name": "proposalId",
          "type": "uint256"
        },
        {
          "indexed": false,
          "internalType": "string",
          "name": "title",
          "type": "string"
        },
        {
          "indexed": true,
          "internalType": "address",
          "name": "proposer",
          "type": "address"
        },
        {
          "indexed": false,
          "internalType": "uint256",
          "name": "creditRoot",
          "type": "uint256"
        },
        {
          "indexed": false,
          "internalType": "uint256",
          "name": "endTime",
          "type": "uint256"
        },
        {
          "indexed": false,
          "internalType": "uint256",
          "name": "revealEndTime",
          "type": "uint256"
        }
      ],
      "name": "ProposalCreated",
      "type": "event"
    },
    {
      "anonymous": false,
      "inputs": [
        {
          "indexed": true,
          "internalType": "uint256",
          "name": "proposalId",
          "type": "uint256"
        },
        {
          "indexed": true,
          "internalType": "uint256",
          "name": "nullifier",
          "type": "uint256"
        },
        {
          "indexed": false,
          "internalType": "uint256",
          "name": "commitment",
          "type": "uint256"
        },
        {
          "indexed": false,
          "internalType": "uint256",
          "name": "numVotes",
          "type": "uint256"
        },
        {
          "indexed": false,
          "internalType": "uint256",
          "name": "creditsSpent",
          "type": "uint256"
        }
      ],
      "name": "VoteCommitted",
      "type": "event"
    },
    {
      "anonymous": false,
      "inputs": [
        {
          "indexed": true,
          "internalType": "uint256",
          "name": "proposalId",
          "type": "uint256"
        },
        {
          "indexed": true,
          "internalType": "uint256",
          "name": "nullifier",
          "type": "uint256"
        },
        {
          "indexed": false,
          "internalType": "uint256",
          "name": "choice",
          "type": "uint256"
        },
        {
          "indexed": false,
          "internalType": "uint256",
          "name": "numVotes",
          "type": "uint256"
        },
        {
          "indexed": false,
          "internalType": "uint256",
          "name": "creditsSpent",
          "type": "uint256"
        }
      ],
      "name": "VoteRevealed",
      "type": "event"
    },
    {
      "inputs": [],
      "name": "CHOICE_ABSTAIN",
      "outputs": [
        {
          "internalType": "uint256",
          "name": "",
          "type": "uint256"
        }
      ],
      "stateMutability": "view",
      "type": "function"
    },
    {
      "inputs": [],
      "name": "CHOICE_AGAINST",
      "outputs": [
        {
          "internalType": "uint256",
          "name": "",
          "type": "uint256"
        }
      ],
      "stateMutability": "view",
      "type": "function"
    },
    {
      "inputs": [],
      "name": "CHOICE_FOR",
      "outputs": [
        {
          "internalType": "uint256",
          "name": "",
          "type": "uint256"
        }
      ],
      "stateMutability": "view",
      "type": "function"
    },
    {
      "inputs": [],
      "name": "INITIAL_CREDITS",
      "outputs": [
        {
          "internalType": "uint256",
          "name": "",
          "type": "uint256"
        }
      ],
      "stateMutability": "view",
      "type": "function"
    },
    {
      "inputs": [
        {
          "internalType": "uint256",
          "name": "availableCredits",
          "type": "uint256"
        }
      ],
      "name": "calculateMaxVotes",
      "outputs": [
        {
          "internalType": "uint256",
          "name": "",
          "type": "uint256"
        }
      ],
      "stateMutability": "pure",
      "type": "function"
    },
    {
      "inputs": [
        {
          "internalType": "uint256",
          "name": "numVotes",
          "type": "uint256"
        }
      ],
      "name": "calculateQuadraticCost",
      "outputs": [
        {
          "internalType": "uint256",
          "name": "",
          "type": "uint256"
        }
      ],
      "stateMutability": "pure",
      "type": "function"
    },
    {
      "inputs": [
        {
          "internalType": "uint256",
          "name": "_proposalId",
          "type": "uint256"
        },
        {
          "internalType": "uint256",
          "name": "_commitment",
          "type": "uint256"
        },
        {
          "internalType": "uint256",
          "name": "_numVotes",
          "type": "uint256"
        },
        {
          "internalType": "uint256",
          "name": "_creditsSpent",
          "type": "uint256"
        },
        {
          "internalType": "uint256",
          "name": "_nullifier",
          "type": "uint256"
        },
        {
          "internalType": "uint256[2]",
          "name": "_pA",
          "type": "uint256[2]"
        },
        {
          "internalType": "uint256[2][2]",
          "name": "_pB",
          "type": "uint256[2][2]"
        },
        {
          "internalType": "uint256[2]",
          "name": "_pC",
          "type": "uint256[2]"
        }
      ],
      "name": "commitVoteQuadratic",
      "outputs": [],
      "stateMutability": "nonpayable",
      "type": "function"
    },
    {
      "inputs": [
        {
          "internalType": "uint256",
          "name": "",
          "type": "uint256"
        },
        {
          "internalType": "uint256",
          "name": "",
          "type": "uint256"
        }
      ],
      "name": "commitments",
      "outputs": [
        {
          "internalType": "uint256",
          "name": "commitment",
          "type": "uint256"
        },
        {
          "internalType": "uint256",
          "name": "creditsSpent",
          "type": "uint256"
        },
        {
          "internalType": "uint256",
          "name": "numVotes",
          "type": "uint256"
        },
        {
          "internalType": "uint256",
          "name": "nullifier",
          "type": "uint256"
        },
        {
          "internalType": "uint256",
          "name": "timestamp",
          "type": "uint256"
        },
        {
          "internalType": "bool",
          "name": "revealed",
          "type": "bool"
        },
        {
          "internalType": "uint256",
          "name": "revealedChoice",
          "type": "uint256"
        },
        {
          "internalType": "bool",
          "name": "exists",
          "type": "bool"
        }
      ],
      "stateMutability": "view",
      "type": "function"
    },
    {
      "inputs": [
        {
          "internalType": "string",
          "name": "_title",
          "type": "string"
        },
        {
          "internalType": "string",
          "name": "_description",
          "type": "string"
        },
        {
          "internalType": "uint256",
          "name": "_creditRoot",
          "type": "uint256"
        },
        {
          "internalType": "uint256",
          "name": "_votingDuration",
          "type": "uint256"
        },
        {
          "internalType": "uint256",
          "name": "_revealDuration",
          "type": "uint256"
        }
      ],
      "name": "createProposal",
      "outputs": [
        {
          "internalType": "uint256",
          "name": "",
          "type": "uint256"
        }
      ],
      "stateMutability": "nonpayable",
      "type": "function"
    },
    {
      "inputs": [
        {
          "internalType": "uint256",
          "name": "",
          "type": "uint256"
        }
      ],
      "name": "creditRootHistory",
      "outputs": [
        {
          "internalType": "uint256",
          "name": "",
          "type": "uint256"
        }
      ],
      "stateMutability": "view",
      "type": "function"
    },
    {
      "inputs": [
        {
          "internalType": "address",
          "name": "user",
          "type": "address"
        }
      ],
      "name": "getAvailableCredits",
      "outputs": [
        {
          "internalType": "uint256",
          "name": "",
          "type": "uint256"
        }
      ],
      "stateMutability": "view",
      "type": "function"
    },
    {
      "inputs": [
        {
          "internalType": "uint256",
          "name": "_proposalId",
          "type": "uint256"
        },
        {
          "internalType": "uint256",
          "name": "_nullifier",
          "type": "uint256"
        }
      ],
      "name": "getCommitment",
      "outputs": [
        {
          "internalType": "uint256",
          "name": "commitment",
          "type": "uint256"
        },
        {
          "internalType": "uint256",
          "name": "creditsSpent",
          "type": "uint256"
        },
        {
          "internalType": "uint256",
          "name": "numVotes",
          "type": "uint256"
        },
        {
          "internalType": "bool",
          "name": "revealed",
          "type": "bool"
        },
        {
          "internalType": "uint256",
          "name": "revealedChoice",
          "type": "uint256"
        }
      ],
      "stateMutability": "view",
      "type": "function"
    },
    {
      "inputs": [
        {
          "internalType": "uint256",
          "name": "_proposalId",
          "type": "uint256"
        }
      ],
      "name": "getPhase",
      "outputs": [
        {
          "internalType": "uint8",
          "name": "",
          "type": "uint8"
        }
      ],
      "stateMutability": "view",
      "type": "function"
    },
    {
      "inputs": [
        {
          "internalType": "uint256",
          "name": "_proposalId",
          "type": "uint256"
        }
      ],
      "name": "getProposal",
      "outputs": [
        {
          "internalType": "uint256",
          "name": "id",
          "type": "uint256"
        },
        {
          "internalType": "string",
          "name": "title",
          "type": "string"
        },
        {
          "internalType": "string",
          "name": "description",
          "type": "string"
        },
        {
          "internalType": "address",
          "name": "proposer",
          "type": "address"
        },
        {
          "internalType": "uint256",
          "name": "creditRoot",
          "type": "uint256"
        },
        {
          "internalType": "uint256",
          "name": "endTime",
          "type": "uint256"
        },
        {
          "internalType": "uint256",
          "name": "revealEndTime",
          "type": "uint256"
        },
        {
          "internalType": "uint256",
          "name": "forVotes",
          "type": "uint256"
        },
        {
          "internalType": "uint256",
          "name": "againstVotes",
          "type": "uint256"
        },
        {
          "internalType": "uint256",
          "name": "abstainVotes",
          "type": "uint256"
        },
        {
          "internalType": "uint256",
          "name": "totalCreditsSpent",
          "type": "uint256"
        },
        {
          "internalType": "uint256",
          "name": "totalCommitments",
          "type": "uint256"
        },
        {
          "internalType": "uint256",
          "name": "revealedVotes",
          "type": "uint256"
        },
        {
          "internalType": "uint8",
          "name": "phase",
          "type": "uint8"
        }
      ],
      "stateMutability": "view",
      "type": "function"
    },
    {
      "inputs": [],
      "name": "getRegisteredCreditNotes",
      "outputs": [
        {
          "internalType": "uint256[]",
          "name": "",
          "type": "uint256[]"
        }
      ],
      "stateMutability": "view",
      "type": "function"
    },
    {
      "inputs": [],
      "name": "initializeCredits",
      "outputs": [],
      "stateMutability": "nonpayable",
      "type": "function"
    },
    {
      "inputs": [
        {
          "internalType": "uint256",
          "name": "",
          "type": "uint256"
        }
      ],
      "name": "isCreditNoteRegistered",
      "outputs": [
        {
          "internalType": "bool",
          "name": "",
          "type": "bool"
        }
      ],
      "stateMutability": "view",
      "type": "function"
    },
    {
      "inputs": [
        {
          "internalType": "uint256",
          "name": "_creditRoot",
          "type": "uint256"
        }
      ],
      "name": "isCreditRootValid",
      "outputs": [
        {
          "internalType": "bool",
          "name": "",
          "type": "bool"
        }
      ],
      "stateMutability": "view",
      "type": "function"
    },
    {
      "inputs": [
        {
          "internalType": "uint256",
          "name": "",
          "type": "uint256"
        },
        {
          "internalType": "uint256",
          "name": "",
          "type": "uint256"
        }
      ],
      "name": "nullifierUsed",
      "outputs": [
        {
          "internalType": "bool",
          "name": "",
          "type": "bool"
        }
      ],
      "stateMutability": "view",
      "type": "function"
    },
    {
      "inputs": [],
      "name": "proposalCount",
      "outputs": [
        {
          "internalType": "uint256",
          "name": "",
          "type": "uint256"
        }
      ],
      "stateMutability": "view",
      "type": "function"
    },
    {
      "inputs": [
        {
          "internalType": "uint256",
          "name": "",
          "type": "uint256"
        }
      ],
      "name": "proposals",
      "outputs": [
        {
          "internalType": "uint256",
          "name": "id",
          "type": "uint256"
        },
        {
          "internalType": "string",
          "name": "title",
          "type": "string"
        },
        {
          "internalType": "string",
          "name": "description",
          "type": "string"
        },
        {
          "internalType": "address",
          "name": "proposer",
          "type": "address"
        },
        {
          "internalType": "uint256",
          "name": "startTime",
          "type": "uint256"
        },
        {
          "internalType": "uint256",
          "name": "endTime",
          "type": "uint256"
        },
        {
          "internalType": "uint256",
          "name": "revealEndTime",
          "type": "uint256"
        },
        {
          "internalType": "uint256",
          "name": "creditRoot",
          "type": "uint256"
        },
        {
          "internalType": "uint256",
          "name": "forVotes",
          "type": "uint256"
        },
        {
          "internalType": "uint256",
          "name": "againstVotes",
          "type": "uint256"
        },
        {
          "internalType": "uint256",
          "name": "abstainVotes",
          "type": "uint256"
        },
        {
          "internalType": "uint256",
          "name": "totalCreditsSpent",
          "type": "uint256"
        },
        {
          "internalType": "uint256",
          "name": "totalCommitments",
          "type": "uint256"
        },
        {
          "internalType": "uint256",
          "name": "revealedVotes",
          "type": "uint256"
        },
        {
          "internalType": "bool",
          "name": "exists",
          "type": "bool"
        }
      ],
      "stateMutability": "view",
      "type": "function"
    },
    {
      "inputs": [
        {
          "internalType": "uint256",
          "name": "_creditNoteHash",
          "type": "uint256"
        }
      ],
      "name": "registerCreditNote",
      "outputs": [],
      "stateMutability": "nonpayable",
      "type": "function"
    },
    {
      "inputs": [
        {
          "internalType": "uint256",
          "name": "_creditRoot",
          "type": "uint256"
        }
      ],
      "name": "registerCreditRoot",
      "outputs": [],
      "stateMutability": "nonpayable",
      "type": "function"
    },
    {
      "inputs": [
        {
          "internalType": "uint256",
          "name": "",
          "type": "uint256"
        }
      ],
      "name": "registeredCreditNotes",
      "outputs": [
        {
          "internalType": "uint256",
          "name": "",
          "type": "uint256"
        }
      ],
      "stateMutability": "view",
      "type": "function"
    },
    {
      "inputs": [
        {
          "internalType": "uint256",
          "name": "_proposalId",
          "type": "uint256"
        },
        {
          "internalType": "uint256",
          "name": "_nullifier",
          "type": "uint256"
        },
        {
          "internalType": "uint256",
          "name": "_choice",
          "type": "uint256"
        },
        {
          "internalType": "uint256",
          "name": "_numVotes",
          "type": "uint256"
        },
        {
          "internalType": "uint256",
          "name": "_voteSalt",
          "type": "uint256"
        }
      ],
      "name": "revealVote",
      "outputs": [],
      "stateMutability": "nonpayable",
      "type": "function"
    },
    {
      "inputs": [
        {
          "internalType": "uint256",
          "name": "_proposalId",
          "type": "uint256"
        },
        {
          "internalType": "uint256",
          "name": "_newCreditRoot",
          "type": "uint256"
        }
      ],
      "name": "updateProposalCredits",
      "outputs": [],
      "stateMutability": "nonpayable",
      "type": "function"
    },
    {
      "inputs": [
        {
          "internalType": "address",
          "name": "",
          "type": "address"
        }
      ],
      "name": "userCredits",
      "outputs": [
        {
          "internalType": "uint256",
          "name": "totalCredits",
          "type": "uint256"
        },
        {
          "internalType": "uint256",
          "name": "usedCredits",
          "type": "uint256"
        },
        {
          "internalType": "bool",
          "name": "initialized",
          "type": "bool"
        }
      ],
      "stateMutability": "view",
      "type": "function"
    },
    {
      "inputs": [
        {
          "internalType": "uint256",
          "name": "",
          "type": "uint256"
        }
      ],
      "name": "validCreditRoots",
      "outputs": [
        {
          "internalType": "bool",
          "name": "",
          "type": "bool"
        }
      ],
      "stateMutability": "view",
      "type": "function"
    },
    {
      "inputs": [],
      "name": "verifier",
      "outputs": [
        {
          "internalType": "contract IVerifierD2",
          "name": "",
          "type": "address"
        }
      ],
      "stateMutability": "view",
      "type": "function"
    }
  ],
  "bytecode": "0x60a03461007357601f611bae38819003918201601f19168301916001600160401b038311848410176100785780849260209460405283398101031261007357516001600160a01b0381169081900361007357608052604051611b1f908161008f82396080518181816107af015261141d0152f35b600080fd5b634e487b7160e01b600052604160045260246000fdfe6080604052600436101561001257600080fd5b60003560e01c8063013cf08b1461155e578063094243cb146115005780630d70ece8146114cf57806316ef376b146114a657806320babb921461144c5780632b7ac3f3146114075780632bbe44fd146113e95780632c3556d6146113cb57806333423c0614610ea2578063417e70c81461021257806351c38f4014610be7578063697aa8e814610bca5780637164f0d614610b6657806374dd0fea14610b475780638ea7a27414610b2b5780638eb609e614610684578063974f7aa314610633578063a1c7574a1461057d578063a329b3131461052c578063b065a8e5146104f5578063b5770c33146104d9578063c7f758a8146103a1578063d13e2e6014610317578063d5444336146102b5578063d90292a314610299578063da35c6641461027b578063e78ffc9614610243578063ef3a2b39146102125763fb9607d31461015b57600080fd5b3461020d57600036600319011261020d5733600052600660205260ff600260406000200154161561018857005b604051610194816116bc565b6101df612710918281526002602082016000815260408301906001825233600052600660205260406000209351845551600184015551151591019060ff801983541691151516179055565b6040519081527f840108f8f5f45d25a166719fa7440c37016845a955726b639e64fb325f73100760203392a2005b600080fd5b3461020d57602036600319011261020d576004356000526004602052602060ff604060002054166040519015158152f35b3461020d57610251366117df565b906000526003602052604060002090600052602052602060ff604060002054166040519015158152f35b3461020d57600036600319011261020d576020600054604051908152f35b3461020d57600036600319011261020d57602060405160028152f35b3461020d57602036600319011261020d576004358060005260046020526040600020600160ff198254161790556102eb81611823565b7fc437041eca78e842ff32dc1036255a23da98c52b2f3bd3a875923aadb0276b3d6020604051428152a2005b3461020d57610325366117df565b90600052600260205260406000209060005260205261010060406000208054906001810154906002810154600382015460048301549060ff6005850154169260ff6007600687015496015416956040519788526020880152604087015260608601526080850152151560a084015260c0830152151560e0820152f35b3461020d57602036600319011261020d576004356000526001602052604060002060ff600e82015416156104c75760058101544281106104ac576000905b825491600160a01b6001900360038501541691600785015490600686015460088701546009880154600a89015491600b8a015493600c8b015495600d8c01549760018d0161042c906116fa565b9c600201610439906116fa565b6040519d8e9d8e6101c0918152816020820152016104569161179f565b8d810360408f01526104679161179f565b9a60608d015260808c015260a08b015260c08a015260e089015261010088015261012087015261014086015261016085015261018084015260ff166101a08301520390f35b600682015442116104bf576001906103df565b6002906103df565b60405163635e873760e01b8152600490fd5b3461020d57600036600319011261020d57602060405160008152f35b3461020d57602036600319011261020d576004356001600160a01b038116810361020d57610524602091611aaa565b604051908152f35b3461020d57602036600319011261020d5760043560055481101561020d5760209060056000527f036b6384b5eca791c62761152d0c79bb0604c104a5fb6f4eb0703f3154bb3db00154604051908152f35b3461020d57600036600319011261020d57604051806007548083526020809301809160076000527fa66cc928b5edb82af9bd49922954155ab7b0942694bea4ce44661d9a8736c6889060005b8682821061061f5786866105df828803836116d8565b604051928392818401908285525180915260408401929160005b82811061060857505050500390f35b8351855286955093810193928101926001016105f9565b8354855290930192600192830192016105c9565b3461020d57602036600319011261020d5760043560075481101561020d5760209060076000527fa66cc928b5edb82af9bd49922954155ab7b0942694bea4ce44661d9a8736c6880154604051908152f35b3461020d576101a036600319011261020d573660e41161020d57366101641161020d57366101a41161020d576004356000526001602052604060002060ff600e82015416156104c75760058101544211610b19576004356000526003602052604060002060843560005260205260ff60406000205416610b075761070a60443580611a8a565b60643503610af5576040518060a081011067ffffffffffffffff60a0830111176109ee5760a08101604052608435815260243560208201526004356040820152606435606082015260078201546080820152604051906334baeab960e01b8252604060a4600484013760e46000604484015b60028210610adf57505050604061016460c4840137600061010483015b60058210610ac95750602091508290506101a4817f00000000000000000000000000000000000000000000000000000000000000006001600160a01b03165afa908115610abd57600091610a82575b5015610a705733600052600660205260ff6002604060002001541615610a16575b60406000206001815491018054916108218382611a9d565b60643511610a04576108396108419360643590611987565b809255611a9d565b60405190606435825260208201527f380f4b80ac5d183ff04f143a097611558815196006b7297cae774c0b5680a5ee60403392a2600435600052600360205260406000206084356000526020526040600020600160ff1982541617905560405190610100820182811067ffffffffffffffff8211176109ee57600b92610979916040526024358152600760208201606435815260408301604435815261095d6060850160843581526080860142815260a08701916000835260c08801946000865260e08901966001885260043560005260026020526040600020608435600052602052604060002099518a555160018a0155516002890155516003880155516004870155511515600586019060ff801983541691151516179055565b51600684015551151591019060ff801983541691151516179055565b600c81016109878154611a06565b9055016109976064358254611987565b9055604051608435907f9b4d459382e25852cbc474f9f0a4f5bcf6a390587a897b91a8620533941685a560043591806109e9606435604435602435846040919493926060820195825260208201520152565b0390a3005b634e487b7160e01b600052604160045260246000fd5b6040516343fb945360e01b8152600490fd5b610a6b604051610a25816116bc565b61271081526002602082016000815260408301906001825233600052600660205260406000209351845551600184015551151591019060ff801983541691151516179055565b610809565b6040516309bde33960e01b8152600490fd5b90506020813d602011610ab5575b81610a9d602093836116d8565b8101031261020d5751801515810361020d57826107e8565b3d9150610a90565b6040513d6000823e3d90fd5b6020806001928551815201930191019091610799565b604080828186600195370193019101909161077c565b6040516315252a2960e21b8152600490fd5b604051636569570160e11b8152600490fd5b60405163abfb7dc360e01b8152600490fd5b3461020d57600036600319011261020d57602060405160018152f35b3461020d57602036600319011261020d57602061052460043580611a8a565b3461020d57610b74366117df565b90600052600260205260406000209060005260205260a060406000208054906001810154906002810154600660ff6005840154169201549260405194855260208501526040840152151560608301526080820152f35b3461020d57600036600319011261020d5760206040516127108152f35b3461020d5760a036600319011261020d5760043560243590604435606435826000526020916001835260406000209260028152604060002086600052815260406000209060ff600e86015416156104c7576005850154421115610e905760068501544211610e905760ff60078301541615610e7e576005820160ff815416610e6c5760028411610e5a576040519173__$0daf1669a85ce10529e05b8a030b9567e1$__610c93846116a0565b858452868285015260018501938454604082015289606082015260405190838280610ccc6321c2736360e21b9485835260048301611a5c565b0381865af4908115610abd578492600092610e27575b5092610d209360405192610cf5846116a0565b8352608435848401526000604084015260006060840152604051809581948293835260048301611a5c565b03915af4918215610abd57600092610df9575b5050835403610de7577f30a79e72693ce3de4f5d96c7167c1cf349d2520bd766c2cfc8b684ec71ab1802958460066109e995600d94600160ff19825416179055015560018514600014610dbd5760088101610d8f878254611987565b90555b01610d9d8154611a06565b905554604051938493846040919493926060820195825260208201520152565b84610dd85760098101610dd1878254611987565b9055610d92565b600a8101610dd1878254611987565b604051639ea6d12760e01b8152600490fd5b90809250813d8311610e20575b610e1081836116d8565b8101031261020d57518980610d33565b503d610e06565b8381949293503d8311610e53575b610e3f81836116d8565b8101031261020d5790518391610d20610ce2565b503d610e35565b604051639c45400160e01b8152600490fd5b60405163a89ac15160e01b8152600490fd5b604051635b34156960e11b8152600490fd5b6040516374683d7160e01b8152600490fd5b3461020d5760a036600319011261020d5760043567ffffffffffffffff811161020d57610ed39036906004016117f5565b60243567ffffffffffffffff811161020d57610ef39036906004016117f5565b9190604435600052600460205260ff60406000205416156113b957610f19600054611a06565b9283600055610f2a60643542611987565b610f41608435610f3c60643542611987565b611987565b9160405193846101e081011067ffffffffffffffff6101e0870111176109ee57610f87916101e08601604052878652610f7b36888b611a15565b60208701523691611a15565b604084015233606084015242608084015260a083015260c082015260443560e08201526000610100820152600061012082015260006101408201526000610160820152600061018082015260006101a082015260016101c082015282600052600160205260406000209080518255602081015180519067ffffffffffffffff82116109ee57819061101b6001860154611666565b601f8111611366575b50602090601f83116001146112f4576000926112e9575b50508160011b916000199060031b1c19161760018301555b604081015180519067ffffffffffffffff82116109ee576110776002850154611666565b601f81116112a2575b5091859391602097938890601f83116001146112005761118e93837f28528fa183090d38f4c35574bb13fb455a547bda31d9bc9520957c9558f52f8e979694600e946101c0946000926111f5575b50508160011b916000199060031b1c19161760028501555b6003840160018060a01b036060830151166bffffffffffffffffffffffff60a01b8254161790556080810151600485015560a0810151600585015560c0810151600685015560e0810151600785015561010081015160088501556101208101516009850155610140810151600a850155610160810151600b850155610180810151600c8501556101a0810151600d8501550151151591019060ff801983541691151516179055565b61119a60643542611987565b6111ac608435610f3c60643542611987565b9085604051936080855281608086015260a0850137600060a08785010152604435888401526040830152606082015260a0813395601f80199101168101030190a3604051908152f35b015190508d806110ce565b95949392919060028401600052896000209660005b601f19841681106112885750926001837f28528fa183090d38f4c35574bb13fb455a547bda31d9bc9520957c9558f52f8e98996101c09461118e9897600e97601f1981161061126f575b505050811b0160028501556110e6565b015160001960f88460031b161c191690558d808061125f565b8282015189556001909801978a9750918b01918b01611215565b600285016000526020600020601f840160051c8101602085106112e2575b601f830160051c820181106112d6575050611080565b600081556001016112c0565b50806112c0565b01519050878061103b565b9250600185016000526020600020906000935b601f198416851061134b576001945083601f19811610611332575b505050811b016001830155611053565b015160001960f88460031b161c19169055878080611322565b81810151835560209485019460019093019290910190611307565b909150600185016000526020600020601f840160051c8101602085106113b2575b90849392915b601f830160051c820181106113a3575050611024565b6000815585945060010161138d565b5080611387565b604051633398105560e01b8152600490fd5b3461020d57602036600319011261020d5760206105246004356119aa565b3461020d57602036600319011261020d576114056004356118c2565b005b3461020d57600036600319011261020d576040517f00000000000000000000000000000000000000000000000000000000000000006001600160a01b03168152602090f35b3461020d57602036600319011261020d576004356001600160a01b0381169081900361020d5760005260066020526060604060002080549060ff600260018301549201541690604051928352602083015215156040820152f35b3461020d57602036600319011261020d5760206114c4600435611881565b60ff60405191168152f35b3461020d57602036600319011261020d576004356000526008602052602060ff604060002054166040519015158152f35b3461020d5761150e366117df565b906000526001602052604060002060ff600e82015416156104c75760078291015580600052600460205260406000209081549160ff83161561154c57005b60016114059360ff1916179055611823565b3461020d57602036600319011261020d576004356000526001602052604060002080546001820161158e906116fa565b61159a600284016116fa565b92600160a01b600190036003820154169060048101546005820154600683015460078401546008850154600986015491600a87015493600b88015495600c89015497600d8a015499600e015460ff169a6040519e8f9e8f9e8f916101e0908352806020840152820161160b9161179f565b90808203906040015261161d9161179f565b9c6060015260808d015260a08c015260c08b015260e08a01526101008901526101208801526101408701526101608601526101808501526101a084015215156101c08301520390f35b90600182811c92168015611696575b602083101461168057565b634e487b7160e01b600052602260045260246000fd5b91607f1691611675565b6080810190811067ffffffffffffffff8211176109ee57604052565b6060810190811067ffffffffffffffff8211176109ee57604052565b90601f8019910116810190811067ffffffffffffffff8211176109ee57604052565b9060405191826000825461170d81611666565b9081845260209460019160018116908160001461177d575060011461173e575b50505061173c925003836116d8565b565b600090815285812095935091905b81831061176557505061173c935082010138808061172d565b8554888401850152948501948794509183019161174c565b9250505061173c94925060ff191682840152151560051b82010138808061172d565b919082519283825260005b8481106117cb575050826000602080949584010152601f8019910116010190565b6020818301810151848301820152016117aa565b604090600319011261020d576004359060243590565b9181601f8401121561020d5782359167ffffffffffffffff831161020d576020838186019501011161020d57565b600554600160401b8110156109ee57600181018060055581101561186b5760056000527f036b6384b5eca791c62761152d0c79bb0604c104a5fb6f4eb0703f3154bb3db00155565b634e487b7160e01b600052603260045260246000fd5b6000526001602052604060002060ff600e82015416156104c75760058101544211156118bc57600601544211156118b757600290565b600190565b50600090565b90600091808352600860205260408320805460ff81166119805760ff19166001179055600754600160401b81101561196c576001810180600755811015611958576007829394527fa66cc928b5edb82af9bd49922954155ab7b0942694bea4ce44661d9a8736c68801557f1926a241ba9d59467ac0063e2cb861452b93ab650fff5378a82e86befecc27ab6020604051428152a2565b634e487b7160e01b84526032600452602484fd5b634e487b7160e01b84526041600452602484fd5b5050509050565b9190820180921161199457565b634e487b7160e01b600052601160045260246000fd5b80156118bc576001818181018082116119945760011c91905b8383106119d05750505090565b919250908280156119f157806119e891830490611987565b821c91906119c3565b60246000634e487b7160e01b81526012600452fd5b60001981146119945760010190565b92919267ffffffffffffffff82116109ee5760405191611a3f601f8201601f1916602001846116d8565b82948184528183011161020d578281602093846000960137010152565b6080810192916000915b60048310611a7357505050565b600190825181526020809101920192019190611a66565b8181029291811591840414171561199457565b9190820391821161199457565b6001600160a01b03166000908152600660205260409020600281015460ff1615611ae257806001611adf925491015490611a9d565b90565b506127109056fea2646970667358221220cfa3899fe8472c6e59a8ad69a44d577ba5ae30b4e2a863383c648182323c315b64736f6c63430008180033",
  "linkReferences": {
    "contracts/PoseidonT5.sol": {
      "PoseidonT5": [
        {
          "length": 20,
          "start": 3334
        }
      ]
    }
  },
  "deployedLinkReferences": {
    "contracts/PoseidonT5.sol": {
      "PoseidonT5": [
        {
          "length": 20,
          "start": 3191
        }
      ]
    }
  }
}