{"abi":[{"type":"constructor","inputs":[{"name":"_verifierD1","type":"address","internalType":"address"},{"name":"_verifierD2","type":"address","internalType":"address"},{"name":"_tonToken","type":"address","internalType":"address"},{"name":"_treasury","type":"address","internalType":"address"}],"stateMutability":"nonpayable"},{"type":"function","name":"CHOICE_ABSTAIN","inputs":[],"outputs":[{"name":"","type":"uint256","internalType":"uint256"}],"stateMutability":"view"},{"type":"function","name":"CHOICE_AGAINST","inputs":[],"outputs":[{"name":"","type":"uint256","internalType":"uint256"}],"stateMutability":"view"},{"type":"function","name":"CHOICE_FOR","inputs":[],"outputs":[{"name":"","type":"uint256","internalType":"uint256"}],"stateMutability":"view"},{"type":"function","name":"INITIAL_CREDITS","inputs":[],"outputs":[{"name":"","type":"uint256","internalType":"uint256"}],"stateMutability":"view"},{"type":"function","name":"calculateQuadraticCost","inputs":[{"name":"numVotes","type":"uint256","internalType":"uint256"}],"outputs":[{"name":"","type":"uint256","internalType":"uint256"}],"stateMutability":"pure"},{"type":"function","name":"castVoteD1","inputs":[{"name":"_proposalId","type":"uint256","internalType":"uint256"},{"name":"_commitment","type":"uint256","internalType":"uint256"},{"name":"_votingPower","type":"uint256","internalType":"uint256"},{"name":"_nullifier","type":"uint256","internalType":"uint256"},{"name":"_pA","type":"uint256[2]","internalType":"uint256[2]"},{"name":"_pB","type":"uint256[2][2]","internalType":"uint256[2][2]"},{"name":"_pC","type":"uint256[2]","internalType":"uint256[2]"}],"outputs":[],"stateMutability":"nonpayable"},{"type":"function","name":"castVoteD2","inputs":[{"name":"_proposalId","type":"uint256","internalType":"uint256"},{"name":"_commitment","type":"uint256","internalType":"uint256"},{"name":"_numVotes","type":"uint256","internalType":"uint256"},{"name":"_creditsSpent","type":"uint256","internalType":"uint256"},{"name":"_nullifier","type":"uint256","internalType":"uint256"},{"name":"_pA","type":"uint256[2]","internalType":"uint256[2]"},{"name":"_pB","type":"uint256[2][2]","internalType":"uint256[2][2]"},{"name":"_pC","type":"uint256[2]","internalType":"uint256[2]"}],"outputs":[],"stateMutability":"nonpayable"},{"type":"function","name":"commitmentsD1","inputs":[{"name":"","type":"uint256","internalType":"uint256"},{"name":"","type":"uint256","internalType":"uint256"}],"outputs":[{"name":"commitment","type":"uint256","internalType":"uint256"},{"name":"votingPower","type":"uint256","internalType":"uint256"},{"name":"nullifier","type":"uint256","internalType":"uint256"},{"name":"timestamp","type":"uint256","internalType":"uint256"},{"name":"revealed","type":"bool","internalType":"bool"},{"name":"revealedChoice","type":"uint256","internalType":"uint256"},{"name":"exists","type":"bool","internalType":"bool"}],"stateMutability":"view"},{"type":"function","name":"commitmentsD2","inputs":[{"name":"","type":"uint256","internalType":"uint256"},{"name":"","type":"uint256","internalType":"uint256"}],"outputs":[{"name":"commitment","type":"uint256","internalType":"uint256"},{"name":"creditsSpent","type":"uint256","internalType":"uint256"},{"name":"numVotes","type":"uint256","internalType":"uint256"},{"name":"nullifier","type":"uint256","internalType":"uint256"},{"name":"timestamp","type":"uint256","internalType":"uint256"},{"name":"revealed","type":"bool","internalType":"bool"},{"name":"revealedChoice","type":"uint256","internalType":"uint256"},{"name":"exists","type":"bool","internalType":"bool"}],"stateMutability":"view"},{"type":"function","name":"createProposalD1","inputs":[{"name":"_title","type":"string","internalType":"string"},{"name":"_description","type":"string","internalType":"string"},{"name":"_merkleRoot","type":"uint256","internalType":"uint256"},{"name":"_votingDuration","type":"uint256","internalType":"uint256"},{"name":"_revealDuration","type":"uint256","internalType":"uint256"}],"outputs":[{"name":"","type":"uint256","internalType":"uint256"}],"stateMutability":"nonpayable"},{"type":"function","name":"createProposalD2","inputs":[{"name":"_title","type":"string","internalType":"string"},{"name":"_description","type":"string","internalType":"string"},{"name":"_creditRoot","type":"uint256","internalType":"uint256"},{"name":"_votingDuration","type":"uint256","internalType":"uint256"},{"name":"_revealDuration","type":"uint256","internalType":"uint256"}],"outputs":[{"name":"","type":"uint256","internalType":"uint256"}],"stateMutability":"nonpayable"},{"type":"function","name":"creditRootHistory","inputs":[{"name":"","type":"uint256","internalType":"uint256"}],"outputs":[{"name":"","type":"uint256","internalType":"uint256"}],"stateMutability":"view"},{"type":"function","name":"getAvailableCredits","inputs":[{"name":"user","type":"address","internalType":"address"}],"outputs":[{"name":"","type":"uint256","internalType":"uint256"}],"stateMutability":"view"},{"type":"function","name":"getPhaseD2","inputs":[{"name":"_proposalId","type":"uint256","internalType":"uint256"}],"outputs":[{"name":"","type":"uint8","internalType":"uint8"}],"stateMutability":"view"},{"type":"function","name":"getProposalD1","inputs":[{"name":"_proposalId","type":"uint256","internalType":"uint256"}],"outputs":[{"name":"id","type":"uint256","internalType":"uint256"},{"name":"title","type":"string","internalType":"string"},{"name":"description","type":"string","internalType":"string"},{"name":"proposer","type":"address","internalType":"address"},{"name":"merkleRoot","type":"uint256","internalType":"uint256"},{"name":"endTime","type":"uint256","internalType":"uint256"},{"name":"revealEndTime","type":"uint256","internalType":"uint256"},{"name":"forVotes","type":"uint256","internalType":"uint256"},{"name":"againstVotes","type":"uint256","internalType":"uint256"},{"name":"abstainVotes","type":"uint256","internalType":"uint256"},{"name":"totalCommitments","type":"uint256","internalType":"uint256"},{"name":"revealedVotes","type":"uint256","internalType":"uint256"},{"name":"phase","type":"uint8","internalType":"uint8"}],"stateMutability":"view"},{"type":"function","name":"getProposalD2","inputs":[{"name":"_proposalId","type":"uint256","internalType":"uint256"}],"outputs":[{"name":"id","type":"uint256","internalType":"uint256"},{"name":"title","type":"string","internalType":"string"},{"name":"description","type":"string","internalType":"string"},{"name":"proposer","type":"address","internalType":"address"},{"name":"creditRoot","type":"uint256","internalType":"uint256"},{"name":"endTime","type":"uint256","internalType":"uint256"},{"name":"revealEndTime","type":"uint256","internalType":"uint256"},{"name":"forVotes","type":"uint256","internalType":"uint256"},{"name":"againstVotes","type":"uint256","internalType":"uint256"},{"name":"abstainVotes","type":"uint256","internalType":"uint256"},{"name":"totalCreditsSpent","type":"uint256","internalType":"uint256"},{"name":"totalCommitments","type":"uint256","internalType":"uint256"},{"name":"revealedVotes","type":"uint256","internalType":"uint256"},{"name":"phase","type":"uint8","internalType":"uint8"}],"stateMutability":"view"},{"type":"function","name":"getRegisteredCreditNotes","inputs":[],"outputs":[{"name":"","type":"uint256[]","internalType":"uint256[]"}],"stateMutability":"view"},{"type":"function","name":"getRegisteredVoters","inputs":[],"outputs":[{"name":"","type":"uint256[]","internalType":"uint256[]"}],"stateMutability":"view"},{"type":"function","name":"getVoterCount","inputs":[],"outputs":[{"name":"","type":"uint256","internalType":"uint256"}],"stateMutability":"view"},{"type":"function","name":"initializeCredits","inputs":[],"outputs":[],"stateMutability":"nonpayable"},{"type":"function","name":"isCreditNoteRegistered","inputs":[{"name":"","type":"uint256","internalType":"uint256"}],"outputs":[{"name":"","type":"bool","internalType":"bool"}],"stateMutability":"view"},{"type":"function","name":"isCreditRootValid","inputs":[{"name":"_creditRoot","type":"uint256","internalType":"uint256"}],"outputs":[{"name":"","type":"bool","internalType":"bool"}],"stateMutability":"view"},{"type":"function","name":"isMerkleRootValid","inputs":[{"name":"_merkleRoot","type":"uint256","internalType":"uint256"}],"outputs":[{"name":"","type":"bool","internalType":"bool"}],"stateMutability":"view"},{"type":"function","name":"isVoterRegistered","inputs":[{"name":"","type":"uint256","internalType":"uint256"}],"outputs":[{"name":"","type":"bool","internalType":"bool"}],"stateMutability":"view"},{"type":"function","name":"merkleRootHistory","inputs":[{"name":"","type":"uint256","internalType":"uint256"}],"outputs":[{"name":"","type":"uint256","internalType":"uint256"}],"stateMutability":"view"},{"type":"function","name":"mintTestTokens","inputs":[{"name":"amount","type":"uint256","internalType":"uint256"}],"outputs":[],"stateMutability":"nonpayable"},{"type":"function","name":"nullifierUsedD1","inputs":[{"name":"","type":"uint256","internalType":"uint256"},{"name":"","type":"uint256","internalType":"uint256"}],"outputs":[{"name":"","type":"bool","internalType":"bool"}],"stateMutability":"view"},{"type":"function","name":"nullifierUsedD2","inputs":[{"name":"","type":"uint256","internalType":"uint256"},{"name":"","type":"uint256","internalType":"uint256"}],"outputs":[{"name":"","type":"bool","internalType":"bool"}],"stateMutability":"view"},{"type":"function","name":"onApprove","inputs":[{"name":"owner","type":"address","internalType":"address"},{"name":"spender","type":"address","internalType":"address"},{"name":"amount","type":"uint256","internalType":"uint256"},{"name":"data","type":"bytes","internalType":"bytes"}],"outputs":[{"name":"","type":"bool","internalType":"bool"}],"stateMutability":"nonpayable"},{"type":"function","name":"proposalCountD1","inputs":[],"outputs":[{"name":"","type":"uint256","internalType":"uint256"}],"stateMutability":"view"},{"type":"function","name":"proposalCountD2","inputs":[],"outputs":[{"name":"","type":"uint256","internalType":"uint256"}],"stateMutability":"view"},{"type":"function","name":"proposalVoterSnapshots","inputs":[{"name":"","type":"uint256","internalType":"uint256"},{"name":"","type":"uint256","internalType":"uint256"}],"outputs":[{"name":"","type":"uint256","internalType":"uint256"}],"stateMutability":"view"},{"type":"function","name":"proposalsD1","inputs":[{"name":"","type":"uint256","internalType":"uint256"}],"outputs":[{"name":"id","type":"uint256","internalType":"uint256"},{"name":"title","type":"string","internalType":"string"},{"name":"description","type":"string","internalType":"string"},{"name":"proposer","type":"address","internalType":"address"},{"name":"startTime","type":"uint256","internalType":"uint256"},{"name":"endTime","type":"uint256","internalType":"uint256"},{"name":"revealEndTime","type":"uint256","internalType":"uint256"},{"name":"merkleRoot","type":"uint256","internalType":"uint256"},{"name":"forVotes","type":"uint256","internalType":"uint256"},{"name":"againstVotes","type":"uint256","internalType":"uint256"},{"name":"abstainVotes","type":"uint256","internalType":"uint256"},{"name":"totalCommitments","type":"uint256","internalType":"uint256"},{"name":"revealedVotes","type":"uint256","internalType":"uint256"},{"name":"exists","type":"bool","internalType":"bool"}],"stateMutability":"view"},{"type":"function","name":"proposalsD2","inputs":[{"name":"","type":"uint256","internalType":"uint256"}],"outputs":[{"name":"id","type":"uint256","internalType":"uint256"},{"name":"title","type":"string","internalType":"string"},{"name":"description","type":"string","internalType":"string"},{"name":"proposer","type":"address","internalType":"address"},{"name":"startTime","type":"uint256","internalType":"uint256"},{"name":"endTime","type":"uint256","internalType":"uint256"},{"name":"revealEndTime","type":"uint256","internalType":"uint256"},{"name":"creditRoot","type":"uint256","internalType":"uint256"},{"name":"forVotes","type":"uint256","internalType":"uint256"},{"name":"againstVotes","type":"uint256","internalType":"uint256"},{"name":"abstainVotes","type":"uint256","internalType":"uint256"},{"name":"totalCreditsSpent","type":"uint256","internalType":"uint256"},{"name":"totalCommitments","type":"uint256","internalType":"uint256"},{"name":"revealedVotes","type":"uint256","internalType":"uint256"},{"name":"exists","type":"bool","internalType":"bool"}],"stateMutability":"view"},{"type":"function","name":"registerCreditNote","inputs":[{"name":"_creditNoteHash","type":"uint256","internalType":"uint256"}],"outputs":[],"stateMutability":"nonpayable"},{"type":"function","name":"registerCreditRoot","inputs":[{"name":"_creditRoot","type":"uint256","internalType":"uint256"}],"outputs":[],"stateMutability":"nonpayable"},{"type":"function","name":"registerMerkleRoot","inputs":[{"name":"_merkleRoot","type":"uint256","internalType":"uint256"}],"outputs":[],"stateMutability":"nonpayable"},{"type":"function","name":"registerVoter","inputs":[{"name":"_noteHash","type":"uint256","internalType":"uint256"}],"outputs":[],"stateMutability":"nonpayable"},{"type":"function","name":"registeredCreditNotes","inputs":[{"name":"","type":"uint256","internalType":"uint256"}],"outputs":[{"name":"","type":"uint256","internalType":"uint256"}],"stateMutability":"view"},{"type":"function","name":"registeredVoters","inputs":[{"name":"","type":"uint256","internalType":"uint256"}],"outputs":[{"name":"","type":"uint256","internalType":"uint256"}],"stateMutability":"view"},{"type":"function","name":"revealVoteD1","inputs":[{"name":"_proposalId","type":"uint256","internalType":"uint256"},{"name":"_nullifier","type":"uint256","internalType":"uint256"},{"name":"_choice","type":"uint256","internalType":"uint256"},{"name":"_voteSalt","type":"uint256","internalType":"uint256"}],"outputs":[],"stateMutability":"nonpayable"},{"type":"function","name":"revealVoteD2","inputs":[{"name":"_proposalId","type":"uint256","internalType":"uint256"},{"name":"_nullifier","type":"uint256","internalType":"uint256"},{"name":"_choice","type":"uint256","internalType":"uint256"},{"name":"_numVotes","type":"uint256","internalType":"uint256"},{"name":"_voteSalt","type":"uint256","internalType":"uint256"}],"outputs":[],"stateMutability":"nonpayable"},{"type":"function","name":"tonToken","inputs":[],"outputs":[{"name":"","type":"address","internalType":"contract IERC20"}],"stateMutability":"view"},{"type":"function","name":"treasury","inputs":[],"outputs":[{"name":"","type":"address","internalType":"address"}],"stateMutability":"view"},{"type":"function","name":"updateProposalVoters","inputs":[{"name":"_proposalId","type":"uint256","internalType":"uint256"},{"name":"_newMerkleRoot","type":"uint256","internalType":"uint256"}],"outputs":[],"stateMutability":"nonpayable"},{"type":"function","name":"userCredits","inputs":[{"name":"","type":"address","internalType":"address"}],"outputs":[{"name":"totalCredits","type":"uint256","internalType":"uint256"},{"name":"usedCredits","type":"uint256","internalType":"uint256"},{"name":"initialized","type":"bool","internalType":"bool"}],"stateMutability":"view"},{"type":"function","name":"validCreditRoots","inputs":[{"name":"","type":"uint256","internalType":"uint256"}],"outputs":[{"name":"","type":"bool","internalType":"bool"}],"stateMutability":"view"},{"type":"function","name":"validMerkleRoots","inputs":[{"name":"","type":"uint256","internalType":"uint256"}],"outputs":[{"name":"","type":"bool","internalType":"bool"}],"stateMutability":"view"},{"type":"function","name":"verifierD1","inputs":[],"outputs":[{"name":"","type":"address","internalType":"contract IVerifierD1"}],"stateMutability":"view"},{"type":"function","name":"verifierD2","inputs":[],"outputs":[{"name":"","type":"address","internalType":"contract IVerifierD2"}],"stateMutability":"view"},{"type":"event","name":"CreditNoteRegistered","inputs":[{"name":"creditNoteHash","type":"uint256","indexed":true,"internalType":"uint256"},{"name":"timestamp","type":"uint256","indexed":false,"internalType":"uint256"}],"anonymous":false},{"type":"event","name":"CreditRootRegistered","inputs":[{"name":"creditRoot","type":"uint256","indexed":true,"internalType":"uint256"},{"name":"timestamp","type":"uint256","indexed":false,"internalType":"uint256"}],"anonymous":false},{"type":"event","name":"CreditsBurned","inputs":[{"name":"user","type":"address","indexed":true,"internalType":"address"},{"name":"amount","type":"uint256","indexed":false,"internalType":"uint256"},{"name":"remaining","type":"uint256","indexed":false,"internalType":"uint256"}],"anonymous":false},{"type":"event","name":"CreditsInitialized","inputs":[{"name":"user","type":"address","indexed":true,"internalType":"address"},{"name":"credits","type":"uint256","indexed":false,"internalType":"uint256"}],"anonymous":false},{"type":"event","name":"CreditsMinted","inputs":[{"name":"user","type":"address","indexed":true,"internalType":"address"},{"name":"amount","type":"uint256","indexed":false,"internalType":"uint256"},{"name":"total","type":"uint256","indexed":false,"internalType":"uint256"}],"anonymous":false},{"type":"event","name":"MerkleRootRegistered","inputs":[{"name":"merkleRoot","type":"uint256","indexed":true,"internalType":"uint256"},{"name":"timestamp","type":"uint256","indexed":false,"internalType":"uint256"}],"anonymous":false},{"type":"event","name":"ProposalCreatedD1","inputs":[{"name":"proposalId","type":"uint256","indexed":true,"internalType":"uint256"},{"name":"title","type":"string","indexed":false,"internalType":"string"},{"name":"proposer","type":"address","indexed":true,"internalType":"address"},{"name":"merkleRoot","type":"uint256","indexed":false,"internalType":"uint256"},{"name":"endTime","type":"uint256","indexed":false,"internalType":"uint256"},{"name":"revealEndTime","type":"uint256","indexed":false,"internalType":"uint256"}],"anonymous":false},{"type":"event","name":"ProposalCreatedD2","inputs":[{"name":"proposalId","type":"uint256","indexed":true,"internalType":"uint256"},{"name":"title","type":"string","indexed":false,"internalType":"string"},{"name":"proposer","type":"address","indexed":true,"internalType":"address"},{"name":"creditRoot","type":"uint256","indexed":false,"internalType":"uint256"},{"name":"endTime","type":"uint256","indexed":false,"internalType":"uint256"},{"name":"revealEndTime","type":"uint256","indexed":false,"internalType":"uint256"}],"anonymous":false},{"type":"event","name":"VoteCommittedD1","inputs":[{"name":"proposalId","type":"uint256","indexed":true,"internalType":"uint256"},{"name":"nullifier","type":"uint256","indexed":true,"internalType":"uint256"},{"name":"commitment","type":"uint256","indexed":false,"internalType":"uint256"},{"name":"votingPower","type":"uint256","indexed":false,"internalType":"uint256"}],"anonymous":false},{"type":"event","name":"VoteCommittedD2","inputs":[{"name":"proposalId","type":"uint256","indexed":true,"internalType":"uint256"},{"name":"nullifier","type":"uint256","indexed":true,"internalType":"uint256"},{"name":"commitment","type":"uint256","indexed":false,"internalType":"uint256"},{"name":"numVotes","type":"uint256","indexed":false,"internalType":"uint256"},{"name":"creditsSpent","type":"uint256","indexed":false,"internalType":"uint256"}],"anonymous":false},{"type":"event","name":"VoteRevealedD1","inputs":[{"name":"proposalId","type":"uint256","indexed":true,"internalType":"uint256"},{"name":"nullifier","type":"uint256","indexed":true,"internalType":"uint256"},{"name":"choice","type":"uint256","indexed":false,"internalType":"uint256"},{"name":"votingPower","type":"uint256","indexed":false,"internalType":"uint256"}],"anonymous":false},{"type":"event","name":"VoteRevealedD2","inputs":[{"name":"proposalId","type":"uint256","indexed":true,"internalType":"uint256"},{"name":"nullifier","type":"uint256","indexed":true,"internalType":"uint256"},{"name":"choice","type":"uint256","indexed":false,"internalType":"uint256"},{"name":"numVotes","type":"uint256","indexed":false,"internalType":"uint256"},{"name":"creditsSpent","type":"uint256","indexed":false,"internalType":"uint256"}],"anonymous":false},{"type":"event","name":"VoterRegistered","inputs":[{"name":"noteHash","type":"uint256","indexed":true,"internalType":"uint256"},{"name":"timestamp","type":"uint256","indexed":false,"internalType":"uint256"}],"anonymous":false},{"type":"error","name":"AlreadyRevealed","inputs":[]},{"type":"error","name":"CommitmentNotFound","inputs":[]},{"type":"error","name":"InsufficientCredits","inputs":[]},{"type":"error","name":"InvalidChoice","inputs":[]},{"type":"error","name":"InvalidCreditRoot","inputs":[]},{"type":"error","name":"InvalidMerkleRoot","inputs":[]},{"type":"error","name":"InvalidProof","inputs":[]},{"type":"error","name":"InvalidQuadraticCost","inputs":[]},{"type":"error","name":"InvalidReveal","inputs":[]},{"type":"error","name":"NotInCommitPhase","inputs":[]},{"type":"error","name":"NotInRevealPhase","inputs":[]},{"type":"error","name":"NullifierAlreadyUsed","inputs":[]},{"type":"error","name":"ProposalNotFound","inputs":[]},{"type":"error","name":"ZeroVotingPower","inputs":[]}],"bytecode":{"object":"0x60e06040523461008d5761001d61001461017a565b92919091610260565b610025610092565b615ec161029182396080518181816121270152612c09015260a0518181816114c101528181613b620152614d7f015260c05181818161132d015281816139c501528181613bd501528181613c5601528181614bad01528181614e100152614e910152615ec190f35b610098565b60405190565b5f80fd5b601f801991011690565b634e487b7160e01b5f52604160045260245ffd5b906100c49061009c565b810190811060018060401b038211176100dc57604052565b6100a6565b906100f46100ed610092565b92836100ba565b565b5f80fd5b60018060a01b031690565b61010e906100fa565b90565b61011a81610105565b0361012157565b5f80fd5b9050519061013282610111565b565b6080818303126101755761014a825f8301610125565b9261017261015b8460208501610125565b936101698160408601610125565b93606001610125565b90565b6100f6565b6101986161528038038061018d816100e1565b928339810190610134565b90919293565b90565b6101b56101b06101ba926100fa565b61019e565b6100fa565b90565b6101c6906101a1565b90565b6101d2906101bd565b90565b6101de906101a1565b90565b6101ea906101d5565b90565b6101f6906101a1565b90565b610202906101ed565b90565b5f1b90565b9061021b60018060a01b0391610205565b9181191691161790565b61022e906101a1565b90565b61023a90610225565b90565b90565b9061025561025061025c92610231565b61023d565b825461020a565b9055565b9161027d6102859261027561028e96956101c9565b6080526101e1565b60a0526101f9565b60c0525f610240565b56fe60806040526004361015610013575b612223565b61001d5f3561033c565b806303a229f7146103375780630572c801146103325780630d70ece81461032d57806311174a291461032857806313703e661461032357806318dbeb4c1461031e57806320babb92146103195780632436e06b146103145780632bbe44fd1461030f5780632bc4a6e71461030a5780632c5317c014610305578063315401c014610300578063417e70c8146102fb5780634273ca16146102f65780634275e031146102f15780634a9284fb146102ec5780634d09b49f146102e757806352a48c56146102e25780635938862f146102dd57806361d027b3146102d8578063697aa8e8146102d35780636d3cba61146102ce57806374dd0fea146102c9578063781a4852146102c4578063833722c5146102bf578063850099cd146102ba5780638ea7a274146102b557806394ffe6a0146102b0578063974f7aa3146102ab578063a13f2f8d146102a6578063a1c7574a146102a1578063a329b3131461029c578063a4cae8f814610297578063aa60984814610292578063b065a8e51461028d578063b4e0d6af14610288578063b5770c3314610283578063b5ad92151461027e578063badbc2ed14610279578063cb1bb03314610274578063d54443361461026f578063d54bb70b1461026a578063d55d533e14610265578063d90292a314610260578063db5bd6011461025b578063ef3a2b3914610256578063f025d08214610251578063f58789ae1461024c578063f9058741146102475763fb9607d30361000e576121f0565b6121bb565b612177565b6120dd565b611ef5565b611eb9565b611e84565b611e16565b611d78565b611c6a565b611c35565b611bdf565b611b28565b611ac7565b611a45565b6116d7565b6116a3565b611670565b61163b565b6115da565b6115a7565b611572565b611511565b61148a565b61141e565b6113d3565b61137d565b6112f6565b6112c1565b611273565b611206565b61117c565b611112565b6110d6565b610fd8565b610f9b565b610e5f565b610d83565b610d25565b610bb0565b610b30565b610a5e565b610a29565b61097c565b61083c565b61075c565b610592565b61055d565b610467565b6103c0565b60e01c90565b60405190565b5f80fd5b5f80fd5b5f91031261035a57565b61034c565b1c90565b90565b61037690600861037b930261035f565b610363565b90565b906103899154610366565b90565b61039860025f9061037e565b90565b90565b6103a79061039b565b9052565b91906103be905f6020850194019061039e565b565b346103f0576103d0366004610350565b6103ec6103db61038c565b6103e3610342565b918291826103ab565b0390f35b610348565b5f80fd5b6104028161039b565b0361040957565b5f80fd5b9050359061041a826103f9565b565b60808183031261045d57610432825f830161040d565b9261045a610443846020850161040d565b93610451816040860161040d565b9360600161040d565b90565b61034c565b5f0190565b346104995761048361047a36600461041c565b92919091612451565b61048b610342565b8061049581610462565b0390f35b610348565b906020828203126104b7576104b4915f0161040d565b90565b61034c565b90565b6104d36104ce6104d89261039b565b6104bc565b61039b565b90565b906104e5906104bf565b5f5260205260405f2090565b60ff1690565b61050790600861050c930261035f565b6104f1565b90565b9061051a91546104f7565b90565b6105339061052e6011915f926104db565b61050f565b90565b151590565b61054490610536565b9052565b919061055b905f6020850194019061053b565b565b3461058d5761058961057861057336600461049e565b61051d565b610580610342565b91829182610548565b0390f35b610348565b346105c2576105a2366004610350565b6105be6105ad61284e565b6105b5610342565b918291826103ab565b0390f35b610348565b91906040838203126105ef57806105e36105ec925f860161040d565b9360200161040d565b90565b61034c565b906105fe906104bf565b5f5260205260405f2090565b90610614906104bf565b5f5260205260405f2090565b5f1c90565b61063161063691610620565b610363565b90565b6106439054610625565b90565b61065261065791610620565b6104f1565b90565b6106649054610646565b90565b9061067661067b92600c6105f4565b61060a565b906106875f8301610639565b9161069460018201610639565b916106a160028301610639565b916106ae60038201610639565b916106bb60048301610639565b916106c86005820161065a565b916106e160076106da60068501610639565b930161065a565b90565b959391989796949290986101008701995f88016107009161039e565b6020870161070d9161039e565b6040860161071a9161039e565b606085016107279161039e565b608084016107349161039e565b60a083016107419161053b565b60c0820161074e9161039e565b60e00161075a9161053b565b565b34610797576107936107786107723660046105c7565b90610667565b9461078a989698949194939293610342565b988998896106e4565b0390f35b610348565b5f80fd5b919060206002028301116107b057565b61079c565b919060406002028301116107c557565b61079c565b61018081830312610837576107e1825f830161040d565b926107ef836020840161040d565b926107fd816040850161040d565b9261080b826060830161040d565b9261083461081c84608085016107a0565b9361082a8160c086016107b5565b93610140016107a0565b90565b61034c565b346108715761085b61084f3660046107ca565b95949094939193612b14565b610863610342565b8061086d81610462565b0390f35b610348565b60018060a01b031690565b61088a90610876565b90565b61089681610881565b0361089d57565b5f80fd5b905035906108ae8261088d565b565b906020828203126108c9576108c6915f016108a1565b90565b61034c565b6108e26108dd6108e792610876565b6104bc565b610876565b90565b6108f3906108ce565b90565b6108ff906108ea565b90565b9061090c906108f6565b5f5260205260405f2090565b610923906012610902565b61092e5f8201610639565b91610947600261094060018501610639565b930161065a565b90565b60409061097361097a949695939661096960608401985f85019061039e565b602083019061039e565b019061053b565b565b346109af576109ab6109976109923660046108b0565b610918565b6109a2939193610342565b9384938461094a565b0390f35b610348565b634e487b7160e01b5f52603260045260245ffd5b5490565b5f5260205f2090565b6109de816109c8565b8210156109f8576109f06001916109cc565b910201905f90565b6109b4565b6008610a08816109c8565b821015610a2557610a2291610a1c916109d5565b9061037e565b90565b5f80fd5b34610a5957610a55610a44610a3f36600461049e565b6109fd565b610a4c610342565b918291826103ab565b0390f35b610348565b34610a8c57610a76610a7136600461049e565b612f1c565b610a7e610342565b80610a8881610462565b0390f35b610348565b5190565b60209181520190565b60200190565b610aad9061039b565b9052565b90610abe81602093610aa4565b0190565b60200190565b90610ae5610adf610ad884610a91565b8093610a95565b92610a9e565b905f5b818110610af55750505090565b909192610b0e610b086001928651610ab1565b94610ac2565b9101919091610ae8565b610b2d9160208201915f818403910152610ac8565b90565b34610b6057610b40366004610350565b610b5c610b4b61305a565b610b53610342565b91829182610b18565b0390f35b610348565b90610b6f906104bf565b5f5260205260405f2090565b610b8690600a610b65565b610b8f816109c8565b821015610bac57610ba991610ba3916109d5565b9061037e565b90565b5f80fd5b34610be157610bdd610bcc610bc63660046105c7565b90610b7b565b610bd4610342565b918291826103ab565b0390f35b610348565b5190565b60209181520190565b90825f9392825e0152565b601f801991011690565b610c27610c30602093610c3593610c1e81610be6565b93848093610bea565b95869101610bf3565b610bfe565b0190565b610c4290610881565b9052565b60ff1690565b610c5590610c46565b9052565b9a9896949291909d9c9b999795939d6101a08c01905f8d01610c7a9161039e565b8b810360208d0152610c8b91610c08565b8a810360408c0152610c9c91610c08565b9b60608a01610caa91610c39565b60808901610cb79161039e565b60a08801610cc49161039e565b60c08701610cd19161039e565b60e08601610cde9161039e565b6101008501610cec9161039e565b6101208401610cfa9161039e565b6101408301610d089161039e565b6101608201610d169161039e565b61018001610d2391610c4c565b565b34610d6557610d61610d40610d3b36600461049e565b6130dd565b99610d589d9b9d999199989298979397969496610342565b9d8e9d8e610c59565b0390f35b610348565b610d8090610d7b600e915f926104db565b61050f565b90565b34610db357610daf610d9e610d9936600461049e565b610d6a565b610da6610342565b91829182610548565b0390f35b610348565b5f80fd5b5f80fd5b909182601f83011215610dfa5781359167ffffffffffffffff8311610df5576020019260018302840111610df057565b61079c565b610dbc565b610db8565b90608082820312610e5a57610e16815f84016108a1565b92610e2482602085016108a1565b92610e32836040830161040d565b92606082013567ffffffffffffffff8111610e5557610e519201610dc0565b9091565b6103f5565b61034c565b34610e9357610e8f610e7e610e75366004610dff565b939290926139a2565b610e86610342565b91829182610548565b0390f35b610348565b90610ea2906104bf565b5f5260205260405f2090565b90610eb8906104bf565b5f5260205260405f2090565b90610ed3610ed8926004610e98565b610eae565b610ee35f8201610639565b91610ef060018301610639565b91610efd60028201610639565b91610f0a60038301610639565b91610f176004820161065a565b91610f306006610f2960058501610639565b930161065a565b90565b949290979695939160e08601985f8701610f4c9161039e565b60208601610f599161039e565b60408501610f669161039e565b60608401610f739161039e565b60808301610f809161053b565b60a08201610f8d9161039e565b60c001610f999161053b565b565b34610fd357610fcf610fb7610fb13660046105c7565b90610ec4565b93610fc6979597939193610342565b97889788610f33565b0390f35b610348565b3461100857611004610ff3610fee36600461049e565b613fa5565b610ffb610342565b91829182610548565b0390f35b610348565b909182601f830112156110475781359167ffffffffffffffff831161104257602001926001830284011161103d57565b61079c565b610dbc565b610db8565b909160a0828403126110d1575f82013567ffffffffffffffff81116110cc578361107791840161100d565b929093602082013567ffffffffffffffff81116110c7578161109a91840161100d565b9290936110c46110ad846040850161040d565b936110bb816060860161040d565b9360800161040d565b90565b6103f5565b6103f5565b61034c565b3461110d576111096110f86110ec36600461104c565b95949094939193614432565b611100610342565b918291826103ab565b0390f35b610348565b346111405761112a61112536600461049e565b6146ed565b611132610342565b8061113c81610462565b0390f35b610348565b9061114f906104bf565b5f5260205260405f2090565b6111746111799261116f6005935f94611145565b6104db565b61050f565b90565b346111ad576111a96111986111923660046105c7565b9061115b565b6111a0610342565b91829182610548565b0390f35b610348565b60018060a01b031690565b6111cd9060086111d2930261035f565b6111b2565b90565b906111e091546111bd565b90565b6111ee5f5f906111d5565b90565b9190611204905f60208501940190610c39565b565b3461123657611216366004610350565b6112326112216111e3565b611229610342565b918291826111f1565b0390f35b610348565b90565b61125261124d6112579261123b565b6104bc565b61039b565b90565b61126561271061123e565b90565b61127061125a565b90565b346112a357611283366004610350565b61129f61128e611268565b611296610342565b918291826103ab565b0390f35b610348565b6112be906112b96009915f926104db565b61050f565b90565b346112f1576112ed6112dc6112d736600461049e565b6112a8565b6112e4610342565b91829182610548565b0390f35b610348565b346113265761132261131161130c36600461049e565b6147c2565b611319610342565b918291826103ab565b0390f35b610348565b7f000000000000000000000000000000000000000000000000000000000000000090565b611358906108ea565b90565b6113649061134f565b9052565b919061137b905f6020850194019061135b565b565b346113ad5761138d366004610350565b6113a961139861132b565b6113a0610342565b91829182611368565b0390f35b610348565b6113cb6113d0926113c6600d935f94611145565b6104db565b61050f565b90565b34611404576114006113ef6113e93660046105c7565b906113b2565b6113f7610342565b91829182610548565b0390f35b610348565b919061141c905f60208501940190610c4c565b565b3461144e5761144a61143961143436600461049e565b6147d8565b611441610342565b91829182611409565b0390f35b610348565b90565b61146a61146561146f92611453565b6104bc565b61039b565b90565b61147c6001611456565b90565b611487611472565b90565b346114ba5761149a366004610350565b6114b66114a561147f565b6114ad610342565b918291826103ab565b0390f35b610348565b7f000000000000000000000000000000000000000000000000000000000000000090565b6114ec906108ea565b90565b6114f8906114e3565b9052565b919061150f905f602085019401906114ef565b565b3461154157611521366004610350565b61153d61152c6114bf565b611534610342565b918291826114fc565b0390f35b610348565b6010611551816109c8565b82101561156e5761156b91611565916109d5565b9061037e565b90565b5f80fd5b346115a25761159e61158d61158836600461049e565b611546565b611595610342565b918291826103ab565b0390f35b610348565b346115d5576115bf6115ba36600461049e565b614898565b6115c7610342565b806115d181610462565b0390f35b610348565b3461160a576115ea366004610350565b6116066115f5614923565b6115fd610342565b91829182610b18565b0390f35b610348565b600f61161a816109c8565b821015611637576116349161162e916109d5565b9061037e565b90565b5f80fd5b3461166b5761166761165661165136600461049e565b61160f565b61165e610342565b918291826103ab565b0390f35b610348565b3461169e5761168861168336600461049e565b614939565b611690610342565b8061169a81610462565b0390f35b610348565b346116d2576116bc6116b63660046105c7565b90614a69565b6116c4610342565b806116ce81610462565b0390f35b610348565b34611707576117036116f26116ed3660046108b0565b614b99565b6116fa610342565b918291826103ab565b0390f35b610348565b90611716906104bf565b5f5260205260405f2090565b634e487b7160e01b5f52602260045260245ffd5b9060016002830492168015611756575b602083101461175157565b611722565b91607f1691611746565b60209181520190565b5f5260205f2090565b905f929180549061178c61178583611736565b8094611760565b916001811690815f146117e357506001146117a7575b505050565b6117b49192939450611769565b915f925b8184106117cb57505001905f80806117a2565b600181602092959395548486015201910192906117b8565b92949550505060ff19168252151560200201905f80806117a2565b9061180891611772565b90565b634e487b7160e01b5f52604160045260245ffd5b9061182990610bfe565b810190811067ffffffffffffffff82111761184357604052565b61180b565b9061186861186192611858610342565b938480926117fe565b038361181f565b565b61187661187b91610620565b6111b2565b90565b611888905461186a565b90565b61189690600b61170c565b6118a15f8201610639565b916118ae60018301611848565b916118bb60028201611848565b916118c86003830161187e565b916118d560048201610639565b916118e260058301610639565b916118ef60068201610639565b916118fc60078301610639565b9161190960088201610639565b9161191660098301610639565b91611923600a8201610639565b91611930600b8301610639565b9161193d600c8201610639565b91611956600e61194f600d8501610639565b930161065a565b90565b939f9e9d9b99979593809d9b9997959392916101e08201915f0161197c9161039e565b8d808203906020015261198e91610c08565b8c80820390604001526119a091610c08565b9d60608c016119ae91610c39565b60808b016119bb9161039e565b60a08a016119c89161039e565b60c089016119d59161039e565b60e088016119e29161039e565b61010087016119f09161039e565b61012086016119fe9161039e565b6101408501611a0c9161039e565b6101608401611a1a9161039e565b6101808301611a289161039e565b6101a08201611a369161039e565b6101c001611a439161053b565b565b34611a8c5736611a5690600461049e565b611a5f9061188b565b9a611a7a9e9c9e9a919a999299989398979497969596610342565b9e8f9e8f9e611a889f611959565b0390f35b610348565b90565b611aa8611aa3611aad92611a91565b6104bc565b61039b565b90565b611ab95f611a94565b90565b611ac4611ab0565b90565b34611af757611ad7366004610350565b611af3611ae2611abc565b611aea610342565b918291826103ab565b0390f35b610348565b6007611b07816109c8565b821015611b2457611b2191611b1b916109d5565b9061037e565b90565b5f80fd5b34611b5857611b54611b43611b3e36600461049e565b611afc565b611b4b610342565b918291826103ab565b0390f35b610348565b91906101a083820312611bda57611b76815f850161040d565b92611b84826020830161040d565b92611b92836040840161040d565b92611ba0816060850161040d565b92611bae826080830161040d565b92611bd7611bbf8460a085016107a0565b93611bcd8160e086016107b5565b93610160016107a0565b90565b61034c565b34611c1757611c01611bf2366004611b5d565b96959095949194939293614c80565b611c09610342565b80611c1381610462565b0390f35b610348565b611c3290611c2d6006915f926104db565b61050f565b90565b34611c6557611c61611c50611c4b36600461049e565b611c1c565b611c58610342565b91829182610548565b0390f35b610348565b34611c9857611c82611c7d36600461049e565b61521a565b611c8a610342565b80611c9481610462565b0390f35b610348565b809c9a9896949f9e9d9b9997959392916101c08201915f01611cbe9161039e565b8c8082039060200152611cd091610c08565b8b810360408d0152611ce191610c08565b9c60608b01611cef91610c39565b60808a01611cfc9161039e565b60a08901611d099161039e565b60c08801611d169161039e565b60e08701611d239161039e565b6101008601611d319161039e565b6101208501611d3f9161039e565b6101408401611d4d9161039e565b6101608301611d5b9161039e565b6101808201611d699161039e565b6101a001611d7691610c4c565b565b34611dbb57611db7611d93611d8e36600461049e565b61528a565b9a611dae9e9c9e9a919a999299989398979497969596610342565b9e8f9e8f611c9d565b0390f35b610348565b919060a083820312611e1157611dd8815f850161040d565b92611de6826020830161040d565b92611e0e611df7846040850161040d565b93611e05816060860161040d565b9360800161040d565b90565b61034c565b34611e4857611e32611e29366004611dc0565b9392909261548d565b611e3a610342565b80611e4481610462565b0390f35b610348565b90565b611e64611e5f611e6992611e4d565b6104bc565b61039b565b90565b611e766002611e50565b90565b611e81611e6c565b90565b34611eb457611e94366004610350565b611eb0611e9f611e79565b611ea7610342565b918291826103ab565b0390f35b610348565b34611ef057611eec611edb611ecf36600461104c565b95949094939193615ae5565b611ee3610342565b918291826103ab565b0390f35b610348565b34611f2557611f21611f10611f0b36600461049e565b615d3b565b611f18610342565b91829182610548565b0390f35b610348565b90611f34906104bf565b5f5260205260405f2090565b611f4b906003611f2a565b90611f575f8301610639565b91611f6460018201611848565b91611f7160028301611848565b91611f7e6003820161187e565b91611f8b60048301610639565b91611f9860058201610639565b91611fa560068301610639565b91611fb260078201610639565b91611fbf60088301610639565b91611fcc60098201610639565b91611fd9600a8301610639565b91611fe6600b8201610639565b91611fff600d611ff8600c8501610639565b930161065a565b90565b809c9a9896949f9e9d9b9997959392916101c08201915f016120239161039e565b8c808203906020015261203591610c08565b8b810360408d015261204691610c08565b9c60608b0161205491610c39565b60808a016120619161039e565b60a0890161206e9161039e565b60c0880161207b9161039e565b60e087016120889161039e565b61010086016120969161039e565b61012085016120a49161039e565b61014084016120b29161039e565b61016083016120c09161039e565b61018082016120ce9161039e565b6101a0016120db9161053b565b565b346121205761211c6120f86120f336600461049e565b611f40565b9a6121139e9c9e9a919a999299989398979497969596610342565b9e8f9e8f612002565b0390f35b610348565b7f000000000000000000000000000000000000000000000000000000000000000090565b612152906108ea565b90565b61215e90612149565b9052565b9190612175905f60208501940190612155565b565b346121a757612187366004610350565b6121a3612192612125565b61219a610342565b91829182612162565b0390f35b610348565b6121b860015f9061037e565b90565b346121eb576121cb366004610350565b6121e76121d66121ac565b6121de610342565b918291826103ab565b0390f35b610348565b3461221e57612200366004610350565b612208615dbf565b612210610342565b8061221a81610462565b0390f35b610348565b5f80fd5b90565b90565b90565b9061224361223c610342565b928361181f565b565b67ffffffffffffffff811161225a5760200290565b61180b565b61226b61227091612245565b612230565b90565b9061227d9061039b565b9052565b60e01b90565b90505190612294826103f9565b565b906020828203126122af576122ac915f01612287565b90565b61034c565b50600490565b905090565b90565b6122cb9061039b565b9052565b906122dc816020936122c2565b0190565b60200190565b6123026122fc6122f5836122b4565b80946122ba565b916122bf565b5f915b8383106123125750505050565b61232861232260019284516122cf565b926122e0565b92019190612305565b9190612344905f608085019401906122e6565b565b61234e610342565b3d5f823e3d90fd5b5f1b90565b9061236760ff91612356565b9181191691161790565b61237a90610536565b90565b90565b9061239561239061239c92612371565b61237d565b825461235b565b9055565b906123ac5f1991612356565b9181191691161790565b90565b906123ce6123c96123d5926104bf565b6123b6565b82546123a0565b9055565b634e487b7160e01b5f52601160045260245ffd5b6123fc6124029193929361039b565b9261039b565b820180921161240d57565b6123d9565b61241b9061039b565b5f1981146124295760010190565b6123d9565b91602061244f92949361244860408201965f83019061039e565b019061039e565b565b61246561246060038390611f2a565b612227565b61248361247e61247760048590610e98565b8590610eae565b61222a565b94612499612493600d840161065a565b15610536565b61282e57426124bb6124b56124b060058601610639565b61039b565b9161039b565b111561281257426124df6124d96124d460068601610639565b61039b565b9161039b565b116127f6576124f96124f36006880161065a565b15610536565b6127da576125096004870161065a565b6127be578461252761252161251c611e6c565b61039b565b9161039b565b116127a2576020856125bf926125b4896125a061255773__$0daf1669a85ce10529e05b8a030b9567e1$__61222d565b9361258a6125826001638709cd8c9561257c612573600461225f565b9a5f8c01612273565b01610639565b888801612273565b6125978a60408801612273565b60608601612273565b6125a8610342565b95869485938493612281565b835260048301612331565b03915af490811561279d575f9161276f575b506125ee6125e86125e35f8901610639565b61039b565b9161039b565b03612753576126869161267d600c60019361260c8560048b01612380565b6126198860058b016123b9565b8761263361262d612628611472565b61039b565b9161039b565b145f146126d357612664612648868b01610639565b61265e600884019161265983610639565b6123ed565b906123b9565b5b0161267761267282610639565b612412565b906123b9565b92939401610639565b6126b96126b37f48b18ffd0d20ac6e0c916dc382bdea3de3108e2b71d66318ff2bdc7aa10a5628936104bf565b936104bf565b936126ce6126c5610342565b9283928361242e565b0390a3565b876126ed6126e76126e2611ab0565b61039b565b9161039b565b145f146127245761271e612702868b01610639565b612718600984019161271383610639565b6123ed565b906123b9565b5b612665565b61274e612732868b01610639565b612748600a84019161274383610639565b6123ed565b906123b9565b61271f565b5f639ea6d12760e01b81528061276b60048201610462565b0390fd5b612790915060203d8111612796575b612788818361181f565b810190612296565b5f6125d1565b503d61277e565b612346565b5f639c45400160e01b8152806127ba60048201610462565b0390fd5b5f63a89ac15160e01b8152806127d660048201610462565b0390fd5b5f635b34156960e11b8152806127f260048201610462565b0390fd5b5f6374683d7160e01b81528061280e60048201610462565b0390fd5b5f6374683d7160e01b81528061282a60048201610462565b0390fd5b5f63635e873760e01b81528061284660048201610462565b0390fd5b5f90565b61285661284a565b5061286160086109c8565b90565b67ffffffffffffffff81116128795760200290565b61180b565b61288a61288f91612864565b612230565b90565b61289b81610536565b036128a257565b5f80fd5b905051906128b382612892565b565b906020828203126128ce576128cb915f016128a6565b90565b61034c565b9037565b6128e3916040916128d3565b565b50600290565b905090565b90565b6128ff916040916128d3565b565b9061290e816040936128f3565b0190565b5090565b60400190565b61293861293261292b836128e5565b80946128eb565b916128f0565b805f925b84841061294a575050505050565b61296861296260019261295d8686612912565b612901565b93612916565b9301929161293c565b50600590565b905090565b90565b60200190565b6129a161299b61299483612971565b8094612977565b9161297c565b5f915b8383106129b15750505050565b6129c76129c16001928451610ab1565b9261297f565b920191906129a4565b612a07612a0e946129fd610100949897956129f36101a086019a5f8701906128d7565b604085019061291c565b60c08301906128d7565b0190612985565b565b612a1a60e0612230565b90565b90612a2790610536565b9052565b634e487b7160e01b5f525f60045260245ffd5b612a48905161039b565b90565b612a559051610536565b90565b90612b0060c06006612b0694612a7b5f8201612a755f8801612a3e565b906123b9565b612a9460018201612a8e60208801612a3e565b906123b9565b612aad60028201612aa760408801612a3e565b906123b9565b612ac660038201612ac060608801612a3e565b906123b9565b612adf60048201612ad960808801612a4b565b90612380565b612af860058201612af260a08801612a3e565b906123b9565b019201612a4b565b90612380565b565b90612b1291612a58565b565b92939590949195612b2f612b2a60038690611f2a565b612227565b92612b45612b3f600d860161065a565b15610536565b612e485742612b67612b61612b5c60058801610639565b61039b565b9161039b565b11612e2c57612b8a612b85612b7e60058890611145565b88906104db565b61065a565b612e105787612ba1612b9b5f611a94565b9161039b565b14612df457602091612c4a612bb6600561287e565b612bc2895f8301612273565b612bce8a868301612273565b612bdb8860408301612273565b612be88b60608301612273565b612c00612bf760078901610639565b60808301612273565b91612c55612c2d7f0000000000000000000000000000000000000000000000000000000000000000612149565b936334baeab9929597612c3e610342565b98899788968796612281565b8652600486016129d0565b03915afa8015612def57612c71915f91612dc1575b5015610536565b612da5576001600583612c8391611145565b84612c8d916104db565b90612c9791612380565b838584425f905f92600194612caa612a10565b965f880190612cb891612273565b6020870190612cc691612273565b6040860190612cd491612273565b6060850190612ce291612273565b6080840190612cf091612a1d565b612cf990611a94565b60a0830190612d0791612273565b60c0820190612d1591612a1d565b600483612d2191610e98565b84612d2b91610eae565b90612d3591612b08565b600b01612d4181610639565b612d4a90612412565b612d53916123b9565b90917f049e5146cbefb4fff5586b703de455cb45794712230253d13f2d8c57da85a32391612d80906104bf565b92612d8a906104bf565b93612d93610342565b918291612da0918361242e565b0390a3565b5f6309bde33960e01b815280612dbd60048201610462565b0390fd5b612de2915060203d8111612de8575b612dda818361181f565b8101906128b5565b5f612c6a565b503d612dd0565b612346565b5f6343c891cf60e11b815280612e0c60048201610462565b0390fd5b5f636569570160e11b815280612e2860048201610462565b0390fd5b5f63abfb7dc360e01b815280612e4460048201610462565b0390fd5b5f63635e873760e01b815280612e6060048201610462565b0390fd5b90565b5f5260205f2090565b5490565b612e7d81612e70565b821015612e9757612e8f600191612e67565b910201905f90565b6109b4565b1b90565b91906008612ebb910291612eb55f1984612e9c565b92612e9c565b9181191691161790565b9190612edb612ed6612ee3936104bf565b6123b6565b908354612ea0565b9055565b9081549168010000000000000000831015612f175782612f0f916001612f1595018155612e74565b90612ec5565b565b61180b565b612f30612f2b601183906104db565b61065a565b612fa457612f4a6001612f45601184906104db565b612380565b612f5e612f576010612e64565b8290612ee7565b4290612f9f612f8d7f1926a241ba9d59467ac0063e2cb861452b93ab650fff5378a82e86befecc27ab926104bf565b92612f96610342565b918291826103ab565b0390a2565b50565b606090565b60209181520190565b612fbf9054610625565b90565b60010190565b90612fe5612fdf612fd8846109c8565b8093612fac565b926109cc565b905f5b818110612ff55750505090565b90919261301561300f60019261300a87612fb5565b610ab1565b94612fc2565b9101919091612fe8565b9061302991612fc8565b90565b9061304c6130459261303c610342565b9384809261301f565b038361181f565b565b6130579061302c565b90565b613062612fa7565b5061306d600861304e565b90565b606090565b5f90565b5f90565b61309161308c61309692611e4d565b6104bc565b610c46565b90565b6130ad6130a86130b292611453565b6104bc565b610c46565b90565b6130c96130c46130ce92611a91565b6104bc565b610c46565b90565b6130da90611848565b90565b613160613165916130ec61284a565b506130f5613070565b506130fe613070565b50613107613075565b5061311061284a565b5061311961284a565b5061312261284a565b5061312b61284a565b5061313461284a565b5061313d61284a565b5061314661284a565b5061314f61284a565b50613158613079565b506003611f2a565b612227565b61317a613174600d830161065a565b15610536565b6132a557613186613079565b50426131a561319f61319a60058501610639565b61039b565b9161039b565b11155f14613260576131b65f6130b5565b5b6131c25f8301610639565b600183019360028401936131d86003820161187e565b936131e560078301610639565b936131f260058401610639565b936131ff60068501610639565b9361320c60088201610639565b9361321960098301610639565b93613226600a8401610639565b9361325361324d613245600c61323e600b8901610639565b9701610639565b94939e6130d1565b9c6130d1565b9a99989796959493929190565b4261327e61327861327360068501610639565b61039b565b9161039b565b11155f14613296576132906001613099565b5b6131b7565b6132a0600261307d565b613291565b5f63635e873760e01b8152806132bd60048201610462565b0390fd5b5f90565b5f7f4f6e6c7920544f4e20746f6b656e2063616e2063616c6c000000000000000000910152565b6132f96017602092610bea565b613302816132c5565b0190565b61331b9060208101905f8183039101526132ec565b90565b1561332557565b61332d610342565b62461bcd60e51b81528061334360048201613306565b0390fd5b613350906108ea565b90565b5f7f496e76616c6964207370656e6465720000000000000000000000000000000000910152565b613387600f602092610bea565b61339081613353565b0190565b6133a99060208101905f81830391015261337a565b90565b156133b357565b6133bb610342565b62461bcd60e51b8152806133d160048201613394565b0390fd5b67ffffffffffffffff81116133ea5760200290565b61180b565b909291926134046133ff826133d5565b612230565b93602085920283019281841161343c57915b8383106134235750505050565b60208091613431848661040d565b815201920191613416565b61079c565b9080601f8301121561345c57613459916002906133ef565b90565b610db8565b67ffffffffffffffff81116134765760200290565b61180b565b9092919261349061348b82613461565b612230565b9360408592028301928184116134c957915b8383106134af5750505050565b60206040916134be8486613441565b8152019201916134a2565b61079c565b9080601f830112156134e9576134e69160029061347b565b90565b610db8565b91906101a08382031261356b57613507815f850161040d565b92613515826020830161040d565b92613523836040840161040d565b92613531816060850161040d565b9261353f826080830161040d565b926135686135508460a08501613441565b9361355e8160e086016134ce565b9361016001613441565b90565b61034c565b90565b90565b61358a61358561358f92613573565b6104bc565b61039b565b90565b6135a16135a79193929361039b565b9261039b565b916135b383820261039b565b9281840414901517156135c257565b6123d9565b5f7f496e73756666696369656e7420617070726f76656420616d6f756e7400000000910152565b6135fb601c602092610bea565b613604816135c7565b0190565b61361d9060208101905f8183039101526135ee565b90565b1561362757565b61362f610342565b62461bcd60e51b81528061364560048201613608565b0390fd5b50600290565b905090565b90565b60200190565b61367961367361366c83613649565b809461364f565b91613654565b5f915b8383106136895750505050565b61369f6136996001928451610ab1565b92613657565b9201919061367c565b50600290565b90565b905090565b6136d26136cc6136c583613649565b80946136b1565b91613654565b5f915b8383106136e25750505050565b6136f86136f26001928451610ab1565b92613657565b920191906136d5565b9061370e816040936136b6565b0190565b60200190565b61373461372e613727836136a8565b80946128eb565b916136ae565b5f915b8383106137445750505050565b61375a6137546001928451613701565b92613712565b92019190613737565b61379a6137a194613790610100949897956137866101a086019a5f87019061365d565b6040850190613718565b60c083019061365d565b0190612985565b565b6040906137cc6137d394969593966137c260608401985f850190610c39565b6020830190610c39565b019061039e565b565b5f7f544f4e207472616e73666572206661696c656400000000000000000000000000910152565b6138096013602092610bea565b613812816137d5565b0190565b61382b9060208101905f8183039101526137fc565b90565b1561383557565b61383d610342565b62461bcd60e51b81528061385360048201613816565b0390fd5b634e487b7160e01b5f52601260045260245ffd5b61387761387d9161039b565b9161039b565b908115613888570490565b613857565b613898610100612230565b90565b9061395c60e06007613962946138be5f82016138b85f8801612a3e565b906123b9565b6138d7600182016138d160208801612a3e565b906123b9565b6138f0600282016138ea60408801612a3e565b906123b9565b6139096003820161390360608801612a3e565b906123b9565b6139226004820161391c60808801612a3e565b906123b9565b61393b6005820161393560a08801612a4b565b90612380565b6139546006820161394e60c08801612a3e565b906123b9565b019201612a4b565b90612380565b565b9061396e9161389b565b565b6040906139996139a0949695939661398f60608401985f85019061039e565b602083019061039e565b019061039e565b565b939092613a1a613a2393946139b56132c1565b506139fa336139f46139ee6139e97f000000000000000000000000000000000000000000000000000000000000000061134f565b610881565b91610881565b1461331e565b613a14613a0e613a0930613347565b610881565b91610881565b146133ac565b908101906134ee565b93989295949791969497989596909390613a47613a42600b889061170c565b613570565b94613a5d613a57600e880161065a565b15610536565b613f895742613a7f613a79613a7460058a01610639565b61039b565b9161039b565b11613f6d57613aa2613a9d613a96600d8a90611145565b8b906104db565b61065a565b613f5157613aaf8b6147c2565b613ac2613abc8a9261039b565b9161039b565b03613f3557602091613b02613ae88a613ae2670de0b6b3a7640000613576565b90613592565b95613afb613af58861039b565b9161039b565b1015613620565b613ba3613b0f600561287e565b613b1b8c5f8301612273565b613b278d868301612273565b613b348a60408301612273565b613b418b60608301612273565b613b59613b5060078b01610639565b60808301612273565b91613bae613b867f00000000000000000000000000000000000000000000000000000000000000006114e3565b936334baeab9929597613b97610342565b98899788968796612281565b865260048601613763565b03915afa8015613f3057613bca915f91613f02575b5015610536565b613ee6576020613bf97f000000000000000000000000000000000000000000000000000000000000000061134f565b6323b872dd90613c265f8693613c31613c118361187e565b97613c1a610342565b98899788968795612281565b8552600485016137a3565b03925af18015613ee157613c4c915f91613eb3575b5061382e565b613ca46020613c7a7f000000000000000000000000000000000000000000000000000000000000000061134f565b6370a0823190613c998592613c8d610342565b95869485938493612281565b8352600483016111f1565b03915afa908115613eae575f91613e80575b50908491670de0b6b3a7640000613ccc90613576565b613cd59161386b565b917f380f4b80ac5d183ff04f143a097611558815196006b7297cae774c0b5680a5ee91613d01906108f6565b92613d0a610342565b918291613d17918361242e565b0390a26001600d83613d2891611145565b85613d32916104db565b90613d3c91612380565b84838786425f915f93600195613d5061388d565b975f890190613d5e91612273565b6020880190613d6c91612273565b6040870190613d7a91612273565b6060860190613d8891612273565b6080850190613d9691612273565b60a0840190613da491612a1d565b613dad90611a94565b60c0830190613dbb91612273565b60e0820190613dc991612a1d565b600c83613dd5916105f4565b85613ddf9161060a565b90613de991613964565b80600c01613df681610639565b613dff90612412565b613e08916123b9565b8290600b0190613e1782610639565b90613e21916123ed565b613e2a916123b9565b9192937fbcf4fa36949e1955af2c6b6b628e50db0e23ec473b26480f3a584dd5a5d8953b92613e58906104bf565b93613e62906104bf565b94613e6b610342565b928392613e789284613970565b0390a3600190565b613ea1915060203d8111613ea7575b613e99818361181f565b810190612296565b5f613cb6565b503d613e8f565b612346565b613ed4915060203d8111613eda575b613ecc818361181f565b8101906128b5565b5f613c46565b503d613ec2565b612346565b5f6309bde33960e01b815280613efe60048201610462565b0390fd5b613f23915060203d8111613f29575b613f1b818361181f565b8101906128b5565b5f613bc3565b503d613f11565b612346565b5f6315252a2960e21b815280613f4d60048201610462565b0390fd5b5f636569570160e11b815280613f6960048201610462565b0390fd5b5f63abfb7dc360e01b815280613f8560048201610462565b0390fd5b5f63635e873760e01b815280613fa160048201610462565b0390fd5b613fbc613fc191613fb46132c1565b5060066104db565b61065a565b90565b613fcf6101c0612230565b90565b5f80fd5b67ffffffffffffffff8111613ff457613ff0602091610bfe565b0190565b61180b565b90825f939282370152565b9092919261401961401482613fd6565b612230565b938185526020850190828401116140355761403392613ff9565b565b613fd2565b614045913691614004565b90565b52565b9061405590610881565b9052565b5190565b601f602091010490565b6140799161407361284a565b91612ec5565b565b5f5b82811061408957505050565b806140985f6001938501614067565b0161407d565b9190601f81116140ae575b505050565b8181116140bb575b6140a9565b6140d06140ca6140ee94611769565b9161405d565b9160206140dc8261405d565b91106140f6575b80910191039061407b565b5f80806140b6565b505f6140e3565b9061410d905f199060080261035f565b191690565b8161411c916140fd565b906002021790565b9061412e81610be6565b9067ffffffffffffffff82116141ee576141528261414c8554611736565b8561409e565b602090601f831160011461418657918091614175935f9261417a575b5050614112565b90555b565b90915001515f8061416e565b601f1983169161419585611769565b925f5b8181106141d6575091600293918560019694106141bc575b50505002019055614178565b6141cc910151601f8416906140fd565b90555f80806141b0565b91936020600181928787015181550195019201614198565b61180b565b906141fd91614124565b565b6142099051610881565b90565b9061421d60018060a01b0391612356565b9181191691161790565b90565b9061423f61423a614246926108f6565b614227565b825461420c565b9055565b906143a76101a0600d6143ad9461426e5f82016142685f8801612a3e565b906123b9565b6142876001820161428160208801614059565b906141f3565b6142a06002820161429a60408801614059565b906141f3565b6142b9600382016142b3606088016141ff565b9061422a565b6142d2600482016142cc60808801612a3e565b906123b9565b6142eb600582016142e560a08801612a3e565b906123b9565b614304600682016142fe60c08801612a3e565b906123b9565b61431d6007820161431760e08801612a3e565b906123b9565b614337600882016143316101008801612a3e565b906123b9565b6143516009820161434b6101208801612a3e565b906123b9565b61436b600a82016143656101408801612a3e565b906123b9565b614385600b820161437f6101608801612a3e565b906123b9565b61439f600c82016143996101808801612a3e565b906123b9565b019201612a4b565b90612380565b565b906143b99161424a565b565b60016143c7910161039b565b90565b91906143e4816143dd816143e995610bea565b8095613ff9565b610bfe565b0190565b906144309461441f614414614429936060969a99979a60808701918783035f8901526143ca565b98602085019061039e565b604083019061039e565b019061039e565b565b919593929694909661444261284a565b5061446061445a614455600687906104db565b61065a565b15610536565b6146ce5761446e6001610639565b61447790612412565b6144829060016123b9565b61448c6001610639565b96879184908a92334242886144a0916123ed565b42896144ab916123ed565b8c6144b5916123ed565b918b935f955f975f995f9b6144c8613fc4565b9d5f8f01906144d691612273565b6144df9161403a565b60208d01906144ed91614048565b6144f69161403a565b60408b019061450491614048565b60608a01906145129161404b565b608089019061452091612273565b60a088019061452e91612273565b60c087019061453c91612273565b60e086019061454a91612273565b61455390611a94565b61010085019061456291612273565b61456b90611a94565b61012084019061457a91612273565b61458390611a94565b61014083019061459291612273565b61459b90611a94565b6101608201906145aa91612273565b6145b35f611a94565b6101808201906145c291612273565b6101a0810160016145d291612a1d565b6003876145de91611f2a565b906145e8916143af565b5f6145f290611a94565b5b8061460f61460961460460086109c8565b61039b565b9161039b565b1015614655576146509061464b61463061462b600a8b90610b65565b612e64565b61464561463f600885906109d5565b9061037e565b90612ee7565b6143bb565b6145f3565b5090919293956146c88693919261468233969761467d6146764285906123ed565b93426123ed565b6123ed565b906146b66146b07f16356ec948fe2183cece6a7b111beef5be873032e9698d3fbf0e0168d0fc91a8976104bf565b976108f6565b976146bf610342565b958695866143ed565b0390a390565b5f639dd854d360e01b8152806146e660048201610462565b0390fd5b90565b6147016146fc60123390610902565b6146ea565b906147176147116002840161065a565b15610536565b5f1461479e57614729815f84016123b9565b61473e6147355f611a94565b600184016123b9565b61474c600160028401612380565b5b61475a5f33929301610639565b6147847fc8bc4842cf61a3f6cbf597029d937fdf158ef4959a9616594587a0fb8c6b8711926108f6565b92614799614790610342565b9283928361242e565b0390a2565b6147bd816147b75f8501916147b283610639565b6123ed565b906123b9565b61474d565b6147d5906147ce61284a565b5080613592565b90565b6147ef6147f4916147e7613079565b50600b61170c565b613570565b614809614803600e830161065a565b15610536565b61487c574261482b61482561482060058501610639565b61039b565b9161039b565b111561486f5761484f6148496148446006429401610639565b61039b565b9161039b565b11156148625761485f600261307d565b90565b61486c6001613099565b90565b506148795f6130b5565b90565b5f63635e873760e01b81528061489460048201610462565b0390fd5b6148ac6148a7600983906104db565b61065a565b614920576148c660016148c1600984906104db565b612380565b6148da6148d36008612e64565b8290612ee7565b429061491b6149097f85238313f6b4aa1ea470340fc24bc06d68e734cd21411160c06714eb547571af926104bf565b92614912610342565b918291826103ab565b0390a2565b50565b61492b612fa7565b50614936601061304e565b90565b61494f600161494a600684906104db565b612380565b61496361495c6007612e64565b8290612ee7565b42906149a46149927fcb23ed79d0d407699762f186152925a6b8dd62fc4b2223f50a16534af8c883f8926104bf565b9261499b610342565b918291826103ab565b0390a2565b600190818003010490565b5f5b8281106149c257505050565b806149d15f6001938501614067565b016149b6565b91908082106149e6575b505050565b614a10926149ff6149f9614a07936149a9565b936149a9565b9182916109cc565b019103906149b4565b5f80806149e1565b90680100000000000000008111614a415781614a36614a3f936109c8565b908281556149d7565b565b61180b565b5f614a5091614a18565b565b905f03614a6457614a6290614a46565b565b612a2b565b91614a7e614a7960038590611f2a565b612227565b614a93614a8d600d830161065a565b15610536565b614b7d57614aa59060078491016123b9565b614aba5f614ab5600a8690610b65565b614a52565b614ac35f611a94565b5b80614ae0614ada614ad560086109c8565b61039b565b9161039b565b1015614b2657614b2190614b1c614b01614afc600a8890610b65565b612e64565b614b16614b10600885906109d5565b9061037e565b90612ee7565b6143bb565b614ac4565b509150614b46614b40614b3b600684906104db565b61065a565b15610536565b614b4e575b50565b614b7790614b686001614b63600684906104db565b612380565b614b726007612e64565b612ee7565b5f614b4b565b5f63635e873760e01b815280614b9560048201610462565b0390fd5b6020614bf891614ba761284a565b50614bd17f000000000000000000000000000000000000000000000000000000000000000061134f565b614bed6370a08231614be1610342565b95869485938493612281565b8352600483016111f1565b03915afa8015614c5657614c25915f91614c28575b50614c1f670de0b6b3a7640000613576565b9061386b565b90565b614c49915060203d8111614c4f575b614c41818361181f565b810190612296565b5f614c0d565b503d614c37565b612346565b614c6a614c709193929361039b565b9261039b565b8203918211614c7b57565b6123d9565b9293949690959196614c9c614c97600b869061170c565b613570565b92614cb2614cac600e860161065a565b15610536565b6151fe5742614cd4614cce614cc960058801610639565b61039b565b9161039b565b116151e257614cf7614cf2614ceb600d8890611145565b89906104db565b61065a565b6151c657614d04896147c2565b614d17614d11889261039b565b9161039b565b036151aa57602091614dc0614d2c600561287e565b614d388a5f8301612273565b614d448b868301612273565b614d518860408301612273565b614d5e8960608301612273565b614d76614d6d60078901610639565b60808301612273565b91614dcb614da37f00000000000000000000000000000000000000000000000000000000000000006114e3565b936334baeab9929597614db4610342565b98899788968796612281565b8652600486016129d0565b03915afa80156151a557614de7915f91615177575b5015610536565b61515b57614e0683614e00670de0b6b3a7640000613576565b90613592565b614e5e6020614e347f000000000000000000000000000000000000000000000000000000000000000061134f565b6370a0823190614e533392614e47610342565b95869485938493612281565b8352600483016111f1565b03915afa908115615156575f91615128575b509081614e85614e7f8361039b565b9161039b565b1061510c576020614eb57f000000000000000000000000000000000000000000000000000000000000000061134f565b6323b872dd90614ee25f3393614eed614ecd8361187e565b97614ed6610342565b98899788968795612281565b8552600485016137a3565b03925af1908115615107575f916150d9575b50614f099061382e565b338491670de0b6b3a7640000614f1e90613576565b614f279161386b565b85614f3191614c5b565b917f380f4b80ac5d183ff04f143a097611558815196006b7297cae774c0b5680a5ee91614f5d906108f6565b92614f66610342565b918291614f73918361242e565b0390a26001600d83614f8491611145565b85614f8e916104db565b90614f9891612380565b84838786425f915f93600195614fac61388d565b975f890190614fba91612273565b6020880190614fc891612273565b6040870190614fd691612273565b6060860190614fe491612273565b6080850190614ff291612273565b60a084019061500091612a1d565b61500990611a94565b60c083019061501791612273565b60e082019061502591612a1d565b600c83615031916105f4565b8561503b9161060a565b9061504591613964565b80600c0161505281610639565b61505b90612412565b615064916123b9565b8290600b019061507382610639565b9061507d916123ed565b615086916123b9565b9192937fbcf4fa36949e1955af2c6b6b628e50db0e23ec473b26480f3a584dd5a5d8953b926150b4906104bf565b936150be906104bf565b946150c7610342565b9283926150d49284613970565b0390a3565b6150fa915060203d8111615100575b6150f2818361181f565b8101906128b5565b5f614eff565b503d6150e8565b612346565b5f6343fb945360e01b81528061512460048201610462565b0390fd5b615149915060203d811161514f575b615141818361181f565b810190612296565b5f614e70565b503d615137565b612346565b5f6309bde33960e01b81528061517360048201610462565b0390fd5b615198915060203d811161519e575b615190818361181f565b8101906128b5565b5f614de0565b503d615186565b612346565b5f6315252a2960e21b8152806151c260048201610462565b0390fd5b5f636569570160e11b8152806151de60048201610462565b0390fd5b5f63abfb7dc360e01b8152806151fa60048201610462565b0390fd5b5f63635e873760e01b81528061521660048201610462565b0390fd5b615230600161522b600e84906104db565b612380565b61524461523d600f612e64565b8290612ee7565b42906152856152737fc437041eca78e842ff32dc1036255a23da98c52b2f3bd3a875923aadb0276b3d926104bf565b9261527c610342565b918291826103ab565b0390a2565b61531661531b9161529961284a565b506152a2613070565b506152ab613070565b506152b4613075565b506152bd61284a565b506152c661284a565b506152cf61284a565b506152d861284a565b506152e161284a565b506152ea61284a565b506152f361284a565b506152fc61284a565b5061530561284a565b5061530e613079565b50600b61170c565b613570565b9061533161532b600e840161065a565b15610536565b61546e5761533d613079565b504261535c61535661535160058601610639565b61039b565b9161039b565b11155f146154275761536d5f6130b5565b915b61537a5f8201610639565b92600182019360028301936153916003850161187e565b9361539e60078201610639565b936153ab60058301610639565b936153b860068401610639565b936153c560088501610639565b936153d260098201610639565b936153df600a8301610639565b936153ec600b8401610639565b9361541961541361540b600d615404600c8901610639565b9701610639565b94939f6130d1565b9d6130d1565b9b9a99989796959493929190565b4261544561543f61543a60068601610639565b61039b565b9161039b565b11155f1461545e576154576001613099565b915b61536f565b615468600261307d565b91615459565b5f63635e873760e01b81528061548660048201610462565b0390fd5b90565b93909192936154a66154a1600b839061170c565b613570565b6154c46154bf6154b8600c85906105f4565b869061060a565b61548a565b926154da6154d4600e840161065a565b15610536565b61593057426154fc6154f66154f160058601610639565b61039b565b9161039b565b1115615914574261552061551a61551560068601610639565b61039b565b9161039b565b116158f85761553a6155346007860161065a565b15610536565b6158dc5761554a6005850161065a565b6158c0578561556861556261555d611e6c565b61039b565b9161039b565b116158a4576155ff602061558f73__$0daf1669a85ce10529e05b8a030b9567e1$__61222d565b638709cd8c906155f46155a2600461225f565b926155af8c5f8601612273565b6155bb8d868601612273565b6155d36155ca60018c01610639565b60408601612273565b6155e08960608601612273565b6155e8610342565b95869485938493612281565b835260048301612331565b03915af491821561589f576156ab926020925f91615872575b50906156a061563a73__$0daf1669a85ce10529e05b8a030b9567e1$__61222d565b91615662638709cd8c9161565a615651600461225f565b965f8801612273565b868601612273565b61567761566e5f611a94565b60408601612273565b61568c6156835f611a94565b60608601612273565b615694610342565b95869485938493612281565b835260048301612331565b03915af490811561586d575f9161583f575b506156da6156d46156cf5f8701610639565b61039b565b9161039b565b03615823576157699161575f600d6001936156f88560058901612380565b61570589600689016123b9565b8861571f615719615714611472565b61039b565b9161039b565b145f146157b7576157468a615740600884019161573b83610639565b6123ed565b906123b9565b5b0161575961575482610639565b612412565b906123b9565b9394959201610639565b936157b26157a061579a7f3c283986862ad16cc4d3240256474e99bfc9df697a62f7351373cbdefb3d14f8956104bf565b956104bf565b956157a9610342565b93849384613970565b0390a3565b886157d16157cb6157c6611ab0565b61039b565b9161039b565b145f146157fe576157f88a6157f260098401916157ed83610639565b6123ed565b906123b9565b5b615747565b61581e8a615818600a84019161581383610639565b6123ed565b906123b9565b6157f9565b5f639ea6d12760e01b81528061583b60048201610462565b0390fd5b615860915060203d8111615866575b615858818361181f565b810190612296565b5f6156bd565b503d61584e565b612346565b6158929150833d8111615898575b61588a818361181f565b810190612296565b5f615618565b503d615880565b612346565b5f639c45400160e01b8152806158bc60048201610462565b0390fd5b5f63a89ac15160e01b8152806158d860048201610462565b0390fd5b5f635b34156960e11b8152806158f460048201610462565b0390fd5b5f6374683d7160e01b81528061591060048201610462565b0390fd5b5f6374683d7160e01b81528061592c60048201610462565b0390fd5b5f63635e873760e01b81528061594860048201610462565b0390fd5b6159576101e0612230565b90565b90615ad16101c0600e615ad79461597e5f82016159785f8801612a3e565b906123b9565b6159976001820161599160208801614059565b906141f3565b6159b0600282016159aa60408801614059565b906141f3565b6159c9600382016159c3606088016141ff565b9061422a565b6159e2600482016159dc60808801612a3e565b906123b9565b6159fb600582016159f560a08801612a3e565b906123b9565b615a1460068201615a0e60c08801612a3e565b906123b9565b615a2d60078201615a2760e08801612a3e565b906123b9565b615a4760088201615a416101008801612a3e565b906123b9565b615a6160098201615a5b6101208801612a3e565b906123b9565b615a7b600a8201615a756101408801612a3e565b906123b9565b615a95600b8201615a8f6101608801612a3e565b906123b9565b615aaf600c8201615aa96101808801612a3e565b906123b9565b615ac9600d8201615ac36101a08801612a3e565b906123b9565b019201612a4b565b90612380565b565b90615ae39161595a565b565b92959195615af161284a565b50615b0f615b09615b04600e88906104db565b61065a565b15610536565b615d1f57615b1d6002610639565b615b2690612412565b615b319060026123b9565b615b3b6002610639565b96879185908492428a615b4d916123ed565b91428b615b59916123ed565b88615b63916123ed565b938a95615b6e61594c565b975f890190615b7c91612273565b615b859161403a565b6020870190615b9391614048565b615b9c9161403a565b6040850190615baa91614048565b336060850190615bb99161404b565b426080850190615bc891612273565b60a0840190615bd691612273565b60c0830190615be491612273565b60e0820190615bf291612273565b615bfb5f611a94565b610100820190615c0a91612273565b615c135f611a94565b610120820190615c2291612273565b615c2b5f611a94565b610140820190615c3a91612273565b615c435f611a94565b610160820190615c5291612273565b615c5b5f611a94565b610180820190615c6a91612273565b615c735f611a94565b6101a0820190615c8291612273565b6101c081016001615c9291612a1d565b600b87615c9e9161170c565b90615ca891615ad9565b85923394924287615cb8916123ed565b964290615cc4916123ed565b90615cce916123ed565b7f4742ce2d5f823dbde60d41925bff9b938299879eba7f67fa0029c8633d92b65494615cf9906104bf565b95615d03906108f6565b96615d0c610342565b948594615d1994866143ed565b0390a390565b5f633398105560e01b815280615d3760048201610462565b0390fd5b615d52615d5791615d4a6132c1565b50600e6104db565b61065a565b90565b615d646060612230565b90565b90615dab60406002615db194615d8a5f8201615d845f8801612a3e565b906123b9565b615da360018201615d9d60208801612a3e565b906123b9565b019201612a4b565b90612380565b565b90615dbd91615d67565b565b615ddf615dd96002615dd360123390610902565b0161065a565b15610536565b615de6575b565b615e3a615df161125a565b615e295f615e20615e17600192615e12615e09615d5a565b965f8801612273565b611a94565b60208501612273565b60408301612a1d565b615e3560123390610902565b615db3565b33615e4361125a565b90615e83615e717f840108f8f5f45d25a166719fa7440c37016845a955726b639e64fb325f731007926108f6565b92615e7a610342565b918291826103ab565b0390a2615de456fea26469706673582212209280479a8f3145aeac219856d303ce243da0bee6ea859b570ad4fff7418c235164736f6c63430008210033","linkReferences":{"contracts/PoseidonT5.sol":{"PoseidonT5":[{"start":10192,"length":20},{"start":22536,"length":20},{"start":22707,"length":20}]}}},"methodIdentifiers":{"CHOICE_ABSTAIN()":"d90292a3","CHOICE_AGAINST()":"b5770c33","CHOICE_FOR()":"8ea7a274","INITIAL_CREDITS()":"697aa8e8","calculateQuadraticCost(uint256)":"74dd0fea","castVoteD1(uint256,uint256,uint256,uint256,uint256[2],uint256[2][2],uint256[2])":"18dbeb4c","castVoteD2(uint256,uint256,uint256,uint256,uint256,uint256[2],uint256[2][2],uint256[2])":"badbc2ed","commitmentsD1(uint256,uint256)":"4275e031","commitmentsD2(uint256,uint256)":"13703e66","createProposalD1(string,string,uint256,uint256,uint256)":"4d09b49f","createProposalD2(string,string,uint256,uint256,uint256)":"db5bd601","creditRootHistory(uint256)":"a329b313","getAvailableCredits(address)":"b065a8e5","getPhaseD2(uint256)":"850099cd","getProposalD1(uint256)":"315401c0","getProposalD2(uint256)":"d54bb70b","getRegisteredCreditNotes()":"a1c7574a","getRegisteredVoters()":"2bc4a6e7","getVoterCount()":"11174a29","initializeCredits()":"fb9607d3","isCreditNoteRegistered(uint256)":"0d70ece8","isCreditRootValid(uint256)":"ef3a2b39","isMerkleRootValid(uint256)":"4a9284fb","isVoterRegistered(uint256)":"6d3cba61","merkleRootHistory(uint256)":"b5ad9215","mintTestTokens(uint256)":"52a48c56","nullifierUsedD1(uint256,uint256)":"5938862f","nullifierUsedD2(uint256,uint256)":"833722c5","onApprove(address,address,uint256,bytes)":"4273ca16","proposalCountD1()":"f9058741","proposalCountD2()":"03a229f7","proposalVoterSnapshots(uint256,uint256)":"2c5317c0","proposalsD1(uint256)":"f025d082","proposalsD2(uint256)":"b4e0d6af","registerCreditNote(uint256)":"2bbe44fd","registerCreditRoot(uint256)":"d5444336","registerMerkleRoot(uint256)":"a4cae8f8","registerVoter(uint256)":"a13f2f8d","registeredCreditNotes(uint256)":"974f7aa3","registeredVoters(uint256)":"2436e06b","revealVoteD1(uint256,uint256,uint256,uint256)":"0572c801","revealVoteD2(uint256,uint256,uint256,uint256,uint256)":"d55d533e","tonToken()":"781a4852","treasury()":"61d027b3","updateProposalVoters(uint256,uint256)":"aa609848","userCredits(address)":"20babb92","validCreditRoots(uint256)":"417e70c8","validMerkleRoots(uint256)":"cb1bb033","verifierD1()":"f58789ae","verifierD2()":"94ffe6a0"},"id":3}