{
  "_format": "hh-sol-artifact-1",
  "contractName": "Groth16Verifier",
  "sourceName": "contracts/Groth16Verifier.sol",
  "abi": [
    {
      "inputs": [
        {
          "internalType": "uint256[2]",
          "name": "_pA",
          "type": "uint256[2]"
        },
        {
          "internalType": "uint256[2][2]",
          "name": "_pB",
          "type": "uint256[2][2]"
        },
        {
          "internalType": "uint256[2]",
          "name": "_pC",
          "type": "uint256[2]"
        },
        {
          "internalType": "uint256[5]",
          "name": "_pubSignals",
          "type": "uint256[5]"
        }
      ],
      "name": "verifyProof",
      "outputs": [
        {
          "internalType": "bool",
          "name": "",
          "type": "bool"
        }
      ],
      "stateMutability": "view",
      "type": "function"
    }
  ],
  "bytecode": "0x60808060405234610016576106e8908161001c8239f35b600080fdfe6080604052600436101561001257600080fd5b6000803560e01c6334baeab91461002857600080fd5b346103aa576101a090816003193601126103aa57610045366103ad565b913660c4116103a657610057366103bf565b366101a4116103a257602093849161040060405261011e6101043561007b816103cd565b6101196101243561008b816103cd565b6101146101443561009b816103cd565b61010f61016435936100ac856103cd565b61010a61018435976100bd896103cd565b7f282c3077a1f5b3f1ada651cd0ea7ee8037230848aba1fef72fc9afa3dff3a5f06080527f0cfd8639e44d6dcbf2cacb67433e08232ce9bc73fb40a24c269805fe96039d1160a052610400565b61048a565b610514565b61059e565b610628565b61010093828593358452847f30644e72e131a029b85045b68181585d97816a916871ca8d3c208c16d87cfd479101358103066101205260443561014052606435610160526084356101805260a43590527f2d4d9aa7e302d9df41749d5507949d05dbea33fbb16c643b22f599a2be6df2e26101c0527f14bedd503c37ceb061d8ec60209fe345ce89830a19230301f076caff004d19266101e0527f0967032fcbf776d1afc985f88877f182d38480a653f2decaa9794cbc3bf3060c610200527f0e187847ad4c798374d0d6732bf501847dd68bc0e071241e0213bc7fc13db7ab610220527f304cfbd1e08a704a99f5e847d93f8c3caafddec46b7a0d379da69a4d112346a7610240527f1739c1b1a457a8c7313123d24d2f9192f896b7c63eea05a9d57f06547ad0cec8610260526080516102805260a0516102a0527f198e9393920d483a7260bfb731fb5d25f1aa493335a9e71297e485b7aef312c26102c0527f1800deef121f1e76426a00665e5c4479674322d4f75edadd46debd5cd992f6ed6102e05282610300917f090689d0585ff075ec9e99ad690c3395bc4b313370b38ef355acdadcd122975b83527f12c85ea5db8c6deb4aab71808dcb408fe3d1e7690c43d37b4ce6cc0166fa7daa610320528035610340520135610360527f2abdf33363a050299514463179fcdf0b5132f2d8bdf9408b9d360df804d2bc53610380527f183a4e5277524e95534b993c4a5b11fc0dc4b21becde66f40c2842bedc67d8556103a0527f1de1ab6200a70dd233d5c2ce6c319546dcda2e0db8c611fe74003c20f9ec75d26103c0527f07c8b328bebe338a3f93540e3f07df5ecd3c4818fa7188074ef7f73dc14b537b6103e0528160086107cf195a01fa9051168152f35b8280fd5b5080fd5b80fd5b906004916044116103ba57565b600080fd5b9060c491610104116103ba57565b7f30644e72e131a029b85045b68181585d2833e84879b9709143e1f593f000000111156103f657565b6000805260206000f35b604051907f0529d022b28787b1b41c78150e915e0ac118a86ca388c13af4dda6642ea386ed82527f20bf940fa2b51b53bdd9139d715d63671a072b0dfd7e09116e7df0acf7133daa6020830152604082019081526107cf196040836060816007855a01fa156103f65760409260066080939284938451905260a05160608401525a01fa156103f657565b604051907f15028b1e5937eecdc9ec5909c774f33866a8259907519a2337158a6bab02b5b582527f1fab2b967f590a4652fcf1cb6ec7d2090d289d4b65280fa2d0e4cfa9f924b5ef6020830152604082019081526107cf196040836060816007855a01fa156103f65760409260066080939284938451905260a05160608401525a01fa156103f657565b604051907f25e17f2f1e149466321916bbe0df6ab514a88531101d7ef3a2d760b834d66cbc82527f160f3bbf0f62f2f6fd15874c90835fede2980abad163df5e2c5a6a59e6bb800e6020830152604082019081526107cf196040836060816007855a01fa156103f65760409260066080939284938451905260a05160608401525a01fa156103f657565b604051907f124e6eff0c8efc4c48bf48cb8ee57f4d7d81eab1630359aed6a594a9880a8d1282527f202e849bb9ab3ba7c60db74c400a23934a07ef4a8a199fd63dedc4e793bb765a6020830152604082019081526107cf196040836060816007855a01fa156103f65760409260066080939284938451905260a05160608401525a01fa156103f657565b604051907f1f753ba401e84c8d4336582e931111356ebd68912e1d3790d223eedfce70b58a82527f05943179a01012cffeb816fb6f31e1c750115cfc19dde5a2288a4273a137b6f06020830152604082019081526107cf196040836060816007855a01fa156103f65760409260066080939284938451905260a05160608401525a01fa156103f65756fea2646970667358221220031f3088a1b6522ee738c7b15b94b2824a4212ea9f9b36590fa74e2c698f8e0264736f6c63430008180033",
  "linkReferences": {},
  "deployedLinkReferences": {}
}