{"abi":[{"type":"constructor","inputs":[{"name":"_verifier","type":"address","internalType":"address"}],"stateMutability":"nonpayable"},{"type":"function","name":"CHOICE_ABSTAIN","inputs":[],"outputs":[{"name":"","type":"uint256","internalType":"uint256"}],"stateMutability":"view"},{"type":"function","name":"CHOICE_AGAINST","inputs":[],"outputs":[{"name":"","type":"uint256","internalType":"uint256"}],"stateMutability":"view"},{"type":"function","name":"CHOICE_FOR","inputs":[],"outputs":[{"name":"","type":"uint256","internalType":"uint256"}],"stateMutability":"view"},{"type":"function","name":"commitVote","inputs":[{"name":"_proposalId","type":"uint256","internalType":"uint256"},{"name":"_commitment","type":"uint256","internalType":"uint256"},{"name":"_votingPower","type":"uint256","internalType":"uint256"},{"name":"_nullifier","type":"uint256","internalType":"uint256"},{"name":"_pA","type":"uint256[2]","internalType":"uint256[2]"},{"name":"_pB","type":"uint256[2][2]","internalType":"uint256[2][2]"},{"name":"_pC","type":"uint256[2]","internalType":"uint256[2]"}],"outputs":[],"stateMutability":"nonpayable"},{"type":"function","name":"commitments","inputs":[{"name":"","type":"uint256","internalType":"uint256"},{"name":"","type":"uint256","internalType":"uint256"}],"outputs":[{"name":"commitment","type":"uint256","internalType":"uint256"},{"name":"votingPower","type":"uint256","internalType":"uint256"},{"name":"nullifier","type":"uint256","internalType":"uint256"},{"name":"timestamp","type":"uint256","internalType":"uint256"},{"name":"revealed","type":"bool","internalType":"bool"},{"name":"revealedChoice","type":"uint256","internalType":"uint256"},{"name":"exists","type":"bool","internalType":"bool"}],"stateMutability":"view"},{"type":"function","name":"createProposal","inputs":[{"name":"_title","type":"string","internalType":"string"},{"name":"_description","type":"string","internalType":"string"},{"name":"_merkleRoot","type":"uint256","internalType":"uint256"},{"name":"_votingDuration","type":"uint256","internalType":"uint256"},{"name":"_revealDuration","type":"uint256","internalType":"uint256"}],"outputs":[{"name":"","type":"uint256","internalType":"uint256"}],"stateMutability":"nonpayable"},{"type":"function","name":"deleteProposal","inputs":[{"name":"_proposalId","type":"uint256","internalType":"uint256"}],"outputs":[],"stateMutability":"nonpayable"},{"type":"function","name":"getCommitment","inputs":[{"name":"_proposalId","type":"uint256","internalType":"uint256"},{"name":"_nullifier","type":"uint256","internalType":"uint256"}],"outputs":[{"name":"commitment","type":"uint256","internalType":"uint256"},{"name":"votingPower","type":"uint256","internalType":"uint256"},{"name":"revealed","type":"bool","internalType":"bool"},{"name":"revealedChoice","type":"uint256","internalType":"uint256"}],"stateMutability":"view"},{"type":"function","name":"getMerkleRoots","inputs":[],"outputs":[{"name":"","type":"uint256[]","internalType":"uint256[]"}],"stateMutability":"view"},{"type":"function","name":"getPhase","inputs":[{"name":"_proposalId","type":"uint256","internalType":"uint256"}],"outputs":[{"name":"","type":"uint8","internalType":"uint8"}],"stateMutability":"view"},{"type":"function","name":"getProposal","inputs":[{"name":"_proposalId","type":"uint256","internalType":"uint256"}],"outputs":[{"name":"id","type":"uint256","internalType":"uint256"},{"name":"title","type":"string","internalType":"string"},{"name":"description","type":"string","internalType":"string"},{"name":"proposer","type":"address","internalType":"address"},{"name":"merkleRoot","type":"uint256","internalType":"uint256"},{"name":"endTime","type":"uint256","internalType":"uint256"},{"name":"revealEndTime","type":"uint256","internalType":"uint256"},{"name":"forVotes","type":"uint256","internalType":"uint256"},{"name":"againstVotes","type":"uint256","internalType":"uint256"},{"name":"abstainVotes","type":"uint256","internalType":"uint256"},{"name":"totalCommitments","type":"uint256","internalType":"uint256"},{"name":"revealedVotes","type":"uint256","internalType":"uint256"},{"name":"phase","type":"uint8","internalType":"uint8"}],"stateMutability":"view"},{"type":"function","name":"isMerkleRootValid","inputs":[{"name":"_merkleRoot","type":"uint256","internalType":"uint256"}],"outputs":[{"name":"","type":"bool","internalType":"bool"}],"stateMutability":"view"},{"type":"function","name":"isNullifierUsed","inputs":[{"name":"_proposalId","type":"uint256","internalType":"uint256"},{"name":"_nullifier","type":"uint256","internalType":"uint256"}],"outputs":[{"name":"","type":"bool","internalType":"bool"}],"stateMutability":"view"},{"type":"function","name":"merkleRootHistory","inputs":[{"name":"","type":"uint256","internalType":"uint256"}],"outputs":[{"name":"","type":"uint256","internalType":"uint256"}],"stateMutability":"view"},{"type":"function","name":"nullifierUsed","inputs":[{"name":"","type":"uint256","internalType":"uint256"},{"name":"","type":"uint256","internalType":"uint256"}],"outputs":[{"name":"","type":"bool","internalType":"bool"}],"stateMutability":"view"},{"type":"function","name":"proposalCount","inputs":[],"outputs":[{"name":"","type":"uint256","internalType":"uint256"}],"stateMutability":"view"},{"type":"function","name":"proposals","inputs":[{"name":"","type":"uint256","internalType":"uint256"}],"outputs":[{"name":"id","type":"uint256","internalType":"uint256"},{"name":"title","type":"string","internalType":"string"},{"name":"description","type":"string","internalType":"string"},{"name":"proposer","type":"address","internalType":"address"},{"name":"startTime","type":"uint256","internalType":"uint256"},{"name":"endTime","type":"uint256","internalType":"uint256"},{"name":"revealEndTime","type":"uint256","internalType":"uint256"},{"name":"merkleRoot","type":"uint256","internalType":"uint256"},{"name":"forVotes","type":"uint256","internalType":"uint256"},{"name":"againstVotes","type":"uint256","internalType":"uint256"},{"name":"abstainVotes","type":"uint256","internalType":"uint256"},{"name":"totalCommitments","type":"uint256","internalType":"uint256"},{"name":"revealedVotes","type":"uint256","internalType":"uint256"},{"name":"exists","type":"bool","internalType":"bool"}],"stateMutability":"view"},{"type":"function","name":"registerMerkleRoot","inputs":[{"name":"_merkleRoot","type":"uint256","internalType":"uint256"}],"outputs":[],"stateMutability":"nonpayable"},{"type":"function","name":"revealVote","inputs":[{"name":"_proposalId","type":"uint256","internalType":"uint256"},{"name":"_nullifier","type":"uint256","internalType":"uint256"},{"name":"_choice","type":"uint256","internalType":"uint256"},{"name":"_voteSalt","type":"uint256","internalType":"uint256"}],"outputs":[],"stateMutability":"nonpayable"},{"type":"function","name":"validMerkleRoots","inputs":[{"name":"","type":"uint256","internalType":"uint256"}],"outputs":[{"name":"","type":"bool","internalType":"bool"}],"stateMutability":"view"},{"type":"function","name":"verifier","inputs":[],"outputs":[{"name":"","type":"address","internalType":"contract IVerifier"}],"stateMutability":"view"},{"type":"event","name":"MerkleRootRegistered","inputs":[{"name":"merkleRoot","type":"uint256","indexed":true,"internalType":"uint256"},{"name":"timestamp","type":"uint256","indexed":false,"internalType":"uint256"}],"anonymous":false},{"type":"event","name":"ProposalCreated","inputs":[{"name":"proposalId","type":"uint256","indexed":true,"internalType":"uint256"},{"name":"title","type":"string","indexed":false,"internalType":"string"},{"name":"proposer","type":"address","indexed":true,"internalType":"address"},{"name":"merkleRoot","type":"uint256","indexed":false,"internalType":"uint256"},{"name":"endTime","type":"uint256","indexed":false,"internalType":"uint256"},{"name":"revealEndTime","type":"uint256","indexed":false,"internalType":"uint256"}],"anonymous":false},{"type":"event","name":"VoteCommitted","inputs":[{"name":"proposalId","type":"uint256","indexed":true,"internalType":"uint256"},{"name":"nullifier","type":"uint256","indexed":true,"internalType":"uint256"},{"name":"commitment","type":"uint256","indexed":false,"internalType":"uint256"},{"name":"votingPower","type":"uint256","indexed":false,"internalType":"uint256"}],"anonymous":false},{"type":"event","name":"VoteRevealed","inputs":[{"name":"proposalId","type":"uint256","indexed":true,"internalType":"uint256"},{"name":"nullifier","type":"uint256","indexed":true,"internalType":"uint256"},{"name":"choice","type":"uint256","indexed":false,"internalType":"uint256"},{"name":"votingPower","type":"uint256","indexed":false,"internalType":"uint256"}],"anonymous":false},{"type":"error","name":"AlreadyRevealed","inputs":[]},{"type":"error","name":"CommitmentNotFound","inputs":[]},{"type":"error","name":"InvalidChoice","inputs":[]},{"type":"error","name":"InvalidMerkleRoot","inputs":[]},{"type":"error","name":"InvalidProof","inputs":[]},{"type":"error","name":"InvalidReveal","inputs":[]},{"type":"error","name":"NotInCommitPhase","inputs":[]},{"type":"error","name":"NotInRevealPhase","inputs":[]},{"type":"error","name":"NotProposer","inputs":[]},{"type":"error","name":"NullifierAlreadyUsed","inputs":[]},{"type":"error","name":"ProposalHasVotes","inputs":[]},{"type":"error","name":"ProposalNotFound","inputs":[]},{"type":"error","name":"ZeroVotingPower","inputs":[]}],"bytecode":{"object":"0x60a06040523461003f57610019610014610104565b61015c565b610021610044565b612e0c61016b82396080518181816106aa0152611eed0152612e0c90f35b61004a565b60405190565b5f80fd5b601f801991011690565b634e487b7160e01b5f52604160045260245ffd5b906100769061004e565b810190811060018060401b0382111761008e57604052565b610058565b906100a661009f610044565b928361006c565b565b5f80fd5b60018060a01b031690565b6100c0906100ac565b90565b6100cc816100b7565b036100d357565b5f80fd5b905051906100e4826100c3565b565b906020828203126100ff576100fc915f016100d7565b90565b6100a8565b610122612f778038038061011781610093565b9283398101906100e6565b90565b90565b61013c610137610141926100ac565b610125565b6100ac565b90565b61014d90610128565b90565b61015990610144565b90565b61016590610150565b60805256fe60806040526004361015610013575b6111d6565b61001d5f3561016c565b8063013cf08b1461016757806316ef376b146101625780632b7ac3f31461015d57806333423c06146101585780634a9284fb1461015357806351fce2e61461014e5780637164f0d6146101495780638259d5531461014457806385135a1a1461013f57806385c742961461013a5780638ea7a27414610135578063a4cae8f814610130578063b30c510b1461012b578063b5770c3314610126578063b5ad921514610121578063c7f758a81461011c578063cb1bb03314610117578063d13e2e6014610112578063d90292a31461010d578063da35c664146101085763e78ffc960361000e576111a0565b611134565b6110f1565b61107d565b610f45565b610eab565b610daa565b610cd6565b610c69565b610bf0565b610bbb565b610b4e565b610b19565b610a47565b610a0d565b610968565b610892565b610841565b610722565b610664565b6105f4565b60e01c90565b60405190565b5f80fd5b5f80fd5b5f80fd5b90565b61019081610184565b0361019757565b5f80fd5b905035906101a882610187565b565b906020828203126101c3576101c0915f0161019b565b90565b61017c565b90565b6101df6101da6101e492610184565b6101c8565b610184565b90565b906101f1906101cb565b5f5260205260405f2090565b5f1c90565b90565b610211610216916101fd565b610202565b90565b6102239054610205565b90565b634e487b7160e01b5f52602260045260245ffd5b906001600283049216801561025a575b602083101461025557565b610226565b91607f169161024a565b60209181520190565b5f5260205f2090565b905f92918054906102906102898361023a565b8094610264565b916001811690815f146102e757506001146102ab575b505050565b6102b8919293945061026d565b915f925b8184106102cf57505001905f80806102a6565b600181602092959395548486015201910192906102bc565b92949550505060ff19168252151560200201905f80806102a6565b9061030c91610276565b90565b601f801991011690565b634e487b7160e01b5f52604160045260245ffd5b906103379061030f565b810190811067ffffffffffffffff82111761035157604052565b610319565b9061037661036f92610366610172565b93848092610302565b038361032d565b565b60018060a01b031690565b61038f610394916101fd565b610378565b90565b6103a19054610383565b90565b60ff1690565b6103b66103bb916101fd565b6103a4565b90565b6103c890546103aa565b90565b6103d69060016101e7565b906103e25f8301610219565b916103ef60018201610356565b916103fc60028301610356565b9161040960038201610397565b9161041660048301610219565b9161042360058201610219565b9161043060068301610219565b9161043d60078201610219565b9161044a60088301610219565b9161045760098201610219565b91610464600a8301610219565b91610471600b8201610219565b9161048a600d610483600c8501610219565b93016103be565b90565b61049690610184565b9052565b5190565b60209181520190565b90825f9392825e0152565b6104d16104da6020936104df936104c88161049a565b9384809361049e565b958691016104a7565b61030f565b0190565b60018060a01b031690565b6104f7906104e3565b90565b610503906104ee565b9052565b151590565b61051590610507565b9052565b809c9a9896949f9e9d9b9997959392916101c08201915f0161053a9161048d565b8c808203906020015261054c916104b2565b8b810360408d015261055d916104b2565b9c60608b0161056b916104fa565b60808a016105789161048d565b60a089016105859161048d565b60c088016105929161048d565b60e0870161059f9161048d565b61010086016105ad9161048d565b61012085016105bb9161048d565b61014084016105c99161048d565b61016083016105d79161048d565b61018082016105e59161048d565b6101a0016105f29161050c565b565b346106375761063361060f61060a3660046101aa565b6103cb565b9a61062a9e9c9e9a919a999299989398979497969596610172565b9e8f9e8f610519565b0390f35b610178565b60ff1690565b61064b9061063c565b9052565b9190610662905f60208501940190610642565b565b346106945761069061067f61067a3660046101aa565b611235565b610687610172565b9182918261064f565b0390f35b610178565b5f9103126106a357565b61017c565b7f000000000000000000000000000000000000000000000000000000000000000090565b6106e06106db6106e5926104e3565b6101c8565b6104e3565b90565b6106f1906106cc565b90565b6106fd906106e8565b90565b610709906106f4565b9052565b9190610720905f60208501940190610700565b565b3461075257610732366004610699565b61074e61073d6106a8565b610745610172565b9182918261070d565b0390f35b610178565b5f80fd5b5f80fd5b5f80fd5b909182601f8301121561079d5781359167ffffffffffffffff831161079857602001926001830284011161079357565b61075f565b61075b565b610757565b909160a082840312610827575f82013567ffffffffffffffff811161082257836107cd918401610763565b929093602082013567ffffffffffffffff811161081d57816107f0918401610763565b92909361081a610803846040850161019b565b93610811816060860161019b565b9360800161019b565b90565b610180565b610180565b61017c565b919061083f905f6020850194019061048d565b565b34610878576108746108636108573660046107a2565b959490949391936118e5565b61086b610172565b9182918261082c565b0390f35b610178565b9190610890905f6020850194019061050c565b565b346108c2576108be6108ad6108a83660046101aa565b611b2b565b6108b5610172565b9182918261087d565b0390f35b610178565b919060206002028301116108d757565b61075f565b919060406002028301116108ec57565b61075f565b6101808183031261095e57610908825f830161019b565b92610916836020840161019b565b92610924816040850161019b565b92610932826060830161019b565b9261095b61094384608085016108c7565b936109518160c086016108dc565b93610140016108c7565b90565b61017c565b5f0190565b3461099d5761098761097b3660046108f1565b95949094939193611df8565b61098f610172565b8061099981610963565b0390f35b610178565b91906040838203126109ca57806109be6109c7925f860161019b565b9360200161019b565b90565b61017c565b610a04610a0b946109fa6060949897956109f0608086019a5f87019061048d565b602085019061048d565b604083019061050c565b019061048d565b565b34610a4257610a3e610a29610a233660046109a2565b9061214b565b90610a35949294610172565b948594856109cf565b0390f35b610178565b34610a7557610a5f610a5a3660046101aa565b612449565b610a67610172565b80610a7181610963565b0390f35b610178565b5190565b60209181520190565b60200190565b610a9690610184565b9052565b90610aa781602093610a8d565b0190565b60200190565b90610ace610ac8610ac184610a7a565b8093610a7e565b92610a87565b905f5b818110610ade5750505090565b909192610af7610af16001928651610a9a565b94610aab565b9101919091610ad1565b610b169160208201915f818403910152610ab1565b90565b34610b4957610b29366004610699565b610b45610b346125d9565b610b3c610172565b91829182610b01565b0390f35b610178565b34610b7f57610b7b610b6a610b643660046109a2565b906125ef565b610b72610172565b9182918261087d565b0390f35b610178565b90565b610b9b610b96610ba092610b84565b6101c8565b610184565b90565b610bad6001610b87565b90565b610bb8610ba3565b90565b34610beb57610bcb366004610699565b610be7610bd6610bb0565b610bde610172565b9182918261082c565b0390f35b610178565b34610c1e57610c08610c033660046101aa565b612684565b610c10610172565b80610c1a81610963565b0390f35b610178565b608081830312610c6457610c39825f830161019b565b92610c61610c4a846020850161019b565b93610c58816040860161019b565b9360600161019b565b90565b61017c565b34610c9b57610c85610c7c366004610c23565b929190916127e4565b610c8d610172565b80610c9781610963565b0390f35b610178565b90565b610cb7610cb2610cbc92610ca0565b6101c8565b610184565b90565b610cc85f610ca3565b90565b610cd3610cbf565b90565b34610d0657610ce6366004610699565b610d02610cf1610ccb565b610cf9610172565b9182918261082c565b0390f35b610178565b634e487b7160e01b5f52603260045260245ffd5b5490565b5f5260205f2090565b610d3581610d1f565b821015610d4f57610d47600191610d23565b910201905f90565b610d0b565b1c90565b610d68906008610d6d9302610d54565b610202565b90565b90610d7b9154610d58565b90565b6005610d8981610d1f565b821015610da657610da391610d9d91610d2c565b90610d70565b90565b5f80fd5b34610dda57610dd6610dc5610dc03660046101aa565b610d7e565b610dcd610172565b9182918261082c565b0390f35b610178565b9a9896949291909d9c9b999795939d6101a08c01905f8d01610e009161048d565b8b810360208d0152610e11916104b2565b8a810360408c0152610e22916104b2565b9b60608a01610e30916104fa565b60808901610e3d9161048d565b60a08801610e4a9161048d565b60c08701610e579161048d565b60e08601610e649161048d565b6101008501610e729161048d565b6101208401610e809161048d565b6101408301610e8e9161048d565b6101608201610e9c9161048d565b61018001610ea991610642565b565b34610eeb57610ee7610ec6610ec13660046101aa565b612bf2565b99610ede9d9b9d999199989298979397969496610172565b9d8e9d8e610ddf565b0390f35b610178565b90610efa906101cb565b5f5260205260405f2090565b610f16906008610f1b9302610d54565b6103a4565b90565b90610f299154610f06565b90565b610f4290610f3d6004915f92610ef0565b610f1e565b90565b34610f7557610f71610f60610f5b3660046101aa565b610f2c565b610f68610172565b9182918261087d565b0390f35b610178565b90610f84906101cb565b5f5260205260405f2090565b90610f9a906101cb565b5f5260205260405f2090565b90610fb5610fba926002610f7a565b610f90565b610fc55f8201610219565b91610fd260018301610219565b91610fdf60028201610219565b91610fec60038301610219565b91610ff9600482016103be565b91611012600661100b60058501610219565b93016103be565b90565b949290979695939160e08601985f870161102e9161048d565b6020860161103b9161048d565b604085016110489161048d565b606084016110559161048d565b608083016110629161050c565b60a0820161106f9161048d565b60c00161107b9161050c565b565b346110b5576110b16110996110933660046109a2565b90610fa6565b936110a8979597939193610172565b97889788611015565b0390f35b610178565b90565b6110d16110cc6110d6926110ba565b6101c8565b610184565b90565b6110e360026110bd565b90565b6110ee6110d9565b90565b3461112157611101366004610699565b61111d61110c6110e6565b611114610172565b9182918261082c565b0390f35b610178565b6111315f5f90610d70565b90565b3461116457611144366004610699565b61116061114f611126565b611157610172565b9182918261082c565b0390f35b610178565b90611173906101cb565b5f5260205260405f2090565b61119861119d926111936003935f94611169565b610ef0565b610f1e565b90565b346111d1576111cd6111bc6111b63660046109a2565b9061117f565b6111c4610172565b9182918261087d565b0390f35b610178565b5f80fd5b5f90565b90565b6111f56111f06111fa92610ca0565b6101c8565b61063c565b90565b61121161120c61121692610b84565b6101c8565b61063c565b90565b61122d611228611232926110ba565b6101c8565b61063c565b90565b61124c611251916112446111da565b5060016101e7565b6111de565b611266611260600d83016103be565b15610507565b6112d9574261128861128261127d60058501610219565b610184565b91610184565b11156112cc576112ac6112a66112a16006429401610219565b610184565b91610184565b11156112bf576112bc6002611219565b90565b6112c960016111fd565b90565b506112d65f6111e1565b90565b5f63635e873760e01b8152806112f160048201610963565b0390fd5b5f90565b634e487b7160e01b5f52601160045260245ffd5b61131690610184565b5f1981146113245760010190565b6112f9565b5f1b90565b9061133a5f1991611329565b9181191691161790565b90565b9061135c611357611363926101cb565b611344565b825461132e565b9055565b61137661137c91939293610184565b92610184565b820180921161138757565b6112f9565b9061139f611398610172565b928361032d565b565b6113ac6101c061138c565b90565b906113b990610184565b9052565b5f80fd5b67ffffffffffffffff81116113df576113db60209161030f565b0190565b610319565b90825f939282370152565b909291926114046113ff826113c1565b61138c565b938185526020850190828401116114205761141e926113e4565b565b6113bd565b6114309136916113ef565b90565b52565b90611440906104ee565b9052565b9061144e90610507565b9052565b634e487b7160e01b5f525f60045260245ffd5b61146f9051610184565b90565b5190565b601f602091010490565b1b90565b9190600861149f9102916114995f1984611480565b92611480565b9181191691161790565b91906114bf6114ba6114c7936101cb565b611344565b908354611484565b9055565b6114dd916114d76112f5565b916114a9565b565b5f5b8281106114ed57505050565b806114fc5f60019385016114cb565b016114e1565b9190601f8111611512575b505050565b81811161151f575b61150d565b61153461152e6115529461026d565b91611476565b91602061154082611476565b911061155a575b8091019103906114df565b5f808061151a565b505f611547565b90611571905f1990600802610d54565b191690565b8161158091611561565b906002021790565b906115928161049a565b9067ffffffffffffffff8211611652576115b6826115b0855461023a565b85611502565b602090601f83116001146115ea579180916115d9935f926115de575b5050611576565b90555b565b90915001515f806115d2565b601f198316916115f98561026d565b925f5b81811061163a57509160029391856001969410611620575b505050020190556115dc565b611630910151601f841690611561565b90555f8080611614565b919360206001819287870151815501950192016115fc565b610319565b9061166191611588565b565b61166d90516104ee565b90565b9061168160018060a01b0391611329565b9181191691161790565b611694906106e8565b90565b90565b906116af6116aa6116b69261168b565b611697565b8254611670565b9055565b6116c49051610507565b90565b906116d360ff91611329565b9181191691161790565b6116e690610507565b90565b90565b906117016116fc611708926116dd565b6116e9565b82546116c7565b9055565b906118696101a0600d61186f946117305f820161172a5f8801611465565b90611347565b6117496001820161174360208801611472565b90611657565b6117626002820161175c60408801611472565b90611657565b61177b6003820161177560608801611663565b9061169a565b6117946004820161178e60808801611465565b90611347565b6117ad600582016117a760a08801611465565b90611347565b6117c6600682016117c060c08801611465565b90611347565b6117df600782016117d960e08801611465565b90611347565b6117f9600882016117f36101008801611465565b90611347565b6118136009820161180d6101208801611465565b90611347565b61182d600a82016118276101408801611465565b90611347565b611847600b82016118416101608801611465565b90611347565b611861600c820161185b6101808801611465565b90611347565b0192016116ba565b906116ec565b565b9061187b9161170c565b565b9190611897816118908161189c9561049e565b80956113e4565b61030f565b0190565b906118e3946118d26118c76118dc936060969a99979a60808701918783035f89015261187d565b98602085019061048d565b604083019061048d565b019061048d565b565b929591956118f16112f5565b5061190f61190961190460048890610ef0565b6103be565b15610507565b611b0b5761191c5f610219565b6119259061130d565b61192f905f611347565b6119385f610219565b968791859084923342428c61194c91611367565b428d61195791611367565b8a61196191611367565b918c935f955f975f995f9b6119746113a1565b9d5f8f0190611982916113af565b61198b91611425565b60208d019061199991611433565b6119a291611425565b60408b01906119b091611433565b60608a01906119be91611436565b60808901906119cc916113af565b60a08801906119da916113af565b60c08701906119e8916113af565b60e08601906119f6916113af565b6119ff90610ca3565b610100850190611a0e916113af565b611a1790610ca3565b610120840190611a26916113af565b611a2f90610ca3565b610140830190611a3e916113af565b611a4790610ca3565b610160820190611a56916113af565b611a5f5f610ca3565b610180820190611a6e916113af565b6101a081016001611a7e91611444565b600187611a8a916101e7565b90611a9491611871565b85923394924287611aa491611367565b964290611ab091611367565b90611aba91611367565b7f28528fa183090d38f4c35574bb13fb455a547bda31d9bc9520957c9558f52f8e94611ae5906101cb565b95611aef9061168b565b96611af8610172565b948594611b0594866118a0565b0390a390565b5f639dd854d360e01b815280611b2360048201610963565b0390fd5b5f90565b611b42611b4791611b3a611b27565b506004610ef0565b6103be565b90565b67ffffffffffffffff8111611b5f5760200290565b610319565b611b70611b7591611b4a565b61138c565b90565b60e01b90565b611b8781610507565b03611b8e57565b5f80fd5b90505190611b9f82611b7e565b565b90602082820312611bba57611bb7915f01611b92565b90565b61017c565b9037565b611bcf91604091611bbf565b565b50600290565b905090565b90565b611beb91604091611bbf565b565b90611bfa81604093611bdf565b0190565b5090565b60400190565b611c24611c1e611c1783611bd1565b8094611bd7565b91611bdc565b805f925b848410611c36575050505050565b611c54611c4e600192611c498686611bfe565b611bed565b93611c02565b93019291611c28565b50600590565b905090565b90565b60200190565b611c8d611c87611c8083611c5d565b8094611c63565b91611c68565b5f915b838310611c9d5750505050565b611cb3611cad6001928451610a9a565b92611c6b565b92019190611c90565b611cf3611cfa94611ce961010094989795611cdf6101a086019a5f870190611bc3565b6040850190611c08565b60c0830190611bc3565b0190611c71565b565b611d04610172565b3d5f823e3d90fd5b611d1660e061138c565b90565b90611dc160c06006611dc794611d3c5f8201611d365f8801611465565b90611347565b611d5560018201611d4f60208801611465565b90611347565b611d6e60028201611d6860408801611465565b90611347565b611d8760038201611d8160608801611465565b90611347565b611da060048201611d9a608088016116ba565b906116ec565b611db960058201611db360a08801611465565b90611347565b0192016116ba565b906116ec565b565b90611dd391611d19565b565b916020611df6929493611def60408201965f83019061048d565b019061048d565b565b92939590949195611e13611e0e600186906101e7565b6111de565b92611e29611e23600d86016103be565b15610507565b61212c5742611e4b611e45611e4060058801610219565b610184565b91610184565b1161211057611e6e611e69611e6260038890611169565b8890610ef0565b6103be565b6120f45787611e85611e7f5f610ca3565b91610184565b146120d857602091611f2e611e9a6005611b64565b611ea6895f83016113af565b611eb28a8683016113af565b611ebf88604083016113af565b611ecc8b606083016113af565b611ee4611edb60078901610219565b608083016113af565b91611f39611f117f00000000000000000000000000000000000000000000000000000000000000006106f4565b936334baeab9929597611f22610172565b98899788968796611b78565b865260048601611cbc565b03915afa80156120d357611f55915f916120a5575b5015610507565b612089576001600383611f6791611169565b84611f7191610ef0565b90611f7b916116ec565b838584425f905f92600194611f8e611d0c565b965f880190611f9c916113af565b6020870190611faa916113af565b6040860190611fb8916113af565b6060850190611fc6916113af565b6080840190611fd491611444565b611fdd90610ca3565b60a0830190611feb916113af565b60c0820190611ff991611444565b60028361200591610f7a565b8461200f91610f90565b9061201991611dc9565b600b0161202581610219565b61202e9061130d565b61203791611347565b90917f816254a0f23b2b8d4a1d9574bd8a5adabe872881137f71912e7c52e0c6f179df91612064906101cb565b9261206e906101cb565b93612077610172565b9182916120849183611dd5565b0390a3565b5f6309bde33960e01b8152806120a160048201610963565b0390fd5b6120c6915060203d81116120cc575b6120be818361032d565b810190611ba1565b5f611f4e565b503d6120b4565b611cfc565b5f6343c891cf60e11b8152806120f060048201610963565b0390fd5b5f636569570160e11b81528061210c60048201610963565b0390fd5b5f63abfb7dc360e01b81528061212860048201610963565b0390fd5b5f63635e873760e01b81528061214460048201610963565b0390fd5b90565b61218b916121816121869261215e6112f5565b506121676112f5565b50612170611b27565b506121796112f5565b506002610f7a565b610f90565b612148565b6121965f8201610219565b6121a260018301610219565b926121bb60056121b4600486016103be565b9401610219565b9193929190565b906121d5905f1990602003600802610d54565b8154169055565b905f916121f36121eb8261026d565b928354611576565b905555565b919290602082105f1461225157601f84116001146122215761221b929350611576565b90555b5b565b509061224761224c9360018061223f6122398661026d565b93611476565b0391016114df565b6121dc565b61221e565b506001919261226861226283611476565b91611476565b90806122738661026d565b0190601f8416806122a9575b50808311612296575b50505060020217905561221f565b6122a19203906114df565b5f8080612288565b6122b5908684036121c2565b5f61227f565b92909168010000000000000000821161231b576020115f1461230c57602081105f146122f0576122ea91611576565b90555b5b565b60019160ff19166123008461026d565b556002020190556122ed565b600191506002020190556122ee565b610319565b90815461232c8161023a565b90818311612355575b818310612343575b50505050565b61234c936121f8565b5f80808061233d565b612361838383876122bb565b612335565b5f61237091612320565b565b905f036123845761238290612366565b565b611452565b600d5f91612399838083016114cb565b6123a68360018301612372565b6123b38360028301612372565b8260038201556123c683600483016114cb565b6123d383600583016114cb565b6123e083600683016114cb565b6123ed83600783016114cb565b6123fa83600883016114cb565b61240783600983016114cb565b61241483600a83016114cb565b61242183600b83016114cb565b61242e83600c83016114cb565b0155565b905f036124445761244290612389565b565b611452565b61245d612458600183906101e7565b6111de565b61247261246c600d83016103be565b15610507565b61250a5761248260038201610397565b61249461248e336104ee565b916104ee565b036124ee57600b6124a59101610219565b6124b76124b15f610ca3565b91610184565b116124d2575f6124cb6124d09260016101e7565b612432565b565b5f63811e73ff60e01b8152806124ea60048201610963565b0390fd5b5f637d1b73b960e01b81528061250660048201610963565b0390fd5b5f63635e873760e01b81528061252260048201610963565b0390fd5b606090565b60209181520190565b61253e9054610205565b90565b60010190565b9061256461255e61255784610d1f565b809361252b565b92610d23565b905f5b8181106125745750505090565b90919261259461258e60019261258987612534565b610a9a565b94612541565b9101919091612567565b906125a891612547565b90565b906125cb6125c4926125bb610172565b9384809261259e565b038361032d565b565b6125d6906125ab565b90565b6125e1612526565b506125ec60056125cd565b90565b6126149161260a61260f92612602611b27565b506003611169565b610ef0565b6103be565b90565b90565b5f5260205f2090565b5490565b61263081612623565b82101561264a5761264260019161261a565b910201905f90565b610d0b565b908154916801000000000000000083101561267f578261267791600161267d95018155612627565b906114a9565b565b610319565b61269a600161269560048490610ef0565b6116ec565b6126ae6126a76005612617565b829061264f565b42906126ef6126dd7fcb23ed79d0d407699762f186152925a6b8dd62fc4b2223f50a16534af8c883f8926101cb565b926126e6610172565b9182918261082c565b0390a2565b90565b67ffffffffffffffff811161270c5760200290565b610319565b61271d612722916126f7565b61138c565b90565b9050519061273282610187565b565b9060208282031261274d5761274a915f01612725565b90565b61017c565b50600490565b905090565b90565b61276990610184565b9052565b9061277a81602093612760565b0190565b60200190565b6127a061279a61279383612752565b8094612758565b9161275d565b5f915b8383106127b05750505050565b6127c66127c0600192845161276d565b9261277e565b920191906127a3565b91906127e2905f60808501940190612784565b565b6127f86127f3600183906101e7565b6111de565b61281661281161280a60028590610f7a565b8590610f90565b612148565b9461282c612826600d84016103be565b15610507565b612bc1574261284e61284861284360058601610219565b610184565b91610184565b1115612ba5574261287261286c61286760068601610219565b610184565b91610184565b11612b895761288c612886600688016103be565b15610507565b612b6d5761289c600487016103be565b612b5157846128ba6128b46128af6110d9565b610184565b91610184565b11612b355760208561295292612947896129336128ea73__$0daf1669a85ce10529e05b8a030b9567e1$__6126f4565b9361291d6129156001638709cd8c9561290f6129066004612711565b9a5f8c016113af565b01610219565b8888016113af565b61292a8a604088016113af565b606086016113af565b61293b610172565b95869485938493611b78565b8352600483016127cf565b03915af4908115612b30575f91612b02575b5061298161297b6129765f8901610219565b610184565b91610184565b03612ae657612a1991612a10600c60019361299f8560048b016116ec565b6129ac8860058b01611347565b876129c66129c06129bb610ba3565b610184565b91610184565b145f14612a66576129f76129db868b01610219565b6129f160088401916129ec83610219565b611367565b90611347565b5b01612a0a612a0582610219565b61130d565b90611347565b92939401610219565b612a4c612a467fa8b3b9b1cdff40715f0311250e16b2a920dcd19105796dc1d4258b8163c5a3fa936101cb565b936101cb565b93612a61612a58610172565b92839283611dd5565b0390a3565b87612a80612a7a612a75610cbf565b610184565b91610184565b145f14612ab757612ab1612a95868b01610219565b612aab6009840191612aa683610219565b611367565b90611347565b5b6129f8565b612ae1612ac5868b01610219565b612adb600a840191612ad683610219565b611367565b90611347565b612ab2565b5f639ea6d12760e01b815280612afe60048201610963565b0390fd5b612b23915060203d8111612b29575b612b1b818361032d565b810190612734565b5f612964565b503d612b11565b611cfc565b5f639c45400160e01b815280612b4d60048201610963565b0390fd5b5f63a89ac15160e01b815280612b6960048201610963565b0390fd5b5f635b34156960e11b815280612b8560048201610963565b0390fd5b5f6374683d7160e01b815280612ba160048201610963565b0390fd5b5f6374683d7160e01b815280612bbd60048201610963565b0390fd5b5f63635e873760e01b815280612bd960048201610963565b0390fd5b606090565b5f90565b612bef90610356565b90565b612c75612c7a91612c016112f5565b50612c0a612bdd565b50612c13612bdd565b50612c1c612be2565b50612c256112f5565b50612c2e6112f5565b50612c376112f5565b50612c406112f5565b50612c496112f5565b50612c526112f5565b50612c5b6112f5565b50612c646112f5565b50612c6d6111da565b5060016101e7565b6111de565b612c8f612c89600d83016103be565b15610507565b612dba57612c9b6111da565b5042612cba612cb4612caf60058501610219565b610184565b91610184565b11155f14612d7557612ccb5f6111e1565b5b612cd75f8301610219565b60018301936002840193612ced60038201610397565b93612cfa60078301610219565b93612d0760058401610219565b93612d1460068501610219565b93612d2160088201610219565b93612d2e60098301610219565b93612d3b600a8401610219565b93612d68612d62612d5a600c612d53600b8901610219565b9701610219565b94939e612be6565b9c612be6565b9a99989796959493929190565b42612d93612d8d612d8860068501610219565b610184565b91610184565b11155f14612dab57612da560016111fd565b5b612ccc565b612db56002611219565b612da6565b5f63635e873760e01b815280612dd260048201610963565b0390fdfea264697066735822122018dd95edd90a5b6a152edbcb17ad40d8d7bb47eaa7136fb490dd2a10e112b76764736f6c63430008210033","linkReferences":{"contracts/PoseidonT5.sol":{"PoseidonT5":[{"start":10813,"length":20}]}}},"methodIdentifiers":{"CHOICE_ABSTAIN()":"d90292a3","CHOICE_AGAINST()":"b5770c33","CHOICE_FOR()":"8ea7a274","commitVote(uint256,uint256,uint256,uint256,uint256[2],uint256[2][2],uint256[2])":"51fce2e6","commitments(uint256,uint256)":"d13e2e60","createProposal(string,string,uint256,uint256,uint256)":"33423c06","deleteProposal(uint256)":"8259d553","getCommitment(uint256,uint256)":"7164f0d6","getMerkleRoots()":"85135a1a","getPhase(uint256)":"16ef376b","getProposal(uint256)":"c7f758a8","isMerkleRootValid(uint256)":"4a9284fb","isNullifierUsed(uint256,uint256)":"85c74296","merkleRootHistory(uint256)":"b5ad9215","nullifierUsed(uint256,uint256)":"e78ffc96","proposalCount()":"da35c664","proposals(uint256)":"013cf08b","registerMerkleRoot(uint256)":"a4cae8f8","revealVote(uint256,uint256,uint256,uint256)":"b30c510b","validMerkleRoots(uint256)":"cb1bb033","verifier()":"2b7ac3f3"},"id":2}