{"abi":[{"type":"constructor","inputs":[{"name":"_verifier","type":"address","internalType":"address"}],"stateMutability":"nonpayable"},{"type":"function","name":"CHOICE_ABSTAIN","inputs":[],"outputs":[{"name":"","type":"uint256","internalType":"uint256"}],"stateMutability":"view"},{"type":"function","name":"CHOICE_AGAINST","inputs":[],"outputs":[{"name":"","type":"uint256","internalType":"uint256"}],"stateMutability":"view"},{"type":"function","name":"CHOICE_FOR","inputs":[],"outputs":[{"name":"","type":"uint256","internalType":"uint256"}],"stateMutability":"view"},{"type":"function","name":"commitVote","inputs":[{"name":"_proposalId","type":"uint256","internalType":"uint256"},{"name":"_commitment","type":"uint256","internalType":"uint256"},{"name":"_votingPower","type":"uint256","internalType":"uint256"},{"name":"_nullifier","type":"uint256","internalType":"uint256"},{"name":"_pA","type":"uint256[2]","internalType":"uint256[2]"},{"name":"_pB","type":"uint256[2][2]","internalType":"uint256[2][2]"},{"name":"_pC","type":"uint256[2]","internalType":"uint256[2]"}],"outputs":[],"stateMutability":"nonpayable"},{"type":"function","name":"commitments","inputs":[{"name":"","type":"uint256","internalType":"uint256"},{"name":"","type":"uint256","internalType":"uint256"}],"outputs":[{"name":"commitment","type":"uint256","internalType":"uint256"},{"name":"votingPower","type":"uint256","internalType":"uint256"},{"name":"nullifier","type":"uint256","internalType":"uint256"},{"name":"timestamp","type":"uint256","internalType":"uint256"},{"name":"revealed","type":"bool","internalType":"bool"},{"name":"revealedChoice","type":"uint256","internalType":"uint256"},{"name":"exists","type":"bool","internalType":"bool"}],"stateMutability":"view"},{"type":"function","name":"createProposal","inputs":[{"name":"_title","type":"string","internalType":"string"},{"name":"_description","type":"string","internalType":"string"},{"name":"_merkleRoot","type":"uint256","internalType":"uint256"},{"name":"_votingDuration","type":"uint256","internalType":"uint256"},{"name":"_revealDuration","type":"uint256","internalType":"uint256"}],"outputs":[{"name":"","type":"uint256","internalType":"uint256"}],"stateMutability":"nonpayable"},{"type":"function","name":"deleteProposal","inputs":[{"name":"_proposalId","type":"uint256","internalType":"uint256"}],"outputs":[],"stateMutability":"nonpayable"},{"type":"function","name":"getCommitment","inputs":[{"name":"_proposalId","type":"uint256","internalType":"uint256"},{"name":"_nullifier","type":"uint256","internalType":"uint256"}],"outputs":[{"name":"commitment","type":"uint256","internalType":"uint256"},{"name":"votingPower","type":"uint256","internalType":"uint256"},{"name":"revealed","type":"bool","internalType":"bool"},{"name":"revealedChoice","type":"uint256","internalType":"uint256"}],"stateMutability":"view"},{"type":"function","name":"getMerkleRoots","inputs":[],"outputs":[{"name":"","type":"uint256[]","internalType":"uint256[]"}],"stateMutability":"view"},{"type":"function","name":"getPhase","inputs":[{"name":"_proposalId","type":"uint256","internalType":"uint256"}],"outputs":[{"name":"","type":"uint8","internalType":"uint8"}],"stateMutability":"view"},{"type":"function","name":"getProposal","inputs":[{"name":"_proposalId","type":"uint256","internalType":"uint256"}],"outputs":[{"name":"id","type":"uint256","internalType":"uint256"},{"name":"title","type":"string","internalType":"string"},{"name":"description","type":"string","internalType":"string"},{"name":"proposer","type":"address","internalType":"address"},{"name":"merkleRoot","type":"uint256","internalType":"uint256"},{"name":"endTime","type":"uint256","internalType":"uint256"},{"name":"revealEndTime","type":"uint256","internalType":"uint256"},{"name":"forVotes","type":"uint256","internalType":"uint256"},{"name":"againstVotes","type":"uint256","internalType":"uint256"},{"name":"abstainVotes","type":"uint256","internalType":"uint256"},{"name":"totalCommitments","type":"uint256","internalType":"uint256"},{"name":"revealedVotes","type":"uint256","internalType":"uint256"},{"name":"phase","type":"uint8","internalType":"uint8"}],"stateMutability":"view"},{"type":"function","name":"getRegisteredVoters","inputs":[],"outputs":[{"name":"","type":"uint256[]","internalType":"uint256[]"}],"stateMutability":"view"},{"type":"function","name":"getVoterCount","inputs":[],"outputs":[{"name":"","type":"uint256","internalType":"uint256"}],"stateMutability":"view"},{"type":"function","name":"isMerkleRootValid","inputs":[{"name":"_merkleRoot","type":"uint256","internalType":"uint256"}],"outputs":[{"name":"","type":"bool","internalType":"bool"}],"stateMutability":"view"},{"type":"function","name":"isNullifierUsed","inputs":[{"name":"_proposalId","type":"uint256","internalType":"uint256"},{"name":"_nullifier","type":"uint256","internalType":"uint256"}],"outputs":[{"name":"","type":"bool","internalType":"bool"}],"stateMutability":"view"},{"type":"function","name":"isVoterRegistered","inputs":[{"name":"","type":"uint256","internalType":"uint256"}],"outputs":[{"name":"","type":"bool","internalType":"bool"}],"stateMutability":"view"},{"type":"function","name":"merkleRootHistory","inputs":[{"name":"","type":"uint256","internalType":"uint256"}],"outputs":[{"name":"","type":"uint256","internalType":"uint256"}],"stateMutability":"view"},{"type":"function","name":"nullifierUsed","inputs":[{"name":"","type":"uint256","internalType":"uint256"},{"name":"","type":"uint256","internalType":"uint256"}],"outputs":[{"name":"","type":"bool","internalType":"bool"}],"stateMutability":"view"},{"type":"function","name":"proposalCount","inputs":[],"outputs":[{"name":"","type":"uint256","internalType":"uint256"}],"stateMutability":"view"},{"type":"function","name":"proposals","inputs":[{"name":"","type":"uint256","internalType":"uint256"}],"outputs":[{"name":"id","type":"uint256","internalType":"uint256"},{"name":"title","type":"string","internalType":"string"},{"name":"description","type":"string","internalType":"string"},{"name":"proposer","type":"address","internalType":"address"},{"name":"startTime","type":"uint256","internalType":"uint256"},{"name":"endTime","type":"uint256","internalType":"uint256"},{"name":"revealEndTime","type":"uint256","internalType":"uint256"},{"name":"merkleRoot","type":"uint256","internalType":"uint256"},{"name":"forVotes","type":"uint256","internalType":"uint256"},{"name":"againstVotes","type":"uint256","internalType":"uint256"},{"name":"abstainVotes","type":"uint256","internalType":"uint256"},{"name":"totalCommitments","type":"uint256","internalType":"uint256"},{"name":"revealedVotes","type":"uint256","internalType":"uint256"},{"name":"exists","type":"bool","internalType":"bool"}],"stateMutability":"view"},{"type":"function","name":"registerMerkleRoot","inputs":[{"name":"_merkleRoot","type":"uint256","internalType":"uint256"}],"outputs":[],"stateMutability":"nonpayable"},{"type":"function","name":"registerVoter","inputs":[{"name":"_noteHash","type":"uint256","internalType":"uint256"}],"outputs":[],"stateMutability":"nonpayable"},{"type":"function","name":"registeredVoters","inputs":[{"name":"","type":"uint256","internalType":"uint256"}],"outputs":[{"name":"","type":"uint256","internalType":"uint256"}],"stateMutability":"view"},{"type":"function","name":"revealVote","inputs":[{"name":"_proposalId","type":"uint256","internalType":"uint256"},{"name":"_nullifier","type":"uint256","internalType":"uint256"},{"name":"_choice","type":"uint256","internalType":"uint256"},{"name":"_voteSalt","type":"uint256","internalType":"uint256"}],"outputs":[],"stateMutability":"nonpayable"},{"type":"function","name":"validMerkleRoots","inputs":[{"name":"","type":"uint256","internalType":"uint256"}],"outputs":[{"name":"","type":"bool","internalType":"bool"}],"stateMutability":"view"},{"type":"function","name":"verifier","inputs":[],"outputs":[{"name":"","type":"address","internalType":"contract IVerifier"}],"stateMutability":"view"},{"type":"event","name":"MerkleRootRegistered","inputs":[{"name":"merkleRoot","type":"uint256","indexed":true,"internalType":"uint256"},{"name":"timestamp","type":"uint256","indexed":false,"internalType":"uint256"}],"anonymous":false},{"type":"event","name":"ProposalCreated","inputs":[{"name":"proposalId","type":"uint256","indexed":true,"internalType":"uint256"},{"name":"title","type":"string","indexed":false,"internalType":"string"},{"name":"proposer","type":"address","indexed":true,"internalType":"address"},{"name":"merkleRoot","type":"uint256","indexed":false,"internalType":"uint256"},{"name":"endTime","type":"uint256","indexed":false,"internalType":"uint256"},{"name":"revealEndTime","type":"uint256","indexed":false,"internalType":"uint256"}],"anonymous":false},{"type":"event","name":"VoteCommitted","inputs":[{"name":"proposalId","type":"uint256","indexed":true,"internalType":"uint256"},{"name":"nullifier","type":"uint256","indexed":true,"internalType":"uint256"},{"name":"commitment","type":"uint256","indexed":false,"internalType":"uint256"},{"name":"votingPower","type":"uint256","indexed":false,"internalType":"uint256"}],"anonymous":false},{"type":"event","name":"VoteRevealed","inputs":[{"name":"proposalId","type":"uint256","indexed":true,"internalType":"uint256"},{"name":"nullifier","type":"uint256","indexed":true,"internalType":"uint256"},{"name":"choice","type":"uint256","indexed":false,"internalType":"uint256"},{"name":"votingPower","type":"uint256","indexed":false,"internalType":"uint256"}],"anonymous":false},{"type":"event","name":"VoterRegistered","inputs":[{"name":"noteHash","type":"uint256","indexed":true,"internalType":"uint256"},{"name":"timestamp","type":"uint256","indexed":false,"internalType":"uint256"}],"anonymous":false},{"type":"error","name":"AlreadyRevealed","inputs":[]},{"type":"error","name":"CommitmentNotFound","inputs":[]},{"type":"error","name":"InvalidChoice","inputs":[]},{"type":"error","name":"InvalidMerkleRoot","inputs":[]},{"type":"error","name":"InvalidProof","inputs":[]},{"type":"error","name":"InvalidReveal","inputs":[]},{"type":"error","name":"NotInCommitPhase","inputs":[]},{"type":"error","name":"NotInRevealPhase","inputs":[]},{"type":"error","name":"NotProposer","inputs":[]},{"type":"error","name":"NullifierAlreadyUsed","inputs":[]},{"type":"error","name":"ProposalHasVotes","inputs":[]},{"type":"error","name":"ProposalNotFound","inputs":[]},{"type":"error","name":"ZeroVotingPower","inputs":[]}],"bytecode":{"object":"0x60a06040523461003f57610019610014610104565b61015c565b610021610044565b61305f61016b82396080518181816108180152612168015261305f90f35b61004a565b60405190565b5f80fd5b601f801991011690565b634e487b7160e01b5f52604160045260245ffd5b906100769061004e565b810190811060018060401b0382111761008e57604052565b610058565b906100a661009f610044565b928361006c565b565b5f80fd5b60018060a01b031690565b6100c0906100ac565b90565b6100cc816100b7565b036100d357565b5f80fd5b905051906100e4826100c3565b565b906020828203126100ff576100fc915f016100d7565b90565b6100a8565b6101226131ca8038038061011781610093565b9283398101906100e6565b90565b90565b61013c610137610141926100ac565b610125565b6100ac565b90565b61014d90610128565b90565b61015990610144565b90565b61016590610150565b60805256fe60806040526004361015610013575b611372565b61001d5f356101bc565b8063013cf08b146101b757806311174a29146101b257806316ef376b146101ad5780632436e06b146101a85780632b7ac3f3146101a35780632bc4a6e71461019e57806333423c06146101995780634a9284fb1461019457806351fce2e61461018f5780636d3cba611461018a5780637164f0d6146101855780638259d5531461018057806385135a1a1461017b57806385c74296146101765780638ea7a27414610171578063a13f2f8d1461016c578063a4cae8f814610167578063b30c510b14610162578063b5770c331461015d578063b5ad921514610158578063c7f758a814610153578063cb1bb0331461014e578063d13e2e6014610149578063d90292a314610144578063da35c6641461013f5763e78ffc960361000e5761133c565b6112d0565b61128d565b611219565b6110e1565b611083565b610f82565b610f21565b610eb4565b610e3b565b610e08565b610dd3565b610d66565b610d31565b610cfe565b610cc4565b610c24565b610b95565b610abf565b610a6e565b610964565b610890565b6107e1565b61070d565b6106b0565b610644565b60e01c90565b60405190565b5f80fd5b5f80fd5b5f80fd5b90565b6101e0816101d4565b036101e757565b5f80fd5b905035906101f8826101d7565b565b9060208282031261021357610210915f016101eb565b90565b6101cc565b90565b61022f61022a610234926101d4565b610218565b6101d4565b90565b906102419061021b565b5f5260205260405f2090565b5f1c90565b90565b6102616102669161024d565b610252565b90565b6102739054610255565b90565b634e487b7160e01b5f52602260045260245ffd5b90600160028304921680156102aa575b60208310146102a557565b610276565b91607f169161029a565b60209181520190565b5f5260205f2090565b905f92918054906102e06102d98361028a565b80946102b4565b916001811690815f1461033757506001146102fb575b505050565b61030891929394506102bd565b915f925b81841061031f57505001905f80806102f6565b6001816020929593955484860152019101929061030c565b92949550505060ff19168252151560200201905f80806102f6565b9061035c916102c6565b90565b601f801991011690565b634e487b7160e01b5f52604160045260245ffd5b906103879061035f565b810190811067ffffffffffffffff8211176103a157604052565b610369565b906103c66103bf926103b66101c2565b93848092610352565b038361037d565b565b60018060a01b031690565b6103df6103e49161024d565b6103c8565b90565b6103f190546103d3565b90565b60ff1690565b61040661040b9161024d565b6103f4565b90565b61041890546103fa565b90565b610426906001610237565b906104325f8301610269565b9161043f600182016103a6565b9161044c600283016103a6565b91610459600382016103e7565b9161046660048301610269565b9161047360058201610269565b9161048060068301610269565b9161048d60078201610269565b9161049a60088301610269565b916104a760098201610269565b916104b4600a8301610269565b916104c1600b8201610269565b916104da600d6104d3600c8501610269565b930161040e565b90565b6104e6906101d4565b9052565b5190565b60209181520190565b90825f9392825e0152565b61052161052a60209361052f93610518816104ea565b938480936104ee565b958691016104f7565b61035f565b0190565b60018060a01b031690565b61054790610533565b90565b6105539061053e565b9052565b151590565b61056590610557565b9052565b809c9a9896949f9e9d9b9997959392916101c08201915f0161058a916104dd565b8c808203906020015261059c91610502565b8b810360408d01526105ad91610502565b9c60608b016105bb9161054a565b60808a016105c8916104dd565b60a089016105d5916104dd565b60c088016105e2916104dd565b60e087016105ef916104dd565b61010086016105fd916104dd565b610120850161060b916104dd565b6101408401610619916104dd565b6101608301610627916104dd565b6101808201610635916104dd565b6101a0016106429161055c565b565b346106875761068361065f61065a3660046101fa565b61041b565b9a61067a9e9c9e9a919a9992999893989794979695966101c2565b9e8f9e8f610569565b0390f35b6101c8565b5f91031261069657565b6101cc565b91906106ae905f602085019401906104dd565b565b346106e0576106c036600461068c565b6106dc6106cb61137a565b6106d36101c2565b9182918261069b565b0390f35b6101c8565b60ff1690565b6106f4906106e5565b9052565b919061070b905f602085019401906106eb565b565b3461073d576107396107286107233660046101fa565b6113eb565b6107306101c2565b918291826106f8565b0390f35b6101c8565b634e487b7160e01b5f52603260045260245ffd5b5490565b5f5260205f2090565b61076c81610756565b8210156107865761077e60019161075a565b910201905f90565b610742565b1c90565b61079f9060086107a4930261078b565b610252565b90565b906107b2915461078f565b90565b60066107c081610756565b8210156107dd576107da916107d491610763565b906107a7565b90565b5f80fd5b346108115761080d6107fc6107f73660046101fa565b6107b5565b6108046101c2565b9182918261069b565b0390f35b6101c8565b7f000000000000000000000000000000000000000000000000000000000000000090565b61084e61084961085392610533565b610218565b610533565b90565b61085f9061083a565b90565b61086b90610856565b90565b61087790610862565b9052565b919061088e905f6020850194019061086e565b565b346108c0576108a036600461068c565b6108bc6108ab610816565b6108b36101c2565b9182918261087b565b0390f35b6101c8565b5190565b60209181520190565b60200190565b6108e1906101d4565b9052565b906108f2816020936108d8565b0190565b60200190565b9061091961091361090c846108c5565b80936108c9565b926108d2565b905f5b8181106109295750505090565b90919261094261093c60019286516108e5565b946108f6565b910191909161091c565b6109619160208201915f8184039101526108fc565b90565b346109945761097436600461068c565b61099061097f61155e565b6109876101c2565b9182918261094c565b0390f35b6101c8565b5f80fd5b5f80fd5b5f80fd5b909182601f830112156109df5781359167ffffffffffffffff83116109da5760200192600183028401116109d557565b6109a1565b61099d565b610999565b909160a082840312610a69575f82013567ffffffffffffffff8111610a645783610a0f9184016109a5565b929093602082013567ffffffffffffffff8111610a5f5781610a329184016109a5565b929093610a5c610a4584604085016101eb565b93610a5381606086016101eb565b936080016101eb565b90565b6101d0565b6101d0565b6101cc565b34610aa557610aa1610a90610a843660046109e4565b95949094939193611b60565b610a986101c2565b9182918261069b565b0390f35b6101c8565b9190610abd905f6020850194019061055c565b565b34610aef57610aeb610ada610ad53660046101fa565b611da6565b610ae26101c2565b91829182610aaa565b0390f35b6101c8565b91906020600202830111610b0457565b6109a1565b91906040600202830111610b1957565b6109a1565b61018081830312610b8b57610b35825f83016101eb565b92610b4383602084016101eb565b92610b5181604085016101eb565b92610b5f82606083016101eb565b92610b88610b708460808501610af4565b93610b7e8160c08601610b09565b9361014001610af4565b90565b6101cc565b5f0190565b34610bca57610bb4610ba8366004610b1e565b95949094939193612073565b610bbc6101c2565b80610bc681610b90565b0390f35b6101c8565b90610bd99061021b565b5f5260205260405f2090565b610bf5906008610bfa930261078b565b6103f4565b90565b90610c089154610be5565b90565b610c2190610c1c6007915f92610bcf565b610bfd565b90565b34610c5457610c50610c3f610c3a3660046101fa565b610c0b565b610c476101c2565b91829182610aaa565b0390f35b6101c8565b9190604083820312610c815780610c75610c7e925f86016101eb565b936020016101eb565b90565b6101cc565b610cbb610cc294610cb1606094989795610ca7608086019a5f8701906104dd565b60208501906104dd565b604083019061055c565b01906104dd565b565b34610cf957610cf5610ce0610cda366004610c59565b906123c6565b90610cec9492946101c2565b94859485610c86565b0390f35b6101c8565b34610d2c57610d16610d113660046101fa565b6126c4565b610d1e6101c2565b80610d2881610b90565b0390f35b6101c8565b34610d6157610d4136600461068c565b610d5d610d4c6127a1565b610d546101c2565b9182918261094c565b0390f35b6101c8565b34610d9757610d93610d82610d7c366004610c59565b906127b7565b610d8a6101c2565b91829182610aaa565b0390f35b6101c8565b90565b610db3610dae610db892610d9c565b610218565b6101d4565b90565b610dc56001610d9f565b90565b610dd0610dbb565b90565b34610e0357610de336600461068c565b610dff610dee610dc8565b610df66101c2565b9182918261069b565b0390f35b6101c8565b34610e3657610e20610e1b3660046101fa565b61284c565b610e286101c2565b80610e3281610b90565b0390f35b6101c8565b34610e6957610e53610e4e3660046101fa565b6128d7565b610e5b6101c2565b80610e6581610b90565b0390f35b6101c8565b608081830312610eaf57610e84825f83016101eb565b92610eac610e9584602085016101eb565b93610ea381604086016101eb565b936060016101eb565b90565b6101cc565b34610ee657610ed0610ec7366004610e6e565b92919091612a37565b610ed86101c2565b80610ee281610b90565b0390f35b6101c8565b90565b610f02610efd610f0792610eeb565b610218565b6101d4565b90565b610f135f610eee565b90565b610f1e610f0a565b90565b34610f5157610f3136600461068c565b610f4d610f3c610f16565b610f446101c2565b9182918261069b565b0390f35b6101c8565b6005610f6181610756565b821015610f7e57610f7b91610f7591610763565b906107a7565b90565b5f80fd5b34610fb257610fae610f9d610f983660046101fa565b610f56565b610fa56101c2565b9182918261069b565b0390f35b6101c8565b9a9896949291909d9c9b999795939d6101a08c01905f8d01610fd8916104dd565b8b810360208d0152610fe991610502565b8a810360408c0152610ffa91610502565b9b60608a016110089161054a565b60808901611015916104dd565b60a08801611022916104dd565b60c0870161102f916104dd565b60e0860161103c916104dd565b610100850161104a916104dd565b6101208401611058916104dd565b6101408301611066916104dd565b6101608201611074916104dd565b61018001611081916106eb565b565b346110c3576110bf61109e6110993660046101fa565b612e45565b996110b69d9b9d9991999892989793979694966101c2565b9d8e9d8e610fb7565b0390f35b6101c8565b6110de906110d96004915f92610bcf565b610bfd565b90565b346111115761110d6110fc6110f73660046101fa565b6110c8565b6111046101c2565b91829182610aaa565b0390f35b6101c8565b906111209061021b565b5f5260205260405f2090565b906111369061021b565b5f5260205260405f2090565b90611151611156926002611116565b61112c565b6111615f8201610269565b9161116e60018301610269565b9161117b60028201610269565b9161118860038301610269565b916111956004820161040e565b916111ae60066111a760058501610269565b930161040e565b90565b949290979695939160e08601985f87016111ca916104dd565b602086016111d7916104dd565b604085016111e4916104dd565b606084016111f1916104dd565b608083016111fe9161055c565b60a0820161120b916104dd565b60c0016112179161055c565b565b346112515761124d61123561122f366004610c59565b90611142565b936112449795979391936101c2565b978897886111b1565b0390f35b6101c8565b90565b61126d61126861127292611256565b610218565b6101d4565b90565b61127f6002611259565b90565b61128a611275565b90565b346112bd5761129d36600461068c565b6112b96112a8611282565b6112b06101c2565b9182918261069b565b0390f35b6101c8565b6112cd5f5f906107a7565b90565b34611300576112e036600461068c565b6112fc6112eb6112c2565b6112f36101c2565b9182918261069b565b0390f35b6101c8565b9061130f9061021b565b5f5260205260405f2090565b6113346113399261132f6003935f94611305565b610bcf565b610bfd565b90565b3461136d57611369611358611352366004610c59565b9061131b565b6113606101c2565b91829182610aaa565b0390f35b6101c8565b5f80fd5b5f90565b611382611376565b5061138d6006610756565b90565b5f90565b90565b6113ab6113a66113b092610eeb565b610218565b6106e5565b90565b6113c76113c26113cc92610d9c565b610218565b6106e5565b90565b6113e36113de6113e892611256565b610218565b6106e5565b90565b611402611407916113fa611390565b506001610237565b611394565b61141c611416600d830161040e565b15610557565b61148f574261143e61143861143360058501610269565b6101d4565b916101d4565b11156114825761146261145c6114576006429401610269565b6101d4565b916101d4565b11156114755761147260026113cf565b90565b61147f60016113b3565b90565b5061148c5f611397565b90565b5f63635e873760e01b8152806114a760048201610b90565b0390fd5b606090565b60209181520190565b6114c39054610255565b90565b60010190565b906114e96114e36114dc84610756565b80936114b0565b9261075a565b905f5b8181106114f95750505090565b90919261151961151360019261150e876114b9565b6108e5565b946114c6565b91019190916114ec565b9061152d916114cc565b90565b90611550611549926115406101c2565b93848092611523565b038361037d565b565b61155b90611530565b90565b6115666114ab565b506115716006611552565b90565b634e487b7160e01b5f52601160045260245ffd5b611591906101d4565b5f19811461159f5760010190565b611574565b5f1b90565b906115b55f19916115a4565b9181191691161790565b90565b906115d76115d26115de9261021b565b6115bf565b82546115a9565b9055565b6115f16115f7919392936101d4565b926101d4565b820180921161160257565b611574565b9061161a6116136101c2565b928361037d565b565b6116276101c0611607565b90565b90611634906101d4565b9052565b5f80fd5b67ffffffffffffffff811161165a5761165660209161035f565b0190565b610369565b90825f939282370152565b9092919261167f61167a8261163c565b611607565b9381855260208501908284011161169b576116999261165f565b565b611638565b6116ab91369161166a565b90565b52565b906116bb9061053e565b9052565b906116c990610557565b9052565b634e487b7160e01b5f525f60045260245ffd5b6116ea90516101d4565b90565b5190565b601f602091010490565b1b90565b9190600861171a9102916117145f19846116fb565b926116fb565b9181191691161790565b919061173a6117356117429361021b565b6115bf565b9083546116ff565b9055565b61175891611752611376565b91611724565b565b5f5b82811061176857505050565b806117775f6001938501611746565b0161175c565b9190601f811161178d575b505050565b81811161179a575b611788565b6117af6117a96117cd946102bd565b916116f1565b9160206117bb826116f1565b91106117d5575b80910191039061175a565b5f8080611795565b505f6117c2565b906117ec905f199060080261078b565b191690565b816117fb916117dc565b906002021790565b9061180d816104ea565b9067ffffffffffffffff82116118cd576118318261182b855461028a565b8561177d565b602090601f831160011461186557918091611854935f92611859575b50506117f1565b90555b565b90915001515f8061184d565b601f19831691611874856102bd565b925f5b8181106118b55750916002939185600196941061189b575b50505002019055611857565b6118ab910151601f8416906117dc565b90555f808061188f565b91936020600181928787015181550195019201611877565b610369565b906118dc91611803565b565b6118e8905161053e565b90565b906118fc60018060a01b03916115a4565b9181191691161790565b61190f90610856565b90565b90565b9061192a61192561193192611906565b611912565b82546118eb565b9055565b61193f9051610557565b90565b9061194e60ff916115a4565b9181191691161790565b61196190610557565b90565b90565b9061197c61197761198392611958565b611964565b8254611942565b9055565b90611ae46101a0600d611aea946119ab5f82016119a55f88016116e0565b906115c2565b6119c4600182016119be602088016116ed565b906118d2565b6119dd600282016119d7604088016116ed565b906118d2565b6119f6600382016119f0606088016118de565b90611915565b611a0f60048201611a09608088016116e0565b906115c2565b611a2860058201611a2260a088016116e0565b906115c2565b611a4160068201611a3b60c088016116e0565b906115c2565b611a5a60078201611a5460e088016116e0565b906115c2565b611a7460088201611a6e61010088016116e0565b906115c2565b611a8e60098201611a8861012088016116e0565b906115c2565b611aa8600a8201611aa261014088016116e0565b906115c2565b611ac2600b8201611abc61016088016116e0565b906115c2565b611adc600c8201611ad661018088016116e0565b906115c2565b019201611935565b90611967565b565b90611af691611987565b565b9190611b1281611b0b81611b17956104ee565b809561165f565b61035f565b0190565b90611b5e94611b4d611b42611b57936060969a99979a60808701918783035f890152611af8565b9860208501906104dd565b60408301906104dd565b01906104dd565b565b92959195611b6c611376565b50611b8a611b84611b7f60048890610bcf565b61040e565b15610557565b611d8657611b975f610269565b611ba090611588565b611baa905f6115c2565b611bb35f610269565b968791859084923342428c611bc7916115e2565b428d611bd2916115e2565b8a611bdc916115e2565b918c935f955f975f995f9b611bef61161c565b9d5f8f0190611bfd9161162a565b611c06916116a0565b60208d0190611c14916116ae565b611c1d916116a0565b60408b0190611c2b916116ae565b60608a0190611c39916116b1565b6080890190611c479161162a565b60a0880190611c559161162a565b60c0870190611c639161162a565b60e0860190611c719161162a565b611c7a90610eee565b610100850190611c899161162a565b611c9290610eee565b610120840190611ca19161162a565b611caa90610eee565b610140830190611cb99161162a565b611cc290610eee565b610160820190611cd19161162a565b611cda5f610eee565b610180820190611ce99161162a565b6101a081016001611cf9916116bf565b600187611d0591610237565b90611d0f91611aec565b85923394924287611d1f916115e2565b964290611d2b916115e2565b90611d35916115e2565b7f28528fa183090d38f4c35574bb13fb455a547bda31d9bc9520957c9558f52f8e94611d609061021b565b95611d6a90611906565b96611d736101c2565b948594611d809486611b1b565b0390a390565b5f639dd854d360e01b815280611d9e60048201610b90565b0390fd5b5f90565b611dbd611dc291611db5611da2565b506004610bcf565b61040e565b90565b67ffffffffffffffff8111611dda5760200290565b610369565b611deb611df091611dc5565b611607565b90565b60e01b90565b611e0281610557565b03611e0957565b5f80fd5b90505190611e1a82611df9565b565b90602082820312611e3557611e32915f01611e0d565b90565b6101cc565b9037565b611e4a91604091611e3a565b565b50600290565b905090565b90565b611e6691604091611e3a565b565b90611e7581604093611e5a565b0190565b5090565b60400190565b611e9f611e99611e9283611e4c565b8094611e52565b91611e57565b805f925b848410611eb1575050505050565b611ecf611ec9600192611ec48686611e79565b611e68565b93611e7d565b93019291611ea3565b50600590565b905090565b90565b60200190565b611f08611f02611efb83611ed8565b8094611ede565b91611ee3565b5f915b838310611f185750505050565b611f2e611f2860019284516108e5565b92611ee6565b92019190611f0b565b611f6e611f7594611f6461010094989795611f5a6101a086019a5f870190611e3e565b6040850190611e83565b60c0830190611e3e565b0190611eec565b565b611f7f6101c2565b3d5f823e3d90fd5b611f9160e0611607565b90565b9061203c60c0600661204294611fb75f8201611fb15f88016116e0565b906115c2565b611fd060018201611fca602088016116e0565b906115c2565b611fe960028201611fe3604088016116e0565b906115c2565b61200260038201611ffc606088016116e0565b906115c2565b61201b6004820161201560808801611935565b90611967565b6120346005820161202e60a088016116e0565b906115c2565b019201611935565b90611967565b565b9061204e91611f94565b565b91602061207192949361206a60408201965f8301906104dd565b01906104dd565b565b9293959094919561208e61208960018690610237565b611394565b926120a461209e600d860161040e565b15610557565b6123a757426120c66120c06120bb60058801610269565b6101d4565b916101d4565b1161238b576120e96120e46120dd60038890611305565b8890610bcf565b61040e565b61236f57876121006120fa5f610eee565b916101d4565b14612353576020916121a96121156005611ddf565b612121895f830161162a565b61212d8a86830161162a565b61213a886040830161162a565b6121478b6060830161162a565b61215f61215660078901610269565b6080830161162a565b916121b461218c7f0000000000000000000000000000000000000000000000000000000000000000610862565b936334baeab992959761219d6101c2565b98899788968796611df3565b865260048601611f37565b03915afa801561234e576121d0915f91612320575b5015610557565b6123045760016003836121e291611305565b846121ec91610bcf565b906121f691611967565b838584425f905f92600194612209611f87565b965f8801906122179161162a565b60208701906122259161162a565b60408601906122339161162a565b60608501906122419161162a565b608084019061224f916116bf565b61225890610eee565b60a08301906122669161162a565b60c0820190612274916116bf565b60028361228091611116565b8461228a9161112c565b9061229491612044565b600b016122a081610269565b6122a990611588565b6122b2916115c2565b90917f816254a0f23b2b8d4a1d9574bd8a5adabe872881137f71912e7c52e0c6f179df916122df9061021b565b926122e99061021b565b936122f26101c2565b9182916122ff9183612050565b0390a3565b5f6309bde33960e01b81528061231c60048201610b90565b0390fd5b612341915060203d8111612347575b612339818361037d565b810190611e1c565b5f6121c9565b503d61232f565b611f77565b5f6343c891cf60e11b81528061236b60048201610b90565b0390fd5b5f636569570160e11b81528061238760048201610b90565b0390fd5b5f63abfb7dc360e01b8152806123a360048201610b90565b0390fd5b5f63635e873760e01b8152806123bf60048201610b90565b0390fd5b90565b612406916123fc612401926123d9611376565b506123e2611376565b506123eb611da2565b506123f4611376565b506002611116565b61112c565b6123c3565b6124115f8201610269565b61241d60018301610269565b92612436600561242f6004860161040e565b9401610269565b9193929190565b90612450905f199060200360080261078b565b8154169055565b905f9161246e612466826102bd565b9283546117f1565b905555565b919290602082105f146124cc57601f841160011461249c576124969293506117f1565b90555b5b565b50906124c26124c7936001806124ba6124b4866102bd565b936116f1565b03910161175a565b612457565b612499565b50600191926124e36124dd836116f1565b916116f1565b90806124ee866102bd565b0190601f841680612524575b50808311612511575b50505060020217905561249a565b61251c92039061175a565b5f8080612503565b6125309086840361243d565b5f6124fa565b929091680100000000000000008211612596576020115f1461258757602081105f1461256b57612565916117f1565b90555b5b565b60019160ff191661257b846102bd565b55600202019055612568565b60019150600202019055612569565b610369565b9081546125a78161028a565b908183116125d0575b8183106125be575b50505050565b6125c793612473565b5f8080806125b8565b6125dc83838387612536565b6125b0565b5f6125eb9161259b565b565b905f036125ff576125fd906125e1565b565b6116cd565b600d5f9161261483808301611746565b61262183600183016125ed565b61262e83600283016125ed565b8260038201556126418360048301611746565b61264e8360058301611746565b61265b8360068301611746565b6126688360078301611746565b6126758360088301611746565b6126828360098301611746565b61268f83600a8301611746565b61269c83600b8301611746565b6126a983600c8301611746565b0155565b905f036126bf576126bd90612604565b565b6116cd565b6126d86126d360018390610237565b611394565b6126ed6126e7600d830161040e565b15610557565b612785576126fd600382016103e7565b61270f6127093361053e565b9161053e565b0361276957600b6127209101610269565b61273261272c5f610eee565b916101d4565b1161274d575f61274661274b926001610237565b6126ad565b565b5f63811e73ff60e01b81528061276560048201610b90565b0390fd5b5f637d1b73b960e01b81528061278160048201610b90565b0390fd5b5f63635e873760e01b81528061279d60048201610b90565b0390fd5b6127a96114ab565b506127b46005611552565b90565b6127dc916127d26127d7926127ca611da2565b506003611305565b610bcf565b61040e565b90565b90565b5f5260205f2090565b5490565b6127f8816127eb565b8210156128125761280a6001916127e2565b910201905f90565b610742565b9081549168010000000000000000831015612847578261283f916001612845950181556127ef565b90611724565b565b610369565b61286061285b60078390610bcf565b61040e565b6128d45761287a600161287560078490610bcf565b611967565b61288e61288760066127df565b8290612817565b42906128cf6128bd7f85238313f6b4aa1ea470340fc24bc06d68e734cd21411160c06714eb547571af9261021b565b926128c66101c2565b9182918261069b565b0390a2565b50565b6128ed60016128e860048490610bcf565b611967565b6129016128fa60056127df565b8290612817565b42906129426129307fcb23ed79d0d407699762f186152925a6b8dd62fc4b2223f50a16534af8c883f89261021b565b926129396101c2565b9182918261069b565b0390a2565b90565b67ffffffffffffffff811161295f5760200290565b610369565b6129706129759161294a565b611607565b90565b90505190612985826101d7565b565b906020828203126129a05761299d915f01612978565b90565b6101cc565b50600490565b905090565b90565b6129bc906101d4565b9052565b906129cd816020936129b3565b0190565b60200190565b6129f36129ed6129e6836129a5565b80946129ab565b916129b0565b5f915b838310612a035750505050565b612a19612a1360019284516129c0565b926129d1565b920191906129f6565b9190612a35905f608085019401906129d7565b565b612a4b612a4660018390610237565b611394565b612a69612a64612a5d60028590611116565b859061112c565b6123c3565b94612a7f612a79600d840161040e565b15610557565b612e145742612aa1612a9b612a9660058601610269565b6101d4565b916101d4565b1115612df85742612ac5612abf612aba60068601610269565b6101d4565b916101d4565b11612ddc57612adf612ad96006880161040e565b15610557565b612dc057612aef6004870161040e565b612da45784612b0d612b07612b02611275565b6101d4565b916101d4565b11612d8857602085612ba592612b9a89612b86612b3d73__$0daf1669a85ce10529e05b8a030b9567e1$__612947565b93612b70612b686001638709cd8c95612b62612b596004612964565b9a5f8c0161162a565b01610269565b88880161162a565b612b7d8a6040880161162a565b6060860161162a565b612b8e6101c2565b95869485938493611df3565b835260048301612a22565b03915af4908115612d83575f91612d55575b50612bd4612bce612bc95f8901610269565b6101d4565b916101d4565b03612d3957612c6c91612c63600c600193612bf28560048b01611967565b612bff8860058b016115c2565b87612c19612c13612c0e610dbb565b6101d4565b916101d4565b145f14612cb957612c4a612c2e868b01610269565b612c446008840191612c3f83610269565b6115e2565b906115c2565b5b01612c5d612c5882610269565b611588565b906115c2565b92939401610269565b612c9f612c997fa8b3b9b1cdff40715f0311250e16b2a920dcd19105796dc1d4258b8163c5a3fa9361021b565b9361021b565b93612cb4612cab6101c2565b92839283612050565b0390a3565b87612cd3612ccd612cc8610f0a565b6101d4565b916101d4565b145f14612d0a57612d04612ce8868b01610269565b612cfe6009840191612cf983610269565b6115e2565b906115c2565b5b612c4b565b612d34612d18868b01610269565b612d2e600a840191612d2983610269565b6115e2565b906115c2565b612d05565b5f639ea6d12760e01b815280612d5160048201610b90565b0390fd5b612d76915060203d8111612d7c575b612d6e818361037d565b810190612987565b5f612bb7565b503d612d64565b611f77565b5f639c45400160e01b815280612da060048201610b90565b0390fd5b5f63a89ac15160e01b815280612dbc60048201610b90565b0390fd5b5f635b34156960e11b815280612dd860048201610b90565b0390fd5b5f6374683d7160e01b815280612df460048201610b90565b0390fd5b5f6374683d7160e01b815280612e1060048201610b90565b0390fd5b5f63635e873760e01b815280612e2c60048201610b90565b0390fd5b606090565b5f90565b612e42906103a6565b90565b612ec8612ecd91612e54611376565b50612e5d612e30565b50612e66612e30565b50612e6f612e35565b50612e78611376565b50612e81611376565b50612e8a611376565b50612e93611376565b50612e9c611376565b50612ea5611376565b50612eae611376565b50612eb7611376565b50612ec0611390565b506001610237565b611394565b612ee2612edc600d830161040e565b15610557565b61300d57612eee611390565b5042612f0d612f07612f0260058501610269565b6101d4565b916101d4565b11155f14612fc857612f1e5f611397565b5b612f2a5f8301610269565b60018301936002840193612f40600382016103e7565b93612f4d60078301610269565b93612f5a60058401610269565b93612f6760068501610269565b93612f7460088201610269565b93612f8160098301610269565b93612f8e600a8401610269565b93612fbb612fb5612fad600c612fa6600b8901610269565b9701610269565b94939e612e39565b9c612e39565b9a99989796959493929190565b42612fe6612fe0612fdb60068501610269565b6101d4565b916101d4565b11155f14612ffe57612ff860016113b3565b5b612f1f565b61300860026113cf565b612ff9565b5f63635e873760e01b81528061302560048201610b90565b0390fdfea26469706673582212209490b0372699537abcbe62a504872639c9ddc295e8cfa241608091b90a0d80d064736f6c63430008210033","linkReferences":{"contracts/PoseidonT5.sol":{"PoseidonT5":[{"start":11408,"length":20}]}}},"methodIdentifiers":{"CHOICE_ABSTAIN()":"d90292a3","CHOICE_AGAINST()":"b5770c33","CHOICE_FOR()":"8ea7a274","commitVote(uint256,uint256,uint256,uint256,uint256[2],uint256[2][2],uint256[2])":"51fce2e6","commitments(uint256,uint256)":"d13e2e60","createProposal(string,string,uint256,uint256,uint256)":"33423c06","deleteProposal(uint256)":"8259d553","getCommitment(uint256,uint256)":"7164f0d6","getMerkleRoots()":"85135a1a","getPhase(uint256)":"16ef376b","getProposal(uint256)":"c7f758a8","getRegisteredVoters()":"2bc4a6e7","getVoterCount()":"11174a29","isMerkleRootValid(uint256)":"4a9284fb","isNullifierUsed(uint256,uint256)":"85c74296","isVoterRegistered(uint256)":"6d3cba61","merkleRootHistory(uint256)":"b5ad9215","nullifierUsed(uint256,uint256)":"e78ffc96","proposalCount()":"da35c664","proposals(uint256)":"013cf08b","registerMerkleRoot(uint256)":"a4cae8f8","registerVoter(uint256)":"a13f2f8d","registeredVoters(uint256)":"2436e06b","revealVote(uint256,uint256,uint256,uint256)":"b30c510b","validMerkleRoots(uint256)":"cb1bb033","verifier()":"2b7ac3f3"},"id":2}