{"abi":[{"type":"constructor","inputs":[{"name":"_verifier","type":"address","internalType":"address"}],"stateMutability":"nonpayable"},{"type":"function","name":"CHOICE_ABSTAIN","inputs":[],"outputs":[{"name":"","type":"uint256","internalType":"uint256"}],"stateMutability":"view"},{"type":"function","name":"CHOICE_AGAINST","inputs":[],"outputs":[{"name":"","type":"uint256","internalType":"uint256"}],"stateMutability":"view"},{"type":"function","name":"CHOICE_FOR","inputs":[],"outputs":[{"name":"","type":"uint256","internalType":"uint256"}],"stateMutability":"view"},{"type":"function","name":"commitVote","inputs":[{"name":"_proposalId","type":"uint256","internalType":"uint256"},{"name":"_commitment","type":"uint256","internalType":"uint256"},{"name":"_votingPower","type":"uint256","internalType":"uint256"},{"name":"_nullifier","type":"uint256","internalType":"uint256"},{"name":"_pA","type":"uint256[2]","internalType":"uint256[2]"},{"name":"_pB","type":"uint256[2][2]","internalType":"uint256[2][2]"},{"name":"_pC","type":"uint256[2]","internalType":"uint256[2]"}],"outputs":[],"stateMutability":"nonpayable"},{"type":"function","name":"commitments","inputs":[{"name":"","type":"uint256","internalType":"uint256"},{"name":"","type":"uint256","internalType":"uint256"}],"outputs":[{"name":"commitment","type":"uint256","internalType":"uint256"},{"name":"votingPower","type":"uint256","internalType":"uint256"},{"name":"nullifier","type":"uint256","internalType":"uint256"},{"name":"timestamp","type":"uint256","internalType":"uint256"},{"name":"revealed","type":"bool","internalType":"bool"},{"name":"revealedChoice","type":"uint256","internalType":"uint256"},{"name":"exists","type":"bool","internalType":"bool"}],"stateMutability":"view"},{"type":"function","name":"createProposal","inputs":[{"name":"_title","type":"string","internalType":"string"},{"name":"_description","type":"string","internalType":"string"},{"name":"_merkleRoot","type":"uint256","internalType":"uint256"},{"name":"_votingDuration","type":"uint256","internalType":"uint256"},{"name":"_revealDuration","type":"uint256","internalType":"uint256"}],"outputs":[{"name":"","type":"uint256","internalType":"uint256"}],"stateMutability":"nonpayable"},{"type":"function","name":"getCommitment","inputs":[{"name":"_proposalId","type":"uint256","internalType":"uint256"},{"name":"_nullifier","type":"uint256","internalType":"uint256"}],"outputs":[{"name":"commitment","type":"uint256","internalType":"uint256"},{"name":"votingPower","type":"uint256","internalType":"uint256"},{"name":"revealed","type":"bool","internalType":"bool"},{"name":"revealedChoice","type":"uint256","internalType":"uint256"}],"stateMutability":"view"},{"type":"function","name":"getMerkleRoots","inputs":[],"outputs":[{"name":"","type":"uint256[]","internalType":"uint256[]"}],"stateMutability":"view"},{"type":"function","name":"getPhase","inputs":[{"name":"_proposalId","type":"uint256","internalType":"uint256"}],"outputs":[{"name":"","type":"uint8","internalType":"uint8"}],"stateMutability":"view"},{"type":"function","name":"getProposal","inputs":[{"name":"_proposalId","type":"uint256","internalType":"uint256"}],"outputs":[{"name":"id","type":"uint256","internalType":"uint256"},{"name":"title","type":"string","internalType":"string"},{"name":"description","type":"string","internalType":"string"},{"name":"proposer","type":"address","internalType":"address"},{"name":"merkleRoot","type":"uint256","internalType":"uint256"},{"name":"endTime","type":"uint256","internalType":"uint256"},{"name":"revealEndTime","type":"uint256","internalType":"uint256"},{"name":"forVotes","type":"uint256","internalType":"uint256"},{"name":"againstVotes","type":"uint256","internalType":"uint256"},{"name":"abstainVotes","type":"uint256","internalType":"uint256"},{"name":"totalCommitments","type":"uint256","internalType":"uint256"},{"name":"revealedVotes","type":"uint256","internalType":"uint256"},{"name":"phase","type":"uint8","internalType":"uint8"}],"stateMutability":"view"},{"type":"function","name":"isMerkleRootValid","inputs":[{"name":"_merkleRoot","type":"uint256","internalType":"uint256"}],"outputs":[{"name":"","type":"bool","internalType":"bool"}],"stateMutability":"view"},{"type":"function","name":"isNullifierUsed","inputs":[{"name":"_proposalId","type":"uint256","internalType":"uint256"},{"name":"_nullifier","type":"uint256","internalType":"uint256"}],"outputs":[{"name":"","type":"bool","internalType":"bool"}],"stateMutability":"view"},{"type":"function","name":"merkleRootHistory","inputs":[{"name":"","type":"uint256","internalType":"uint256"}],"outputs":[{"name":"","type":"uint256","internalType":"uint256"}],"stateMutability":"view"},{"type":"function","name":"nullifierUsed","inputs":[{"name":"","type":"uint256","internalType":"uint256"},{"name":"","type":"uint256","internalType":"uint256"}],"outputs":[{"name":"","type":"bool","internalType":"bool"}],"stateMutability":"view"},{"type":"function","name":"proposalCount","inputs":[],"outputs":[{"name":"","type":"uint256","internalType":"uint256"}],"stateMutability":"view"},{"type":"function","name":"proposals","inputs":[{"name":"","type":"uint256","internalType":"uint256"}],"outputs":[{"name":"id","type":"uint256","internalType":"uint256"},{"name":"title","type":"string","internalType":"string"},{"name":"description","type":"string","internalType":"string"},{"name":"proposer","type":"address","internalType":"address"},{"name":"startTime","type":"uint256","internalType":"uint256"},{"name":"endTime","type":"uint256","internalType":"uint256"},{"name":"revealEndTime","type":"uint256","internalType":"uint256"},{"name":"merkleRoot","type":"uint256","internalType":"uint256"},{"name":"forVotes","type":"uint256","internalType":"uint256"},{"name":"againstVotes","type":"uint256","internalType":"uint256"},{"name":"abstainVotes","type":"uint256","internalType":"uint256"},{"name":"totalCommitments","type":"uint256","internalType":"uint256"},{"name":"revealedVotes","type":"uint256","internalType":"uint256"},{"name":"exists","type":"bool","internalType":"bool"}],"stateMutability":"view"},{"type":"function","name":"registerMerkleRoot","inputs":[{"name":"_merkleRoot","type":"uint256","internalType":"uint256"}],"outputs":[],"stateMutability":"nonpayable"},{"type":"function","name":"revealVote","inputs":[{"name":"_proposalId","type":"uint256","internalType":"uint256"},{"name":"_nullifier","type":"uint256","internalType":"uint256"},{"name":"_choice","type":"uint256","internalType":"uint256"},{"name":"_voteSalt","type":"uint256","internalType":"uint256"}],"outputs":[],"stateMutability":"nonpayable"},{"type":"function","name":"validMerkleRoots","inputs":[{"name":"","type":"uint256","internalType":"uint256"}],"outputs":[{"name":"","type":"bool","internalType":"bool"}],"stateMutability":"view"},{"type":"function","name":"verifier","inputs":[],"outputs":[{"name":"","type":"address","internalType":"contract IVerifier"}],"stateMutability":"view"},{"type":"event","name":"MerkleRootRegistered","inputs":[{"name":"merkleRoot","type":"uint256","indexed":true,"internalType":"uint256"},{"name":"timestamp","type":"uint256","indexed":false,"internalType":"uint256"}],"anonymous":false},{"type":"event","name":"ProposalCreated","inputs":[{"name":"proposalId","type":"uint256","indexed":true,"internalType":"uint256"},{"name":"title","type":"string","indexed":false,"internalType":"string"},{"name":"proposer","type":"address","indexed":true,"internalType":"address"},{"name":"merkleRoot","type":"uint256","indexed":false,"internalType":"uint256"},{"name":"endTime","type":"uint256","indexed":false,"internalType":"uint256"},{"name":"revealEndTime","type":"uint256","indexed":false,"internalType":"uint256"}],"anonymous":false},{"type":"event","name":"VoteCommitted","inputs":[{"name":"proposalId","type":"uint256","indexed":true,"internalType":"uint256"},{"name":"nullifier","type":"uint256","indexed":true,"internalType":"uint256"},{"name":"commitment","type":"uint256","indexed":false,"internalType":"uint256"},{"name":"votingPower","type":"uint256","indexed":false,"internalType":"uint256"}],"anonymous":false},{"type":"event","name":"VoteRevealed","inputs":[{"name":"proposalId","type":"uint256","indexed":true,"internalType":"uint256"},{"name":"nullifier","type":"uint256","indexed":true,"internalType":"uint256"},{"name":"choice","type":"uint256","indexed":false,"internalType":"uint256"},{"name":"votingPower","type":"uint256","indexed":false,"internalType":"uint256"}],"anonymous":false},{"type":"error","name":"AlreadyRevealed","inputs":[]},{"type":"error","name":"CommitmentNotFound","inputs":[]},{"type":"error","name":"InvalidChoice","inputs":[]},{"type":"error","name":"InvalidMerkleRoot","inputs":[]},{"type":"error","name":"InvalidProof","inputs":[]},{"type":"error","name":"InvalidReveal","inputs":[]},{"type":"error","name":"NotInCommitPhase","inputs":[]},{"type":"error","name":"NotInRevealPhase","inputs":[]},{"type":"error","name":"NullifierAlreadyUsed","inputs":[]},{"type":"error","name":"ProposalNotFound","inputs":[]},{"type":"error","name":"ZeroVotingPower","inputs":[]}],"bytecode":{"object":"0x60a06040523461003f57610019610014610104565b61015c565b610021610044565b612a0861016b823960805181818161069a0152611e8a0152612a0890f35b61004a565b60405190565b5f80fd5b601f801991011690565b634e487b7160e01b5f52604160045260245ffd5b906100769061004e565b810190811060018060401b0382111761008e57604052565b610058565b906100a661009f610044565b928361006c565b565b5f80fd5b60018060a01b031690565b6100c0906100ac565b90565b6100cc816100b7565b036100d357565b5f80fd5b905051906100e4826100c3565b565b906020828203126100ff576100fc915f016100d7565b90565b6100a8565b610122612b738038038061011781610093565b9283398101906100e6565b90565b90565b61013c610137610141926100ac565b610125565b6100ac565b90565b61014d90610128565b90565b61015990610144565b90565b61016590610150565b60805256fe60806040526004361015610013575b611193565b61001d5f3561015c565b8063013cf08b1461015757806316ef376b146101525780632b7ac3f31461014d57806333423c06146101485780634a9284fb1461014357806351fce2e61461013e5780637164f0d61461013957806385135a1a1461013457806385c742961461012f5780638ea7a2741461012a578063a4cae8f814610125578063b30c510b14610120578063b5770c331461011b578063b5ad921514610116578063c7f758a814610111578063cb1bb0331461010c578063d13e2e6014610107578063d90292a314610102578063da35c664146100fd5763e78ffc960361000e5761115d565b6110f1565b6110ae565b61103a565b610f02565b610e68565b610d67565b610c93565b610c26565b610bad565b610b78565b610b0b565b610ad6565b6109fd565b610958565b610882565b610831565b610712565b610654565b6105e4565b60e01c90565b60405190565b5f80fd5b5f80fd5b5f80fd5b90565b61018081610174565b0361018757565b5f80fd5b9050359061019882610177565b565b906020828203126101b3576101b0915f0161018b565b90565b61016c565b90565b6101cf6101ca6101d492610174565b6101b8565b610174565b90565b906101e1906101bb565b5f5260205260405f2090565b5f1c90565b90565b610201610206916101ed565b6101f2565b90565b61021390546101f5565b90565b634e487b7160e01b5f52602260045260245ffd5b906001600283049216801561024a575b602083101461024557565b610216565b91607f169161023a565b60209181520190565b5f5260205f2090565b905f92918054906102806102798361022a565b8094610254565b916001811690815f146102d7575060011461029b575b505050565b6102a8919293945061025d565b915f925b8184106102bf57505001905f8080610296565b600181602092959395548486015201910192906102ac565b92949550505060ff19168252151560200201905f8080610296565b906102fc91610266565b90565b601f801991011690565b634e487b7160e01b5f52604160045260245ffd5b90610327906102ff565b810190811067ffffffffffffffff82111761034157604052565b610309565b9061036661035f92610356610162565b938480926102f2565b038361031d565b565b60018060a01b031690565b61037f610384916101ed565b610368565b90565b6103919054610373565b90565b60ff1690565b6103a66103ab916101ed565b610394565b90565b6103b8905461039a565b90565b6103c69060016101d7565b906103d25f8301610209565b916103df60018201610346565b916103ec60028301610346565b916103f960038201610387565b9161040660048301610209565b9161041360058201610209565b9161042060068301610209565b9161042d60078201610209565b9161043a60088301610209565b9161044760098201610209565b91610454600a8301610209565b91610461600b8201610209565b9161047a600d610473600c8501610209565b93016103ae565b90565b61048690610174565b9052565b5190565b60209181520190565b90825f9392825e0152565b6104c16104ca6020936104cf936104b88161048a565b9384809361048e565b95869101610497565b6102ff565b0190565b60018060a01b031690565b6104e7906104d3565b90565b6104f3906104de565b9052565b151590565b610505906104f7565b9052565b809c9a9896949f9e9d9b9997959392916101c08201915f0161052a9161047d565b8c808203906020015261053c916104a2565b8b810360408d015261054d916104a2565b9c60608b0161055b916104ea565b60808a016105689161047d565b60a089016105759161047d565b60c088016105829161047d565b60e0870161058f9161047d565b610100860161059d9161047d565b61012085016105ab9161047d565b61014084016105b99161047d565b61016083016105c79161047d565b61018082016105d59161047d565b6101a0016105e2916104fc565b565b34610627576106236105ff6105fa36600461019a565b6103bb565b9a61061a9e9c9e9a919a999299989398979497969596610162565b9e8f9e8f610509565b0390f35b610168565b60ff1690565b61063b9061062c565b9052565b9190610652905f60208501940190610632565b565b346106845761068061066f61066a36600461019a565b6111f2565b610677610162565b9182918261063f565b0390f35b610168565b5f91031261069357565b61016c565b7f000000000000000000000000000000000000000000000000000000000000000090565b6106d06106cb6106d5926104d3565b6101b8565b6104d3565b90565b6106e1906106bc565b90565b6106ed906106d8565b90565b6106f9906106e4565b9052565b9190610710905f602085019401906106f0565b565b3461074257610722366004610689565b61073e61072d610698565b610735610162565b918291826106fd565b0390f35b610168565b5f80fd5b5f80fd5b5f80fd5b909182601f8301121561078d5781359167ffffffffffffffff831161078857602001926001830284011161078357565b61074f565b61074b565b610747565b909160a082840312610817575f82013567ffffffffffffffff811161081257836107bd918401610753565b929093602082013567ffffffffffffffff811161080d57816107e0918401610753565b92909361080a6107f3846040850161018b565b93610801816060860161018b565b9360800161018b565b90565b610170565b610170565b61016c565b919061082f905f6020850194019061047d565b565b3461086857610864610853610847366004610792565b9594909493919361188f565b61085b610162565b9182918261081c565b0390f35b610168565b9190610880905f602085019401906104fc565b565b346108b2576108ae61089d61089836600461019a565b611ad5565b6108a5610162565b9182918261086d565b0390f35b610168565b919060206002028301116108c757565b61074f565b919060406002028301116108dc57565b61074f565b6101808183031261094e576108f8825f830161018b565b92610906836020840161018b565b92610914816040850161018b565b92610922826060830161018b565b9261094b61093384608085016108b7565b936109418160c086016108cc565b93610140016108b7565b90565b61016c565b5f0190565b3461098d5761097761096b3660046108e1565b95949094939193611da2565b61097f610162565b8061098981610953565b0390f35b610168565b91906040838203126109ba57806109ae6109b7925f860161018b565b9360200161018b565b90565b61016c565b6109f46109fb946109ea6060949897956109e0608086019a5f87019061047d565b602085019061047d565b60408301906104fc565b019061047d565b565b34610a3257610a2e610a19610a13366004610992565b906120e8565b90610a25949294610162565b948594856109bf565b0390f35b610168565b5190565b60209181520190565b60200190565b610a5390610174565b9052565b90610a6481602093610a4a565b0190565b60200190565b90610a8b610a85610a7e84610a37565b8093610a3b565b92610a44565b905f5b818110610a9b5750505090565b909192610ab4610aae6001928651610a57565b94610a68565b9101919091610a8e565b610ad39160208201915f818403910152610a6e565b90565b34610b0657610ae6366004610689565b610b02610af1612212565b610af9610162565b91829182610abe565b0390f35b610168565b34610b3c57610b38610b27610b21366004610992565b90612228565b610b2f610162565b9182918261086d565b0390f35b610168565b90565b610b58610b53610b5d92610b41565b6101b8565b610174565b90565b610b6a6001610b44565b90565b610b75610b60565b90565b34610ba857610b88366004610689565b610ba4610b93610b6d565b610b9b610162565b9182918261081c565b0390f35b610168565b34610bdb57610bc5610bc036600461019a565b6122bd565b610bcd610162565b80610bd781610953565b0390f35b610168565b608081830312610c2157610bf6825f830161018b565b92610c1e610c07846020850161018b565b93610c15816040860161018b565b9360600161018b565b90565b61016c565b34610c5857610c42610c39366004610be0565b929190916123e0565b610c4a610162565b80610c5481610953565b0390f35b610168565b90565b610c74610c6f610c7992610c5d565b6101b8565b610174565b90565b610c855f610c60565b90565b610c90610c7c565b90565b34610cc357610ca3366004610689565b610cbf610cae610c88565b610cb6610162565b9182918261081c565b0390f35b610168565b634e487b7160e01b5f52603260045260245ffd5b5490565b5f5260205f2090565b610cf281610cdc565b821015610d0c57610d04600191610ce0565b910201905f90565b610cc8565b1c90565b610d25906008610d2a9302610d11565b6101f2565b90565b90610d389154610d15565b90565b6005610d4681610cdc565b821015610d6357610d6091610d5a91610ce9565b90610d2d565b90565b5f80fd5b34610d9757610d93610d82610d7d36600461019a565b610d3b565b610d8a610162565b9182918261081c565b0390f35b610168565b9a9896949291909d9c9b999795939d6101a08c01905f8d01610dbd9161047d565b8b810360208d0152610dce916104a2565b8a810360408c0152610ddf916104a2565b9b60608a01610ded916104ea565b60808901610dfa9161047d565b60a08801610e079161047d565b60c08701610e149161047d565b60e08601610e219161047d565b6101008501610e2f9161047d565b6101208401610e3d9161047d565b6101408301610e4b9161047d565b6101608201610e599161047d565b61018001610e6691610632565b565b34610ea857610ea4610e83610e7e36600461019a565b6127ee565b99610e9b9d9b9d999199989298979397969496610162565b9d8e9d8e610d9c565b0390f35b610168565b90610eb7906101bb565b5f5260205260405f2090565b610ed3906008610ed89302610d11565b610394565b90565b90610ee69154610ec3565b90565b610eff90610efa6004915f92610ead565b610edb565b90565b34610f3257610f2e610f1d610f1836600461019a565b610ee9565b610f25610162565b9182918261086d565b0390f35b610168565b90610f41906101bb565b5f5260205260405f2090565b90610f57906101bb565b5f5260205260405f2090565b90610f72610f77926002610f37565b610f4d565b610f825f8201610209565b91610f8f60018301610209565b91610f9c60028201610209565b91610fa960038301610209565b91610fb6600482016103ae565b91610fcf6006610fc860058501610209565b93016103ae565b90565b949290979695939160e08601985f8701610feb9161047d565b60208601610ff89161047d565b604085016110059161047d565b606084016110129161047d565b6080830161101f916104fc565b60a0820161102c9161047d565b60c001611038916104fc565b565b346110725761106e611056611050366004610992565b90610f63565b93611065979597939193610162565b97889788610fd2565b0390f35b610168565b90565b61108e61108961109392611077565b6101b8565b610174565b90565b6110a0600261107a565b90565b6110ab611096565b90565b346110de576110be366004610689565b6110da6110c96110a3565b6110d1610162565b9182918261081c565b0390f35b610168565b6110ee5f5f90610d2d565b90565b3461112157611101366004610689565b61111d61110c6110e3565b611114610162565b9182918261081c565b0390f35b610168565b90611130906101bb565b5f5260205260405f2090565b61115561115a926111506003935f94611126565b610ead565b610edb565b90565b3461118e5761118a611179611173366004610992565b9061113c565b611181610162565b9182918261086d565b0390f35b610168565b5f80fd5b5f90565b90565b6111b26111ad6111b792610c5d565b6101b8565b61062c565b90565b6111ce6111c96111d392610b41565b6101b8565b61062c565b90565b6111ea6111e56111ef92611077565b6101b8565b61062c565b90565b61120961120e91611201611197565b5060016101d7565b61119b565b61122361121d600d83016103ae565b156104f7565b611296574261124561123f61123a60058501610209565b610174565b91610174565b11156112895761126961126361125e6006429401610209565b610174565b91610174565b111561127c5761127960026111d6565b90565b61128660016111ba565b90565b506112935f61119e565b90565b5f63635e873760e01b8152806112ae60048201610953565b0390fd5b5f90565b634e487b7160e01b5f52601160045260245ffd5b6112d390610174565b5f1981146112e15760010190565b6112b6565b5f1b90565b906112f75f19916112e6565b9181191691161790565b90565b90611319611314611320926101bb565b611301565b82546112eb565b9055565b61133361133991939293610174565b92610174565b820180921161134457565b6112b6565b9061135c611355610162565b928361031d565b565b6113696101c0611349565b90565b9061137690610174565b9052565b5f80fd5b67ffffffffffffffff811161139c576113986020916102ff565b0190565b610309565b90825f939282370152565b909291926113c16113bc8261137e565b611349565b938185526020850190828401116113dd576113db926113a1565b565b61137a565b6113ed9136916113ac565b90565b52565b906113fd906104de565b9052565b9061140b906104f7565b9052565b6114199051610174565b90565b5190565b601f602091010490565b1b90565b919060086114499102916114435f198461142a565b9261142a565b9181191691161790565b9190611469611464611471936101bb565b611301565b90835461142e565b9055565b611487916114816112b2565b91611453565b565b5f5b82811061149757505050565b806114a65f6001938501611475565b0161148b565b9190601f81116114bc575b505050565b8181116114c9575b6114b7565b6114de6114d86114fc9461025d565b91611420565b9160206114ea82611420565b9110611504575b809101910390611489565b5f80806114c4565b505f6114f1565b9061151b905f1990600802610d11565b191690565b8161152a9161150b565b906002021790565b9061153c8161048a565b9067ffffffffffffffff82116115fc576115608261155a855461022a565b856114ac565b602090601f831160011461159457918091611583935f92611588575b5050611520565b90555b565b90915001515f8061157c565b601f198316916115a38561025d565b925f5b8181106115e4575091600293918560019694106115ca575b50505002019055611586565b6115da910151601f84169061150b565b90555f80806115be565b919360206001819287870151815501950192016115a6565b610309565b9061160b91611532565b565b61161790516104de565b90565b9061162b60018060a01b03916112e6565b9181191691161790565b61163e906106d8565b90565b90565b9061165961165461166092611635565b611641565b825461161a565b9055565b61166e90516104f7565b90565b9061167d60ff916112e6565b9181191691161790565b611690906104f7565b90565b90565b906116ab6116a66116b292611687565b611693565b8254611671565b9055565b906118136101a0600d611819946116da5f82016116d45f880161140f565b90611304565b6116f3600182016116ed6020880161141c565b90611601565b61170c600282016117066040880161141c565b90611601565b6117256003820161171f6060880161160d565b90611644565b61173e600482016117386080880161140f565b90611304565b6117576005820161175160a0880161140f565b90611304565b6117706006820161176a60c0880161140f565b90611304565b6117896007820161178360e0880161140f565b90611304565b6117a36008820161179d610100880161140f565b90611304565b6117bd600982016117b7610120880161140f565b90611304565b6117d7600a82016117d1610140880161140f565b90611304565b6117f1600b82016117eb610160880161140f565b90611304565b61180b600c8201611805610180880161140f565b90611304565b019201611664565b90611696565b565b90611825916116b6565b565b91906118418161183a816118469561048e565b80956113a1565b6102ff565b0190565b9061188d9461187c611871611886936060969a99979a60808701918783035f890152611827565b98602085019061047d565b604083019061047d565b019061047d565b565b9295919561189b6112b2565b506118b96118b36118ae60048890610ead565b6103ae565b156104f7565b611ab5576118c65f610209565b6118cf906112ca565b6118d9905f611304565b6118e25f610209565b968791859084923342428c6118f691611324565b428d61190191611324565b8a61190b91611324565b918c935f955f975f995f9b61191e61135e565b9d5f8f019061192c9161136c565b611935916113e2565b60208d0190611943916113f0565b61194c916113e2565b60408b019061195a916113f0565b60608a0190611968916113f3565b60808901906119769161136c565b60a08801906119849161136c565b60c08701906119929161136c565b60e08601906119a09161136c565b6119a990610c60565b6101008501906119b89161136c565b6119c190610c60565b6101208401906119d09161136c565b6119d990610c60565b6101408301906119e89161136c565b6119f190610c60565b610160820190611a009161136c565b611a095f610c60565b610180820190611a189161136c565b6101a081016001611a2891611401565b600187611a34916101d7565b90611a3e9161181b565b85923394924287611a4e91611324565b964290611a5a91611324565b90611a6491611324565b7f28528fa183090d38f4c35574bb13fb455a547bda31d9bc9520957c9558f52f8e94611a8f906101bb565b95611a9990611635565b96611aa2610162565b948594611aaf948661184a565b0390a390565b5f639dd854d360e01b815280611acd60048201610953565b0390fd5b5f90565b611aec611af191611ae4611ad1565b506004610ead565b6103ae565b90565b67ffffffffffffffff8111611b095760200290565b610309565b611b1a611b1f91611af4565b611349565b90565b60e01b90565b611b31816104f7565b03611b3857565b5f80fd5b90505190611b4982611b28565b565b90602082820312611b6457611b61915f01611b3c565b90565b61016c565b9037565b611b7991604091611b69565b565b50600290565b905090565b90565b611b9591604091611b69565b565b90611ba481604093611b89565b0190565b5090565b60400190565b611bce611bc8611bc183611b7b565b8094611b81565b91611b86565b805f925b848410611be0575050505050565b611bfe611bf8600192611bf38686611ba8565b611b97565b93611bac565b93019291611bd2565b50600490565b905090565b90565b60200190565b611c37611c31611c2a83611c07565b8094611c0d565b91611c12565b5f915b838310611c475750505050565b611c5d611c576001928451610a57565b92611c15565b92019190611c3a565b611c9d611ca494611c9361010094989795611c8961018086019a5f870190611b6d565b6040850190611bb2565b60c0830190611b6d565b0190611c1b565b565b611cae610162565b3d5f823e3d90fd5b611cc060e0611349565b90565b90611d6b60c06006611d7194611ce65f8201611ce05f880161140f565b90611304565b611cff60018201611cf96020880161140f565b90611304565b611d1860028201611d126040880161140f565b90611304565b611d3160038201611d2b6060880161140f565b90611304565b611d4a60048201611d4460808801611664565b90611696565b611d6360058201611d5d60a0880161140f565b90611304565b019201611664565b90611696565b565b90611d7d91611cc3565b565b916020611da0929493611d9960408201965f83019061047d565b019061047d565b565b92939590949195611dbd611db8600186906101d7565b61119b565b92611dd3611dcd600d86016103ae565b156104f7565b6120c95742611df5611def611dea60058801610209565b610174565b91610174565b116120ad57611e18611e13611e0c60038890611126565b8890610ead565b6103ae565b6120915787611e2f611e295f610c60565b91610174565b1461207557602091611ecb611e446004611b0e565b611e508a5f830161136c565b611e5c8886830161136c565b611e698b6040830161136c565b611e81611e7860078901610209565b6060830161136c565b91611ed6611eae7f00000000000000000000000000000000000000000000000000000000000000006106e4565b93635fe8c13b929597611ebf610162565b98899788968796611b22565b865260048601611c66565b03915afa801561207057611ef2915f91612042575b50156104f7565b612026576001600383611f0491611126565b84611f0e91610ead565b90611f1891611696565b838584425f905f92600194611f2b611cb6565b965f880190611f399161136c565b6020870190611f479161136c565b6040860190611f559161136c565b6060850190611f639161136c565b6080840190611f7191611401565b611f7a90610c60565b60a0830190611f889161136c565b60c0820190611f9691611401565b600283611fa291610f37565b84611fac91610f4d565b90611fb691611d73565b600b01611fc281610209565b611fcb906112ca565b611fd491611304565b90917f816254a0f23b2b8d4a1d9574bd8a5adabe872881137f71912e7c52e0c6f179df91612001906101bb565b9261200b906101bb565b93612014610162565b9182916120219183611d7f565b0390a3565b5f6309bde33960e01b81528061203e60048201610953565b0390fd5b612063915060203d8111612069575b61205b818361031d565b810190611b4b565b5f611eeb565b503d612051565b611ca6565b5f6343c891cf60e11b81528061208d60048201610953565b0390fd5b5f636569570160e11b8152806120a960048201610953565b0390fd5b5f63abfb7dc360e01b8152806120c560048201610953565b0390fd5b5f63635e873760e01b8152806120e160048201610953565b0390fd5b90565b6121289161211e612123926120fb6112b2565b506121046112b2565b5061210d611ad1565b506121166112b2565b506002610f37565b610f4d565b6120e5565b6121335f8201610209565b61213f60018301610209565b926121586005612151600486016103ae565b9401610209565b9193929190565b606090565b60209181520190565b61217790546101f5565b90565b60010190565b9061219d61219761219084610cdc565b8093612164565b92610ce0565b905f5b8181106121ad5750505090565b9091926121cd6121c76001926121c28761216d565b610a57565b9461217a565b91019190916121a0565b906121e191612180565b90565b906122046121fd926121f4610162565b938480926121d7565b038361031d565b565b61220f906121e4565b90565b61221a61215f565b506122256005612206565b90565b61224d916122436122489261223b611ad1565b506003611126565b610ead565b6103ae565b90565b90565b5f5260205f2090565b5490565b6122698161225c565b8210156122835761227b600191612253565b910201905f90565b610cc8565b90815491680100000000000000008310156122b857826122b09160016122b695018155612260565b90611453565b565b610309565b6122d360016122ce60048490610ead565b611696565b6122e76122e06005612250565b8290612288565b42906123286123167fcb23ed79d0d407699762f186152925a6b8dd62fc4b2223f50a16534af8c883f8926101bb565b9261231f610162565b9182918261081c565b0390a2565b90565b9050519061233d82610177565b565b9060208282031261235857612355915f01612330565b90565b61016c565b905090565b61236b90610174565b9052565b9061237c81602093612362565b0190565b61239c61239661238f83611c07565b809461235d565b91611c12565b5f915b8383106123ac5750505050565b6123c26123bc600192845161236f565b92611c15565b9201919061239f565b91906123de905f60808501940190612380565b565b6123f46123ef600183906101d7565b61119b565b61241261240d61240660028590610f37565b8590610f4d565b6120e5565b94612428612422600d84016103ae565b156104f7565b6127bd574261244a61244461243f60058601610209565b610174565b91610174565b11156127a1574261246e61246861246360068601610209565b610174565b91610174565b1161278557612488612482600688016103ae565b156104f7565b61276957612498600487016103ae565b61274d57846124b66124b06124ab611096565b610174565b91610174565b116127315760208561254e926125438961252f6124e673__$0daf1669a85ce10529e05b8a030b9567e1$__61232d565b936125196125116001638709cd8c9561250b6125026004611b0e565b9a5f8c0161136c565b01610209565b88880161136c565b6125268a6040880161136c565b6060860161136c565b612537610162565b95869485938493611b22565b8352600483016123cb565b03915af490811561272c575f916126fe575b5061257d6125776125725f8901610209565b610174565b91610174565b036126e2576126159161260c600c60019361259b8560048b01611696565b6125a88860058b01611304565b876125c26125bc6125b7610b60565b610174565b91610174565b145f14612662576125f36125d7868b01610209565b6125ed60088401916125e883610209565b611324565b90611304565b5b0161260661260182610209565b6112ca565b90611304565b92939401610209565b6126486126427fa8b3b9b1cdff40715f0311250e16b2a920dcd19105796dc1d4258b8163c5a3fa936101bb565b936101bb565b9361265d612654610162565b92839283611d7f565b0390a3565b8761267c612676612671610c7c565b610174565b91610174565b145f146126b3576126ad612691868b01610209565b6126a760098401916126a283610209565b611324565b90611304565b5b6125f4565b6126dd6126c1868b01610209565b6126d7600a8401916126d283610209565b611324565b90611304565b6126ae565b5f639ea6d12760e01b8152806126fa60048201610953565b0390fd5b61271f915060203d8111612725575b612717818361031d565b81019061233f565b5f612560565b503d61270d565b611ca6565b5f639c45400160e01b81528061274960048201610953565b0390fd5b5f63a89ac15160e01b81528061276560048201610953565b0390fd5b5f635b34156960e11b81528061278160048201610953565b0390fd5b5f6374683d7160e01b81528061279d60048201610953565b0390fd5b5f6374683d7160e01b8152806127b960048201610953565b0390fd5b5f63635e873760e01b8152806127d560048201610953565b0390fd5b606090565b5f90565b6127eb90610346565b90565b612871612876916127fd6112b2565b506128066127d9565b5061280f6127d9565b506128186127de565b506128216112b2565b5061282a6112b2565b506128336112b2565b5061283c6112b2565b506128456112b2565b5061284e6112b2565b506128576112b2565b506128606112b2565b50612869611197565b5060016101d7565b61119b565b61288b612885600d83016103ae565b156104f7565b6129b657612897611197565b50426128b66128b06128ab60058501610209565b610174565b91610174565b11155f14612971576128c75f61119e565b5b6128d35f8301610209565b600183019360028401936128e960038201610387565b936128f660078301610209565b9361290360058401610209565b9361291060068501610209565b9361291d60088201610209565b9361292a60098301610209565b93612937600a8401610209565b9361296461295e612956600c61294f600b8901610209565b9701610209565b94939e6127e2565b9c6127e2565b9a99989796959493929190565b4261298f61298961298460068501610209565b610174565b91610174565b11155f146129a7576129a160016111ba565b5b6128c8565b6129b160026111d6565b6129a2565b5f63635e873760e01b8152806129ce60048201610953565b0390fdfea2646970667358221220d48e7022199e92ba1e3d90519a34ed5518e0aad8a46b9ffc333d386511757e3b64736f6c63430008210033","linkReferences":{"contracts/PoseidonT5.sol":{"PoseidonT5":[{"start":9785,"length":20}]}}},"methodIdentifiers":{"CHOICE_ABSTAIN()":"d90292a3","CHOICE_AGAINST()":"b5770c33","CHOICE_FOR()":"8ea7a274","commitVote(uint256,uint256,uint256,uint256,uint256[2],uint256[2][2],uint256[2])":"51fce2e6","commitments(uint256,uint256)":"d13e2e60","createProposal(string,string,uint256,uint256,uint256)":"33423c06","getCommitment(uint256,uint256)":"7164f0d6","getMerkleRoots()":"85135a1a","getPhase(uint256)":"16ef376b","getProposal(uint256)":"c7f758a8","isMerkleRootValid(uint256)":"4a9284fb","isNullifierUsed(uint256,uint256)":"85c74296","merkleRootHistory(uint256)":"b5ad9215","nullifierUsed(uint256,uint256)":"e78ffc96","proposalCount()":"da35c664","proposals(uint256)":"013cf08b","registerMerkleRoot(uint256)":"a4cae8f8","revealVote(uint256,uint256,uint256,uint256)":"b30c510b","validMerkleRoots(uint256)":"cb1bb033","verifier()":"2b7ac3f3"},"id":2}