{
  "_format": "hh-sol-artifact-1",
  "contractName": "ZkVotingFinal",
  "sourceName": "contracts/ZkVotingFinal.sol",
  "abi": [
    {
      "inputs": [
        {
          "internalType": "address",
          "name": "_verifierD1",
          "type": "address"
        },
        {
          "internalType": "address",
          "name": "_verifierD2",
          "type": "address"
        },
        {
          "internalType": "address",
          "name": "_tonToken",
          "type": "address"
        },
        {
          "internalType": "address",
          "name": "_treasury",
          "type": "address"
        }
      ],
      "stateMutability": "nonpayable",
      "type": "constructor"
    },
    {
      "inputs": [],
      "name": "AlreadyRevealed",
      "type": "error"
    },
    {
      "inputs": [],
      "name": "CommitmentNotFound",
      "type": "error"
    },
    {
      "inputs": [],
      "name": "InsufficientCredits",
      "type": "error"
    },
    {
      "inputs": [],
      "name": "InvalidChoice",
      "type": "error"
    },
    {
      "inputs": [],
      "name": "InvalidCreditRoot",
      "type": "error"
    },
    {
      "inputs": [],
      "name": "InvalidMerkleRoot",
      "type": "error"
    },
    {
      "inputs": [],
      "name": "InvalidProof",
      "type": "error"
    },
    {
      "inputs": [],
      "name": "InvalidQuadraticCost",
      "type": "error"
    },
    {
      "inputs": [],
      "name": "InvalidReveal",
      "type": "error"
    },
    {
      "inputs": [],
      "name": "NotInCommitPhase",
      "type": "error"
    },
    {
      "inputs": [],
      "name": "NotInRevealPhase",
      "type": "error"
    },
    {
      "inputs": [],
      "name": "NullifierAlreadyUsed",
      "type": "error"
    },
    {
      "inputs": [],
      "name": "ProposalNotFound",
      "type": "error"
    },
    {
      "inputs": [],
      "name": "ZeroVotingPower",
      "type": "error"
    },
    {
      "anonymous": false,
      "inputs": [
        {
          "indexed": true,
          "internalType": "uint256",
          "name": "creditNoteHash",
          "type": "uint256"
        },
        {
          "indexed": false,
          "internalType": "uint256",
          "name": "timestamp",
          "type": "uint256"
        }
      ],
      "name": "CreditNoteRegistered",
      "type": "event"
    },
    {
      "anonymous": false,
      "inputs": [
        {
          "indexed": true,
          "internalType": "uint256",
          "name": "creditRoot",
          "type": "uint256"
        },
        {
          "indexed": false,
          "internalType": "uint256",
          "name": "timestamp",
          "type": "uint256"
        }
      ],
      "name": "CreditRootRegistered",
      "type": "event"
    },
    {
      "anonymous": false,
      "inputs": [
        {
          "indexed": true,
          "internalType": "address",
          "name": "user",
          "type": "address"
        },
        {
          "indexed": false,
          "internalType": "uint256",
          "name": "amount",
          "type": "uint256"
        },
        {
          "indexed": false,
          "internalType": "uint256",
          "name": "remaining",
          "type": "uint256"
        }
      ],
      "name": "CreditsBurned",
      "type": "event"
    },
    {
      "anonymous": false,
      "inputs": [
        {
          "indexed": true,
          "internalType": "address",
          "name": "user",
          "type": "address"
        },
        {
          "indexed": false,
          "internalType": "uint256",
          "name": "credits",
          "type": "uint256"
        }
      ],
      "name": "CreditsInitialized",
      "type": "event"
    },
    {
      "anonymous": false,
      "inputs": [
        {
          "indexed": true,
          "internalType": "address",
          "name": "user",
          "type": "address"
        },
        {
          "indexed": false,
          "internalType": "uint256",
          "name": "amount",
          "type": "uint256"
        },
        {
          "indexed": false,
          "internalType": "uint256",
          "name": "total",
          "type": "uint256"
        }
      ],
      "name": "CreditsMinted",
      "type": "event"
    },
    {
      "anonymous": false,
      "inputs": [
        {
          "indexed": true,
          "internalType": "uint256",
          "name": "merkleRoot",
          "type": "uint256"
        },
        {
          "indexed": false,
          "internalType": "uint256",
          "name": "timestamp",
          "type": "uint256"
        }
      ],
      "name": "MerkleRootRegistered",
      "type": "event"
    },
    {
      "anonymous": false,
      "inputs": [
        {
          "indexed": true,
          "internalType": "uint256",
          "name": "proposalId",
          "type": "uint256"
        },
        {
          "indexed": false,
          "internalType": "string",
          "name": "title",
          "type": "string"
        },
        {
          "indexed": true,
          "internalType": "address",
          "name": "proposer",
          "type": "address"
        },
        {
          "indexed": false,
          "internalType": "uint256",
          "name": "merkleRoot",
          "type": "uint256"
        },
        {
          "indexed": false,
          "internalType": "uint256",
          "name": "endTime",
          "type": "uint256"
        },
        {
          "indexed": false,
          "internalType": "uint256",
          "name": "revealEndTime",
          "type": "uint256"
        }
      ],
      "name": "ProposalCreatedD1",
      "type": "event"
    },
    {
      "anonymous": false,
      "inputs": [
        {
          "indexed": true,
          "internalType": "uint256",
          "name": "proposalId",
          "type": "uint256"
        },
        {
          "indexed": false,
          "internalType": "string",
          "name": "title",
          "type": "string"
        },
        {
          "indexed": true,
          "internalType": "address",
          "name": "proposer",
          "type": "address"
        },
        {
          "indexed": false,
          "internalType": "uint256",
          "name": "creditRoot",
          "type": "uint256"
        },
        {
          "indexed": false,
          "internalType": "uint256",
          "name": "endTime",
          "type": "uint256"
        },
        {
          "indexed": false,
          "internalType": "uint256",
          "name": "revealEndTime",
          "type": "uint256"
        }
      ],
      "name": "ProposalCreatedD2",
      "type": "event"
    },
    {
      "anonymous": false,
      "inputs": [
        {
          "indexed": true,
          "internalType": "uint256",
          "name": "proposalId",
          "type": "uint256"
        },
        {
          "indexed": true,
          "internalType": "uint256",
          "name": "nullifier",
          "type": "uint256"
        },
        {
          "indexed": false,
          "internalType": "uint256",
          "name": "commitment",
          "type": "uint256"
        },
        {
          "indexed": false,
          "internalType": "uint256",
          "name": "votingPower",
          "type": "uint256"
        }
      ],
      "name": "VoteCommittedD1",
      "type": "event"
    },
    {
      "anonymous": false,
      "inputs": [
        {
          "indexed": true,
          "internalType": "uint256",
          "name": "proposalId",
          "type": "uint256"
        },
        {
          "indexed": true,
          "internalType": "uint256",
          "name": "nullifier",
          "type": "uint256"
        },
        {
          "indexed": false,
          "internalType": "uint256",
          "name": "commitment",
          "type": "uint256"
        },
        {
          "indexed": false,
          "internalType": "uint256",
          "name": "numVotes",
          "type": "uint256"
        },
        {
          "indexed": false,
          "internalType": "uint256",
          "name": "creditsSpent",
          "type": "uint256"
        }
      ],
      "name": "VoteCommittedD2",
      "type": "event"
    },
    {
      "anonymous": false,
      "inputs": [
        {
          "indexed": true,
          "internalType": "uint256",
          "name": "proposalId",
          "type": "uint256"
        },
        {
          "indexed": true,
          "internalType": "uint256",
          "name": "nullifier",
          "type": "uint256"
        },
        {
          "indexed": false,
          "internalType": "uint256",
          "name": "choice",
          "type": "uint256"
        },
        {
          "indexed": false,
          "internalType": "uint256",
          "name": "votingPower",
          "type": "uint256"
        }
      ],
      "name": "VoteRevealedD1",
      "type": "event"
    },
    {
      "anonymous": false,
      "inputs": [
        {
          "indexed": true,
          "internalType": "uint256",
          "name": "proposalId",
          "type": "uint256"
        },
        {
          "indexed": true,
          "internalType": "uint256",
          "name": "nullifier",
          "type": "uint256"
        },
        {
          "indexed": false,
          "internalType": "uint256",
          "name": "choice",
          "type": "uint256"
        },
        {
          "indexed": false,
          "internalType": "uint256",
          "name": "numVotes",
          "type": "uint256"
        },
        {
          "indexed": false,
          "internalType": "uint256",
          "name": "creditsSpent",
          "type": "uint256"
        }
      ],
      "name": "VoteRevealedD2",
      "type": "event"
    },
    {
      "anonymous": false,
      "inputs": [
        {
          "indexed": true,
          "internalType": "uint256",
          "name": "noteHash",
          "type": "uint256"
        },
        {
          "indexed": false,
          "internalType": "uint256",
          "name": "timestamp",
          "type": "uint256"
        }
      ],
      "name": "VoterRegistered",
      "type": "event"
    },
    {
      "inputs": [],
      "name": "CHOICE_ABSTAIN",
      "outputs": [
        {
          "internalType": "uint256",
          "name": "",
          "type": "uint256"
        }
      ],
      "stateMutability": "view",
      "type": "function"
    },
    {
      "inputs": [],
      "name": "CHOICE_AGAINST",
      "outputs": [
        {
          "internalType": "uint256",
          "name": "",
          "type": "uint256"
        }
      ],
      "stateMutability": "view",
      "type": "function"
    },
    {
      "inputs": [],
      "name": "CHOICE_FOR",
      "outputs": [
        {
          "internalType": "uint256",
          "name": "",
          "type": "uint256"
        }
      ],
      "stateMutability": "view",
      "type": "function"
    },
    {
      "inputs": [],
      "name": "INITIAL_CREDITS",
      "outputs": [
        {
          "internalType": "uint256",
          "name": "",
          "type": "uint256"
        }
      ],
      "stateMutability": "view",
      "type": "function"
    },
    {
      "inputs": [
        {
          "internalType": "uint256",
          "name": "numVotes",
          "type": "uint256"
        }
      ],
      "name": "calculateQuadraticCost",
      "outputs": [
        {
          "internalType": "uint256",
          "name": "",
          "type": "uint256"
        }
      ],
      "stateMutability": "pure",
      "type": "function"
    },
    {
      "inputs": [
        {
          "internalType": "uint256",
          "name": "_proposalId",
          "type": "uint256"
        },
        {
          "internalType": "uint256",
          "name": "_commitment",
          "type": "uint256"
        },
        {
          "internalType": "uint256",
          "name": "_votingPower",
          "type": "uint256"
        },
        {
          "internalType": "uint256",
          "name": "_nullifier",
          "type": "uint256"
        },
        {
          "internalType": "uint256[2]",
          "name": "_pA",
          "type": "uint256[2]"
        },
        {
          "internalType": "uint256[2][2]",
          "name": "_pB",
          "type": "uint256[2][2]"
        },
        {
          "internalType": "uint256[2]",
          "name": "_pC",
          "type": "uint256[2]"
        }
      ],
      "name": "castVoteD1",
      "outputs": [],
      "stateMutability": "nonpayable",
      "type": "function"
    },
    {
      "inputs": [
        {
          "internalType": "uint256",
          "name": "_proposalId",
          "type": "uint256"
        },
        {
          "internalType": "uint256",
          "name": "_commitment",
          "type": "uint256"
        },
        {
          "internalType": "uint256",
          "name": "_numVotes",
          "type": "uint256"
        },
        {
          "internalType": "uint256",
          "name": "_creditsSpent",
          "type": "uint256"
        },
        {
          "internalType": "uint256",
          "name": "_nullifier",
          "type": "uint256"
        },
        {
          "internalType": "uint256[2]",
          "name": "_pA",
          "type": "uint256[2]"
        },
        {
          "internalType": "uint256[2][2]",
          "name": "_pB",
          "type": "uint256[2][2]"
        },
        {
          "internalType": "uint256[2]",
          "name": "_pC",
          "type": "uint256[2]"
        }
      ],
      "name": "castVoteD2",
      "outputs": [],
      "stateMutability": "nonpayable",
      "type": "function"
    },
    {
      "inputs": [
        {
          "internalType": "uint256",
          "name": "",
          "type": "uint256"
        },
        {
          "internalType": "uint256",
          "name": "",
          "type": "uint256"
        }
      ],
      "name": "commitmentsD1",
      "outputs": [
        {
          "internalType": "uint256",
          "name": "commitment",
          "type": "uint256"
        },
        {
          "internalType": "uint256",
          "name": "votingPower",
          "type": "uint256"
        },
        {
          "internalType": "uint256",
          "name": "nullifier",
          "type": "uint256"
        },
        {
          "internalType": "uint256",
          "name": "timestamp",
          "type": "uint256"
        },
        {
          "internalType": "bool",
          "name": "revealed",
          "type": "bool"
        },
        {
          "internalType": "uint256",
          "name": "revealedChoice",
          "type": "uint256"
        },
        {
          "internalType": "bool",
          "name": "exists",
          "type": "bool"
        }
      ],
      "stateMutability": "view",
      "type": "function"
    },
    {
      "inputs": [
        {
          "internalType": "uint256",
          "name": "",
          "type": "uint256"
        },
        {
          "internalType": "uint256",
          "name": "",
          "type": "uint256"
        }
      ],
      "name": "commitmentsD2",
      "outputs": [
        {
          "internalType": "uint256",
          "name": "commitment",
          "type": "uint256"
        },
        {
          "internalType": "uint256",
          "name": "creditsSpent",
          "type": "uint256"
        },
        {
          "internalType": "uint256",
          "name": "numVotes",
          "type": "uint256"
        },
        {
          "internalType": "uint256",
          "name": "nullifier",
          "type": "uint256"
        },
        {
          "internalType": "uint256",
          "name": "timestamp",
          "type": "uint256"
        },
        {
          "internalType": "bool",
          "name": "revealed",
          "type": "bool"
        },
        {
          "internalType": "uint256",
          "name": "revealedChoice",
          "type": "uint256"
        },
        {
          "internalType": "bool",
          "name": "exists",
          "type": "bool"
        }
      ],
      "stateMutability": "view",
      "type": "function"
    },
    {
      "inputs": [
        {
          "internalType": "string",
          "name": "_title",
          "type": "string"
        },
        {
          "internalType": "string",
          "name": "_description",
          "type": "string"
        },
        {
          "internalType": "uint256",
          "name": "_merkleRoot",
          "type": "uint256"
        },
        {
          "internalType": "uint256",
          "name": "_votingDuration",
          "type": "uint256"
        },
        {
          "internalType": "uint256",
          "name": "_revealDuration",
          "type": "uint256"
        }
      ],
      "name": "createProposalD1",
      "outputs": [
        {
          "internalType": "uint256",
          "name": "",
          "type": "uint256"
        }
      ],
      "stateMutability": "nonpayable",
      "type": "function"
    },
    {
      "inputs": [
        {
          "internalType": "string",
          "name": "_title",
          "type": "string"
        },
        {
          "internalType": "string",
          "name": "_description",
          "type": "string"
        },
        {
          "internalType": "uint256",
          "name": "_creditRoot",
          "type": "uint256"
        },
        {
          "internalType": "uint256",
          "name": "_votingDuration",
          "type": "uint256"
        },
        {
          "internalType": "uint256",
          "name": "_revealDuration",
          "type": "uint256"
        }
      ],
      "name": "createProposalD2",
      "outputs": [
        {
          "internalType": "uint256",
          "name": "",
          "type": "uint256"
        }
      ],
      "stateMutability": "nonpayable",
      "type": "function"
    },
    {
      "inputs": [
        {
          "internalType": "uint256",
          "name": "",
          "type": "uint256"
        }
      ],
      "name": "creditRootHistory",
      "outputs": [
        {
          "internalType": "uint256",
          "name": "",
          "type": "uint256"
        }
      ],
      "stateMutability": "view",
      "type": "function"
    },
    {
      "inputs": [
        {
          "internalType": "address",
          "name": "user",
          "type": "address"
        }
      ],
      "name": "getAvailableCredits",
      "outputs": [
        {
          "internalType": "uint256",
          "name": "",
          "type": "uint256"
        }
      ],
      "stateMutability": "view",
      "type": "function"
    },
    {
      "inputs": [
        {
          "internalType": "uint256",
          "name": "_proposalId",
          "type": "uint256"
        }
      ],
      "name": "getPhaseD2",
      "outputs": [
        {
          "internalType": "uint8",
          "name": "",
          "type": "uint8"
        }
      ],
      "stateMutability": "view",
      "type": "function"
    },
    {
      "inputs": [
        {
          "internalType": "uint256",
          "name": "_proposalId",
          "type": "uint256"
        }
      ],
      "name": "getProposalD1",
      "outputs": [
        {
          "internalType": "uint256",
          "name": "id",
          "type": "uint256"
        },
        {
          "internalType": "string",
          "name": "title",
          "type": "string"
        },
        {
          "internalType": "string",
          "name": "description",
          "type": "string"
        },
        {
          "internalType": "address",
          "name": "proposer",
          "type": "address"
        },
        {
          "internalType": "uint256",
          "name": "merkleRoot",
          "type": "uint256"
        },
        {
          "internalType": "uint256",
          "name": "endTime",
          "type": "uint256"
        },
        {
          "internalType": "uint256",
          "name": "revealEndTime",
          "type": "uint256"
        },
        {
          "internalType": "uint256",
          "name": "forVotes",
          "type": "uint256"
        },
        {
          "internalType": "uint256",
          "name": "againstVotes",
          "type": "uint256"
        },
        {
          "internalType": "uint256",
          "name": "abstainVotes",
          "type": "uint256"
        },
        {
          "internalType": "uint256",
          "name": "totalCommitments",
          "type": "uint256"
        },
        {
          "internalType": "uint256",
          "name": "revealedVotes",
          "type": "uint256"
        },
        {
          "internalType": "uint8",
          "name": "phase",
          "type": "uint8"
        }
      ],
      "stateMutability": "view",
      "type": "function"
    },
    {
      "inputs": [
        {
          "internalType": "uint256",
          "name": "_proposalId",
          "type": "uint256"
        }
      ],
      "name": "getProposalD2",
      "outputs": [
        {
          "internalType": "uint256",
          "name": "id",
          "type": "uint256"
        },
        {
          "internalType": "string",
          "name": "title",
          "type": "string"
        },
        {
          "internalType": "string",
          "name": "description",
          "type": "string"
        },
        {
          "internalType": "address",
          "name": "proposer",
          "type": "address"
        },
        {
          "internalType": "uint256",
          "name": "creditRoot",
          "type": "uint256"
        },
        {
          "internalType": "uint256",
          "name": "endTime",
          "type": "uint256"
        },
        {
          "internalType": "uint256",
          "name": "revealEndTime",
          "type": "uint256"
        },
        {
          "internalType": "uint256",
          "name": "forVotes",
          "type": "uint256"
        },
        {
          "internalType": "uint256",
          "name": "againstVotes",
          "type": "uint256"
        },
        {
          "internalType": "uint256",
          "name": "abstainVotes",
          "type": "uint256"
        },
        {
          "internalType": "uint256",
          "name": "totalCreditsSpent",
          "type": "uint256"
        },
        {
          "internalType": "uint256",
          "name": "totalCommitments",
          "type": "uint256"
        },
        {
          "internalType": "uint256",
          "name": "revealedVotes",
          "type": "uint256"
        },
        {
          "internalType": "uint8",
          "name": "phase",
          "type": "uint8"
        }
      ],
      "stateMutability": "view",
      "type": "function"
    },
    {
      "inputs": [],
      "name": "getRegisteredCreditNotes",
      "outputs": [
        {
          "internalType": "uint256[]",
          "name": "",
          "type": "uint256[]"
        }
      ],
      "stateMutability": "view",
      "type": "function"
    },
    {
      "inputs": [],
      "name": "getRegisteredVoters",
      "outputs": [
        {
          "internalType": "uint256[]",
          "name": "",
          "type": "uint256[]"
        }
      ],
      "stateMutability": "view",
      "type": "function"
    },
    {
      "inputs": [],
      "name": "getVoterCount",
      "outputs": [
        {
          "internalType": "uint256",
          "name": "",
          "type": "uint256"
        }
      ],
      "stateMutability": "view",
      "type": "function"
    },
    {
      "inputs": [],
      "name": "initializeCredits",
      "outputs": [],
      "stateMutability": "nonpayable",
      "type": "function"
    },
    {
      "inputs": [
        {
          "internalType": "uint256",
          "name": "",
          "type": "uint256"
        }
      ],
      "name": "isCreditNoteRegistered",
      "outputs": [
        {
          "internalType": "bool",
          "name": "",
          "type": "bool"
        }
      ],
      "stateMutability": "view",
      "type": "function"
    },
    {
      "inputs": [
        {
          "internalType": "uint256",
          "name": "_creditRoot",
          "type": "uint256"
        }
      ],
      "name": "isCreditRootValid",
      "outputs": [
        {
          "internalType": "bool",
          "name": "",
          "type": "bool"
        }
      ],
      "stateMutability": "view",
      "type": "function"
    },
    {
      "inputs": [
        {
          "internalType": "uint256",
          "name": "_merkleRoot",
          "type": "uint256"
        }
      ],
      "name": "isMerkleRootValid",
      "outputs": [
        {
          "internalType": "bool",
          "name": "",
          "type": "bool"
        }
      ],
      "stateMutability": "view",
      "type": "function"
    },
    {
      "inputs": [
        {
          "internalType": "uint256",
          "name": "",
          "type": "uint256"
        }
      ],
      "name": "isVoterRegistered",
      "outputs": [
        {
          "internalType": "bool",
          "name": "",
          "type": "bool"
        }
      ],
      "stateMutability": "view",
      "type": "function"
    },
    {
      "inputs": [
        {
          "internalType": "uint256",
          "name": "",
          "type": "uint256"
        }
      ],
      "name": "merkleRootHistory",
      "outputs": [
        {
          "internalType": "uint256",
          "name": "",
          "type": "uint256"
        }
      ],
      "stateMutability": "view",
      "type": "function"
    },
    {
      "inputs": [
        {
          "internalType": "uint256",
          "name": "amount",
          "type": "uint256"
        }
      ],
      "name": "mintTestTokens",
      "outputs": [],
      "stateMutability": "nonpayable",
      "type": "function"
    },
    {
      "inputs": [
        {
          "internalType": "uint256",
          "name": "",
          "type": "uint256"
        },
        {
          "internalType": "uint256",
          "name": "",
          "type": "uint256"
        }
      ],
      "name": "nullifierUsedD1",
      "outputs": [
        {
          "internalType": "bool",
          "name": "",
          "type": "bool"
        }
      ],
      "stateMutability": "view",
      "type": "function"
    },
    {
      "inputs": [
        {
          "internalType": "uint256",
          "name": "",
          "type": "uint256"
        },
        {
          "internalType": "uint256",
          "name": "",
          "type": "uint256"
        }
      ],
      "name": "nullifierUsedD2",
      "outputs": [
        {
          "internalType": "bool",
          "name": "",
          "type": "bool"
        }
      ],
      "stateMutability": "view",
      "type": "function"
    },
    {
      "inputs": [
        {
          "internalType": "address",
          "name": "owner",
          "type": "address"
        },
        {
          "internalType": "address",
          "name": "spender",
          "type": "address"
        },
        {
          "internalType": "uint256",
          "name": "amount",
          "type": "uint256"
        },
        {
          "internalType": "bytes",
          "name": "data",
          "type": "bytes"
        }
      ],
      "name": "onApprove",
      "outputs": [
        {
          "internalType": "bool",
          "name": "",
          "type": "bool"
        }
      ],
      "stateMutability": "nonpayable",
      "type": "function"
    },
    {
      "inputs": [],
      "name": "proposalCountD1",
      "outputs": [
        {
          "internalType": "uint256",
          "name": "",
          "type": "uint256"
        }
      ],
      "stateMutability": "view",
      "type": "function"
    },
    {
      "inputs": [],
      "name": "proposalCountD2",
      "outputs": [
        {
          "internalType": "uint256",
          "name": "",
          "type": "uint256"
        }
      ],
      "stateMutability": "view",
      "type": "function"
    },
    {
      "inputs": [
        {
          "internalType": "uint256",
          "name": "",
          "type": "uint256"
        },
        {
          "internalType": "uint256",
          "name": "",
          "type": "uint256"
        }
      ],
      "name": "proposalVoterSnapshots",
      "outputs": [
        {
          "internalType": "uint256",
          "name": "",
          "type": "uint256"
        }
      ],
      "stateMutability": "view",
      "type": "function"
    },
    {
      "inputs": [
        {
          "internalType": "uint256",
          "name": "",
          "type": "uint256"
        }
      ],
      "name": "proposalsD1",
      "outputs": [
        {
          "internalType": "uint256",
          "name": "id",
          "type": "uint256"
        },
        {
          "internalType": "string",
          "name": "title",
          "type": "string"
        },
        {
          "internalType": "string",
          "name": "description",
          "type": "string"
        },
        {
          "internalType": "address",
          "name": "proposer",
          "type": "address"
        },
        {
          "internalType": "uint256",
          "name": "startTime",
          "type": "uint256"
        },
        {
          "internalType": "uint256",
          "name": "endTime",
          "type": "uint256"
        },
        {
          "internalType": "uint256",
          "name": "revealEndTime",
          "type": "uint256"
        },
        {
          "internalType": "uint256",
          "name": "merkleRoot",
          "type": "uint256"
        },
        {
          "internalType": "uint256",
          "name": "forVotes",
          "type": "uint256"
        },
        {
          "internalType": "uint256",
          "name": "againstVotes",
          "type": "uint256"
        },
        {
          "internalType": "uint256",
          "name": "abstainVotes",
          "type": "uint256"
        },
        {
          "internalType": "uint256",
          "name": "totalCommitments",
          "type": "uint256"
        },
        {
          "internalType": "uint256",
          "name": "revealedVotes",
          "type": "uint256"
        },
        {
          "internalType": "bool",
          "name": "exists",
          "type": "bool"
        }
      ],
      "stateMutability": "view",
      "type": "function"
    },
    {
      "inputs": [
        {
          "internalType": "uint256",
          "name": "",
          "type": "uint256"
        }
      ],
      "name": "proposalsD2",
      "outputs": [
        {
          "internalType": "uint256",
          "name": "id",
          "type": "uint256"
        },
        {
          "internalType": "string",
          "name": "title",
          "type": "string"
        },
        {
          "internalType": "string",
          "name": "description",
          "type": "string"
        },
        {
          "internalType": "address",
          "name": "proposer",
          "type": "address"
        },
        {
          "internalType": "uint256",
          "name": "startTime",
          "type": "uint256"
        },
        {
          "internalType": "uint256",
          "name": "endTime",
          "type": "uint256"
        },
        {
          "internalType": "uint256",
          "name": "revealEndTime",
          "type": "uint256"
        },
        {
          "internalType": "uint256",
          "name": "creditRoot",
          "type": "uint256"
        },
        {
          "internalType": "uint256",
          "name": "forVotes",
          "type": "uint256"
        },
        {
          "internalType": "uint256",
          "name": "againstVotes",
          "type": "uint256"
        },
        {
          "internalType": "uint256",
          "name": "abstainVotes",
          "type": "uint256"
        },
        {
          "internalType": "uint256",
          "name": "totalCreditsSpent",
          "type": "uint256"
        },
        {
          "internalType": "uint256",
          "name": "totalCommitments",
          "type": "uint256"
        },
        {
          "internalType": "uint256",
          "name": "revealedVotes",
          "type": "uint256"
        },
        {
          "internalType": "bool",
          "name": "exists",
          "type": "bool"
        }
      ],
      "stateMutability": "view",
      "type": "function"
    },
    {
      "inputs": [
        {
          "internalType": "uint256",
          "name": "_creditNoteHash",
          "type": "uint256"
        }
      ],
      "name": "registerCreditNote",
      "outputs": [],
      "stateMutability": "nonpayable",
      "type": "function"
    },
    {
      "inputs": [
        {
          "internalType": "uint256",
          "name": "_creditRoot",
          "type": "uint256"
        }
      ],
      "name": "registerCreditRoot",
      "outputs": [],
      "stateMutability": "nonpayable",
      "type": "function"
    },
    {
      "inputs": [
        {
          "internalType": "uint256",
          "name": "_merkleRoot",
          "type": "uint256"
        }
      ],
      "name": "registerMerkleRoot",
      "outputs": [],
      "stateMutability": "nonpayable",
      "type": "function"
    },
    {
      "inputs": [
        {
          "internalType": "uint256",
          "name": "_noteHash",
          "type": "uint256"
        }
      ],
      "name": "registerVoter",
      "outputs": [],
      "stateMutability": "nonpayable",
      "type": "function"
    },
    {
      "inputs": [
        {
          "internalType": "uint256",
          "name": "",
          "type": "uint256"
        }
      ],
      "name": "registeredCreditNotes",
      "outputs": [
        {
          "internalType": "uint256",
          "name": "",
          "type": "uint256"
        }
      ],
      "stateMutability": "view",
      "type": "function"
    },
    {
      "inputs": [
        {
          "internalType": "uint256",
          "name": "",
          "type": "uint256"
        }
      ],
      "name": "registeredVoters",
      "outputs": [
        {
          "internalType": "uint256",
          "name": "",
          "type": "uint256"
        }
      ],
      "stateMutability": "view",
      "type": "function"
    },
    {
      "inputs": [
        {
          "internalType": "uint256",
          "name": "_proposalId",
          "type": "uint256"
        },
        {
          "internalType": "uint256",
          "name": "_nullifier",
          "type": "uint256"
        },
        {
          "internalType": "uint256",
          "name": "_choice",
          "type": "uint256"
        },
        {
          "internalType": "uint256",
          "name": "_voteSalt",
          "type": "uint256"
        }
      ],
      "name": "revealVoteD1",
      "outputs": [],
      "stateMutability": "nonpayable",
      "type": "function"
    },
    {
      "inputs": [
        {
          "internalType": "uint256",
          "name": "_proposalId",
          "type": "uint256"
        },
        {
          "internalType": "uint256",
          "name": "_nullifier",
          "type": "uint256"
        },
        {
          "internalType": "uint256",
          "name": "_choice",
          "type": "uint256"
        },
        {
          "internalType": "uint256",
          "name": "_numVotes",
          "type": "uint256"
        },
        {
          "internalType": "uint256",
          "name": "_voteSalt",
          "type": "uint256"
        }
      ],
      "name": "revealVoteD2",
      "outputs": [],
      "stateMutability": "nonpayable",
      "type": "function"
    },
    {
      "inputs": [],
      "name": "tonToken",
      "outputs": [
        {
          "internalType": "contract IERC20",
          "name": "",
          "type": "address"
        }
      ],
      "stateMutability": "view",
      "type": "function"
    },
    {
      "inputs": [],
      "name": "treasury",
      "outputs": [
        {
          "internalType": "address",
          "name": "",
          "type": "address"
        }
      ],
      "stateMutability": "view",
      "type": "function"
    },
    {
      "inputs": [
        {
          "internalType": "uint256",
          "name": "_proposalId",
          "type": "uint256"
        },
        {
          "internalType": "uint256",
          "name": "_newMerkleRoot",
          "type": "uint256"
        }
      ],
      "name": "updateProposalVoters",
      "outputs": [],
      "stateMutability": "nonpayable",
      "type": "function"
    },
    {
      "inputs": [
        {
          "internalType": "address",
          "name": "",
          "type": "address"
        }
      ],
      "name": "userCredits",
      "outputs": [
        {
          "internalType": "uint256",
          "name": "totalCredits",
          "type": "uint256"
        },
        {
          "internalType": "uint256",
          "name": "usedCredits",
          "type": "uint256"
        },
        {
          "internalType": "bool",
          "name": "initialized",
          "type": "bool"
        }
      ],
      "stateMutability": "view",
      "type": "function"
    },
    {
      "inputs": [
        {
          "internalType": "uint256",
          "name": "",
          "type": "uint256"
        }
      ],
      "name": "validCreditRoots",
      "outputs": [
        {
          "internalType": "bool",
          "name": "",
          "type": "bool"
        }
      ],
      "stateMutability": "view",
      "type": "function"
    },
    {
      "inputs": [
        {
          "internalType": "uint256",
          "name": "",
          "type": "uint256"
        }
      ],
      "name": "validMerkleRoots",
      "outputs": [
        {
          "internalType": "bool",
          "name": "",
          "type": "bool"
        }
      ],
      "stateMutability": "view",
      "type": "function"
    },
    {
      "inputs": [],
      "name": "verifierD1",
      "outputs": [
        {
          "internalType": "contract IVerifierD1",
          "name": "",
          "type": "address"
        }
      ],
      "stateMutability": "view",
      "type": "function"
    },
    {
      "inputs": [],
      "name": "verifierD2",
      "outputs": [
        {
          "internalType": "contract IVerifierD2",
          "name": "",
          "type": "address"
        }
      ],
      "stateMutability": "view",
      "type": "function"
    }
  ],
  "bytecode": "0x60e0346200010b57601f6200354238819003918201601f19168301916001600160401b0383118484101762000110578084926080946040528339810103126200010b576200004d8162000126565b906200005c6020820162000126565b91620000796060620000716040850162000126565b930162000126565b6001600160a01b0391821660805292811660a05290811660c052600080546001600160a01b0319169190921617905560405161340690816200013c823960805181818161035601526128a9015260a051818181610f57015281816117a701526120e0015260c051818181610fbf0152818161149a0152818161186901528181611f1d0152818161216901526121d70152f35b600080fd5b634e487b7160e01b600052604160045260246000fd5b51906001600160a01b03821682036200010b5756fe608080604052600436101561001357600080fd5b60003560e01c90816303a229f714612ceb575080630572c80114612b225780630d70ece814612af157806311174a2914612ad357806313703e6614612a4957806318dbeb4c146127ac57806320babb92146127565780632436e06b1461272d5780632bbe44fd146127115780632bc4a6e7146126965780632c5317c014612657578063315401c01461253b578063417e70c81461047e5780634273ca1614611ecb5780634275e03114611e4d5780634a9284fb14610e125780634d09b49f146119fe57806352a48c561461196e5780635938862f1461193657806361d027b31461190d578063697aa8e8146118f05780636d3cba61146118bf57806374dd0fea14611898578063781a485214611853578063833722c51461181b578063850099cd146117f25780638ea7a274146117d657806394ffe6a014611791578063974f7aa314611740578063a13f2f8d14611724578063a1c7574a14611699578063a329b31314611648578063a4cae8f8146115e6578063aa6098481461150b578063b065a8e514611459578063b4e0d6af14611351578063b5770c3314611335578063b5ad9215146112e4578063badbc2ed14610e43578063cb1bb03314610e12578063d544433614610d5b578063d54bb70b14610c35578063d55d533e14610957578063d90292a31461093b578063db5bd601146104af578063ef3a2b391461047e578063f025d08214610385578063f58789ae14610340578063f9058741146103225763fb9607d31461024557600080fd5b3461031d57600036600319011261031d5733600052601260205260ff600260406000200154161561027257005b604051606081018181106001600160401b03821117610307576040526102d9612710918281526002602082016000815260408301906001825233600052601260205260406000209351845551600184015551151591019060ff801983541691151516179055565b6040519081527f840108f8f5f45d25a166719fa7440c37016845a955726b639e64fb325f73100760203392a2005b634e487b7160e01b600052604160045260246000fd5b600080fd5b3461031d57600036600319011261031d576020600154604051908152f35b3461031d57600036600319011261031d576040517f00000000000000000000000000000000000000000000000000000000000000006001600160a01b03168152602090f35b3461031d57602036600319011261031d57600435600052600360205260406000208054600182016103b590612f48565b916103c260028201612f48565b600160a01b60019003600383015416916004810154600582015460068301546007840154600885015490600986015492600a87015494600b88015496600c89015498600d015460ff16996040519d8e9d8e6101c09181528160208201520161042991612dbd565b8d810360408f015261043a91612dbd565b9a60608d015260808c015260a08b015260c08a015260e089015261010088015261012087015261014086015261016085015261018084015215156101a08301520390f35b3461031d57602036600319011261031d57600435600052600e602052602060ff604060002054166040519015158152f35b3461031d576104bd36612e2a565b929482600097959793929352600e60205260ff6040600020541615610929576104e7600254613028565b95866002556104f6844261301b565b61050986610504874261301b565b61301b565b91604051998a6101e08101106001600160401b036101e08d0111176103075761054e916101e08c016040528a8c5261054236878c613282565b60208d01523691613282565b60408a01523360608a01524260808a015260a089015260c08801528160e08801526000610100880152600061012088015260006101408801526000610160880152600061018088015260006101a088015260016101c088015285600052600b6020526040600020928751845560208801518051906001600160401b0382116103075781906105df6001880154612e80565b601f81116108f4575b50602090601f831160011461088257600092610877575b50508160011b916000199060031b1c19161760018501555b6040880151938451986001600160401b038a116103075760209989966106406002850154612e80565b601f8111610839575b508b90601f83116001146107905793600e6101c061076b95857f4742ce2d5f823dbde60d41925bff9b938299879eba7f67fa0029c8633d92b6549c9d966107579661077a9b9a600092610785575b50508160011b916000199060031b1c19161760028501555b6003840160018060a01b036060830151166bffffffffffffffffffffffff60a01b8254161790556080810151600485015560a0810151600585015560c0810151600685015560e0810151600785015561010081015160088501556101208101516009850155610140810151600a850155610160810151600b850155610180810151600c8501556101a0810151600d8501550151151591019060ff801983541691151516179055565b610504610764844261301b565b934261301b565b906040519485943399866132df565b0390a3604051908152f35b015190503880610697565b6002859493929a95016000528c6000209060005b601f198416811061081f57506101c061077a97969460018561076b98957f4742ce2d5f823dbde60d41925bff9b938299879eba7f67fa0029c8633d92b6549e9f600e9661075799601f19811610610806575b505050811b0160028501556106af565b015160001960f88460031b161c191690553880806107f6565b818c015183559a8e019a8d9a506001909201918e016107a4565b61086790600286016000528d600020601f850160051c8101918f861061086d575b601f0160051c01906132c8565b8c610649565b909150819061085a565b015190508a806105ff565b9250600187016000526020600020906000935b601f19841685106108d9576001945083601f198116106108c0575b505050811b016001850155610617565b015160001960f88460031b161c191690558a80806108b0565b81810151835560209485019460019093019290910190610895565b61092390600189016000526020600020601f850160051c8101916020861061086d57601f0160051c01906132c8565b8b6105e8565b604051633398105560e01b8152600490fd5b3461031d57600036600319011261031d57602060405160028152f35b3461031d5760a036600319011261031d576004356024359060443560643582600052602091600b8352604060002092600c8152604060002086600052815260406000209060ff600e8601541615610c23576005850154421115610c115760068501544211610c115760ff60078301541615610bff576005820160ff815416610bed5760028411610bdb576040519173__$0daf1669a85ce10529e05b8a030b9567e1$__610a0384612eba565b858452868285015260018501938454604082015289606082015260405190838280610a3c6321c2736360e21b9485835260048301612fed565b0381865af4908115610b9c578492600092610ba8575b5092610a909360405192610a6584612eba565b8352608435848401526000604084015260006060840152604051809581948293835260048301612fed565b03915af4918215610b9c57600092610b6e575b5050835403610b5c577f3c283986862ad16cc4d3240256474e99bfc9df697a62f7351373cbdefb3d14f895846006610b2d95600d94600160ff19825416179055015560018514600014610b325760088101610aff87825461301b565b90555b01610b0d8154613028565b905554604051938493846040919493926060820195825260208201520152565b0390a3005b84610b4d5760098101610b4687825461301b565b9055610b02565b600a8101610b4687825461301b565b604051639ea6d12760e01b8152600490fd5b90809250813d8311610b95575b610b858183612f27565b8101031261031d57518980610aa3565b503d610b7b565b6040513d6000823e3d90fd5b8381949293503d8311610bd4575b610bc08183612f27565b8101031261031d5790518391610a90610a52565b503d610bb6565b604051639c45400160e01b8152600490fd5b60405163a89ac15160e01b8152600490fd5b604051635b34156960e11b8152600490fd5b6040516374683d7160e01b8152600490fd5b60405163635e873760e01b8152600490fd5b3461031d57602036600319011261031d57600435600052600b602052604060002060ff600e8201541615610c23576005810154428110610d40576000905b825491600160a01b6001900360038501541691600785015490600686015460088701546009880154600a89015491600b8a015493600c8b015495600d8c01549760018d01610cc090612f48565b9c600201610ccd90612f48565b6040519d8e9d8e6101c091815281602082015201610cea91612dbd565b8d810360408f0152610cfb91612dbd565b9a60608d015260808c015260a08b015260c08a015260e089015261010088015261012087015261014086015261016085015261018084015260ff166101a08301520390f35b60068201544211610d5357600190610c73565b600290610c73565b3461031d57602036600319011261031d5760043580600052600e6020526040600020600160ff19825416179055600f54600160401b811015610307576001810180600f55811015610dfc578190600f6000527f8d1108e10bcb7c27dddfc02ed9d693a074039d026cf4ea4240b40f7d581ac80201557fc437041eca78e842ff32dc1036255a23da98c52b2f3bd3a875923aadb0276b3d6020604051428152a2005b634e487b7160e01b600052603260045260246000fd5b3461031d57602036600319011261031d576004356000526006602052602060ff604060002054166040519015158152f35b3461031d576101a036600319011261031d576084356004356064356044356024353660e41161031d576101649236841161031d576101a49036821161031d5785600052602091600b835260406000209560ff600e8801541615610c2357600587015442116112d25787600052600d8452604060002089600052845260ff604060002054166112c057610ed58680613205565b83036112ae578360405191610ee983612ed5565b8a835286828401528960408401528460608401526007890154608084015260018060a01b03936040519384926334baeab960e01b8452604060a4600486013760e46000604486015b6002821061128957505050906040610f539260c486013761010484019061304f565b81857f0000000000000000000000000000000000000000000000000000000000000000165afa908115610b9c5760009161126c575b501561125a57670de0b6b3a764000090818302908382048314841517156111d6576040516370a0823160e01b8152336004820152917f0000000000000000000000000000000000000000000000000000000000000000821691908684602481865afa938415610b9c5760009461122b575b5080841061121957600080546040516323b872dd60e01b815233600482015293166001600160a01b031660248401526044830191909152909186918391908290816064810103925af18015610b9c5761105a916000916111ec575b50613240565b048181039081116111d6577fbcf4fa36949e1955af2c6b6b628e50db0e23ec473b26480f3a584dd5a5d8953b9561119b8960078a610b2d97600b9660405190898252828201527f380f4b80ac5d183ff04f143a097611558815196006b7297cae774c0b5680a5ee60403392a281600052600d815260406000208460005281526040600020600160ff1982541617905561117f604051946110f986612ef0565b8b86528286018a81528d604088019081526060880190838252608089019242845260a08a01946000865260c08b01976000895260e08c019960018b52600052600c815260406000209160005252604060002099518a555160018a0155516002890155516003880155516004870155511515600586019060ff801983541691151516179055565b51600684015551151591019060ff801983541691151516179055565b600c81016111a98154613028565b9055016111b782825461301b565b9055604051938493846040919493926060820195825260208201520152565b634e487b7160e01b600052601160045260246000fd5b61120c9150863d8811611212575b6112048183612f27565b810190613037565b8b611054565b503d6111fa565b6040516343fb945360e01b8152600490fd5b9093508681813d8311611253575b6112438183612f27565b8101031261031d5751928c610ff9565b503d611239565b6040516309bde33960e01b8152600490fd5b6112839150843d8611611212576112048183612f27565b89610f88565b6040919395975082949650808260019481933701930191019089959391879593610f31565b6040516315252a2960e21b8152600490fd5b604051636569570160e11b8152600490fd5b60405163abfb7dc360e01b8152600490fd5b3461031d57602036600319011261031d5760043560075481101561031d5760209060076000527fa66cc928b5edb82af9bd49922954155ab7b0942694bea4ce44661d9a8736c6880154604051908152f35b3461031d57600036600319011261031d57602060405160008152f35b3461031d57602036600319011261031d57600435600052600b602052604060002080546001820161138190612f48565b61138d60028401612f48565b92600160a01b600190036003820154169060048101546005820154600683015460078401546008850154600986015491600a87015493600b88015495600c89015497600d8a015499600e015460ff169a6040519e8f9e8f9e8f916101e090835280602084015282016113fe91612dbd565b90808203906040015261141091612dbd565b9c6060015260808d015260a08c015260c08b015260e08a01526101008901526101208801526101408701526101608601526101808501526101a084015215156101c08301520390f35b3461031d5760208060031936011261031d57602481611476612d1c565b6040516370a0823160e01b81526001600160a01b03918216600482015292839182907f0000000000000000000000000000000000000000000000000000000000000000165afa908115610b9c576000916114de575b50670de0b6b3a764000060405191048152f35b90508181813d8311611504575b6114f58183612f27565b8101031261031d5751826114cb565b503d6114eb565b3461031d5761151936612d06565b8160005260039160206003602052604060002060ff600d8201541615610c235760078491015581600052600a91600a6020526040600020805460008255806115ca575b505060005b6008548110156115985760019082600052848452611592604060002061158683612d32565b9054908a1b1c906130bf565b01611561565b8480600052600660205260406000209081549160ff8316156115b657005b60016115c89360ff1916179055613077565b005b6115df916000526020600020908101906132c8565b858061155c565b3461031d57602036600319011261031d576004358060005260066020526040600020600160ff1982541617905561161c81613077565b7fcb23ed79d0d407699762f186152925a6b8dd62fc4b2223f50a16534af8c883f86020604051428152a2005b3461031d57602036600319011261031d57600435600f5481101561031d57602090600f6000527f8d1108e10bcb7c27dddfc02ed9d693a074039d026cf4ea4240b40f7d581ac8020154604051908152f35b3461031d57600036600319011261031d57604051806010549182815260208091019260106000527f1b6847dc741a1b0cd08d278845f9d819d87b734759afb55fe2de5cb82a9ae672916000905b82821061170d57611709856116fd81890382612f27565b60405191829182612d81565b0390f35b8354865294850194600193840193909101906116e6565b3461031d57602036600319011261031d576115c860043561335b565b3461031d57602036600319011261031d5760043560105481101561031d5760209060106000527f1b6847dc741a1b0cd08d278845f9d819d87b734759afb55fe2de5cb82a9ae6720154604051908152f35b3461031d57600036600319011261031d576040517f00000000000000000000000000000000000000000000000000000000000000006001600160a01b03168152602090f35b3461031d57600036600319011261031d57602060405160018152f35b3461031d57602036600319011261031d57602061181060043561331a565b60ff60405191168152f35b3461031d5761182936612d06565b90600052600d602052604060002090600052602052602060ff604060002054166040519015158152f35b3461031d57600036600319011261031d576040517f00000000000000000000000000000000000000000000000000000000000000006001600160a01b03168152602090f35b3461031d57602036600319011261031d5760206118b760043580613205565b604051908152f35b3461031d57602036600319011261031d576004356000526009602052602060ff604060002054166040519015158152f35b3461031d57600036600319011261031d5760206040516127108152f35b3461031d57600036600319011261031d576000546040516001600160a01b039091168152602090f35b3461031d5761194436612d06565b906000526005602052604060002090600052602052602060ff604060002054166040519015158152f35b3461031d57602036600319011261031d5760043533600052601260205260406000206002810160ff815416156000146119eb5782825560006001830155600160ff198254161790555b5460405191825260208201527fc8bc4842cf61a3f6cbf597029d937fdf158ef4959a9616594587a0fb8c6b871160403392a2005b506119f782825461301b565b81556119b7565b3461031d57611a0c36612e2a565b948260009793929752600660205260ff6040600020541615611e3b57611a33600154613028565b9384600155611a42884261301b565b611a50886105048b4261301b565b9160405197886101c08101106001600160401b036101c08b01111761030757611a95916101c08a01604052888a52611a8936878a613282565b60208b01523691613282565b604088015233606088015242608088015260a087015260c08601528160e08601526000610100860152600061012086015260006101408601526000610160860152600061018086015260016101a08601528360005260036020526040600020958551875560208601518051906001600160401b038211610307578190611b1e60018b0154612e80565b601f8111611e06575b50602090601f8311600114611d9457600092611d89575b50508160011b916000199060031b1c19161760018801555b60408601518051906001600160401b038211610307578190611b7b60028b0154612e80565b601f8111611d54575b50602090601f8311600114611ce257600092611cd7575b50508160011b916000199060031b1c19161760028801555b6003870160018060a01b036060880151166bffffffffffffffffffffffff60a01b8254161790556080860151600488015560a0860151600588015560c0860151600688015560e08601516007880155611c5e60089761010088015160088201556101208801516009820155600d6101a0600a99610140810151600a850155610160810151600b850155610180810151600c8501550151151591019060ff801983541691151516179055565b60005b8754811015611c99576001908660005287602052611c936040600020611c8683612d32565b90549060031b1c906130bf565b01611c61565b5060209550917f16356ec948fe2183cece6a7b111beef5be873032e9698d3fbf0e0168d0fc91a89161077a8961076b8896610504610764844261301b565b015190508a80611b9b565b925060028a016000526020600020906000935b601f1984168510611d39576001945083601f19811610611d20575b505050811b016002880155611bb3565b015160001960f88460031b161c191690558a8080611d10565b81810151835560209485019460019093019290910190611cf5565b611d839060028c016000526020600020601f850160051c8101916020861061086d57601f0160051c01906132c8565b8b611b84565b015190508a80611b3e565b925060018a016000526020600020906000935b601f1984168510611deb576001945083601f19811610611dd2575b505050811b016001880155611b56565b015160001960f88460031b161c191690558a8080611dc2565b81810151835560209485019460019093019290910190611da7565b611e359060018c016000526020600020601f850160051c8101916020861061086d57601f0160051c01906132c8565b8b611b27565b604051639dd854d360e01b8152600490fd5b3461031d57611e5b36612d06565b90600052600460205260406000209060005260205260e060406000208054906001810154906002810154600382015460ff6004840154169160ff6006600586015495015416946040519687526020870152604086015260608501521515608084015260a0830152151560c0820152f35b3461031d57608036600319011261031d57611ee4612d1c565b6024356001600160a01b038116919082900361031d576064356001600160401b03811161031d57611f19903690600401612dfd565b90927f00000000000000000000000000000000000000000000000000000000000000006001600160a01b031633036124f65730036124bf576101a083828101031261031d57611f6d81840160a085016131c0565b81840160ff8501121561031d5760405191611f8783612f0c565b8281860161016087011161031d5760e08601905b610160870182106124a3575050611fb890850161016086016131c0565b918435600052600b60205260406000209260ff600e8501541615610c2357600584015442116112d2578535600052600d6020526040600020608087013560005260205260ff604060002054166112c057612016604087013580613205565b6060870135036112ae576060860135670de0b6b3a764000080820282900414901517156111d657670de0b6b3a76400006060870135026044351061245e576040519161206183612ed5565b60808701358352602087013560208401528635604084015260608701356060840152600785015460808401526120a8604051946334baeab960e01b86526004860190613218565b6000604485015b6002821061244057505050906120cc6120d79260c4850190613218565b61010483019061304f565b6020816101a4817f00000000000000000000000000000000000000000000000000000000000000006001600160a01b03165afa908115610b9c57600091612421575b501561125a576000546040516323b872dd60e01b81526001600160a01b0384811660048301529091166024820152670de0b6b3a764000060608501350260448201526020818060648101038160007f00000000000000000000000000000000000000000000000000000000000000006001600160a01b03165af18015610b9c576121aa916000916124025750613240565b6040516370a0823160e01b81526001600160a01b03928316600482018190529092602090849060249082907f0000000000000000000000000000000000000000000000000000000000000000165afa928315610b9c576000936123ae575b507f380f4b80ac5d183ff04f143a097611558815196006b7297cae774c0b5680a5ee6040600b94670de0b6b3a764000082519160608901358352046020820152a28235600052600d602052604060002060808401356000526020526040600020600160ff1982541617905561232560405161228281612ef0565b6020850135815260076020820160608701358152604083016040880135815261117f6060850160808a013581526080860142815260a08701916000835260c08801946000865260e0890196600188528d35600052600c6020528d60806040600020910135600052602052604060002099518a555160018a0155516002890155516003880155516004870155511515600586019060ff801983541691151516179055565b600c81016123338154613028565b9055016123456060830135825461301b565b9055604051907fbcf4fa36949e1955af2c6b6b628e50db0e23ec473b26480f3a584dd5a5d8953b608082013592806123a084359460608101359060206040820135910135846040919493926060820195825260208201520152565b0390a3602060405160018152f35b92506020833d6020116123fa575b816123c960209383612f27565b8101031261031d579151917f380f4b80ac5d183ff04f143a097611558815196006b7297cae774c0b5680a5ee612208565b3d91506123bc565b61241b915060203d602011611212576112048183612f27565b85611054565b61243a915060203d602011611212576112048183612f27565b84612119565b60206040826124526001948751613218565b019301910190916120af565b60405162461bcd60e51b815260206004820152601c60248201527f496e73756666696369656e7420617070726f76656420616d6f756e74000000006044820152606490fd5b60206040916124b4858a01856131c0565b815201910190611f9b565b60405162461bcd60e51b815260206004820152600f60248201526e24b73b30b634b21039b832b73232b960891b6044820152606490fd5b60405162461bcd60e51b815260206004820152601760248201527f4f6e6c7920544f4e20746f6b656e2063616e2063616c6c0000000000000000006044820152606490fd5b3461031d57602036600319011261031d576004356000526003602052604060002060ff600d8201541615610c2357600581015442811061263c576000905b825491600160a01b600190036003850154169160078501549060068601546008870154600988015490600a89015492600b8a015494600c8b01549660018c016125c190612f48565b9b6002016125ce90612f48565b6040519c8d809d6101a09182918152602001528d016125ec91612dbd565b8c810360408e01526125fd91612dbd565b9960608c015260808b015260a08a015260c089015260e088015261010087015261012086015261014085015261016084015260ff166101808301520390f35b6006820154421161264f57600190612579565b600290612579565b3461031d5761266536612d06565b90600052600a6020526040600020805482101561031d5760209161268891612d69565b90546040519160031b1c8152f35b3461031d57600036600319011261031d57604051806008549182815260208091019260086000527ff3f7a9fe364faab93b216da50a3214154f22a0a2b415b23a84c8169e8b636ee3916000905b8282106126fa57611709856116fd81890382612f27565b8354865294850194600193840193909101906126e3565b3461031d57602036600319011261031d576115c86004356130fb565b3461031d57602036600319011261031d5760043560085481101561031d57612688602091612d32565b3461031d57602036600319011261031d576001600160a01b03612777612d1c565b1660005260126020526060604060002080549060ff600260018301549201541690604051928352602083015215156040820152f35b3461031d5761018036600319011261031d576064356004356024356044353660c41161031d576101449136831161031d57366101841161031d57836000526020916003835260406000209360ff600d8601541615610c2357600585015442116112d2578560005260058452604060002087600052845260ff604060002054166112c0578115612a375760405161284181612ed5565b878152838582015286604082015282606082015260078601546080820152604051916334baeab960e01b835260406084600485013760c46000604485015b60028210612a21575050509060406128a19260c485013761010483019061304f565b83816101a4817f00000000000000000000000000000000000000000000000000000000000000006001600160a01b03165afa908115610b9c57600091612a04575b501561125a57846000526005835260406000208660005283526040600020600160ff198254161790556040519260e08401938085106001600160401b03861117610307577f049e5146cbefb4fff5586b703de455cb45794712230253d13f2d8c57da85a323956129ec600b9260068a866129d08e60409c8d528b86528286018b81528d87018281526060880191428352608089019360008552600460a08b01976000895260c08c019960018b52600052526040600020906000528d528f60002098518955516001890155516002880155516003870155511515600486019060ff801983541691151516179055565b51600584015551151591019060ff801983541691151516179055565b016129f78154613028565b90558351928352820152a3005b612a1b9150843d8611611212576112048183612f27565b876128e2565b604080828186600195370193019101909161287f565b6040516343c891cf60e11b8152600490fd5b3461031d57612a5736612d06565b90600052600c60205260406000209060005260205261010060406000208054906001810154906002810154600382015460048301549060ff6005850154169260ff6007600687015496015416956040519788526020880152604087015260608601526080850152151560a084015260c0830152151560e0820152f35b3461031d57600036600319011261031d576020600854604051908152f35b3461031d57602036600319011261031d576004356000526011602052602060ff604060002054166040519015158152f35b3461031d57608036600319011261031d57600435602435906044358160005260206003815260406000209160048252604060002085600052825260406000209160ff600d8501541615610c23576005840154421115610c115760068401544211610c115760ff60068401541615610bff576004830160ff815416610bed5760028311610bdb5760405190612bb582612eba565b838252612bef8360018701938454828201528960408201526064356060820152604051809381926321c2736360e21b835260048301612fed565b038173__$0daf1669a85ce10529e05b8a030b9567e1$__5af4908115610b9c57600091612cbe575b50855403610b5c577f48b18ffd0d20ac6e0c916dc382bdea3de3108e2b71d66318ff2bdc7aa10a562895846005604097600c94600160ff19825416179055015560018514600014612c90578254612c736008830191825461301b565b90555b01612c818154613028565b905554908351928352820152a3005b84612cad578254612ca66009830191825461301b565b9055612c76565b8254612ca6600a830191825461301b565b90508381813d8311612ce4575b612cd58183612f27565b8101031261031d575189612c17565b503d612ccb565b3461031d57600036600319011261031d576020906002548152f35b604090600319011261031d576004359060243590565b600435906001600160a01b038216820361031d57565b600854811015610dfc5760086000527ff3f7a9fe364faab93b216da50a3214154f22a0a2b415b23a84c8169e8b636ee30190600090565b8054821015610dfc5760005260206000200190600090565b602090602060408183019282815285518094520193019160005b828110612da9575050505090565b835185529381019392810192600101612d9b565b919082519283825260005b848110612de9575050826000602080949584010152601f8019910116010190565b602081830181015184830182015201612dc8565b9181601f8401121561031d578235916001600160401b03831161031d576020838186019501011161031d57565b60a060031982011261031d576001600160401b039160043583811161031d5782612e5691600401612dfd565b9390939260243591821161031d57612e7091600401612dfd565b9091604435906064359060843590565b90600182811c92168015612eb0575b6020831014612e9a57565b634e487b7160e01b600052602260045260246000fd5b91607f1691612e8f565b608081019081106001600160401b0382111761030757604052565b60a081019081106001600160401b0382111761030757604052565b61010081019081106001600160401b0382111761030757604052565b604081019081106001600160401b0382111761030757604052565b90601f801991011681019081106001600160401b0382111761030757604052565b90604051918260008254612f5b81612e80565b90818452602094600191600181169081600014612fcb5750600114612f8c575b505050612f8a92500383612f27565b565b600090815285812095935091905b818310612fb3575050612f8a9350820101388080612f7b565b85548884018501529485019487945091830191612f9a565b92505050612f8a94925060ff191682840152151560051b820101388080612f7b565b6080810192916000915b6004831061300457505050565b600190825181526020809101920192019190612ff7565b919082018092116111d657565b60001981146111d65760010190565b9081602091031261031d5751801515810361031d5790565b6000915b6005831061306057505050565b600190825181526020809101920192019190613053565b600754600160401b811015610307576001810180600755811015610dfc5760076000527fa66cc928b5edb82af9bd49922954155ab7b0942694bea4ce44661d9a8736c6880155565b90815491600160401b83101561030757826130e2916001612f8a95018155612d69565b90919082549060031b91821b91600019901b1916179055565b90600091808352601160205260408320805460ff81166131b95760ff19166001179055601054600160401b8110156131a5576001810180601055811015613191576010829394527f1b6847dc741a1b0cd08d278845f9d819d87b734759afb55fe2de5cb82a9ae67201557f1926a241ba9d59467ac0063e2cb861452b93ab650fff5378a82e86befecc27ab6020604051428152a2565b634e487b7160e01b84526032600452602484fd5b634e487b7160e01b84526041600452602484fd5b5050509050565b9080601f8301121561031d57604051916131d983612f0c565b82906040810192831161031d57905b8282106131f55750505090565b81358152602091820191016131e8565b818102929181159184041417156111d657565b6000915b6002831061322957505050565b60019082518152602080910192019201919061321c565b1561324757565b60405162461bcd60e51b81526020600482015260136024820152721513d3881d1c985b9cd9995c8819985a5b1959606a1b6044820152606490fd5b9291926001600160401b03821161030757604051916132ab601f8201601f191660200184612f27565b82948184528183011161031d578281602093846000960137010152565b8181106132d3575050565b600081556001016132c8565b918060a0916060959897969360808652816080870152838601376000828286010152601f801991011683010195602083015260408201520152565b600052600b602052604060002060ff600e8201541615610c23576005810154421115613355576006015442111561335057600290565b600190565b50600090565b8060005260096020526040600020805460ff81166133cb5760ff19166001179055600854600160401b81101561030757816130e282600161339f9401600855612d32565b7f85238313f6b4aa1ea470340fc24bc06d68e734cd21411160c06714eb547571af6020604051428152a2565b50505056fea2646970667358221220b3c3eb23950935603ba61d35a75be03e89331a5f31bf43936c21981106ced71264736f6c63430008180033",
  "linkReferences": {
    "contracts/PoseidonT5.sol": {
      "PoseidonT5": [
        {
          "length": 20,
          "start": 2851
        },
        {
          "length": 20,
          "start": 11567
        }
      ]
    }
  },
  "deployedLinkReferences": {
    "contracts/PoseidonT5.sol": {
      "PoseidonT5": [
        {
          "length": 20,
          "start": 2535
        },
        {
          "length": 20,
          "start": 11251
        }
      ]
    }
  }
}