{
  "_format": "hh-sol-artifact-1",
  "contractName": "PoseidonT5",
  "sourceName": "contracts/PoseidonT5.sol",
  "abi": [
    {
      "inputs": [
        {
          "internalType": "uint256[4]",
          "name": "",
          "type": "uint256[4]"
        }
      ],
      "name": "hash",
      "outputs": [
        {
          "internalType": "uint256",
          "name": "",
          "type": "uint256"
        }
      ],
      "stateMutability": "pure",
      "type": "function"
    }
  ],
  "bytecode": "0x608080604052346200001c5761cb4b908162000022823930815050f35b600080fdfe600436101561000d57600080fd5b6000803560e01c638709cd8c1461002357600080fd5b6080366003190112610069573660231215610069576101006040526080906084903660841161006957506004915b8183101561bb3c578235815260209283019201610051565b80fd5b6000517f0a01776bb22f4b6b8eccff33e76fded3144fb7e3ac14e846a91e64afb1500eff016020517f2b7b5674aaecc3cbf34d3f275066d549a4f33ae8c15cf827f7936440810ace4301906080517f29d299b80cd4489e4cf75779ed54b48c60b042257b78fc004c1b803381a3bdfd0160a0517f1c46831d9a74529357641c219d721a74a427110032b5e1dd19dde30424be401e019260c0517f06d7626c953ccb72f37141dc34d578e036296c0657674f80739ae1d883e912690160008051602061c936833981519152808080808089818082819d09800909958a82808060008051602061c9d683398151915285099260008051602061c8b683398151915290098160008051602061ca568339815191528d098260008051602061c9768339815191528d098360008051602061ca968339815191528d0901010106016000528a82808060008051602061caf683398151915285099260008051602061c8d683398151915290098160008051602061ca168339815191528d098260008051602061cab68339815191528d098360008051602061c8568339815191528d0901010106016020528a82808060008051602061c83683398151915285099260008051602061c9b683398151915290098160008051602061c9568339815191528d098260008051602061c9168339815191528d098360008051602061c7d68339815191528d0901010106016080528a82808060008051602061c7f683398151915285099260008051602061c8f683398151915290098160008051602061c8968339815191528d098260008051602061ca768339815191528d098360008051602061cad68339815191528d09010101060160a05260008051602061c87683398151915290099860008051602061c81683398151915290099560008051602061c99683398151915290099360008051602061ca3683398151915290099160008051602061c9f68339815191529009010101060160c052565b6000517f28ffddc86f18c136c54002748e0c410edc5c440a3022cd960f108c71cda2930c016020517f2e67f7ee5e4aa295f85deed09e400b17be67f1b7ed2ab6adb8ec0619f6fbc5e901906080517f26ce38fa636c90630e97f25114a79a2dca56859ef759e53ce7abf22c24e80f270160a0517f2e6e07c3c95bf7c34dd7a01d00a7ffec42cb3d16a1f72721afacb4c4cfd35db1019260c0517f2aa74f7597f0c9f45f91d7961c3a54fb8890d276612e1246384b1470da24d8cc0160008051602061c936833981519152808080808089818082819d09800909958a82808060008051602061c9d683398151915285099260008051602061c8b683398151915290098160008051602061ca568339815191528d098260008051602061c9768339815191528d098360008051602061ca968339815191528d0901010106016000528a82808060008051602061caf683398151915285099260008051602061c8d683398151915290098160008051602061ca168339815191528d098260008051602061cab68339815191528d098360008051602061c8568339815191528d0901010106016020528a82808060008051602061c83683398151915285099260008051602061c9b683398151915290098160008051602061c9568339815191528d098260008051602061c9168339815191528d098360008051602061c7d68339815191528d0901010106016080528a82808060008051602061c7f683398151915285099260008051602061c8f683398151915290098160008051602061c8968339815191528d098260008051602061ca768339815191528d098360008051602061cad68339815191528d09010101060160a05260008051602061c87683398151915290099860008051602061c81683398151915290099560008051602061c99683398151915290099360008051602061ca3683398151915290099160008051602061c9f68339815191529009010101060160c052565b6000517f287d681a46a2faae2c7c090f668ab45b8a71313c1509183e2ec0ca639b7f73fe016020517f212bd19df812eaaef4a40600528f3d7da5d3106ff565aa3b11e29f3305e73c0401906080517f1154f7cf519186bf1aafb14b350eb860f97fd9740926dab93809c284047135040160a0517f1dff6385cb31f1c24637810a4bd1b16fbf5152905be36583da747e79661fc207019260c0517f0e444582d22b4e76c081d34c44c18e424011a34d5476252863ea3c606b551e5c0160008051602061c936833981519152808080808089818082819d09800909958a82808060008051602061c9d683398151915285099260008051602061c8b683398151915290098160008051602061ca568339815191528d098260008051602061c9768339815191528d098360008051602061ca968339815191528d0901010106016000528a82808060008051602061caf683398151915285099260008051602061c8d683398151915290098160008051602061ca168339815191528d098260008051602061cab68339815191528d098360008051602061c8568339815191528d0901010106016020528a82808060008051602061c83683398151915285099260008051602061c9b683398151915290098160008051602061c9568339815191528d098260008051602061c9168339815191528d098360008051602061c7d68339815191528d0901010106016080528a82808060008051602061c7f683398151915285099260008051602061c8f683398151915290098160008051602061c8968339815191528d098260008051602061ca768339815191528d098360008051602061cad68339815191528d09010101060160a05260008051602061c87683398151915290099860008051602061c81683398151915290099560008051602061c99683398151915290099360008051602061ca3683398151915290099160008051602061c9f68339815191529009010101060160c052565b6000517f0323c9e433ba66c4abab6638328f02f1815773e9c2846323ff72d3aab7e4eff8016020517f12746bbd71791059193bba79cdec448f25b8cf002740112db70f2c6876a9c29d01906080517f1173b7d112c2a798fd9b9d3751842c75d466c837cf50d73efd049eb4438a22400160a0517f13d51c1090a1ad4876d1e555d7fed13da8e5713b25026ebe5fdb4808703243da019260c0517e874c1344a4ad51ff8dcb7cbd2d9743cb72743f0394efe7f4a58ebeb956baa10160008051602061c936833981519152808080808089818082819d09800909958a82808060008051602061c9d683398151915285099260008051602061c8b683398151915290098160008051602061ca568339815191528d098260008051602061c9768339815191528d098360008051602061ca968339815191528d0901010106016000528a82808060008051602061caf683398151915285099260008051602061c8d683398151915290098160008051602061ca168339815191528d098260008051602061cab68339815191528d098360008051602061c8568339815191528d0901010106016020528a82808060008051602061c83683398151915285099260008051602061c9b683398151915290098160008051602061c9568339815191528d098260008051602061c9168339815191528d098360008051602061c7d68339815191528d0901010106016080528a82808060008051602061c7f683398151915285099260008051602061c8f683398151915290098160008051602061c8968339815191528d098260008051602061ca768339815191528d098360008051602061cad68339815191528d09010101060160a05260008051602061c87683398151915290099860008051602061c81683398151915290099560008051602061c99683398151915290099360008051602061ca3683398151915290099160008051602061c9f68339815191529009010101060160c052565b6000517f22df22131aaab85865ce236b07f244fa0eea48d3546e97d6a32a562074fef08f016020517f0bf964d2dbd25b908708b437a445fc3e984524a59101e6c18bf5eb05a919f15501906080517f09b18d9b917a55bca302be1f7f181e0e640b9d73a9ab298c69b435b5fc502f320160a0517f094f5534444fae36a4bfc1d5bf3dc05bfbbbc70a6365366dd6745a5067289e43019260c0517f2999bab1a5f25210519fa6622af53a15a3e240c0da5701cb784fddc0dc23f01f0160008051602061c936833981519152808080808089818082819d09800909958a82808060008051602061c9d683398151915285099260008051602061c8b683398151915290098160008051602061ca568339815191528d098260008051602061c9768339815191528d098360008051602061ca968339815191528d0901010106016000528a82808060008051602061caf683398151915285099260008051602061c8d683398151915290098160008051602061ca168339815191528d098260008051602061cab68339815191528d098360008051602061c8568339815191528d0901010106016020528a82808060008051602061c83683398151915285099260008051602061c9b683398151915290098160008051602061c9568339815191528d098260008051602061c9168339815191528d098360008051602061c7d68339815191528d0901010106016080528a82808060008051602061c7f683398151915285099260008051602061c8f683398151915290098160008051602061c8968339815191528d098260008051602061ca768339815191528d098360008051602061cad68339815191528d09010101060160a05260008051602061c87683398151915290099860008051602061c81683398151915290099560008051602061c99683398151915290099360008051602061ca3683398151915290099160008051602061c9f68339815191529009010101060160c052565b6000517f2f6898c07581f6371ca94db73710e88084301bce8a93d13669575a11b03a3d23016020517f07268eaaba08bc19ec16d7e1318a4740565deb1e8e5742f862174b1a6866fccb01906080517f186279b003454db01339ff77113bc9eb62603e078e1c6689a6c9582c41a0529f0160a0517f18a3f736509197d6e4915bdd04d3e5ddb67e2cc5de9a22750768e5524737172c019260c0517f0a21fa1988cf38d877cc1e2ed24c808c725e2d4bcb2d3a007b5987b87085671d0160008051602061c936833981519152808080808089818082819d09800909958a82808060008051602061c9d683398151915285099260008051602061c8b683398151915290098160008051602061ca568339815191528d098260008051602061c9768339815191528d098360008051602061ca968339815191528d0901010106016000528a82808060008051602061caf683398151915285099260008051602061c8d683398151915290098160008051602061ca168339815191528d098260008051602061cab68339815191528d098360008051602061c8568339815191528d0901010106016020528a82808060008051602061c83683398151915285099260008051602061c9b683398151915290098160008051602061c9568339815191528d098260008051602061c9168339815191528d098360008051602061c7d68339815191528d0901010106016080528a82808060008051602061c7f683398151915285099260008051602061c8f683398151915290098160008051602061c8968339815191528d098260008051602061ca768339815191528d098360008051602061cad68339815191528d09010101060160a05260008051602061c87683398151915290099860008051602061c81683398151915290099560008051602061c99683398151915290099360008051602061ca3683398151915290099160008051602061c9f68339815191529009010101060160c052565b6000517f15b285cbe26c467f1faf5ef6a64625228328c184a2c43bc00b36a135e785fba2016020517f164b7062c4671cf08c08b8c3f9806d560b7775b7c902f5788cd28de3e779f16101906080517f0890ba0819ac0a6f86d9865fe7e50ef361c61d3d43b6e65d7a24f651249baa700160a0517f2fbea4d65d7ed425a42712e5a721e4eaa627ac5cb0eb878ccc2ee0aed543e922019260c0517f0492bf383c36fa55540303a3b536f85e7b70a58e854ab9b9103d7f5f379abaaa0160008051602061c936833981519152808080808089818082819d09800909958a82808060008051602061c9d683398151915285099260008051602061c8b683398151915290098160008051602061ca568339815191528d098260008051602061c9768339815191528d098360008051602061ca968339815191528d0901010106016000528a82808060008051602061caf683398151915285099260008051602061c8d683398151915290098160008051602061ca168339815191528d098260008051602061cab68339815191528d098360008051602061c8568339815191528d0901010106016020528a82808060008051602061c83683398151915285099260008051602061c9b683398151915290098160008051602061c9568339815191528d098260008051602061c9168339815191528d098360008051602061c7d68339815191528d0901010106016080528a82808060008051602061c7f683398151915285099260008051602061c8f683398151915290098160008051602061c8968339815191528d098260008051602061ca768339815191528d098360008051602061cad68339815191528d09010101060160a05260008051602061c87683398151915290099860008051602061c81683398151915290099560008051602061c99683398151915290099360008051602061ca3683398151915290099160008051602061c9f68339815191529009010101060160c052565b6000517f05e91fe944e944104e20251c565142d61d6185a9ce85675f6a969d56292dc24e016020517f12fe5c2029e4b33893d463cb041acad0995b9621e6e49c3b7e380a76e36e6c1c01906080517f024154adf0255d47958f7723921474131f2629fadc89496906cd01dc6fa0784e0160a0517f18824a09e6afaf4a36ed2462a86bd0bad798815644f2bbde8813c13457a45550019260c0517f0c8b482dba0ad51be9f255de0c3dbddddf84a630af68d50bbb06983e3d5d58a50160008051602061c936833981519152808080808089818082819d09800909958a82808060008051602061c9d683398151915285099260008051602061c8b683398151915290098160008051602061ca568339815191528d098260008051602061c9768339815191528d098360008051602061ca968339815191528d0901010106016000528a82808060008051602061caf683398151915285099260008051602061c8d683398151915290098160008051602061ca168339815191528d098260008051602061cab68339815191528d098360008051602061c8568339815191528d0901010106016020528a82808060008051602061c83683398151915285099260008051602061c9b683398151915290098160008051602061c9568339815191528d098260008051602061c9168339815191528d098360008051602061c7d68339815191528d0901010106016080528a82808060008051602061c7f683398151915285099260008051602061c8f683398151915290098160008051602061c8968339815191528d098260008051602061ca768339815191528d098360008051602061cad68339815191528d09010101060160a05260008051602061c87683398151915290099860008051602061c81683398151915290099560008051602061c99683398151915290099360008051602061ca3683398151915290099160008051602061c9f68339815191529009010101060160c052565b6000517f17325fd0ab635871363e0a1667d3b67c5a4fa67fcd6aaf86441392878fdb05e6016020517f050ae95f6d2f1519122f5af67b690f31e550773fa8d18bf71cc6d0e911fa402e01906080517f0f0d139a0e81e943038cb288d62636764bbb6295f07569885771ec84edc50c400160a0517f1c0f8697795689cdf70fd2f2c0f93d1a79b39ebc7a1b1c549dbbca7b8e747cd6019260c0517f2bd0f940ad936b796d2bc2e048bc979e49be23a4b13598f9fe536a16dc1d81e60160008051602061c936833981519152808080808089818082819d09800909958a82808060008051602061c9d683398151915285099260008051602061c8b683398151915290098160008051602061ca568339815191528d098260008051602061c9768339815191528d098360008051602061ca968339815191528d0901010106016000528a82808060008051602061caf683398151915285099260008051602061c8d683398151915290098160008051602061ca168339815191528d098260008051602061cab68339815191528d098360008051602061c8568339815191528d0901010106016020528a82808060008051602061c83683398151915285099260008051602061c9b683398151915290098160008051602061c9568339815191528d098260008051602061c9168339815191528d098360008051602061c7d68339815191528d0901010106016080528a82808060008051602061c7f683398151915285099260008051602061c8f683398151915290098160008051602061c8968339815191528d098260008051602061ca768339815191528d098360008051602061cad68339815191528d09010101060160a05260008051602061c87683398151915290099860008051602061c81683398151915290099560008051602061c99683398151915290099360008051602061ca3683398151915290099160008051602061c9f68339815191529009010101060160c052565b6000517f27eb1be27c9c4e934778c09a0053337fa06ebb275e096d167ce54d1e96ee62cb016020517f2e4889d830a67e5a8f96bdd3155a7ca3284fbd307d1f71b0f151be62548e2aea01906080517f193fe3db0ab47d3c5d2ec5e9c5bd9983c9891f2cadc165db6064bbe6fcc1e3050160a0517f2bf3086e96c36c7bce415907ad0c40ed6e9661c009679e4e37cb13027c83e525019260c0517f12f16e2de6d4ad46a98cdb697c6cad5dd5e7e413f741ccf29ff2ea486e59bb280160008051602061c936833981519152808080808089818082819d09800909958a82808060008051602061c9d683398151915285099260008051602061c8b683398151915290098160008051602061ca568339815191528d098260008051602061c9768339815191528d098360008051602061ca968339815191528d0901010106016000528a82808060008051602061caf683398151915285099260008051602061c8d683398151915290098160008051602061ca168339815191528d098260008051602061cab68339815191528d098360008051602061c8568339815191528d0901010106016020528a82808060008051602061c83683398151915285099260008051602061c9b683398151915290098160008051602061c9568339815191528d098260008051602061c9168339815191528d098360008051602061c7d68339815191528d0901010106016080528a82808060008051602061c7f683398151915285099260008051602061c8f683398151915290098160008051602061c8968339815191528d098260008051602061ca768339815191528d098360008051602061cad68339815191528d09010101060160a05260008051602061c87683398151915290099860008051602061c81683398151915290099560008051602061c99683398151915290099360008051602061ca3683398151915290099160008051602061c9f68339815191529009010101060160c052565b6000517f2a72147d230119f3a0262e3653ddd19f33f3d5d6ec6c4bf0ad919b0343b92d2f016020517f21be0e2c4bfd64e56dc47f957806dc5f0a2d9bcc26412e2977df79acc10ba97401906080517f0e2d7e1dc946d70b2749a3b54367b25a71b84fb911aa57ae137fd4b6c21b444a0160a0517f2667f7fb5a4fa1246170a745d8a4188cc31adb0eae3325dc9f3f07d4b92b3e2e019260c0517f2ccc6f431fb7400730a783b66064697a1550c12b08dfeb72830e107da78e34050160008051602061c936833981519152808080808089818082819d09800909958a82808060008051602061c9d683398151915285099260008051602061c8b683398151915290098160008051602061ca568339815191528d098260008051602061c9768339815191528d098360008051602061ca968339815191528d0901010106016000528a82808060008051602061caf683398151915285099260008051602061c8d683398151915290098160008051602061ca168339815191528d098260008051602061cab68339815191528d098360008051602061c8568339815191528d0901010106016020528a82808060008051602061c83683398151915285099260008051602061c9b683398151915290098160008051602061c9568339815191528d098260008051602061c9168339815191528d098360008051602061c7d68339815191528d0901010106016080528a82808060008051602061c7f683398151915285099260008051602061c8f683398151915290098160008051602061c8968339815191528d098260008051602061ca768339815191528d098360008051602061cad68339815191528d09010101060160a05260008051602061c87683398151915290099860008051602061c81683398151915290099560008051602061c99683398151915290099360008051602061ca3683398151915290099160008051602061c9f68339815191529009010101060160c052565b6000517f08888a94fc5a2ca34f0201462420001fae6dbee9e8ca0c242ec50621e38e6e5d016020517f02977b34eeaa3cb6ad40dd42c9b6fdd7a0d2fbe753af88b36acfcd3ccbc53f2a01906080517f120ccce13d28b75cfd6fb6c9ea13a648bfcfe0d7e6ff8e9610b5e9f971e16b9a0160a0517f09fad2269c4a8e93c81e1b9770ea098c92787a4575b2bd73a0bf2af32f86ff3c019260c0517f026091fd3d4c44d50a4b310e4ac6f0fa0debdb70775eeb8af630cffb60092d6f0160008051602061c936833981519152808080808089818082819d09800909958a82808060008051602061c9d683398151915285099260008051602061c8b683398151915290098160008051602061ca568339815191528d098260008051602061c9768339815191528d098360008051602061ca968339815191528d0901010106016000528a82808060008051602061caf683398151915285099260008051602061c8d683398151915290098160008051602061ca168339815191528d098260008051602061cab68339815191528d098360008051602061c8568339815191528d0901010106016020528a82808060008051602061c83683398151915285099260008051602061c9b683398151915290098160008051602061c9568339815191528d098260008051602061c9168339815191528d098360008051602061c7d68339815191528d0901010106016080528a82808060008051602061c7f683398151915285099260008051602061c8f683398151915290098160008051602061c8968339815191528d098260008051602061ca768339815191528d098360008051602061cad68339815191528d09010101060160a05260008051602061c87683398151915290099860008051602061c81683398151915290099560008051602061c99683398151915290099360008051602061ca3683398151915290099160008051602061c9f68339815191529009010101060160c052565b6000517f29404aa2ba565b77bb7fba9dfb6fc3212543cc56afad6afcb904fd2bca893994016020517f2749475c399aaf39d4e87c2548695b4ef1ffd86590e0827de7201351b7c883f901906080517f098c842322479f7239912b50424685cba2ebe2dc2e4da70ac7557dab65ffa2220160a0517f18cef581222b647e31238e57fead7d5c758ace14c93c4da40191d0c053b51936019260c0517f13177839c68a5080d4e746745e43711d3cbc0ca4a108f98d63b2aa681698de600160008051602061c936833981519152808080808089818082819d09800909958a82808060008051602061c9d683398151915285099260008051602061c8b683398151915290098160008051602061ca568339815191528d098260008051602061c9768339815191528d098360008051602061ca968339815191528d0901010106016000528a82808060008051602061caf683398151915285099260008051602061c8d683398151915290098160008051602061ca168339815191528d098260008051602061cab68339815191528d098360008051602061c8568339815191528d0901010106016020528a82808060008051602061c83683398151915285099260008051602061c9b683398151915290098160008051602061c9568339815191528d098260008051602061c9168339815191528d098360008051602061c7d68339815191528d0901010106016080528a82808060008051602061c7f683398151915285099260008051602061c8f683398151915290098160008051602061c8968339815191528d098260008051602061ca768339815191528d098360008051602061cad68339815191528d09010101060160a05260008051602061c87683398151915290099860008051602061c81683398151915290099560008051602061c99683398151915290099360008051602061ca3683398151915290099160008051602061c9f68339815191529009010101060160c052565b6000517f020ca696f531e43ec088f56f4b74325626cc4df712c0e5f0a907d88e5f0deffd016020517f27230eede9cccfc9fa805a30fc548db693d13708c646841d16e028387c7ac02201906080517f01645911c1198b01d64fde34a342a1786497c05969a015439057d2fe75bb281c0160a0517f2c323fe16481bf496e439c88341ce25f198971e14487056cfdca4a451a5d8643019260c0517f0fc082dfe70728e8450bd2074c3e22e1b022c124d3bffe8b5af88ae6db5085c80160008051602061c936833981519152808080808089818082819d09800909958a82808060008051602061c9d683398151915285099260008051602061c8b683398151915290098160008051602061ca568339815191528d098260008051602061c9768339815191528d098360008051602061ca968339815191528d0901010106016000528a82808060008051602061caf683398151915285099260008051602061c8d683398151915290098160008051602061ca168339815191528d098260008051602061cab68339815191528d098360008051602061c8568339815191528d0901010106016020528a82808060008051602061c83683398151915285099260008051602061c9b683398151915290098160008051602061c9568339815191528d098260008051602061c9168339815191528d098360008051602061c7d68339815191528d0901010106016080528a82808060008051602061c7f683398151915285099260008051602061c8f683398151915290098160008051602061c8968339815191528d098260008051602061ca768339815191528d098360008051602061cad68339815191528d09010101060160a05260008051602061c87683398151915290099860008051602061c81683398151915290099560008051602061c99683398151915290099360008051602061ca3683398151915290099160008051602061c9f68339815191529009010101060160c052565b6000517f2052c174800db209d8cdca568dcc25b3be9642116ac4c77efe8a488b423521ee016020517f28e420e10df2fbb5af96d621d55423190be351ce8129065a8dd9fd05b3ece9c001906080517f25698ca5e24a1b799f783c4462a24db655d6ae1bdacd1cb549d6e0bc3ae5069a0160a0517f160a9981a5c89a57cf8ffbfa57d51049a297b61074422ac134d9b857d6984d35019260c0517f21c91a39e145c3bc34d9b694b843f3bf8b7cebf59ddbb0a064642b069997f3d40160008051602061c936833981519152808080808089818082819d09800909958a82808060008051602061c9d683398151915285099260008051602061c8b683398151915290098160008051602061ca568339815191528d098260008051602061c9768339815191528d098360008051602061ca968339815191528d0901010106016000528a82808060008051602061caf683398151915285099260008051602061c8d683398151915290098160008051602061ca168339815191528d098260008051602061cab68339815191528d098360008051602061c8568339815191528d0901010106016020528a82808060008051602061c83683398151915285099260008051602061c9b683398151915290098160008051602061c9568339815191528d098260008051602061c9168339815191528d098360008051602061c7d68339815191528d0901010106016080528a82808060008051602061c7f683398151915285099260008051602061c8f683398151915290098160008051602061c8968339815191528d098260008051602061ca768339815191528d098360008051602061cad68339815191528d09010101060160a05260008051602061c87683398151915290099860008051602061c81683398151915290099560008051602061c99683398151915290099360008051602061ca3683398151915290099160008051602061c9f68339815191529009010101060160c052565b6000517f1ac8d80dcd5ee876d2b09345ef112345d6eaa029d93f03b6d10975461e41734c016020517f0ab3e6ad0ecf8b8e7c1662a4174c52225d822895e2755544b8dbcea5657ce02c01906080517f1c675182512620ae27e3b0b917b3a21ca52ef3ef5909b4e1c5b2237cbdab33770160a0517f2cdbc998dfd7affd3d948d0c85bad2e2e37a4a3e07a7d75d0c8a9092ac2bed45019260c0517f23b584a56e2117b0774bf67cc0dee33324337350309dff833e491a133bb63b2e0160008051602061c936833981519152808080808089818082819d09800909958a82808060008051602061c9d683398151915285099260008051602061c8b683398151915290098160008051602061ca568339815191528d098260008051602061c9768339815191528d098360008051602061ca968339815191528d0901010106016000528a82808060008051602061caf683398151915285099260008051602061c8d683398151915290098160008051602061ca168339815191528d098260008051602061cab68339815191528d098360008051602061c8568339815191528d0901010106016020528a82808060008051602061c83683398151915285099260008051602061c9b683398151915290098160008051602061c9568339815191528d098260008051602061c9168339815191528d098360008051602061c7d68339815191528d0901010106016080528a82808060008051602061c7f683398151915285099260008051602061c8f683398151915290098160008051602061c8968339815191528d098260008051602061ca768339815191528d098360008051602061cad68339815191528d09010101060160a05260008051602061c87683398151915290099860008051602061c81683398151915290099560008051602061c99683398151915290099360008051602061ca3683398151915290099160008051602061c9f68339815191529009010101060160c052565b6000517f1e9e2b310f60ba9f8cb73030a3c9d2a10d133bc6ba4ec1152f3d20de1465e9a5016020517f0e01e365ba5b3031abc3e720140ae746c9ab5dab987520c460bcd4f1fa5b22db01906080517f040884cdcfc64bfc7b7127340498d5c443382011b61c9a4b1387d85bc1264e680160a0517f190b1ee1205eb9500c74a3998f2bea36353f1724d6067ed0a0a17de311ef9668019260c0517f1647c72aec6c4388d04f52fc23cd9c08c1dfcf65ce61e165fc28d1f832bd3b2c0160008051602061c936833981519152808080808089818082819d09800909958a82808060008051602061c9d683398151915285099260008051602061c8b683398151915290098160008051602061ca568339815191528d098260008051602061c9768339815191528d098360008051602061ca968339815191528d0901010106016000528a82808060008051602061caf683398151915285099260008051602061c8d683398151915290098160008051602061ca168339815191528d098260008051602061cab68339815191528d098360008051602061c8568339815191528d0901010106016020528a82808060008051602061c83683398151915285099260008051602061c9b683398151915290098160008051602061c9568339815191528d098260008051602061c9168339815191528d098360008051602061c7d68339815191528d0901010106016080528a82808060008051602061c7f683398151915285099260008051602061c8f683398151915290098160008051602061c8968339815191528d098260008051602061ca768339815191528d098360008051602061cad68339815191528d09010101060160a05260008051602061c87683398151915290099860008051602061c81683398151915290099560008051602061c99683398151915290099360008051602061ca3683398151915290099160008051602061c9f68339815191529009010101060160c052565b6000517f2430006346a0145f799880cc4c8736269f5494d89fb48b02842e595b71e4541d016020517f177b9a08343917e1365107a3da3ae7f69d853902bb16bacb3221850252b757af01906080517f04a420e642b11ae94e58862a68f5e32609cd53d0ae29423439b11d04666df4f80160a0517f25d0e0f739fb39fc105a88fab0afd810de2461858e956ccccdfabeddb6a25c8f019260c0517f04476d91b7eff2fd85905cbf58651edc320cb15610eaed452c4d4ffa0c740a270160008051602061c936833981519152808080808089818082819d09800909958a82808060008051602061c9d683398151915285099260008051602061c8b683398151915290098160008051602061ca568339815191528d098260008051602061c9768339815191528d098360008051602061ca968339815191528d0901010106016000528a82808060008051602061caf683398151915285099260008051602061c8d683398151915290098160008051602061ca168339815191528d098260008051602061cab68339815191528d098360008051602061c8568339815191528d0901010106016020528a82808060008051602061c83683398151915285099260008051602061c9b683398151915290098160008051602061c9568339815191528d098260008051602061c9168339815191528d098360008051602061c7d68339815191528d0901010106016080528a82808060008051602061c7f683398151915285099260008051602061c8f683398151915290098160008051602061c8968339815191528d098260008051602061ca768339815191528d098360008051602061cad68339815191528d09010101060160a05260008051602061c87683398151915290099860008051602061c81683398151915290099560008051602061c99683398151915290099360008051602061ca3683398151915290099160008051602061c9f68339815191529009010101060160c052565b6000517f1090c0b68b3d7d7b8bc9ca2419eb8dea1c28f6d5e1250cb5e9780fd9ca286fae016020517f25393ce3b9256d50448a725c5c7cd5ad376f2d435855c10ebf2899cb5c6617be01906080517f25931c0c7371f4f1fc862f306e6e5830ed824388d6b9342697d144f0fab466300160a0517f2396cb501700bbe6c82aad51b0fb79cf8a4d353185d5808203f73f22afbf62f6019260c0517f26a363483348b58954ea748a7129a7b0a3dc9068c3cca7b5b3f0ce03b87248840160008051602061c936833981519152808080808089818082819d09800909958a82808060008051602061c9d683398151915285099260008051602061c8b683398151915290098160008051602061ca568339815191528d098260008051602061c9768339815191528d098360008051602061ca968339815191528d0901010106016000528a82808060008051602061caf683398151915285099260008051602061c8d683398151915290098160008051602061ca168339815191528d098260008051602061cab68339815191528d098360008051602061c8568339815191528d0901010106016020528a82808060008051602061c83683398151915285099260008051602061c9b683398151915290098160008051602061c9568339815191528d098260008051602061c9168339815191528d098360008051602061c7d68339815191528d0901010106016080528a82808060008051602061c7f683398151915285099260008051602061c8f683398151915290098160008051602061c8968339815191528d098260008051602061ca768339815191528d098360008051602061cad68339815191528d09010101060160a05260008051602061c87683398151915290099860008051602061c81683398151915290099560008051602061c99683398151915290099360008051602061ca3683398151915290099160008051602061c9f68339815191529009010101060160c052565b6000517f27ca107ca204f2a18d6f1535b92c5478c99b893334215f6ba7a0e5b45fcd6897016020517f26da28fc097ed77ce4662bde326b2cceac15f7301178581d8d2d02b3b2d9105601906080517f056ab351691d8bb3703e3055070ac9cc655774c1bb35d57572971ba56ee0cb890160a0517f2638b57f23b754aec76d109a2f481aa3c22547a11ffc50152d729af632376a90019260c0517f304754bb8c57d60732f492c2605184fdc33e46a532bdec80ea7bc5519ede7cef0160008051602061c936833981519152808080808089818082819d09800909958a82808060008051602061c9d683398151915285099260008051602061c8b683398151915290098160008051602061ca568339815191528d098260008051602061c9768339815191528d098360008051602061ca968339815191528d0901010106016000528a82808060008051602061caf683398151915285099260008051602061c8d683398151915290098160008051602061ca168339815191528d098260008051602061cab68339815191528d098360008051602061c8568339815191528d0901010106016020528a82808060008051602061c83683398151915285099260008051602061c9b683398151915290098160008051602061c9568339815191528d098260008051602061c9168339815191528d098360008051602061c7d68339815191528d0901010106016080528a82808060008051602061c7f683398151915285099260008051602061c8f683398151915290098160008051602061c8968339815191528d098260008051602061ca768339815191528d098360008051602061cad68339815191528d09010101060160a05260008051602061c87683398151915290099860008051602061c81683398151915290099560008051602061c99683398151915290099360008051602061ca3683398151915290099160008051602061c9f68339815191529009010101060160c052565b6000517ed1727f8457ee03514f155b5806cbf748ec6857fc554010752ac93a9b7619ac016020517eee1f3c66fbc05c43ba295a303c72fab5bca86805ec9419c588e50947761fa301906080517f0afafadcf5b4dd4a4a76b5a1d82415fd10a19fbcfc59078c61f9297eb675d9720160a0517f0b2449f39746085e86ce45e8eed108ee65a234835a0a6a5ea8996d124dd04d0a019260c0517f206b0ce2f1b2c5b7c9f37b0045227095f6c6f071ec3bdda76a7ddf4823dd5dd60160008051602061c936833981519152808080808089818082819d09800909958a82808060008051602061c9d683398151915285099260008051602061c8b683398151915290098160008051602061ca568339815191528d098260008051602061c9768339815191528d098360008051602061ca968339815191528d0901010106016000528a82808060008051602061caf683398151915285099260008051602061c8d683398151915290098160008051602061ca168339815191528d098260008051602061cab68339815191528d098360008051602061c8568339815191528d0901010106016020528a82808060008051602061c83683398151915285099260008051602061c9b683398151915290098160008051602061c9568339815191528d098260008051602061c9168339815191528d098360008051602061c7d68339815191528d0901010106016080528a82808060008051602061c7f683398151915285099260008051602061c8f683398151915290098160008051602061c8968339815191528d098260008051602061ca768339815191528d098360008051602061cad68339815191528d09010101060160a05260008051602061c87683398151915290099860008051602061c81683398151915290099560008051602061c99683398151915290099360008051602061ca3683398151915290099160008051602061c9f68339815191529009010101060160c052565b6000517f0feba4fb87834c7cb696e67433628cd6caffc3a4ef20fea852c7e1029459409c016020517f254dbfac74c49b0b8926752e084e02513b06f1315e6d70e18173e972336e55d301906080517f0addb1372cee4e164655168c367559e19606c5bd17910aeb37719edfa0ca87620160a0517f26b25b7e257f3e97c799024fb019f65c6ca4d8d81b1ae16221a589d68831d759019260c0517f090995b79acec240413b8d4c658787e5a4657b9ab00bdb5b1960b1059e113ba30160008051602061c936833981519152808080808089818082819d09800909958a82808060008051602061c9d683398151915285099260008051602061c8b683398151915290098160008051602061ca568339815191528d098260008051602061c9768339815191528d098360008051602061ca968339815191528d0901010106016000528a82808060008051602061caf683398151915285099260008051602061c8d683398151915290098160008051602061ca168339815191528d098260008051602061cab68339815191528d098360008051602061c8568339815191528d0901010106016020528a82808060008051602061c83683398151915285099260008051602061c9b683398151915290098160008051602061c9568339815191528d098260008051602061c9168339815191528d098360008051602061c7d68339815191528d0901010106016080528a82808060008051602061c7f683398151915285099260008051602061c8f683398151915290098160008051602061c8968339815191528d098260008051602061ca768339815191528d098360008051602061cad68339815191528d09010101060160a05260008051602061c87683398151915290099860008051602061c81683398151915290099560008051602061c99683398151915290099360008051602061ca3683398151915290099160008051602061c9f68339815191529009010101060160c052565b6000517f08dbdc2e21ef11f2c57299687843cea3eb0d8e40e99131f42974178d44f73b7b016020517f09e8aba671481197679faf752a0f78e342fe9c491596ab6758f170939785179f01906080517f1deb05180e833e45659052a7ebaf816c7efd12a7f9eec94b7bc7c683f1363d5c0160a0517f19a70ec6bdfc9098a926efbcc04aa9ee248997e8b2c24af335fd6523e5250879019260c0517f21d773660adafb8a879986f9aab4890566353a3777d8a3f1eb93abe10bbf1f640160008051602061c936833981519152808080808089818082819d09800909958a82808060008051602061c9d683398151915285099260008051602061c8b683398151915290098160008051602061ca568339815191528d098260008051602061c9768339815191528d098360008051602061ca968339815191528d0901010106016000528a82808060008051602061caf683398151915285099260008051602061c8d683398151915290098160008051602061ca168339815191528d098260008051602061cab68339815191528d098360008051602061c8568339815191528d0901010106016020528a82808060008051602061c83683398151915285099260008051602061c9b683398151915290098160008051602061c9568339815191528d098260008051602061c9168339815191528d098360008051602061c7d68339815191528d0901010106016080528a82808060008051602061c7f683398151915285099260008051602061c8f683398151915290098160008051602061c8968339815191528d098260008051602061ca768339815191528d098360008051602061cad68339815191528d09010101060160a05260008051602061c87683398151915290099860008051602061c81683398151915290099560008051602061c99683398151915290099360008051602061ca3683398151915290099160008051602061c9f68339815191529009010101060160c052565b6000517f09f1890f72e9dc713e20ba637b89d5d397a6b01fcd667347f6f46617841c3901016020517f05af459361eb454d2a300c61e446998d48fa1f897bf219d608c2145c33b111c301906080517f0fa1a1d6829f0345664a66dc75a657335f336f15f340756cfa12fc850cc8b5130160a0517f02e47a35bcc0c3a0bda0b1c0307ad543f4280fcf87f636f853655cf97a628bb0019260c0517f14f773e9834c6bdeb8f90e78bf4c24b7203411460112491036621895204d0f120160008051602061c936833981519152808080808089818082819d09800909958a82808060008051602061c9d683398151915285099260008051602061c8b683398151915290098160008051602061ca568339815191528d098260008051602061c9768339815191528d098360008051602061ca968339815191528d0901010106016000528a82808060008051602061caf683398151915285099260008051602061c8d683398151915290098160008051602061ca168339815191528d098260008051602061cab68339815191528d098360008051602061c8568339815191528d0901010106016020528a82808060008051602061c83683398151915285099260008051602061c9b683398151915290098160008051602061c9568339815191528d098260008051602061c9168339815191528d098360008051602061c7d68339815191528d0901010106016080528a82808060008051602061c7f683398151915285099260008051602061c8f683398151915290098160008051602061c8968339815191528d098260008051602061ca768339815191528d098360008051602061cad68339815191528d09010101060160a05260008051602061c87683398151915290099860008051602061c81683398151915290099560008051602061c99683398151915290099360008051602061ca3683398151915290099160008051602061c9f68339815191529009010101060160c052565b6000517f102d98cf502ed843255cf19d29bc7d8e642abe7cfd639992ffb091962fc8f7cc016020517f043dd5f4aa5a76dd4c47f6c65da7ca2320d4c73ad3294738cba686a7e91373c201906080517f21833819c3337194a6c0d29a48d4f2676f0e7c79743a306f4cfdb2b26bd11efa0160a0517f0f281925cf5ee649b474a6819d116ca3eb4eca246c311ecadc53262a3cff2b53019260c0517f0d3e2477a7b10beb44709c7746d6824edf625dd60504d5dc93ce662f15c238d60160008051602061c936833981519152808080808089818082819d09800909958a82808060008051602061c9d683398151915285099260008051602061c8b683398151915290098160008051602061ca568339815191528d098260008051602061c9768339815191528d098360008051602061ca968339815191528d0901010106016000528a82808060008051602061caf683398151915285099260008051602061c8d683398151915290098160008051602061ca168339815191528d098260008051602061cab68339815191528d098360008051602061c8568339815191528d0901010106016020528a82808060008051602061c83683398151915285099260008051602061c9b683398151915290098160008051602061c9568339815191528d098260008051602061c9168339815191528d098360008051602061c7d68339815191528d0901010106016080528a82808060008051602061c7f683398151915285099260008051602061c8f683398151915290098160008051602061c8968339815191528d098260008051602061ca768339815191528d098360008051602061cad68339815191528d09010101060160a05260008051602061c87683398151915290099860008051602061c81683398151915290099560008051602061c99683398151915290099360008051602061ca3683398151915290099160008051602061c9f68339815191529009010101060160c052565b6000517f2cd7f641bedbf66956ff8a01be9cde35d80f80ab51e73b49acbfc3eff5aefc44016020517f29e95b492bf2f95f4d09380f98b74e389149d24045811d7a86dd861310463cf801906080517f22da66bc62e8f011266efca86a6c810f9ae4c51af6ffeb57f8b3c50df83cc13e0160a0517f0fe6d30de7a82d163023491794f4aca3220db79e8129df3643072d841925554a019260c0517e50e842a1299909123c46eff185c23ad312d03fef1adfecc7e07ecb298fd67f0160008051602061c936833981519152808080808089818082819d09800909958a82808060008051602061c9d683398151915285099260008051602061c8b683398151915290098160008051602061ca568339815191528d098260008051602061c9768339815191528d098360008051602061ca968339815191528d0901010106016000528a82808060008051602061caf683398151915285099260008051602061c8d683398151915290098160008051602061ca168339815191528d098260008051602061cab68339815191528d098360008051602061c8568339815191528d0901010106016020528a82808060008051602061c83683398151915285099260008051602061c9b683398151915290098160008051602061c9568339815191528d098260008051602061c9168339815191528d098360008051602061c7d68339815191528d0901010106016080528a82808060008051602061c7f683398151915285099260008051602061c8f683398151915290098160008051602061c8968339815191528d098260008051602061ca768339815191528d098360008051602061cad68339815191528d09010101060160a05260008051602061c87683398151915290099860008051602061c81683398151915290099560008051602061c99683398151915290099360008051602061ca3683398151915290099160008051602061c9f68339815191529009010101060160c052565b6000517f2130a3a7b3221222be34cc53a42d7733666f9ddf714ed7c5885cbbdb63108c21016020517f2df9ee294edf99e3d8d5883fe0566c24aa66731f34a93280e1d328e67b33c9fa01906080517f1bf7d6e489ad8c0cf26eb68cc21ff54158132396dc250aeba4b6fc5fc33727620160a0517f0c602fa155be958761eaf739617ab136cf7b807728bf7fe35d4778d311780e54019260c0517f2e50e2c5b36aa20532407d86b8d22d7d5154080a24972faeb63faf0121ed7f210160008051602061c936833981519152808080808089818082819d09800909958a82808060008051602061c9d683398151915285099260008051602061c8b683398151915290098160008051602061ca568339815191528d098260008051602061c9768339815191528d098360008051602061ca968339815191528d0901010106016000528a82808060008051602061caf683398151915285099260008051602061c8d683398151915290098160008051602061ca168339815191528d098260008051602061cab68339815191528d098360008051602061c8568339815191528d0901010106016020528a82808060008051602061c83683398151915285099260008051602061c9b683398151915290098160008051602061c9568339815191528d098260008051602061c9168339815191528d098360008051602061c7d68339815191528d0901010106016080528a82808060008051602061c7f683398151915285099260008051602061c8f683398151915290098160008051602061c8968339815191528d098260008051602061ca768339815191528d098360008051602061cad68339815191528d09010101060160a05260008051602061c87683398151915290099860008051602061c81683398151915290099560008051602061c99683398151915290099360008051602061ca3683398151915290099160008051602061c9f68339815191529009010101060160c052565b6000517f17c2510982a7b5825710d6290ec4f782f674995ee8409b42b459123b180332e1016020517f0b0d52f03c8af7276803ecf2465b885b21337b538eabd2f6b2ab255f376b42a801906080517f0f5633df1972b9455953d88a63f80647a9ac77c6c0f85d4561972dd8fab8bd140160a0517f0ebf7ad29ca13804e1422e939681155124780ff43e76e929035498130a7f1572019260c0517f1aff13c81bda47e80b02962173bba343e18f94bee27c8a57661b1103a720ffe20160008051602061c936833981519152808080808089818082819d09800909958a82808060008051602061c9d683398151915285099260008051602061c8b683398151915290098160008051602061ca568339815191528d098260008051602061c9768339815191528d098360008051602061ca968339815191528d0901010106016000528a82808060008051602061caf683398151915285099260008051602061c8d683398151915290098160008051602061ca168339815191528d098260008051602061cab68339815191528d098360008051602061c8568339815191528d0901010106016020528a82808060008051602061c83683398151915285099260008051602061c9b683398151915290098160008051602061c9568339815191528d098260008051602061c9168339815191528d098360008051602061c7d68339815191528d0901010106016080528a82808060008051602061c7f683398151915285099260008051602061c8f683398151915290098160008051602061c8968339815191528d098260008051602061ca768339815191528d098360008051602061cad68339815191528d09010101060160a05260008051602061c87683398151915290099860008051602061c81683398151915290099560008051602061c99683398151915290099360008051602061ca3683398151915290099160008051602061c9f68339815191529009010101060160c052565b6000517f210449dbf5cf3061da2465be85505862d3f31de1a3b58ff35713be57efac6c07016020517f088230c2794e50c57d75cd6d3c7b9dbe19d1e2f1d3001044b93ad1c3ee62981701906080517f1c408c256490b0a1da08dc464138dfc78cce9a9e16c7705617a4d6dbb20e7e3a0160a0517f074517e081eb4c1f22d1771200fb07658f7c77654d58440490dd6f557e9e3903019260c0517f02d04e9c21df1dbd88524bdb203691b4cee5530559d6cf0fa05adf61e12fdcbf0160008051602061c936833981519152808080808089818082819d09800909958a82808060008051602061c9d683398151915285099260008051602061c8b683398151915290098160008051602061ca568339815191528d098260008051602061c9768339815191528d098360008051602061ca968339815191528d0901010106016000528a82808060008051602061caf683398151915285099260008051602061c8d683398151915290098160008051602061ca168339815191528d098260008051602061cab68339815191528d098360008051602061c8568339815191528d0901010106016020528a82808060008051602061c83683398151915285099260008051602061c9b683398151915290098160008051602061c9568339815191528d098260008051602061c9168339815191528d098360008051602061c7d68339815191528d0901010106016080528a82808060008051602061c7f683398151915285099260008051602061c8f683398151915290098160008051602061c8968339815191528d098260008051602061ca768339815191528d098360008051602061cad68339815191528d09010101060160a05260008051602061c87683398151915290099860008051602061c81683398151915290099560008051602061c99683398151915290099360008051602061ca3683398151915290099160008051602061c9f68339815191529009010101060160c052565b6000517f2eb7a011b8bce91082e13ebd75de3b58eb9b4650dae9f11aa81db32cf1b67b13016020517f2efda77ed35f4af0299f75d6e8a849b54d2ac6bf95368304e6030c18f0cf17b501906080517f09199dcafd50ce642eddbeda65206d4f61a73d10852b8114c51b2440192ae0640160a0517f268c5cfc446d399c4dd319db666a75b5cb655d8c1797e9fa76181cb4216e1562019260c0517f2303a652c949071826b0e9a36c80578697b44e912cce6687012854eda11a18dc0160008051602061c936833981519152808080808089818082819d09800909958a82808060008051602061c9d683398151915285099260008051602061c8b683398151915290098160008051602061ca568339815191528d098260008051602061c9768339815191528d098360008051602061ca968339815191528d0901010106016000528a82808060008051602061caf683398151915285099260008051602061c8d683398151915290098160008051602061ca168339815191528d098260008051602061cab68339815191528d098360008051602061c8568339815191528d0901010106016020528a82808060008051602061c83683398151915285099260008051602061c9b683398151915290098160008051602061c9568339815191528d098260008051602061c9168339815191528d098360008051602061c7d68339815191528d0901010106016080528a82808060008051602061c7f683398151915285099260008051602061c8f683398151915290098160008051602061c8968339815191528d098260008051602061ca768339815191528d098360008051602061cad68339815191528d09010101060160a05260008051602061c87683398151915290099860008051602061c81683398151915290099560008051602061c99683398151915290099360008051602061ca3683398151915290099160008051602061c9f68339815191529009010101060160c052565b6000517f27c53563b12a6ee2c3f041f31dc45922bc5353eb110868d237073f4efb35fbdf016020517f1201a87eaf4ae618f02bd82d0a5109049969b5248cfe90f42c278f22615d2b0e01906080517f2c43169439fcd69ead8214997bb069becafcb1ba2c51e5706cb4b43dab2a443d0160a0517f0683597315359040ea03c45d6984c6894f46cbb36d702e3c4fb9847e6304d944019260c0517f03545706706eab36afb93b128febd16fb0425e158314197b77795ad3a798d1830160008051602061c936833981519152808080808089818082819d09800909958a82808060008051602061c9d683398151915285099260008051602061c8b683398151915290098160008051602061ca568339815191528d098260008051602061c9768339815191528d098360008051602061ca968339815191528d0901010106016000528a82808060008051602061caf683398151915285099260008051602061c8d683398151915290098160008051602061ca168339815191528d098260008051602061cab68339815191528d098360008051602061c8568339815191528d0901010106016020528a82808060008051602061c83683398151915285099260008051602061c9b683398151915290098160008051602061c9568339815191528d098260008051602061c9168339815191528d098360008051602061c7d68339815191528d0901010106016080528a82808060008051602061c7f683398151915285099260008051602061c8f683398151915290098160008051602061c8968339815191528d098260008051602061ca768339815191528d098360008051602061cad68339815191528d09010101060160a05260008051602061c87683398151915290099860008051602061c81683398151915290099560008051602061c99683398151915290099360008051602061ca3683398151915290099160008051602061c9f68339815191529009010101060160c052565b6000517f1a33c254ec117619d35f1fc051b31728740bed23a6a37870edb393b71a0c0e6b016020517f1ffe6968a4470cd567b0c002281caf996e88f71e759b87e6f338e517f1690c7801906080517f0fd66e03ba8808ffecb059c899fd80f4140ddd5d2a5c4483107f4e02e355b3930160a0517f263ab69f13b966f8197394552906b17e6c8617a7bdd5d74a7be3396b7fe013ab019260c0517f16a425e47d1110625054d5a165de413e3bd87d5aa3958fdd6eb7e03e39ba40460160008051602061c936833981519152808080808089818082819d09800909958a82808060008051602061c9d683398151915285099260008051602061c8b683398151915290098160008051602061ca568339815191528d098260008051602061c9768339815191528d098360008051602061ca968339815191528d0901010106016000528a82808060008051602061caf683398151915285099260008051602061c8d683398151915290098160008051602061ca168339815191528d098260008051602061cab68339815191528d098360008051602061c8568339815191528d0901010106016020528a82808060008051602061c83683398151915285099260008051602061c9b683398151915290098160008051602061c9568339815191528d098260008051602061c9168339815191528d098360008051602061c7d68339815191528d0901010106016080528a82808060008051602061c7f683398151915285099260008051602061c8f683398151915290098160008051602061c8968339815191528d098260008051602061ca768339815191528d098360008051602061cad68339815191528d09010101060160a05260008051602061c87683398151915290099860008051602061c81683398151915290099560008051602061c99683398151915290099360008051602061ca3683398151915290099160008051602061c9f68339815191529009010101060160c052565b6000517f2dc510a4719ec10cad752f03c673f0e253cc31d13e39e909fcc5f73af9138d9a016020517f24df8e8d856c5b5e1bd1cad23d07dda3423c5179329b7a82cb4aa709a94576e501906080517f2bcc94ff4fc3c76f3cd5c68915a042e87628249a01b09561bdf24a6cdce5620f0160a0517f076c1e88dc540c8d8de54e343df7c429d3295f52c38cffe6b48be86852da97df019260c0517f09b5f209a451ac431c051fb12d9a5e4fe40ee1601120947da990fb8e12cb46e10160008051602061c936833981519152808080808089818082819d09800909958a82808060008051602061c9d683398151915285099260008051602061c8b683398151915290098160008051602061ca568339815191528d098260008051602061c9768339815191528d098360008051602061ca968339815191528d0901010106016000528a82808060008051602061caf683398151915285099260008051602061c8d683398151915290098160008051602061ca168339815191528d098260008051602061cab68339815191528d098360008051602061c8568339815191528d0901010106016020528a82808060008051602061c83683398151915285099260008051602061c9b683398151915290098160008051602061c9568339815191528d098260008051602061c9168339815191528d098360008051602061c7d68339815191528d0901010106016080528a82808060008051602061c7f683398151915285099260008051602061c8f683398151915290098160008051602061c8968339815191528d098260008051602061ca768339815191528d098360008051602061cad68339815191528d09010101060160a05260008051602061c87683398151915290099860008051602061c81683398151915290099560008051602061c99683398151915290099360008051602061ca3683398151915290099160008051602061c9f68339815191529009010101060160c052565b6000517f205f17b0d8729e2eaa88d6a44135a6ab64e9424f55b0f1ea0683af75eb677c07016020517f281c5c688836f6cf912638c38be046cd091681f0a41761720cdd1edf9f23702901906080517f1a053e6878e900f45f4d67448c471cf3009a44e7a02ea50e4afa44f2592621f50160a0517f100dc7d426debe3007fb7ceac84e4f5468efcb897e7bbee981742839d59e064c019260c0517f17022672a016a957bb87e2cfadc8b75fb28905bdb62c82c80b1cb31b411e49c80160008051602061c936833981519152808080808089818082819d09800909958a82808060008051602061c9d683398151915285099260008051602061c8b683398151915290098160008051602061ca568339815191528d098260008051602061c9768339815191528d098360008051602061ca968339815191528d0901010106016000528a82808060008051602061caf683398151915285099260008051602061c8d683398151915290098160008051602061ca168339815191528d098260008051602061cab68339815191528d098360008051602061c8568339815191528d0901010106016020528a82808060008051602061c83683398151915285099260008051602061c9b683398151915290098160008051602061c9568339815191528d098260008051602061c9168339815191528d098360008051602061c7d68339815191528d0901010106016080528a82808060008051602061c7f683398151915285099260008051602061c8f683398151915290098160008051602061c8968339815191528d098260008051602061ca768339815191528d098360008051602061cad68339815191528d09010101060160a05260008051602061c87683398151915290099860008051602061c81683398151915290099560008051602061c99683398151915290099360008051602061ca3683398151915290099160008051602061c9f68339815191529009010101060160c052565b6000517f1086db7e2760fc8b71053a87ebe151239fb8b547182b170de0c27203f954f4d2016020517f15384fe39d73b63302460ae4c2942fac2b41fb65a185536fb85dd24fd758406401906080517f2ebb599fe9136d424bf4abc5342c6c7447b1a853205fcfb5519e5513577090080160a0517f1b4b5e87cfb9262cfec3c0f0542e4c5a4cf278292b4ce3eed996fac6f4d37288019260c0517f2465053ae50b6885801f3f82e302cafbbb4a7581bb4fba60b637febe659e50570160008051602061c936833981519152808080808089818082819d09800909958a82808060008051602061c9d683398151915285099260008051602061c8b683398151915290098160008051602061ca568339815191528d098260008051602061c9768339815191528d098360008051602061ca968339815191528d0901010106016000528a82808060008051602061caf683398151915285099260008051602061c8d683398151915290098160008051602061ca168339815191528d098260008051602061cab68339815191528d098360008051602061c8568339815191528d0901010106016020528a82808060008051602061c83683398151915285099260008051602061c9b683398151915290098160008051602061c9568339815191528d098260008051602061c9168339815191528d098360008051602061c7d68339815191528d0901010106016080528a82808060008051602061c7f683398151915285099260008051602061c8f683398151915290098160008051602061c8968339815191528d098260008051602061ca768339815191528d098360008051602061cad68339815191528d09010101060160a05260008051602061c87683398151915290099860008051602061c81683398151915290099560008051602061c99683398151915290099360008051602061ca3683398151915290099160008051602061c9f68339815191529009010101060160c052565b6000517f114f32edcdea09cd095c5bb5d38f1b97da9f05e18b3708bf6e0ab9d3d54859ef016020517f2bc70dfeb2baab2f6b387cd77be779ac2e5e5519f3d18123ee28d8c2543c714801906080517f01c9bf7a203ce22b775e3a61ad7e77b6a78348b9f6ec68a412e49bfe32c054150160a0517f0514b0fe5909ea887bedb0295fbbcec355cfb575ff6a97cd9f4ad00ccb57ee9b019260c0517f267c76ec81934cc81a132a8b058910a12092520b12a201af03e3202d7b6c1b7e0160008051602061c936833981519152808080808089818082819d09800909958a82808060008051602061c9d683398151915285099260008051602061c8b683398151915290098160008051602061ca568339815191528d098260008051602061c9768339815191528d098360008051602061ca968339815191528d0901010106016000528a82808060008051602061caf683398151915285099260008051602061c8d683398151915290098160008051602061ca168339815191528d098260008051602061cab68339815191528d098360008051602061c8568339815191528d0901010106016020528a82808060008051602061c83683398151915285099260008051602061c9b683398151915290098160008051602061c9568339815191528d098260008051602061c9168339815191528d098360008051602061c7d68339815191528d0901010106016080528a82808060008051602061c7f683398151915285099260008051602061c8f683398151915290098160008051602061c8968339815191528d098260008051602061ca768339815191528d098360008051602061cad68339815191528d09010101060160a05260008051602061c87683398151915290099860008051602061c81683398151915290099560008051602061c99683398151915290099360008051602061ca3683398151915290099160008051602061c9f68339815191529009010101060160c052565b6000517f29170e3322b3d8d5c78c84babbb470adf1622493ce83e95cfb151cf757bde5d6016020517f019f6a8124b19e33af33e5d3873f9c335c6f09a45486cab536dd596ca41d951901906080517f1904aa4d6908544a8b348e9db1981c27009ed8ea171518ae5405d036242b60e90160a0517f26f17873949bc679f7f043956694e422b3cee1de9dd6f6473b932a476455ff1a019260c0517f1ac668f612b8243c193b33720b8aa54040c476031197131ebdcac9b18bc48f750160008051602061c936833981519152808080808089818082819d09800909958a82808060008051602061c9d683398151915285099260008051602061c8b683398151915290098160008051602061ca568339815191528d098260008051602061c9768339815191528d098360008051602061ca968339815191528d0901010106016000528a82808060008051602061caf683398151915285099260008051602061c8d683398151915290098160008051602061ca168339815191528d098260008051602061cab68339815191528d098360008051602061c8568339815191528d0901010106016020528a82808060008051602061c83683398151915285099260008051602061c9b683398151915290098160008051602061c9568339815191528d098260008051602061c9168339815191528d098360008051602061c7d68339815191528d0901010106016080528a82808060008051602061c7f683398151915285099260008051602061c8f683398151915290098160008051602061c8968339815191528d098260008051602061ca768339815191528d098360008051602061cad68339815191528d09010101060160a05260008051602061c87683398151915290099860008051602061c81683398151915290099560008051602061c99683398151915290099360008051602061ca3683398151915290099160008051602061c9f68339815191529009010101060160c052565b6000517f0996d961a75c0d07196dae45bf624766ccfbf8555be9796da52f81568ef0663d016020517f030c97e1b8cad1d4fd50d1b4383fbe6674d171f99c63febb5425b395c24fc81901906080517f06e3ad6a46900e2d3953370255b68f89b3e523f1fe502642ee226f2d8bd0848f0160a0517f1d6b3755331cd0216b6880e42f9880f565cb94b0e0455153a329890588cc916e019260c0517f28e4dcba4b96f12a59b041535e730ac8c35189dc0b85ac033dd38c08bae531f20160008051602061c936833981519152808080808089818082819d09800909958a82808060008051602061c9d683398151915285099260008051602061c8b683398151915290098160008051602061ca568339815191528d098260008051602061c9768339815191528d098360008051602061ca968339815191528d0901010106016000528a82808060008051602061caf683398151915285099260008051602061c8d683398151915290098160008051602061ca168339815191528d098260008051602061cab68339815191528d098360008051602061c8568339815191528d0901010106016020528a82808060008051602061c83683398151915285099260008051602061c9b683398151915290098160008051602061c9568339815191528d098260008051602061c9168339815191528d098360008051602061c7d68339815191528d0901010106016080528a82808060008051602061c7f683398151915285099260008051602061c8f683398151915290098160008051602061c8968339815191528d098260008051602061ca768339815191528d098360008051602061cad68339815191528d09010101060160a05260008051602061c87683398151915290099860008051602061c81683398151915290099560008051602061c99683398151915290099360008051602061ca3683398151915290099160008051602061c9f68339815191529009010101060160c052565b6000517f08b6086046a835508ccf484f2974b6a6b0712a476260376c7a3b3e4bc4a47a14016020517f162cd2ca7fe3b5f1444bcec97812019bb6fd85fba6a0536a89643e15b9bb3b5201906080517f28f1e03baaea9bbc05af5b11937e4f5cb5c9a9c1192063d1998c01c64d483a760160a0517f1bdb062778d7c15da395af2734c25faa0127d2aab4aa71366031a0bb6791ce10019260c0517f2375839502e09890cb2914e829627e0e0fc98870b2324a8b50329ebdd24749cb0160008051602061c936833981519152808080808089818082819d09800909958a82808060008051602061c9d683398151915285099260008051602061c8b683398151915290098160008051602061ca568339815191528d098260008051602061c9768339815191528d098360008051602061ca968339815191528d0901010106016000528a82808060008051602061caf683398151915285099260008051602061c8d683398151915290098160008051602061ca168339815191528d098260008051602061cab68339815191528d098360008051602061c8568339815191528d0901010106016020528a82808060008051602061c83683398151915285099260008051602061c9b683398151915290098160008051602061c9568339815191528d098260008051602061c9168339815191528d098360008051602061c7d68339815191528d0901010106016080528a82808060008051602061c7f683398151915285099260008051602061c8f683398151915290098160008051602061c8968339815191528d098260008051602061ca768339815191528d098360008051602061cad68339815191528d09010101060160a05260008051602061c87683398151915290099860008051602061c81683398151915290099560008051602061c99683398151915290099360008051602061ca3683398151915290099160008051602061c9f68339815191529009010101060160c052565b6000517f1fa8662fbcb61fb3ad7c55668dc9423a332dc87cfb2df456e92d33611ed7bb50016020517f1e4fad2dd6b0a6f1f8707f721716c8a446e2fb2c47a5138f3f7f9736079d769401906080517f211256d16c7269fd6df6f5fcdd1fa788ba3bd050059f53d261b0f5f13731ffe70160a0517f2e49084b336eceaa4f8e2a2e6af08318f42060e574dda341f4a1079b12bcc5a5019260c0517f0ce19f54cdc39f7f3bf35192ac6808211aecea08dfe14cab758d25891fb00bb90160008051602061c936833981519152808080808089818082819d09800909958a82808060008051602061c9d683398151915285099260008051602061c8b683398151915290098160008051602061ca568339815191528d098260008051602061c9768339815191528d098360008051602061ca968339815191528d0901010106016000528a82808060008051602061caf683398151915285099260008051602061c8d683398151915290098160008051602061ca168339815191528d098260008051602061cab68339815191528d098360008051602061c8568339815191528d0901010106016020528a82808060008051602061c83683398151915285099260008051602061c9b683398151915290098160008051602061c9568339815191528d098260008051602061c9168339815191528d098360008051602061c7d68339815191528d0901010106016080528a82808060008051602061c7f683398151915285099260008051602061c8f683398151915290098160008051602061c8968339815191528d098260008051602061ca768339815191528d098360008051602061cad68339815191528d09010101060160a05260008051602061c87683398151915290099860008051602061c81683398151915290099560008051602061c99683398151915290099360008051602061ca3683398151915290099160008051602061c9f68339815191529009010101060160c052565b6000517e11c5d56c390e893cc394221261d8748dc60451e4ae4e1c84a8468bab2c14cb016020517f17d79ff06b63ac2a8a9e05ee6af3dbb7ca60e17bfa39b47514a8cd8051579b4c01906080517f19a7d3a446cb5393dc74560093592b06b1a8b35cd6416a2ecab00173639015fa0160a0517f030c00a0933dcdba2a808b2e1b9282f331f04596d8928da7aa6c3c97237037a6019260c0517f16bcb447ce2d50f3ae25ad080695382e935d2d00184c4acc9370be8aab64139c0160008051602061c936833981519152808080808089818082819d09800909958a82808060008051602061c9d683398151915285099260008051602061c8b683398151915290098160008051602061ca568339815191528d098260008051602061c9768339815191528d098360008051602061ca968339815191528d0901010106016000528a82808060008051602061caf683398151915285099260008051602061c8d683398151915290098160008051602061ca168339815191528d098260008051602061cab68339815191528d098360008051602061c8568339815191528d0901010106016020528a82808060008051602061c83683398151915285099260008051602061c9b683398151915290098160008051602061c9568339815191528d098260008051602061c9168339815191528d098360008051602061c7d68339815191528d0901010106016080528a82808060008051602061c7f683398151915285099260008051602061c8f683398151915290098160008051602061c8968339815191528d098260008051602061ca768339815191528d098360008051602061cad68339815191528d09010101060160a05260008051602061c87683398151915290099860008051602061c81683398151915290099560008051602061c99683398151915290099360008051602061ca3683398151915290099160008051602061c9f68339815191529009010101060160c052565b6000517f12341b46b0150aa25ea4ec8715312997e62124f37cab7b6d39255b7cd66feb1d016020517f0e86d13917f44050b72a97b2bf610c84002fc28e296d1044dc89212db6a49ff401906080517f08e6eb4089d37d66d357e00b53d7f30d1052a181f8f2eb14d059025b110c72620160a0517f2ea123856245f6c84738d15dd1481a0c0415ccb351a1e0cee10c48ce97ca7b18019260c0517f2dca72b2ebcab8c23446e00330b163104195789025413abf664db0f9c84dfa6f0160008051602061c936833981519152808080808089818082819d09800909958a82808060008051602061c9d683398151915285099260008051602061c8b683398151915290098160008051602061ca568339815191528d098260008051602061c9768339815191528d098360008051602061ca968339815191528d0901010106016000528a82808060008051602061caf683398151915285099260008051602061c8d683398151915290098160008051602061ca168339815191528d098260008051602061cab68339815191528d098360008051602061c8568339815191528d0901010106016020528a82808060008051602061c83683398151915285099260008051602061c9b683398151915290098160008051602061c9568339815191528d098260008051602061c9168339815191528d098360008051602061c7d68339815191528d0901010106016080528a82808060008051602061c7f683398151915285099260008051602061c8f683398151915290098160008051602061c8968339815191528d098260008051602061ca768339815191528d098360008051602061cad68339815191528d09010101060160a05260008051602061c87683398151915290099860008051602061c81683398151915290099560008051602061c99683398151915290099360008051602061ca3683398151915290099160008051602061c9f68339815191529009010101060160c052565b6000517f06ff9ed50d327e8463329f585ec924b3f2f6b4235f036fa4c64a26cbd42b6a6b016020517f246a10b7e3e0089947f7c9bda3d54df8e2a60e0cca84ea2ac630a4535afbf73001906080517f22a63501c5f04b9018719ed99d700ee52f846a715ae67ad75c96b39d688b66910160a0517f2f4c50477f7fd9c671799ac5d2e224cdb9164f58351d8aa140ec07e514fae937019260c0517f10ffb7aad1f51c7d13b17f4d876d9a1e38f0ba8a4a23d4b50cda32cad851567e0160008051602061c936833981519152808080808089818082819d09800909958a82808060008051602061c9d683398151915285099260008051602061c8b683398151915290098160008051602061ca568339815191528d098260008051602061c9768339815191528d098360008051602061ca968339815191528d0901010106016000528a82808060008051602061caf683398151915285099260008051602061c8d683398151915290098160008051602061ca168339815191528d098260008051602061cab68339815191528d098360008051602061c8568339815191528d0901010106016020528a82808060008051602061c83683398151915285099260008051602061c9b683398151915290098160008051602061c9568339815191528d098260008051602061c9168339815191528d098360008051602061c7d68339815191528d0901010106016080528a82808060008051602061c7f683398151915285099260008051602061c8f683398151915290098160008051602061c8968339815191528d098260008051602061ca768339815191528d098360008051602061cad68339815191528d09010101060160a05260008051602061c87683398151915290099860008051602061c81683398151915290099560008051602061c99683398151915290099360008051602061ca3683398151915290099160008051602061c9f68339815191529009010101060160c052565b6000517f0e9cefddc3c2d3bea4d39722532d5420784027352187e7af1a056935c35803ae016020517f07af84a4d3141e7ac23352e6dc6ea4afa1656f96a33c8978a3e83bdd4ba62b4101906080517f2d9e31a10aebc761f8de00d14b1e566d1a39323d6e89b638e940f3ec8a22c3c50160a0517f27f19a6532e66b5333db1afd592f66f1d36034b314dad8447656747be27e64c7019260c0517e58fa3c8454d63354b2024c3b4a577a180ed99f8f3155cd7e4d617d47d07ffd0160008051602061c936833981519152808080808089818082819d09800909958a82808060008051602061c9d683398151915285099260008051602061c8b683398151915290098160008051602061ca568339815191528d098260008051602061c9768339815191528d098360008051602061ca968339815191528d0901010106016000528a82808060008051602061caf683398151915285099260008051602061c8d683398151915290098160008051602061ca168339815191528d098260008051602061cab68339815191528d098360008051602061c8568339815191528d0901010106016020528a82808060008051602061c83683398151915285099260008051602061c9b683398151915290098160008051602061c9568339815191528d098260008051602061c9168339815191528d098360008051602061c7d68339815191528d0901010106016080528a82808060008051602061c7f683398151915285099260008051602061c8f683398151915290098160008051602061c8968339815191528d098260008051602061ca768339815191528d098360008051602061cad68339815191528d09010101060160a05260008051602061c87683398151915290099860008051602061c81683398151915290099560008051602061c99683398151915290099360008051602061ca3683398151915290099160008051602061c9f68339815191529009010101060160c052565b6000517f041627b6715b780967957c080699343eb0414a205d3a175d708964956816a5d5016020517e6ac49dd9253edc7f632e57b958ccecd98201471cf1f66589888f12b727c52d01906080517f0131adffd8bd7254b1d8c3616bbe3386ec0c9c0d6d25a9a4ec46a6bf183013980160a0517f1c4a6f52c9fccf7a4138e413ef62a28377977ad7e25e49a3cf030e1cd8f9f5b6019260c0517f03f2a6be51ec677f946551b3860ea479fee048ae2078aeb7d1f7958d2c2645f60160008051602061c936833981519152808080808089818082819d09800909958a82808060008051602061c9d683398151915285099260008051602061c8b683398151915290098160008051602061ca568339815191528d098260008051602061c9768339815191528d098360008051602061ca968339815191528d0901010106016000528a82808060008051602061caf683398151915285099260008051602061c8d683398151915290098160008051602061ca168339815191528d098260008051602061cab68339815191528d098360008051602061c8568339815191528d0901010106016020528a82808060008051602061c83683398151915285099260008051602061c9b683398151915290098160008051602061c9568339815191528d098260008051602061c9168339815191528d098360008051602061c7d68339815191528d0901010106016080528a82808060008051602061c7f683398151915285099260008051602061c8f683398151915290098160008051602061c8968339815191528d098260008051602061ca768339815191528d098360008051602061cad68339815191528d09010101060160a05260008051602061c87683398151915290099860008051602061c81683398151915290099560008051602061c99683398151915290099360008051602061ca3683398151915290099160008051602061c9f68339815191529009010101060160c052565b6000517f2da770aad2c2eb09391a0cb78ef3a9648a1372d8543119564d7376396b8ddc62016020517f15278463665f74cddc1802febfab02cec9d45fe866c359c738062afb75d64a0301906080517f12fe278aa36544eac9731027090518d434e38ea966a08a6f8d580638ac54c7730160a0517f149b9c802182558a4c45d119d3f4cc7fd8587604ca4f0d6e21b06ff30b6a23b6019260c0517f0812e7b4d847bc8517d19319772f3c9855e044fd60dbac9a0adc4959b691dfe40160008051602061c936833981519152808080808089818082819d09800909958a82808060008051602061c9d683398151915285099260008051602061c8b683398151915290098160008051602061ca568339815191528d098260008051602061c9768339815191528d098360008051602061ca968339815191528d0901010106016000528a82808060008051602061caf683398151915285099260008051602061c8d683398151915290098160008051602061ca168339815191528d098260008051602061cab68339815191528d098360008051602061c8568339815191528d0901010106016020528a82808060008051602061c83683398151915285099260008051602061c9b683398151915290098160008051602061c9568339815191528d098260008051602061c9168339815191528d098360008051602061c7d68339815191528d0901010106016080528a82808060008051602061c7f683398151915285099260008051602061c8f683398151915290098160008051602061c8968339815191528d098260008051602061ca768339815191528d098360008051602061cad68339815191528d09010101060160a05260008051602061c87683398151915290099860008051602061c81683398151915290099560008051602061c99683398151915290099360008051602061ca3683398151915290099160008051602061c9f68339815191529009010101060160c052565b6000517f02ed8d8ddeafe3d9d8df7f28a0bfaa7f555813c7e7503aea2a66973703a0c61b016020517f0ebd073ba0537b514deb6029f921029e55e5e4d9a03d6b6ba1304038662d4db801906080517f15c754d5b14b2c4205c6ba8d2ccd028255b3e792c6afa08b44ee75b62eff9f590160a0517f169515c89ac5479db0ed8fa6fa311b391cc1235270f4cbc5c29e7cbc30e8732a019260c0517f25479fbfb3a68f982388f2621001101608bdc29f6ff037696d9161f5cd9a4fef0160008051602061c936833981519152808080808089818082819d09800909958a82808060008051602061c9d683398151915285099260008051602061c8b683398151915290098160008051602061ca568339815191528d098260008051602061c9768339815191528d098360008051602061ca968339815191528d0901010106016000528a82808060008051602061caf683398151915285099260008051602061c8d683398151915290098160008051602061ca168339815191528d098260008051602061cab68339815191528d098360008051602061c8568339815191528d0901010106016020528a82808060008051602061c83683398151915285099260008051602061c9b683398151915290098160008051602061c9568339815191528d098260008051602061c9168339815191528d098360008051602061c7d68339815191528d0901010106016080528a82808060008051602061c7f683398151915285099260008051602061c8f683398151915290098160008051602061c8968339815191528d098260008051602061ca768339815191528d098360008051602061cad68339815191528d09010101060160a05260008051602061c87683398151915290099860008051602061c81683398151915290099560008051602061c99683398151915290099360008051602061ca3683398151915290099160008051602061c9f68339815191529009010101060160c052565b6000517f14475c4bd520451f3c852cb0311a578ca7f8e6e972182196ce09486e94be6071016020517f045a691066cc66bec9baf2798833a1dfd3a847502aec8d5f5c4e73363d09779901906080517f26029c0c267c799fb833ac8a11e3a3f0147a8ca037221b90013b8bcb37eba6830160a0517f163facb34ff572fbf7c946969c1c260873ce12a6a94a3e45b8101d5b948d1641019260c0517f2c714e96e1913b351d969320cc69d5ec13e06a6275e58688af8ee00c4240ee280160008051602061c936833981519152808080808089818082819d09800909958a82808060008051602061c9d683398151915285099260008051602061c8b683398151915290098160008051602061ca568339815191528d098260008051602061c9768339815191528d098360008051602061ca968339815191528d0901010106016000528a82808060008051602061caf683398151915285099260008051602061c8d683398151915290098160008051602061ca168339815191528d098260008051602061cab68339815191528d098360008051602061c8568339815191528d0901010106016020528a82808060008051602061c83683398151915285099260008051602061c9b683398151915290098160008051602061c9568339815191528d098260008051602061c9168339815191528d098360008051602061c7d68339815191528d0901010106016080528a82808060008051602061c7f683398151915285099260008051602061c8f683398151915290098160008051602061c8968339815191528d098260008051602061ca768339815191528d098360008051602061cad68339815191528d09010101060160a05260008051602061c87683398151915290099860008051602061c81683398151915290099560008051602061c99683398151915290099360008051602061ca3683398151915290099160008051602061c9f68339815191529009010101060160c052565b6000517f1c1661e2a7ce74b75aba84665ecd2bf9ddd6268f06debfe2d52b804eff1d5fa6016020517f06a69ae795ee9bfe5e5af3e6619a47d26635b34c2a0889fea8c3c068b7dc2c7101906080517f113d58535d892115c5d28b4c19a3609374dbdbadf54195c731416c85d731d46a0160a0517f2ab89102e2b8d5e638ff97d761da6042e534f1ff47f7917a2ca1a74063b46101019260c0517f03c11ca79e41fdfe962730c45e699546349031893da2b4fd39804fd6a15ad1b30160008051602061c936833981519152808080808089818082819d09800909958a82808060008051602061c9d683398151915285099260008051602061c8b683398151915290098160008051602061ca568339815191528d098260008051602061c9768339815191528d098360008051602061ca968339815191528d0901010106016000528a82808060008051602061caf683398151915285099260008051602061c8d683398151915290098160008051602061ca168339815191528d098260008051602061cab68339815191528d098360008051602061c8568339815191528d0901010106016020528a82808060008051602061c83683398151915285099260008051602061c9b683398151915290098160008051602061c9568339815191528d098260008051602061c9168339815191528d098360008051602061c7d68339815191528d0901010106016080528a82808060008051602061c7f683398151915285099260008051602061c8f683398151915290098160008051602061c8968339815191528d098260008051602061ca768339815191528d098360008051602061cad68339815191528d09010101060160a05260008051602061c87683398151915290099860008051602061c81683398151915290099560008051602061c99683398151915290099360008051602061ca3683398151915290099160008051602061c9f68339815191529009010101060160c052565b6000517f27096c672621403888014ddbbbfc9da1f7f67b4d4cfe846c6adf040faaf2669c016020517f2de32ad15497aef4d504d4deeb53b13c66db790ce486130caa9dc2b57ef5be0d01906080517f0dc108f2b0a280d2fd5d341310722a2d28c738dddaec9f3d255754448eefd0010160a0517f1869f3b763fe8164c96858a1bb9efad5bcdc3eebc409be7c7d34ca50365d832f019260c0517f022ed3a2d9ff31cbf82559fe6a911843b616945e16a568d48c6d33767129682d0160008051602061c936833981519152808080808089818082819d09800909958a82808060008051602061c9d683398151915285099260008051602061c8b683398151915290098160008051602061ca568339815191528d098260008051602061c9768339815191528d098360008051602061ca968339815191528d0901010106016000528a82808060008051602061caf683398151915285099260008051602061c8d683398151915290098160008051602061ca168339815191528d098260008051602061cab68339815191528d098360008051602061c8568339815191528d0901010106016020528a82808060008051602061c83683398151915285099260008051602061c9b683398151915290098160008051602061c9568339815191528d098260008051602061c9168339815191528d098360008051602061c7d68339815191528d0901010106016080528a82808060008051602061c7f683398151915285099260008051602061c8f683398151915290098160008051602061c8968339815191528d098260008051602061ca768339815191528d098360008051602061cad68339815191528d09010101060160a05260008051602061c87683398151915290099860008051602061c81683398151915290099560008051602061c99683398151915290099360008051602061ca3683398151915290099160008051602061c9f68339815191529009010101060160c052565b6000517f2155d6005210169e3944ed1365bd0e7292fca1f27c19c26610c6aec077d026bc016020517f0de1ba7a562a8f7acae93263f5f1b4bbec0c0556c91af3db3ea5928c8caeae8501906080517f05dbb4406024beabcfce5bf46ec7da38126f740bce8d637b6351dfa7da9025630160a0517f05d4149baac413bed4d8dc8ad778d32c00e789e3fcd72dccc97e5427a368fd5e019260c0517f01cdf8b452d97c2b9be5046e7397e76ff0b6802fa941c7879212e22172c27b2e0160008051602061c936833981519152808080808089818082819d09800909958a82808060008051602061c9d683398151915285099260008051602061c8b683398151915290098160008051602061ca568339815191528d098260008051602061c9768339815191528d098360008051602061ca968339815191528d0901010106016000528a82808060008051602061caf683398151915285099260008051602061c8d683398151915290098160008051602061ca168339815191528d098260008051602061cab68339815191528d098360008051602061c8568339815191528d0901010106016020528a82808060008051602061c83683398151915285099260008051602061c9b683398151915290098160008051602061c9568339815191528d098260008051602061c9168339815191528d098360008051602061c7d68339815191528d0901010106016080528a82808060008051602061c7f683398151915285099260008051602061c8f683398151915290098160008051602061c8968339815191528d098260008051602061ca768339815191528d098360008051602061cad68339815191528d09010101060160a05260008051602061c87683398151915290099860008051602061c81683398151915290099560008051602061c99683398151915290099360008051602061ca3683398151915290099160008051602061c9f68339815191529009010101060160c052565b6000517f1fc6a71867027f56af8085ff81adce33c4d7c5015eced8c71b0a22279d46c07c016020517f1040bef4c642d0345d4d59a5a7a3a42ba9e185b75306d9c3568e0fda96aaafc201906080517f16b79c3a6bf316e0ff2c91b289334a4d2b21e95676431918a8081475ab8fad0d0160a0517f20dff1bc30f6db6b434b3a1387e3c8c6a34070e52b601fc13cbe1cdcd59f474e019260c0517f0212ac2ab7a6eaaec254955030a970f8062dd4171a726a8bdfb7fd8512ae060d0160008051602061c936833981519152808080808089818082819d09800909958a82808060008051602061c9d683398151915285099260008051602061c8b683398151915290098160008051602061ca568339815191528d098260008051602061c9768339815191528d098360008051602061ca968339815191528d0901010106016000528a82808060008051602061caf683398151915285099260008051602061c8d683398151915290098160008051602061ca168339815191528d098260008051602061cab68339815191528d098360008051602061c8568339815191528d0901010106016020528a82808060008051602061c83683398151915285099260008051602061c9b683398151915290098160008051602061c9568339815191528d098260008051602061c9168339815191528d098360008051602061c7d68339815191528d0901010106016080528a82808060008051602061c7f683398151915285099260008051602061c8f683398151915290098160008051602061c8968339815191528d098260008051602061ca768339815191528d098360008051602061cad68339815191528d09010101060160a05260008051602061c87683398151915290099860008051602061c81683398151915290099560008051602061c99683398151915290099360008051602061ca3683398151915290099160008051602061c9f68339815191529009010101060160c052565b6000517f2f29377491474442869a109c9215637cb02dc03134f0044213c8119f6996ae09016020517f0984ca6a5f9185d525ec93c33fea603273be9f3866aa284c5837d9f32d814bfa01906080517f0d080a6b6b3b60700d299bd6fa81220de491361c8a6bd19ceb0ee9294b24f0280160a0517f0e65cd99e84b052f6789530638cb0ad821acc85b6400264dce929ed7c85a4544019260c0517f2e208875bc7ac1224808f72c716cd05ee30e3d20380ff6a655975da12736920b0160008051602061c936833981519152808080808089818082819d09800909958a82808060008051602061c9d683398151915285099260008051602061c8b683398151915290098160008051602061ca568339815191528d098260008051602061c9768339815191528d098360008051602061ca968339815191528d0901010106016000528a82808060008051602061caf683398151915285099260008051602061c8d683398151915290098160008051602061ca168339815191528d098260008051602061cab68339815191528d098360008051602061c8568339815191528d0901010106016020528a82808060008051602061c83683398151915285099260008051602061c9b683398151915290098160008051602061c9568339815191528d098260008051602061c9168339815191528d098360008051602061c7d68339815191528d0901010106016080528a82808060008051602061c7f683398151915285099260008051602061c8f683398151915290098160008051602061c8968339815191528d098260008051602061ca768339815191528d098360008051602061cad68339815191528d09010101060160a05260008051602061c87683398151915290099860008051602061c81683398151915290099560008051602061c99683398151915290099360008051602061ca3683398151915290099160008051602061c9f68339815191529009010101060160c052565b6000517f2989f3ae477c2fd376a0b0ff3d7dfac1ae2e3b894afd29f64a60d1aa8592bad5016020517f11361ce544e941379222d101e6fac0ce918106a463290a3e3a74c3cea718945901906080517f1e8d014b86cb5a7da539e10c173f6a75d122a822b8fb366c34c8bd05a20614380160a0517f173f65adec8deee27ba812ad29558e23a0c2324167ef6c91212ee2c28ee98733019260c0517f01c36daaf9f01f1bafee8bd0c779ac3e5da5df7ad45499d0991bd695310eddd90160008051602061c936833981519152808080808089818082819d09800909958a82808060008051602061c9d683398151915285099260008051602061c8b683398151915290098160008051602061ca568339815191528d098260008051602061c9768339815191528d098360008051602061ca968339815191528d0901010106016000528a82808060008051602061caf683398151915285099260008051602061c8d683398151915290098160008051602061ca168339815191528d098260008051602061cab68339815191528d098360008051602061c8568339815191528d0901010106016020528a82808060008051602061c83683398151915285099260008051602061c9b683398151915290098160008051602061c9568339815191528d098260008051602061c9168339815191528d098360008051602061c7d68339815191528d0901010106016080528a82808060008051602061c7f683398151915285099260008051602061c8f683398151915290098160008051602061c8968339815191528d098260008051602061ca768339815191528d098360008051602061cad68339815191528d09010101060160a05260008051602061c87683398151915290099860008051602061c81683398151915290099560008051602061c99683398151915290099360008051602061ca3683398151915290099160008051602061c9f68339815191529009010101060160c052565b6000517f1353acb08c05adb4aa9ab1c485bb85fff277d1a3f2fc89944a6f5741f381e562016020517f2e5abd2537207cad1860e71ea1188ee4009d33deb4f93aeb20f1c87a3b064d3401906080517f191d5c5edaef42d3d02eedbb7ab8562513deb4eb34913a13421726ba8f69455c0160a0517f11d7f8d1f269264282a263fea6d7599d82a04c74c127de9dee7939dd2dcd089e019260c0517f04218fde366829ed90f79ad5e67997973445cb4cd6bc6f951bad085286cac9710160008051602061c936833981519152808080808089818082819d09800909958a82808060008051602061c9d683398151915285099260008051602061c8b683398151915290098160008051602061ca568339815191528d098260008051602061c9768339815191528d098360008051602061ca968339815191528d0901010106016000528a82808060008051602061caf683398151915285099260008051602061c8d683398151915290098160008051602061ca168339815191528d098260008051602061cab68339815191528d098360008051602061c8568339815191528d0901010106016020528a82808060008051602061c83683398151915285099260008051602061c9b683398151915290098160008051602061c9568339815191528d098260008051602061c9168339815191528d098360008051602061c7d68339815191528d0901010106016080528a82808060008051602061c7f683398151915285099260008051602061c8f683398151915290098160008051602061c8968339815191528d098260008051602061ca768339815191528d098360008051602061cad68339815191528d09010101060160a05260008051602061c87683398151915290099860008051602061c81683398151915290099560008051602061c99683398151915290099360008051602061ca3683398151915290099160008051602061c9f68339815191529009010101060160c052565b6000517e70772f7cf52453048397ca5f47a202027b73b489301c3227b71c730d76d6dd016020517f038a389baef5d9a7c865b065687a1d9b67681a98cd051634c1dc04dbe3d2b86101906080517f09a5eefab8b36a80cda446b2b4b59ccd0f39d00966a50beaf19860789015a6e50160a0517f01b588848b8b47c8b969c145109b4b583d9ec99edfacb7489d16212c7584cd8c019260c0517f0b846e4a390e560f6e1af6dfc3341419545e5abfa323d817fed91e30d42954a60160008051602061c936833981519152808080808089818082819d09800909958a82808060008051602061c9d683398151915285099260008051602061c8b683398151915290098160008051602061ca568339815191528d098260008051602061c9768339815191528d098360008051602061ca968339815191528d0901010106016000528a82808060008051602061caf683398151915285099260008051602061c8d683398151915290098160008051602061ca168339815191528d098260008051602061cab68339815191528d098360008051602061c8568339815191528d0901010106016020528a82808060008051602061c83683398151915285099260008051602061c9b683398151915290098160008051602061c9568339815191528d098260008051602061c9168339815191528d098360008051602061c7d68339815191528d0901010106016080528a82808060008051602061c7f683398151915285099260008051602061c8f683398151915290098160008051602061c8968339815191528d098260008051602061ca768339815191528d098360008051602061cad68339815191528d09010101060160a05260008051602061c87683398151915290099860008051602061c81683398151915290099560008051602061c99683398151915290099360008051602061ca3683398151915290099160008051602061c9f68339815191529009010101060160c052565b6000517f23a6679c7d9adb660d43a02ddb900040eb1513bc394fc4f985cabfe85ce72fe3016020517f2e0374a699197e343e5caa35f1351e9f4c3402fb7c85ecccf72f31d6fe08925401906080517f0752cd899e52dc4d7f7a08af4cde3ff64b8cc0b1176bb9ec37d41913a7a27b480160a0517f068f8813127299dac349a2b6d57397a50275142b664b802c99e2873dd7ae55a7019260c0517f2ba70a102355d549677574167434b3f986872d04a295b5b8b374330f2da202b50160008051602061c936833981519152808080808089818082819d09800909958a82808060008051602061c9d683398151915285099260008051602061c8b683398151915290098160008051602061ca568339815191528d098260008051602061c9768339815191528d098360008051602061ca968339815191528d0901010106016000528a82808060008051602061caf683398151915285099260008051602061c8d683398151915290098160008051602061ca168339815191528d098260008051602061cab68339815191528d098360008051602061c8568339815191528d0901010106016020528a82808060008051602061c83683398151915285099260008051602061c9b683398151915290098160008051602061c9568339815191528d098260008051602061c9168339815191528d098360008051602061c7d68339815191528d0901010106016080528a82808060008051602061c7f683398151915285099260008051602061c8f683398151915290098160008051602061c8968339815191528d098260008051602061ca768339815191528d098360008051602061cad68339815191528d09010101060160a05260008051602061c87683398151915290099860008051602061c81683398151915290099560008051602061c99683398151915290099360008051602061ca3683398151915290099160008051602061c9f68339815191529009010101060160c052565b6000517f2c467af88748abf6a334d1df03b5521309f9099b825dd289b8609e70a0b50828016020517f05c5f20bef1bd82701009a2b448ae881e3a52c2d1a31957296d29e5763e8f49701906080517f0dc6385fdc567be5842a381f6006e2c60cd083a2c649d9f23ac8c9fe61b738710160a0517f142d3983f3dc7f7e19d49911b8670fa70378d5b84150d25ed255baa8114b369c019260c0517f29a01efb2f6aa894fd7e6d98c96a0fa0f36f86a7a99aa35c00fa18c1b2df67bf0160008051602061c936833981519152808080808089818082819d09800909958a82808060008051602061c9d683398151915285099260008051602061c8b683398151915290098160008051602061ca568339815191528d098260008051602061c9768339815191528d098360008051602061ca968339815191528d0901010106016000528a82808060008051602061caf683398151915285099260008051602061c8d683398151915290098160008051602061ca168339815191528d098260008051602061cab68339815191528d098360008051602061c8568339815191528d0901010106016020528a82808060008051602061c83683398151915285099260008051602061c9b683398151915290098160008051602061c9568339815191528d098260008051602061c9168339815191528d098360008051602061c7d68339815191528d0901010106016080528a82808060008051602061c7f683398151915285099260008051602061c8f683398151915290098160008051602061c8968339815191528d098260008051602061ca768339815191528d098360008051602061cad68339815191528d09010101060160a05260008051602061c87683398151915290099860008051602061c81683398151915290099560008051602061c99683398151915290099360008051602061ca3683398151915290099160008051602061c9f68339815191529009010101060160c052565b6000517f0525ffee737d605138c4a5066644ec630ab9e8afc64555b7d2a1af04eb613a76016020517f1e807dca81d79581f076677ca0e822767e164f614910264ef177cf4238301dc801906080517f0385fb3f89c74dc993510816472474d34c0223e0f733a52fdba56082dbd8757c0160a0517f037640dc1afc0143e1a6298e53cae59fcfabd7016fd6ef1af558f337bab0ea01019260c0517f1341999a1ed86919f12a6c5260829eee5fd56cf031da8050b7e4c0de896074b40160008051602061c936833981519152808080808089818082819d09800909958a82808060008051602061c9d683398151915285099260008051602061c8b683398151915290098160008051602061ca568339815191528d098260008051602061c9768339815191528d098360008051602061ca968339815191528d0901010106016000528a82808060008051602061caf683398151915285099260008051602061c8d683398151915290098160008051602061ca168339815191528d098260008051602061cab68339815191528d098360008051602061c8568339815191528d0901010106016020528a82808060008051602061c83683398151915285099260008051602061c9b683398151915290098160008051602061c9568339815191528d098260008051602061c9168339815191528d098360008051602061c7d68339815191528d0901010106016080528a82808060008051602061c7f683398151915285099260008051602061c8f683398151915290098160008051602061c8968339815191528d098260008051602061ca768339815191528d098360008051602061cad68339815191528d09010101060160a05260008051602061c87683398151915290099860008051602061c81683398151915290099560008051602061c99683398151915290099360008051602061ca3683398151915290099160008051602061c9f68339815191529009010101060160c052565b6000517f069eb075866b0af356906d4bafb10ad773afd642efdcc5657b244f65bed8ece7016020517f171c0b81e62136e395b38e8e08b3e646d2726101d3afaa02ea1909a61903369601906080517f2c81814c9453f51cb6eb55c311753e84cbbdcb39bfe696f95575107502acced80160a0517f29d843c0415d35d9e3b33fadcf274b2ab04b39032adca92ce39b8a86a7c3a604019260c0517f085d6a1070f3513d8436bccdabb78750d8e15ea5947f2cdaa7669cf3fae7728b0160008051602061c936833981519152808080808089818082819d09800909958a82808060008051602061c9d683398151915285099260008051602061c8b683398151915290098160008051602061ca568339815191528d098260008051602061c9768339815191528d098360008051602061ca968339815191528d0901010106016000528a82808060008051602061caf683398151915285099260008051602061c8d683398151915290098160008051602061ca168339815191528d098260008051602061cab68339815191528d098360008051602061c8568339815191528d0901010106016020528a82808060008051602061c83683398151915285099260008051602061c9b683398151915290098160008051602061c9568339815191528d098260008051602061c9168339815191528d098360008051602061c7d68339815191528d0901010106016080528a82808060008051602061c7f683398151915285099260008051602061c8f683398151915290098160008051602061c8968339815191528d098260008051602061ca768339815191528d098360008051602061cad68339815191528d09010101060160a05260008051602061c87683398151915290099860008051602061c81683398151915290099560008051602061c99683398151915290099360008051602061ca3683398151915290099160008051602061c9f68339815191529009010101060160c052565b6000517f2eb4f99c69f966ebf8a42192de7ff61621c7bb47b93750c2b9ea08d18446c122016020517f224a28e5a35385a7c5198169e405d9ea0fc7da8b93ee13b6d5f7d099e299520e01906080517f0f7411b465e600eed8afdd6afca49c3036f33ecbd9a0f97823796b993bbd82f70160a0517f0f9d0d5aad2c9555a2be7150392d8d9819b208ae3370f99a0626f9ff5d90e4e3019060c0517f1e9a96dc8292bb596f52a59538d329229732b25259cf744b6a12d30702d6fba0019360008051602061c9368339815191528080808080808080808d819e82818192098009099981808280098009099981808280098009099981808280098009099a81808280098009098a82808060008051602061c9d683398151915285099260008051602061c8b683398151915290098160008051602061ca568339815191528d098260008051602061c9768339815191528d098360008051602061ca968339815191528d0901010106016000528a82808060008051602061caf683398151915285099260008051602061c8d683398151915290098160008051602061ca168339815191528d098260008051602061cab68339815191528d098360008051602061c8568339815191528d0901010106016020528a82808060008051602061c83683398151915285099260008051602061c9b683398151915290098160008051602061c9568339815191528d098260008051602061c9168339815191528d098360008051602061c7d68339815191528d0901010106016080528a82808060008051602061c7f683398151915285099260008051602061c8f683398151915290098160008051602061c8968339815191528d098260008051602061ca768339815191528d098360008051602061cad68339815191528d09010101060160a05260008051602061c87683398151915290099860008051602061c81683398151915290099560008051602061c99683398151915290099360008051602061ca3683398151915290099160008051602061c9f68339815191529009010101060160c052565b6000517f08780514ccd90380887d578c45555e593cfe52eab4b945c6c2cd4d528fb3fe3c016020517f272498fced686c7ac8149fa3f73ef8c2ced64717e3556d5a59f119d629ccb5fc01906080517f01ef8f9dd7c93aac4b7cb80930bd06eb45bd350aff585f10e3d0ef8a782ef7df0160a0517f045b9f59b6595e614dc08f222b469b138e886e64bf3c40aa97ea0ae754934d30019060c0517f0ac1e91c57d9da919fd6f59d2a40ff8ea3e41e24e247a387adf2584295d61c66019360008051602061c9368339815191528080808080808080808d819e82818192098009099981808280098009099981808280098009099981808280098009099a81808280098009098a82808060008051602061c9d683398151915285099260008051602061c8b683398151915290098160008051602061ca568339815191528d098260008051602061c9768339815191528d098360008051602061ca968339815191528d0901010106016000528a82808060008051602061caf683398151915285099260008051602061c8d683398151915290098160008051602061ca168339815191528d098260008051602061cab68339815191528d098360008051602061c8568339815191528d0901010106016020528a82808060008051602061c83683398151915285099260008051602061c9b683398151915290098160008051602061c9568339815191528d098260008051602061c9168339815191528d098360008051602061c7d68339815191528d0901010106016080528a82808060008051602061c7f683398151915285099260008051602061c8f683398151915290098160008051602061c8968339815191528d098260008051602061ca768339815191528d098360008051602061cad68339815191528d09010101060160a05260008051602061c87683398151915290099860008051602061c81683398151915290099560008051602061c99683398151915290099360008051602061ca3683398151915290099160008051602061c9f68339815191529009010101060160c052565b6000517f028a1621a94054b0c7f9a421353cd89d0fd67061aee99979d12e68f04e62d134016020517f26b41802c071ea4c9632647ed059236e50c19c3fb3c96d09d02aae2a0dcd9dbc01906080517f2fb5dda8072bb72cbaac2f63e468215e05c9de06758db6a94af34384aedb462b0160a0517f2212d3a0f5fccaf244ff3547fd823249ad8ab8ba2a18d383dd05c56ee894d850019060c0517f1b041ad5b2f0684258e4dfaeea09be56a3276fdb19f44c015cd0c7eed465e2e3019360008051602061c9368339815191528080808080808080808d819e82818192098009099981808280098009099981808280098009099981808280098009099a81808280098009098a82808060008051602061c9d683398151915285099260008051602061c8b683398151915290098160008051602061ca568339815191528d098260008051602061c9768339815191528d098360008051602061ca968339815191528d0901010106016000528a82808060008051602061caf683398151915285099260008051602061c8d683398151915290098160008051602061ca168339815191528d098260008051602061cab68339815191528d098360008051602061c8568339815191528d0901010106016020528a82808060008051602061c83683398151915285099260008051602061c9b683398151915290098160008051602061c9568339815191528d098260008051602061c9168339815191528d098360008051602061c7d68339815191528d0901010106016080528a82808060008051602061c7f683398151915285099260008051602061c8f683398151915290098160008051602061c8968339815191528d098260008051602061ca768339815191528d098360008051602061cad68339815191528d09010101060160a05260008051602061c87683398151915290099860008051602061c81683398151915290099560008051602061c99683398151915290099360008051602061ca3683398151915290099160008051602061c9f68339815191529009010101060160c052565b6000517f11820363ed541daa10a44ba665bf302cdbf1dd4e6706b02c9e2a5cda412fc394016020517f201935a58f5c57fc02b60d61a83785bddfd3150e05f1df5d105840b751a1631701906080517f0a8c2820c56971aae27a952abd33a03d46794eedd686cd8ecfed610e87c02e9a0160a0517f180638ff301a64ca04abd6d0bd7500b6650b65ff33e6be1fd50dbc163a281877019060c0517f095c716266f1de59044f97114a4158a3f85ca8a937cfbec63e9b321a812dd36b019360008051602061c9368339815191528080808080808080808d819e82818192098009099981808280098009099981808280098009099981808280098009099a81808280098009098a82808060008051602061c9d683398151915285099260008051602061c8b683398151915290098160008051602061ca568339815191528d098260008051602061c9768339815191528d098360008051602061ca968339815191528d0901010106016000528a82808060008051602061caf683398151915285099260008051602061c8d683398151915290098160008051602061ca168339815191528d098260008051602061cab68339815191528d098360008051602061c8568339815191528d0901010106016020528a82808060008051602061c83683398151915285099260008051602061c9b683398151915290098160008051602061c9568339815191528d098260008051602061c9168339815191528d098360008051602061c7d68339815191528d0901010106016080528a82808060008051602061c7f683398151915285099260008051602061c8f683398151915290098160008051602061c8968339815191528d098260008051602061ca768339815191528d098360008051602061cad68339815191528d09010101060160a05260008051602061c87683398151915290099860008051602061c81683398151915290099560008051602061c99683398151915290099360008051602061ca3683398151915290099160008051602061c9f68339815191529009010101060160c052565b6000517f17c31ea02fbc378320d86ffed6c7ca1583b618c5c1a687818d4087a497d73490016020517f05b86c4bb8ef318b6a7227e4192d149d3c17a9764ccd660de4d50a77f192a91b01906080517f265bc95df4a4c4876ff70d7ea2fde2c7ab15f4a6ae0d237cd6ce74ba986c7a7b0160a0517f24752b47bc6c6bc8d9bbe48f5fef2f6908701739c5f5b4b3d6c886d4715c7929019060c0517f14814a1e0f492a4ea0d86e527a96482178d624b98da96ee5e583b9324d974efe019360008051602061c9368339815191528080808080808080808d819e82818192098009099981808280098009099981808280098009099981808280098009099a81808280098009098a82808060008051602061c9d683398151915285099260008051602061c8b683398151915290098160008051602061ca568339815191528d098260008051602061c9768339815191528d098360008051602061ca968339815191528d0901010106016000528a82808060008051602061caf683398151915285099260008051602061c8d683398151915290098160008051602061ca168339815191528d098260008051602061cab68339815191528d098360008051602061c8568339815191528d0901010106016020528a82808060008051602061c83683398151915285099260008051602061c9b683398151915290098160008051602061c9568339815191528d098260008051602061c9168339815191528d098360008051602061c7d68339815191528d0901010106016080528a82808060008051602061c7f683398151915285099260008051602061c8f683398151915290098160008051602061c8968339815191528d098260008051602061ca768339815191528d098360008051602061cad68339815191528d09010101060160a05260008051602061c87683398151915290099860008051602061c81683398151915290099560008051602061c99683398151915290099360008051602061ca3683398151915290099160008051602061c9f68339815191529009010101060160c052565b6000517f10def931073b6479bd60577378f29381997c8e041d3cfb3dc7523bca906f00bd016020517f14f7ae770bf7e95f7f706c0d8ab4ed03fa0b880d28c69d031b4592c98610175f01906080517f1aef50a0cee751b59f926af40e8035d19decc9d428ebe4e775c5cc9dce1ce5890160a0517f041935607172f68eba65ca60068dfe3b086c2a2d57d09602951214b57e73cf5a019060c0517f26863e9dd24255d1573bd083959b856c0493fbefe83c819837a151d3bf452cb8019360008051602061c9368339815191528080808080808080808d819e82818192098009099981808280098009099981808280098009099981808280098009099a81808280098009098a82808060008051602061c9d683398151915285099260008051602061c8b683398151915290098160008051602061ca568339815191528d098260008051602061c9768339815191528d098360008051602061ca968339815191528d0901010106016000528a82808060008051602061caf683398151915285099260008051602061c8d683398151915290098160008051602061ca168339815191528d098260008051602061cab68339815191528d098360008051602061c8568339815191528d0901010106016020528a82808060008051602061c83683398151915285099260008051602061c9b683398151915290098160008051602061c9568339815191528d098260008051602061c9168339815191528d098360008051602061c7d68339815191528d0901010106016080528a82808060008051602061c7f683398151915285099260008051602061c8f683398151915290098160008051602061c8968339815191528d098260008051602061ca768339815191528d098360008051602061cad68339815191528d09010101060160a05260008051602061c87683398151915290099860008051602061c81683398151915290099560008051602061c99683398151915290099360008051602061ca3683398151915290099160008051602061c9f68339815191529009010101060160c052565b60805160008051602061c93683398151915290067f0554d736315b8662f02fdba7dd737fbca197aeb12ea64713ba733f28475128cb0160a05160008051602061c93683398151915290067f2f83b9df259b2b68bcd748056307c37754907df0c0fb0035f5087c58d5e8c2d40160c05160008051602061c93683398151915290067f2ca70e2e8d7f39a12447ac83052451b461f15f8b41a75ef31915208f5aba9683019060e05160008051602061c93683398151915290067f1cb5f9319be6a45e91b04d7222271c94994196f12ed22c5d4ec719cb83ecfea9019260008051602061c9368339815191528180099160008051602061c9368339815191528180099360008051602061c9368339815191528180099560008051602061c9368339815191528180098160008051602061c9368339815191528280099060008051602061c936833981519152910960008051602061c9d683398151915260008051602061c93683398151915291098360008051602061c9368339815191528a80099060008051602061c936833981519152910960008051602061c8b683398151915260008051602061c93683398151915291098560008051602061c9368339815191528a80099060008051602061c936833981519152910960008051602061ca5683398151915260008051602061c93683398151915291098760008051602061c9368339815191528a80099060008051602061c936833981519152910960008051602061c97683398151915260008051602061c936833981519152910901017f1282bc78005ba97a80ccae28ce172790ca301e19e52354333993891b9fd27bd40160008051602061c9368339815191529006016000528160008051602061c9368339815191528280099060008051602061c936833981519152910960008051602061caf683398151915260008051602061c93683398151915291098360008051602061c9368339815191528a80099060008051602061c936833981519152910960008051602061c8d683398151915260008051602061c93683398151915291098560008051602061c9368339815191528a80099060008051602061c936833981519152910960008051602061ca1683398151915260008051602061c93683398151915291098760008051602061c9368339815191528a80099060008051602061c936833981519152910960008051602061cab683398151915260008051602061c936833981519152910901017f25ce673773c90bcab91ecf14a691cbc59aeff5abfff4cfc7c6a85d51a79468fa0160008051602061c9368339815191529006016020528160008051602061c9368339815191528280099060008051602061c936833981519152910960008051602061c83683398151915260008051602061c93683398151915291098360008051602061c9368339815191528a80099060008051602061c936833981519152910960008051602061c9b683398151915260008051602061c93683398151915291098560008051602061c9368339815191528a80099060008051602061c936833981519152910960008051602061c95683398151915260008051602061c93683398151915291098760008051602061c9368339815191528a80099060008051602061c936833981519152910960008051602061c91683398151915260008051602061c936833981519152910901017f2933f130a05a81186977481f40b428b2fa98c4a8f2561aad43098fb380f746b70160008051602061c9368339815191529006016080528160008051602061c9368339815191528280099060008051602061c936833981519152910960008051602061c7f683398151915260008051602061c93683398151915291098360008051602061c9368339815191528a80099060008051602061c936833981519152910960008051602061c8f683398151915260008051602061c93683398151915291098560008051602061c9368339815191528a80099060008051602061c936833981519152910960008051602061c89683398151915260008051602061c93683398151915291098760008051602061c9368339815191528a80099060008051602061c936833981519152910960008051602061ca7683398151915260008051602061c936833981519152910901017f178f5c848248d8ae30d9d4e6c27ec06995bba97b9d0ab13bb7b63e121958133e0160008051602061c93683398151915290060160a0528060008051602061c93683398151915291099060008051602061c936833981519152910960008051602061c87683398151915260008051602061c9368339815191529109958060008051602061c93683398151915291099060008051602061c936833981519152910960008051602061c81683398151915260008051602061c9368339815191529109938060008051602061c93683398151915291099060008051602061c936833981519152910960008051602061c99683398151915260008051602061c9368339815191529109918060008051602061c93683398151915291099060008051602061c936833981519152910960008051602061ca3683398151915260008051602061c936833981519152910901017f1f52dac6047456323348e214a18a3aad024561b12c7ca045cd2484b9d4ffe3c00160008051602061c93683398151915290060160c05261c2e961a960565b61c2f161ac5a565b61c2f961af54565b61c30161006c565b61c30961033d565b61c31161060e565b61c3196108df565b61c321610baf565b61c329610e80565b61c331611151565b61c339611422565b61c3416116f3565b61c3496119c4565b61c351611c95565b61c359611f66565b61c361612237565b61c369612508565b61c3716127d9565b61c379612aaa565b61c381612d7b565b61c38961304c565b61c39161331d565b61c3996135ee565b61c3a16138bf565b61c3a9613b8e565b61c3b1613e5f565b61c3b9614130565b61c3c1614401565b61c3c96146d2565b61c3d16149a2565b61c3d9614c73565b61c3e1614f44565b61c3e9615215565b61c3f16154e6565b61c3f96157b7565b61c401615a88565b61c409615d59565b61c41161602a565b61c4196162fb565b61c4216165cc565b61c42961689d565b61c431616b6e565b61c439616e3f565b61c441617110565b61c4496173e0565b61c4516176b1565b61c459617982565b61c461617c52565b61c469617f22565b61c4716181f3565b61c4796184c4565b61c481618795565b61c489618a66565b61c491618d37565b61c499619008565b61c4a16192d9565b61c4a96195aa565b61c4b161987b565b61c4b9619b4c565b61c4c1619e1c565b61c4c961a0ed565b61c4d161a3be565b61c4d961a68f565b61c4e161b24e565b61c4e961b548565b61c4f161b842565b6000517f2036efb6f9830965eb3d7a068bd087c9f5adf251ba62052c652738e63ff8b3af016020517f0c712a975b74dc9d766b639a029969ca30be4f75a753f854b00fa4f1b4f4ee9b016080517f08014dab3cd1667e27afc99bfac1e6807afdff6456492ca3375731d387539699019060a0517f198d07192db4fac2a82a4a79839d6a2b97c4dd4d37b4e8f3b53009f79b34e6a4019260c0517f29eb1de42a3ad381b23b4131426897a32709b29d53bb946dfd15784d1f63e5720160008051602061c9368339815191528180098060008051602061c93683398151915291099060008051602061c936833981519152910960008051602061c9d683398151915260008051602061c93683398151915291099360008051602061c93683398151915281800960008051602061c9368339815191528280099060008051602061c93683398151915291099060008051602061c936833981519152910960008051602061c8b683398151915260008051602061c93683398151915291099260008051602061c93683398151915281800960008051602061c9368339815191528280099060008051602061c93683398151915291099060008051602061c936833981519152910960008051602061ca5683398151915260008051602061c93683398151915291099160008051602061c93683398151915281800960008051602061c9368339815191528280099060008051602061c93683398151915291099060008051602061c936833981519152910960008051602061c97683398151915260008051602061c93683398151915291099060008051602061c93683398151915281800960008051602061c9368339815191528280099060008051602061c93683398151915291099060008051602061c936833981519152910960008051602061ca9683398151915260008051602061c936833981519152910901010160008051602061c93683398151915290060160008051602061c936833981519152900660005260206000f3fe2f69a7198e1fbcc7dea43265306a37ed55b91bff652ad69aa4fa8478970d401d07f017a7ebd56dd086f7cd4fd710c509ed7ef8e300b9a8bb9fb9f28af710251f2d3a1aea2e6d44466808f88c9ba903d3bdcb6b58ba40441ed4ebcf11bbe1e37b2efc2b90d688134849018222e7b8922eaf67ce79816ef468531ec2de53bbd1672a70b9f1d4bbccdbc03e17c1d1dcdb02052903dc6609ea6969f661b2eb74c83914074bb14c982c81c9ad171e4f35fe49b39c4a7a72dbb6d9c98d803bfed65e641c482a25a729f5df20225815034b196098364a11f4d988fb7cc75cf32d8136fa104d0295ab00c85e960111ac25da474366599e575a9b7edf6145f14ba6d3c1c421888041e6febd546d427c890b1883bb9b626d8cb4dc18dcc4ec8fa75e530a132625ce48a7b39a4252732624e4ab94360812ac2fc9a14a5fb8b607ae9fd8514a001c1edd62645b73ad931ab80e37bbb267ba312b34140e716d6a3747594d305230644e72e131a029b85045b68181585d2833e84879b9709143e1f593f000000115b98ce93e47bc64ce2f2c96c69663c439c40c603049466fa7f9a4b228bfc32b25fb50b65acf4fb047cbd3b1c17d97c7fe26ea9ca238d6e348550486e91c776502ecac687ef5b4b568002bd9d1b96b4bef357a69e3e86b5561b9299b82d69c8e12c7e2adfa524e5958f65be2fbac809fcba8458b28e44d9265051de33163cf9c0aaa35e2c84baf117dea3e336cd96a39792b3813954fe9bf3ed5b90f2f69c9772a20e3a4a0e57d92f97c9d6186c6c3ea7c5e55c20146259be2f78c2ccc2e359528c2be2f8264f95f0b53c732134efa338ccd8fdb9ee2b45fb86a894f7db36c371049f8210566b51faafb1e9a5d63c0ee701673aed820d9c4403b01feb727a549293d617d7da72102355f39ebf62f91b06deb5325f367a4556ea1e31ed57678330dec54e6dbf75205fa75ba7992bd34f08b2efe2ecd424a73eda7784320a1a36e251e7fdf99591080080b0af133b9e4369f22e57ace3cd7f64fc6fdbcf38d7da1281154651c921e746315a9934f1b8a1bba9f92ad8ef4b979115b8e2e991ccd7a0c3f050a6bf5af151981e55e3e1a29a13c3ffa4550bd2514f1afd6c5f721f83014ddb5fada0171db80195b9592d8cf2be810930e3ea4574a350d65e2cbff4941a26469706673582212203b415e1b9964fa038e8224b73abdcd9a82dfaef7820cd51b1ddc9ebac13e5e6b64736f6c63430008180033",
  "linkReferences": {},
  "deployedLinkReferences": {}
}